{
  "contractName": "BlockOracle",
  "abi": [
    {
      "inputs": [],
      "name": "BlockHashNotPresent",
      "type": "error"
    },
    {
      "anonymous": false,
      "inputs": [
        {
          "indexed": true,
          "internalType": "uint256",
          "name": "blockNumber",
          "type": "uint256"
        },
        {
          "indexed": true,
          "internalType": "Hash",
          "name": "blockHash",
          "type": "bytes32"
        },
        {
          "indexed": true,
          "internalType": "Timestamp",
          "name": "childTimestamp",
          "type": "uint64"
        }
      ],
      "name": "Checkpoint",
      "type": "event"
    },
    {
      "inputs": [
        {
          "internalType": "uint256",
          "name": "_blockNumber",
          "type": "uint256"
        }
      ],
      "name": "load",
      "outputs": [
        {
          "components": [
            {
              "internalType": "Hash",
              "name": "hash",
              "type": "bytes32"
            },
            {
              "internalType": "Timestamp",
              "name": "childTimestamp",
              "type": "uint64"
            }
          ],
          "internalType": "struct BlockOracle.BlockInfo",
          "name": "blockInfo_",
          "type": "tuple"
        }
      ],
      "stateMutability": "view",
      "type": "function"
    },
    {
      "inputs": [],
      "name": "checkpoint",
      "outputs": [
        {
          "internalType": "uint256",
          "name": "blockNumber_",
          "type": "uint256"
        }
      ],
      "stateMutability": "nonpayable",
      "type": "function"
    }
  ],
  "bytecode": "0x608060405234801561001057600080fd5b5061040e806100206000396000f3fe608060405234801561001057600080fd5b50600436106100365760003560e01c806399d548aa1461003b578063c2c4c5c11461006b575b600080fd5b6100556004803603810190610050919061025a565b610089565b6040516100629190610330565b60405180910390f35b610073610131565b604051610080919061035a565b60405180910390f35b6100916101f8565b600080838152602001908152602001600020604051806040016040529081600082015481526020016001820160009054906101000a900467ffffffffffffffff1667ffffffffffffffff1667ffffffffffffffff168152505090506000801b81600001510361012c576040517f37cf270500000000000000000000000000000000000000000000000000000000815260040160405180910390fd5b919050565b600060014361014091906103a4565b9050600081409050600042905060405180604001604052808381526020018267ffffffffffffffff168152506000808581526020019081526020016000206000820151816000015560208201518160010160006101000a81548167ffffffffffffffff021916908367ffffffffffffffff1602179055509050508067ffffffffffffffff1682847fb67ff58b33060fd371a35ae2d9f1c3cdaec9b8197969f6efe2594a1ff4ba68c660405160405180910390a4505090565b604051806040016040528060008019168152602001600067ffffffffffffffff1681525090565b600080fd5b6000819050919050565b61023781610224565b811461024257600080fd5b50565b6000813590506102548161022e565b92915050565b6000602082840312156102705761026f61021f565b5b600061027e84828501610245565b91505092915050565b6000819050919050565b600061029c82610287565b9050919050565b6102ac81610291565b82525050565b600067ffffffffffffffff82169050919050565b6000819050919050565b60006102eb6102e66102e1846102b2565b6102c6565b6102b2565b9050919050565b6102fb816102d0565b82525050565b60408201600082015161031760008501826102a3565b50602082015161032a60208501826102f2565b50505050565b60006040820190506103456000830184610301565b92915050565b61035481610224565b82525050565b600060208201905061036f600083018461034b565b92915050565b7f4e487b7100000000000000000000000000000000000000000000000000000000600052601160045260246000fd5b60006103af82610224565b91506103ba83610224565b9250828210156103cd576103cc610375565b5b82820390509291505056fea26469706673582212203db4e95709b0a00202c298284a5f8fa7c2b88810fe88515c02d0ad3f26374fb064736f6c634300080f0033",
  "immutableReferences": {},
  "source": "// SPDX-License-Identifier: MIT\npragma solidity 0.8.15;\n\nimport \"../libraries/DisputeTypes.sol\";\nimport \"../libraries/DisputeErrors.sol\";\n\n/// @title BlockOracle\n/// @notice Stores a map of block numbers => block hashes for use in dispute resolution\ncontract BlockOracle {\n    /// @notice The BlockInfo struct contains a block's hash and child timestamp.\n    struct BlockInfo {\n        Hash hash;\n        Timestamp childTimestamp;\n    }\n\n    /// @notice Emitted when a block is checkpointed.\n    event Checkpoint(\n        uint256 indexed blockNumber,\n        Hash indexed blockHash,\n        Timestamp indexed childTimestamp\n    );\n\n    /// @notice Maps block numbers to block hashes and timestamps\n    mapping(uint256 => BlockInfo) internal blocks;\n\n    /// @notice Loads a block hash for a given block number, assuming that the block number\n    ///         has been stored in the oracle.\n    /// @param _blockNumber The block number to load the block hash and timestamp for.\n    /// @return blockInfo_ The block hash and timestamp for the given block number.\n    function load(uint256 _blockNumber) external view returns (BlockInfo memory blockInfo_) {\n        blockInfo_ = blocks[_blockNumber];\n        if (Hash.unwrap(blockInfo_.hash) == 0) revert BlockHashNotPresent();\n    }\n\n    /// @notice Stores a block hash for the previous block number.\n    /// @return blockNumber_ The block number that was checkpointed, which is always\n    ///                      `block.number - 1`.\n    function checkpoint() external returns (uint256 blockNumber_) {\n        // SAFETY: This block hash will always be accessible by the `BLOCKHASH` opcode,\n        //         and in the case of `block.number = 0`, we'll underflow.\n        // Persist the block information.\n        blockNumber_ = block.number - 1;\n        Hash blockHash = Hash.wrap(blockhash(blockNumber_));\n        Timestamp childTimestamp = Timestamp.wrap(uint64(block.timestamp));\n\n        blocks[blockNumber_] = BlockInfo({ hash: blockHash, childTimestamp: childTimestamp });\n\n        emit Checkpoint(blockNumber_, blockHash, childTimestamp);\n    }\n}\n",
  "sourcePath": "@eth-optimism/contracts-bedrock/src/dispute/BlockOracle.sol",
  "compiler": {
    "name": "solc",
    "version": "0.8.15+commit.e14f2714.Emscripten.clang"
  },
  "schemaVersion": "3.4.14",
  "updatedAt": "2023-08-04T03:28:37.487Z",
  "devdoc": {
    "kind": "dev",
    "methods": {
      "checkpoint()": {
        "returns": {
          "blockNumber_": "The block number that was checkpointed, which is always                      `block.number - 1`."
        }
      },
      "load(uint256)": {
        "params": {
          "_blockNumber": "The block number to load the block hash and timestamp for."
        },
        "returns": {
          "blockInfo_": "The block hash and timestamp for the given block number."
        }
      }
    },
    "title": "BlockOracle",
    "version": 1
  },
  "userdoc": {
    "errors": {
      "BlockHashNotPresent()": [
        {
          "notice": "Thrown when a block hash is attempted to be loaded that has not been stored."
        }
      ]
    },
    "events": {
      "Checkpoint(uint256,bytes32,uint64)": {
        "notice": "Emitted when a block is checkpointed."
      }
    },
    "kind": "user",
    "methods": {
      "checkpoint()": {
        "notice": "Stores a block hash for the previous block number."
      },
      "load(uint256)": {
        "notice": "Loads a block hash for a given block number, assuming that the block number         has been stored in the oracle."
      }
    },
    "notice": "Stores a map of block numbers => block hashes for use in dispute resolution",
    "version": 1
  }
}