{
  "contractName": "DisputeGameFactory",
  "abi": [
    {
      "inputs": [],
      "stateMutability": "nonpayable",
      "type": "constructor"
    },
    {
      "inputs": [],
      "name": "CreateFail",
      "type": "error"
    },
    {
      "inputs": [
        {
          "internalType": "Hash",
          "name": "uuid",
          "type": "bytes32"
        }
      ],
      "name": "GameAlreadyExists",
      "type": "error"
    },
    {
      "inputs": [
        {
          "internalType": "GameType",
          "name": "gameType",
          "type": "uint8"
        }
      ],
      "name": "NoImplementation",
      "type": "error"
    },
    {
      "anonymous": false,
      "inputs": [
        {
          "indexed": true,
          "internalType": "address",
          "name": "disputeProxy",
          "type": "address"
        },
        {
          "indexed": true,
          "internalType": "GameType",
          "name": "gameType",
          "type": "uint8"
        },
        {
          "indexed": true,
          "internalType": "Claim",
          "name": "rootClaim",
          "type": "bytes32"
        }
      ],
      "name": "DisputeGameCreated",
      "type": "event"
    },
    {
      "anonymous": false,
      "inputs": [
        {
          "indexed": true,
          "internalType": "address",
          "name": "impl",
          "type": "address"
        },
        {
          "indexed": true,
          "internalType": "GameType",
          "name": "gameType",
          "type": "uint8"
        }
      ],
      "name": "ImplementationSet",
      "type": "event"
    },
    {
      "anonymous": false,
      "inputs": [
        {
          "indexed": false,
          "internalType": "uint8",
          "name": "version",
          "type": "uint8"
        }
      ],
      "name": "Initialized",
      "type": "event"
    },
    {
      "anonymous": false,
      "inputs": [
        {
          "indexed": true,
          "internalType": "address",
          "name": "previousOwner",
          "type": "address"
        },
        {
          "indexed": true,
          "internalType": "address",
          "name": "newOwner",
          "type": "address"
        }
      ],
      "name": "OwnershipTransferred",
      "type": "event"
    },
    {
      "inputs": [
        {
          "internalType": "GameType",
          "name": "",
          "type": "uint8"
        }
      ],
      "name": "gameImpls",
      "outputs": [
        {
          "internalType": "contract IDisputeGame",
          "name": "",
          "type": "address"
        }
      ],
      "stateMutability": "view",
      "type": "function",
      "constant": true
    },
    {
      "inputs": [],
      "name": "owner",
      "outputs": [
        {
          "internalType": "address",
          "name": "",
          "type": "address"
        }
      ],
      "stateMutability": "view",
      "type": "function",
      "constant": true
    },
    {
      "inputs": [],
      "name": "renounceOwnership",
      "outputs": [],
      "stateMutability": "nonpayable",
      "type": "function"
    },
    {
      "inputs": [
        {
          "internalType": "address",
          "name": "newOwner",
          "type": "address"
        }
      ],
      "name": "transferOwnership",
      "outputs": [],
      "stateMutability": "nonpayable",
      "type": "function"
    },
    {
      "inputs": [],
      "name": "version",
      "outputs": [
        {
          "internalType": "string",
          "name": "",
          "type": "string"
        }
      ],
      "stateMutability": "view",
      "type": "function",
      "constant": true
    },
    {
      "inputs": [
        {
          "internalType": "address",
          "name": "_owner",
          "type": "address"
        }
      ],
      "name": "initialize",
      "outputs": [],
      "stateMutability": "nonpayable",
      "type": "function"
    },
    {
      "inputs": [],
      "name": "gameCount",
      "outputs": [
        {
          "internalType": "uint256",
          "name": "gameCount_",
          "type": "uint256"
        }
      ],
      "stateMutability": "view",
      "type": "function",
      "constant": true
    },
    {
      "inputs": [
        {
          "internalType": "GameType",
          "name": "_gameType",
          "type": "uint8"
        },
        {
          "internalType": "Claim",
          "name": "_rootClaim",
          "type": "bytes32"
        },
        {
          "internalType": "bytes",
          "name": "_extraData",
          "type": "bytes"
        }
      ],
      "name": "games",
      "outputs": [
        {
          "internalType": "contract IDisputeGame",
          "name": "proxy_",
          "type": "address"
        },
        {
          "internalType": "uint256",
          "name": "timestamp_",
          "type": "uint256"
        }
      ],
      "stateMutability": "view",
      "type": "function",
      "constant": true
    },
    {
      "inputs": [
        {
          "internalType": "uint256",
          "name": "_index",
          "type": "uint256"
        }
      ],
      "name": "gameAtIndex",
      "outputs": [
        {
          "internalType": "contract IDisputeGame",
          "name": "proxy_",
          "type": "address"
        },
        {
          "internalType": "uint256",
          "name": "timestamp_",
          "type": "uint256"
        }
      ],
      "stateMutability": "view",
      "type": "function",
      "constant": true
    },
    {
      "inputs": [
        {
          "internalType": "GameType",
          "name": "gameType",
          "type": "uint8"
        },
        {
          "internalType": "Claim",
          "name": "rootClaim",
          "type": "bytes32"
        },
        {
          "internalType": "bytes",
          "name": "extraData",
          "type": "bytes"
        }
      ],
      "name": "create",
      "outputs": [
        {
          "internalType": "contract IDisputeGame",
          "name": "proxy",
          "type": "address"
        }
      ],
      "stateMutability": "nonpayable",
      "type": "function"
    },
    {
      "inputs": [
        {
          "internalType": "GameType",
          "name": "gameType",
          "type": "uint8"
        },
        {
          "internalType": "Claim",
          "name": "rootClaim",
          "type": "bytes32"
        },
        {
          "internalType": "bytes",
          "name": "extraData",
          "type": "bytes"
        }
      ],
      "name": "getGameUUID",
      "outputs": [
        {
          "internalType": "Hash",
          "name": "_uuid",
          "type": "bytes32"
        }
      ],
      "stateMutability": "pure",
      "type": "function",
      "constant": true
    },
    {
      "inputs": [
        {
          "internalType": "GameType",
          "name": "gameType",
          "type": "uint8"
        },
        {
          "internalType": "contract IDisputeGame",
          "name": "impl",
          "type": "address"
        }
      ],
      "name": "setImplementation",
      "outputs": [],
      "stateMutability": "nonpayable",
      "type": "function"
    }
  ],
  "bytecode": "0x60e06040523480156200001157600080fd5b50600080600282608081815250508160a081815250508060c0818152505050505062000043336200004960201b60201c565b62000539565b60008060019054906101000a900460ff161590508080156200007b5750600160008054906101000a900460ff1660ff16105b80620000b757506200009830620001b860201b620009bf1760201c565b158015620000b65750600160008054906101000a900460ff1660ff16145b5b620000f9576040517f08c379a0000000000000000000000000000000000000000000000000000000008152600401620000f09062000408565b60405180910390fd5b60016000806101000a81548160ff021916908360ff160217905550801562000137576001600060016101000a81548160ff0219169083151502179055505b62000147620001db60201b60201c565b62000158826200023f60201b60201c565b8015620001b45760008060016101000a81548160ff0219169083151502179055507f7f26b83ff96e1f2b6a682f133852f6798a09c465da95921460cefb38474024986001604051620001ab919062000484565b60405180910390a15b5050565b6000808273ffffffffffffffffffffffffffffffffffffffff163b119050919050565b600060019054906101000a900460ff166200022d576040517f08c379a0000000000000000000000000000000000000000000000000000000008152600401620002249062000517565b60405180910390fd5b6200023d6200030560201b60201c565b565b6000603360009054906101000a900473ffffffffffffffffffffffffffffffffffffffff16905081603360006101000a81548173ffffffffffffffffffffffffffffffffffffffff021916908373ffffffffffffffffffffffffffffffffffffffff1602179055508173ffffffffffffffffffffffffffffffffffffffff168173ffffffffffffffffffffffffffffffffffffffff167f8be0079c531659141344cd1fd0a4f28419497f9722a3daafe3b4186f6b6457e060405160405180910390a35050565b600060019054906101000a900460ff1662000357576040517f08c379a00000000000000000000000000000000000000000000000000000000081526004016200034e9062000517565b60405180910390fd5b620003776200036b6200037960201b60201c565b6200023f60201b60201c565b565b600033905090565b600082825260208201905092915050565b7f496e697469616c697a61626c653a20636f6e747261637420697320616c72656160008201527f647920696e697469616c697a6564000000000000000000000000000000000000602082015250565b6000620003f0602e8362000381565b9150620003fd8262000392565b604082019050919050565b600060208201905081810360008301526200042381620003e1565b9050919050565b6000819050919050565b600060ff82169050919050565b6000819050919050565b60006200046c6200046662000460846200042a565b62000441565b62000434565b9050919050565b6200047e816200044b565b82525050565b60006020820190506200049b600083018462000473565b92915050565b7f496e697469616c697a61626c653a20636f6e7472616374206973206e6f74206960008201527f6e697469616c697a696e67000000000000000000000000000000000000000000602082015250565b6000620004ff602b8362000381565b91506200050c82620004a1565b604082019050919050565b600060208201905081810360008301526200053281620004f0565b9050919050565b60805160a05160c051611c066200056960003960006106640152600061063b015260006106120152611c066000f3fe608060405234801561001057600080fd5b50600436106100b45760003560e01c80638da5cb5b116100715780638da5cb5b1461017b578063bb8aa1fc14610199578063c49d5271146101ca578063c4d66de8146101fb578063dfa162d314610217578063f2fde38b14610247576100b4565b806326daafbe146100b95780633142e55e146100e957806345583b7a146101195780634d1975b41461013557806354fd4d5014610153578063715018a614610171575b600080fd5b6100d360048036038101906100ce9190611148565b610263565b6040516100e091906111d8565b60405180910390f35b61010360048036038101906100fe9190611253565b6102a6565b6040516101109190611346565b60405180910390f35b610133600480360381019061012e91906113b1565b610553565b005b61013d6105fe565b60405161014a919061140a565b60405180910390f35b61015b61060b565b60405161016891906114ad565b60405180910390f35b6101796106ae565b005b6101836106c2565b60405161019091906114de565b60405180910390f35b6101b360048036038101906101ae9190611525565b6106ec565b6040516101c1929190611552565b60405180910390f35b6101e460048036038101906101df9190611253565b610730565b6040516101f2929190611552565b60405180910390f35b610215600480360381019061021091906115a7565b6107c1565b005b610231600480360381019061022c91906115d4565b610909565b60405161023e9190611346565b60405180910390f35b610261600480360381019061025c91906115a7565b61093c565b005b600060608203602081016020810182518251825189865288855260608452601f19609f895101168087209750838752828652818552505050505050509392505050565b600080606560008760ff1660ff16815260200190815260200160002060009054906101000a900473ffffffffffffffffffffffffffffffffffffffff169050600073ffffffffffffffffffffffffffffffffffffffff168173ffffffffffffffffffffffffffffffffffffffff160361035657856040517f44265d6f00000000000000000000000000000000000000000000000000000000815260040161034d9190611632565b60405180910390fd5b6103a285858560405160200161036e9392919061169e565b6040516020818303038152906040528273ffffffffffffffffffffffffffffffffffffffff166109e290919063ffffffff16565b91508173ffffffffffffffffffffffffffffffffffffffff16638129fc1c6040518163ffffffff1660e01b8152600401600060405180830381600087803b1580156103ec57600080fd5b505af1158015610400573d6000803e3d6000fd5b505050506000610455878787878080601f016020809104026020016040519081016040528093929190818152602001838380828437600081840152601f19601f82011690508083019250505050505050610263565b90506000801b6066600083815260200190815260200160002054146104b157806040517f014f6fe50000000000000000000000000000000000000000000000000000000081526004016104a891906111d8565b60405180910390fd5b60006104bd8442610be2565b90508060666000848152602001908152602001600020819055506067819080600181540180825580915050600190039060005260206000200160009091909190915055868860ff168573ffffffffffffffffffffffffffffffffffffffff167ffad0599ff449d8d9685eadecca8cb9e00924c5fd8367c1c09469824939e1ffec60405160405180910390a4505050949350505050565b61055b610bf2565b80606560008460ff1660ff16815260200190815260200160002060006101000a81548173ffffffffffffffffffffffffffffffffffffffff021916908373ffffffffffffffffffffffffffffffffffffffff1602179055508160ff168173ffffffffffffffffffffffffffffffffffffffff167f623713f72f6e427a8044bb8b3bd6834357cf285decbaa21bcc73c1d0632c4d8460405160405180910390a35050565b6000606780549050905090565b60606106367f0000000000000000000000000000000000000000000000000000000000000000610c70565b61065f7f0000000000000000000000000000000000000000000000000000000000000000610c70565b6106887f0000000000000000000000000000000000000000000000000000000000000000610c70565b60405160200161069a93929190611750565b604051602081830303815290604052905090565b6106b6610bf2565b6106c06000610dd0565b565b6000603360009054906101000a900473ffffffffffffffffffffffffffffffffffffffff16905090565b60008060006067848154811061070557610704611797565b5b9060005260206000200154905060008061071e83610e96565b91509150819450809350505050915091565b6000806000610784878787878080601f016020809104026020016040519081016040528093929190818152602001838380828437600081840152601f19601f82011690508083019250505050505050610263565b90506000606660008381526020019081526020016000205490506000806107aa83610e96565b915091508195508094505050505094509492505050565b60008060019054906101000a900460ff161590508080156107f25750600160008054906101000a900460ff1660ff16105b8061081f5750610801306109bf565b15801561081e5750600160008054906101000a900460ff1660ff16145b5b61085e576040517f08c379a000000000000000000000000000000000000000000000000000000000815260040161085590611838565b60405180910390fd5b60016000806101000a81548160ff021916908360ff160217905550801561089b576001600060016101000a81548160ff0219169083151502179055505b6108a3610ebd565b6108ac82610dd0565b80156109055760008060016101000a81548160ff0219169083151502179055507f7f26b83ff96e1f2b6a682f133852f6798a09c465da95921460cefb384740249860016040516108fc9190611893565b60405180910390a15b5050565b60656020528060005260406000206000915054906101000a900473ffffffffffffffffffffffffffffffffffffffff1681565b610944610bf2565b600073ffffffffffffffffffffffffffffffffffffffff168173ffffffffffffffffffffffffffffffffffffffff16036109b3576040517f08c379a00000000000000000000000000000000000000000000000000000000081526004016109aa90611920565b60405180910390fd5b6109bc81610dd0565b50565b6000808273ffffffffffffffffffffffffffffffffffffffff163b119050919050565b6000806002835101905060008160430190506000600b8203905060008060405190507f3d6100000000000000000000000000000000000000000000000000000000000081528260f01b60028201527f80600b3d3981f30000000000000000000000000000000000000000000000000060048201527f363d3d3761000000000000000000000000000000000000000000000000000000600b8201528460f01b60108201527f603836393d3d3d3661000000000000000000000000000000000000000000000060128201528460f01b601b8201527f013d730000000000000000000000000000000000000000000000000000000000601d8201528760601b60208201527f5af43d82803e903d91603657fd5bf300000000000000000000000000000000006034820152600285039450600085905060006043830190506020890193505b60208210610b465783518152602081019050602084019350602082039150610b23565b60006001836020036101000a0319905080855116825282820191508760f01b825286846000f09850600073ffffffffffffffffffffffffffffffffffffffff168973ffffffffffffffffffffffffffffffffffffffff1603610bd4576040517febfef18800000000000000000000000000000000000000000000000000000000815260040160405180910390fd5b505050505050505092915050565b6000828260a01b17905092915050565b610bfa610f16565b73ffffffffffffffffffffffffffffffffffffffff16610c186106c2565b73ffffffffffffffffffffffffffffffffffffffff1614610c6e576040517f08c379a0000000000000000000000000000000000000000000000000000000008152600401610c659061198c565b60405180910390fd5b565b606060008203610cb7576040518060400160405280600181526020017f30000000000000000000000000000000000000000000000000000000000000008152509050610dcb565b600082905060005b60008214610ce9578080610cd2906119db565b915050600a82610ce29190611a52565b9150610cbf565b60008167ffffffffffffffff811115610d0557610d0461101d565b5b6040519080825280601f01601f191660200182016040528015610d375781602001600182028036833780820191505090505b5090505b60008514610dc457600182610d509190611a83565b9150600a85610d5f9190611ab7565b6030610d6b9190611ae8565b60f81b818381518110610d8157610d80611797565b5b60200101907effffffffffffffffffffffffffffffffffffffffffffffffffffffffffffff1916908160001a905350600a85610dbd9190611a52565b9450610d3b565b8093505050505b919050565b6000603360009054906101000a900473ffffffffffffffffffffffffffffffffffffffff16905081603360006101000a81548173ffffffffffffffffffffffffffffffffffffffff021916908373ffffffffffffffffffffffffffffffffffffffff1602179055508173ffffffffffffffffffffffffffffffffffffffff168173ffffffffffffffffffffffffffffffffffffffff167f8be0079c531659141344cd1fd0a4f28419497f9722a3daafe3b4186f6b6457e060405160405180910390a35050565b60008073ffffffffffffffffffffffffffffffffffffffff831691508260a01c9050915091565b600060019054906101000a900460ff16610f0c576040517f08c379a0000000000000000000000000000000000000000000000000000000008152600401610f0390611bb0565b60405180910390fd5b610f14610f1e565b565b600033905090565b600060019054906101000a900460ff16610f6d576040517f08c379a0000000000000000000000000000000000000000000000000000000008152600401610f6490611bb0565b60405180910390fd5b610f7d610f78610f16565b610dd0565b565b6000604051905090565b600080fd5b600080fd5b600060ff82169050919050565b610fa981610f93565b8114610fb457600080fd5b50565b600081359050610fc681610fa0565b92915050565b6000819050919050565b610fdf81610fcc565b8114610fea57600080fd5b50565b600081359050610ffc81610fd6565b92915050565b600080fd5b600080fd5b6000601f19601f8301169050919050565b7f4e487b7100000000000000000000000000000000000000000000000000000000600052604160045260246000fd5b6110558261100c565b810181811067ffffffffffffffff821117156110745761107361101d565b5b80604052505050565b6000611087610f7f565b9050611093828261104c565b919050565b600067ffffffffffffffff8211156110b3576110b261101d565b5b6110bc8261100c565b9050602081019050919050565b82818337600083830152505050565b60006110eb6110e684611098565b61107d565b90508281526020810184848401111561110757611106611007565b5b6111128482856110c9565b509392505050565b600082601f83011261112f5761112e611002565b5b813561113f8482602086016110d8565b91505092915050565b60008060006060848603121561116157611160610f89565b5b600061116f86828701610fb7565b935050602061118086828701610fed565b925050604084013567ffffffffffffffff8111156111a1576111a0610f8e565b5b6111ad8682870161111a565b9150509250925092565b60006111c282610fcc565b9050919050565b6111d2816111b7565b82525050565b60006020820190506111ed60008301846111c9565b92915050565b600080fd5b600080fd5b60008083601f84011261121357611212611002565b5b8235905067ffffffffffffffff8111156112305761122f6111f3565b5b60208301915083600182028301111561124c5761124b6111f8565b5b9250929050565b6000806000806060858703121561126d5761126c610f89565b5b600061127b87828801610fb7565b945050602061128c87828801610fed565b935050604085013567ffffffffffffffff8111156112ad576112ac610f8e565b5b6112b9878288016111fd565b925092505092959194509250565b600073ffffffffffffffffffffffffffffffffffffffff82169050919050565b6000819050919050565b600061130c611307611302846112c7565b6112e7565b6112c7565b9050919050565b600061131e826112f1565b9050919050565b600061133082611313565b9050919050565b61134081611325565b82525050565b600060208201905061135b6000830184611337565b92915050565b600061136c826112c7565b9050919050565b600061137e82611361565b9050919050565b61138e81611373565b811461139957600080fd5b50565b6000813590506113ab81611385565b92915050565b600080604083850312156113c8576113c7610f89565b5b60006113d685828601610fb7565b92505060206113e78582860161139c565b9150509250929050565b6000819050919050565b611404816113f1565b82525050565b600060208201905061141f60008301846113fb565b92915050565b600081519050919050565b600082825260208201905092915050565b60005b8381101561145f578082015181840152602081019050611444565b8381111561146e576000848401525b50505050565b600061147f82611425565b6114898185611430565b9350611499818560208601611441565b6114a28161100c565b840191505092915050565b600060208201905081810360008301526114c78184611474565b905092915050565b6114d881611361565b82525050565b60006020820190506114f360008301846114cf565b92915050565b611502816113f1565b811461150d57600080fd5b50565b60008135905061151f816114f9565b92915050565b60006020828403121561153b5761153a610f89565b5b600061154984828501611510565b91505092915050565b60006040820190506115676000830185611337565b61157460208301846113fb565b9392505050565b61158481611361565b811461158f57600080fd5b50565b6000813590506115a18161157b565b92915050565b6000602082840312156115bd576115bc610f89565b5b60006115cb84828501611592565b91505092915050565b6000602082840312156115ea576115e9610f89565b5b60006115f884828501610fb7565b91505092915050565b600061161c61161761161284610f93565b6112e7565b610f93565b9050919050565b61162c81611601565b82525050565b60006020820190506116476000830184611623565b92915050565b6000819050919050565b611668611663826111b7565b61164d565b82525050565b600081905092915050565b6000611685838561166e565b93506116928385846110c9565b82840190509392505050565b60006116aa8286611657565b6020820191506116bb828486611679565b9150819050949350505050565b600081905092915050565b60006116de82611425565b6116e881856116c8565b93506116f8818560208601611441565b80840191505092915050565b7f2e00000000000000000000000000000000000000000000000000000000000000600082015250565b600061173a6001836116c8565b915061174582611704565b600182019050919050565b600061175c82866116d3565b91506117678261172d565b915061177382856116d3565b915061177e8261172d565b915061178a82846116d3565b9150819050949350505050565b7f4e487b7100000000000000000000000000000000000000000000000000000000600052603260045260246000fd5b7f496e697469616c697a61626c653a20636f6e747261637420697320616c72656160008201527f647920696e697469616c697a6564000000000000000000000000000000000000602082015250565b6000611822602e83611430565b915061182d826117c6565b604082019050919050565b6000602082019050818103600083015261185181611815565b9050919050565b6000819050919050565b600061187d61187861187384611858565b6112e7565b610f93565b9050919050565b61188d81611862565b82525050565b60006020820190506118a86000830184611884565b92915050565b7f4f776e61626c653a206e6577206f776e657220697320746865207a65726f206160008201527f6464726573730000000000000000000000000000000000000000000000000000602082015250565b600061190a602683611430565b9150611915826118ae565b604082019050919050565b60006020820190508181036000830152611939816118fd565b9050919050565b7f4f776e61626c653a2063616c6c6572206973206e6f7420746865206f776e6572600082015250565b6000611976602083611430565b915061198182611940565b602082019050919050565b600060208201905081810360008301526119a581611969565b9050919050565b7f4e487b7100000000000000000000000000000000000000000000000000000000600052601160045260246000fd5b60006119e6826113f1565b91507fffffffffffffffffffffffffffffffffffffffffffffffffffffffffffffffff8203611a1857611a176119ac565b5b600182019050919050565b7f4e487b7100000000000000000000000000000000000000000000000000000000600052601260045260246000fd5b6000611a5d826113f1565b9150611a68836113f1565b925082611a7857611a77611a23565b5b828204905092915050565b6000611a8e826113f1565b9150611a99836113f1565b925082821015611aac57611aab6119ac565b5b828203905092915050565b6000611ac2826113f1565b9150611acd836113f1565b925082611add57611adc611a23565b5b828206905092915050565b6000611af3826113f1565b9150611afe836113f1565b9250827fffffffffffffffffffffffffffffffffffffffffffffffffffffffffffffffff03821115611b3357611b326119ac565b5b828201905092915050565b7f496e697469616c697a61626c653a20636f6e7472616374206973206e6f74206960008201527f6e697469616c697a696e67000000000000000000000000000000000000000000602082015250565b6000611b9a602b83611430565b9150611ba582611b3e565b604082019050919050565b60006020820190508181036000830152611bc981611b8d565b905091905056fea2646970667358221220158437758589a88052e17ff60f5ca7a436b9218dcab6f2e48318ddb3c7f1019d64736f6c634300080f0033",
  "immutableReferences": {
    "988": [
      {
        "length": 32,
        "start": 1554
      }
    ],
    "991": [
      {
        "length": 32,
        "start": 1595
      }
    ],
    "994": [
      {
        "length": 32,
        "start": 1636
      }
    ]
  },
  "source": "// SPDX-License-Identifier: MIT\npragma solidity ^0.8.15;\n\n// IMPORTANT!! This is forked from the Optimism implmentation of DisputeGameFactory.sol and should\n// not be considered as part of the hackathon submission.\n\nimport \"@eth-optimism/contracts-bedrock/src/libraries/DisputeTypes.sol\";\nimport \"@eth-optimism/contracts-bedrock/src/libraries/DisputeErrors.sol\";\nimport { ClonesWithImmutableArgs } from \"clones-with-immutable-args/ClonesWithImmutableArgs.sol\";\nimport {\n    OwnableUpgradeable\n} from \"@openzeppelin/contracts-upgradeable/access/OwnableUpgradeable.sol\";\nimport { Semver } from \"@eth-optimism/contracts-bedrock/src/universal/Semver.sol\";\n\nimport { IDisputeGame } from \"@eth-optimism/contracts-bedrock/src/dispute/interfaces/IDisputeGame.sol\";\nimport { IDisputeGameFactory } from \"@eth-optimism/contracts-bedrock/src/dispute/interfaces/IDisputeGameFactory.sol\";\n\n/// @title DisputeGameFactory\n/// @notice A factory contract for creating `IDisputeGame` contracts. All created dispute games\n///         are stored in both a mapping and an append only array. The timestamp of the creation\n///         time of the dispute game is packed tightly into the storage slot with the address of\n///         the dispute game. This is to make offchain discoverability of playable dispute games\n///         easier.\ncontract DisputeGameFactory is OwnableUpgradeable, IDisputeGameFactory, Semver {\n    /// @dev Allows for the creation of clone proxies with immutable arguments.\n    using ClonesWithImmutableArgs for address;\n\n    /// @inheritdoc IDisputeGameFactory\n    mapping(GameType => IDisputeGame) public gameImpls;\n\n    /// @notice Mapping of a hash of `gameType || rootClaim || extraData` to\n    ///         the deployed `IDisputeGame` clone.\n    /// @dev Note: `||` denotes concatenation.\n    mapping(Hash => GameId) internal _disputeGames;\n\n    /// @notice an append-only array of disputeGames that have been created.\n    /// @dev this accessor is used by offchain game solvers to efficiently\n    ///      track dispute games\n    GameId[] internal _disputeGameList;\n\n    /// @notice constructs a new DisputeGameFactory contract.\n    constructor() OwnableUpgradeable() Semver(0, 0, 2) {\n        initialize(msg.sender);\n    }\n\n    /// @notice Initializes the contract.\n    /// @param _owner The owner of the contract.\n    function initialize(address _owner) public initializer {\n        __Ownable_init();\n        _transferOwnership(_owner);\n    }\n\n    /// @inheritdoc IDisputeGameFactory\n    function gameCount() external view returns (uint256 gameCount_) {\n        gameCount_ = _disputeGameList.length;\n    }\n\n    /// @inheritdoc IDisputeGameFactory\n    function games(\n        GameType _gameType,\n        Claim _rootClaim,\n        bytes calldata _extraData\n    ) external view returns (IDisputeGame proxy_, uint256 timestamp_) {\n        Hash uuid = getGameUUID(_gameType, _rootClaim, _extraData);\n        GameId slot = _disputeGames[uuid];\n        (address addr, uint256 timestamp) = _unpackSlot(slot);\n        proxy_ = IDisputeGame(addr);\n        timestamp_ = timestamp;\n    }\n\n    /// @inheritdoc IDisputeGameFactory\n    function gameAtIndex(uint256 _index)\n        external\n        view\n        returns (IDisputeGame proxy_, uint256 timestamp_)\n    {\n        GameId slot = _disputeGameList[_index];\n        (address addr, uint256 timestamp) = _unpackSlot(slot);\n        proxy_ = IDisputeGame(addr);\n        timestamp_ = timestamp;\n    }\n\n    /// @inheritdoc IDisputeGameFactory\n    function create(\n        GameType gameType,\n        Claim rootClaim,\n        bytes calldata extraData\n    ) external returns (IDisputeGame proxy) {\n        // Grab the implementation contract for the given `GameType`.\n        IDisputeGame impl = gameImpls[gameType];\n\n        // If there is no implementation to clone for the given `GameType`, revert.\n        if (address(impl) == address(0)) {\n            revert NoImplementation(gameType);\n        }\n\n        // Clone the implementation contract and initialize it with the given parameters.\n        proxy = IDisputeGame(address(impl).clone(abi.encodePacked(rootClaim, extraData)));\n        proxy.initialize();\n\n        // Compute the unique identifier for the dispute game.\n        Hash uuid = getGameUUID(gameType, rootClaim, extraData);\n\n        // If a dispute game with the same UUID already exists, revert.\n        if (GameId.unwrap(_disputeGames[uuid]) != bytes32(0)) {\n            revert GameAlreadyExists(uuid);\n        }\n\n        GameId slot = _packSlot(address(proxy), block.timestamp);\n\n        // Store the dispute game in the mapping & emit the `DisputeGameCreated` event.\n        _disputeGames[uuid] = slot;\n        _disputeGameList.push(slot);\n        emit DisputeGameCreated(address(proxy), gameType, rootClaim);\n    }\n\n    /// @inheritdoc IDisputeGameFactory\n    function getGameUUID(\n        GameType gameType,\n        Claim rootClaim,\n        bytes memory extraData\n    ) public pure returns (Hash _uuid) {\n        assembly {\n            // Grab the offsets of the other memory locations we will need to temporarily overwrite.\n            let gameTypeOffset := sub(extraData, 0x60)\n            let rootClaimOffset := add(gameTypeOffset, 0x20)\n            let pointerOffset := add(rootClaimOffset, 0x20)\n\n            // Copy the memory that we will temporarily overwrite onto the stack\n            // so we can restore it later\n            let tempA := mload(gameTypeOffset)\n            let tempB := mload(rootClaimOffset)\n            let tempC := mload(pointerOffset)\n\n            // Overwrite the memory with the data we want to hash\n            mstore(gameTypeOffset, gameType)\n            mstore(rootClaimOffset, rootClaim)\n            mstore(pointerOffset, 0x60)\n\n            // Compute the length of the memory to hash\n            // `0x60 + 0x20 + extraData.length` rounded to the *next* multiple of 32.\n            let hashLen := and(add(mload(extraData), 0x9F), not(0x1F))\n\n            // Hash the memory to produce the UUID digest\n            _uuid := keccak256(gameTypeOffset, hashLen)\n\n            // Restore the memory prior to `extraData`\n            mstore(gameTypeOffset, tempA)\n            mstore(rootClaimOffset, tempB)\n            mstore(pointerOffset, tempC)\n        }\n    }\n\n    /// @inheritdoc IDisputeGameFactory\n    function setImplementation(GameType gameType, IDisputeGame impl) external onlyOwner {\n        gameImpls[gameType] = impl;\n        emit ImplementationSet(address(impl), gameType);\n    }\n\n    /// @dev Packs an address and a uint256 into a single bytes32 slot. This\n    ///      is only safe for up to uint96 values.\n    function _packSlot(address _addr, uint256 _num) internal pure returns (GameId slot_) {\n        assembly {\n            slot_ := or(shl(0xa0, _num), _addr)\n        }\n    }\n\n    /// @dev Unpacks an address and a uint256 from a single bytes32 slot.\n    function _unpackSlot(GameId _slot) internal pure returns (address addr_, uint256 num_) {\n        assembly {\n            addr_ := and(_slot, 0xffffffffffffffffffffffffffffffffffffffff)\n            num_ := shr(0xa0, _slot)\n        }\n    }\n}\n",
  "sourcePath": "/Users/willem/repos/ProofBoy/contracts/DisputeGameFactory.sol",
  "compiler": {
    "name": "solc",
    "version": "0.8.15+commit.e14f2714.Emscripten.clang"
  },
  "schemaVersion": "3.4.14",
  "updatedAt": "2023-08-11T04:08:53.877Z",
  "networkType": "ethereum",
  "devdoc": {
    "errors": {
      "GameAlreadyExists(bytes32)": [
        {
          "params": {
            "uuid": "The UUID of the dispute game that already exists."
          }
        }
      ],
      "NoImplementation(uint8)": [
        {
          "params": {
            "gameType": "The unsupported game type."
          }
        }
      ]
    },
    "kind": "dev",
    "methods": {
      "create(uint8,bytes32,bytes)": {
        "params": {
          "extraData": "Any extra data that should be provided to the created dispute game.",
          "gameType": "The type of the DisputeGame - used to decide the proxy implementation.",
          "rootClaim": "The root claim of the DisputeGame."
        },
        "returns": {
          "proxy": "The address of the created DisputeGame proxy."
        }
      },
      "gameAtIndex(uint256)": {
        "params": {
          "_index": "The index of the dispute game."
        },
        "returns": {
          "proxy_": "The clone of the `DisputeGame` created with the given parameters.         Returns `address(0)` if nonexistent.",
          "timestamp_": "The timestamp of the creation of the dispute game."
        }
      },
      "gameCount()": {
        "returns": {
          "gameCount_": "The total number of dispute games created by this factory."
        }
      },
      "games(uint8,bytes32,bytes)": {
        "details": "`++` equates to concatenation.",
        "params": {
          "extraData": "Any extra data that should be provided to the created dispute game.",
          "gameType": "The type of the DisputeGame - used to decide the proxy implementation",
          "rootClaim": "The root claim of the DisputeGame."
        },
        "returns": {
          "proxy_": "The clone of the `DisputeGame` created with the given parameters.         Returns `address(0)` if nonexistent.",
          "timestamp_": "The timestamp of the creation of the dispute game."
        }
      },
      "getGameUUID(uint8,bytes32,bytes)": {
        "details": "Hashes the concatenation of `gameType . rootClaim . extraData`      without expanding memory.",
        "params": {
          "extraData": "Any extra data that should be provided to the created dispute game.",
          "gameType": "The type of the DisputeGame.",
          "rootClaim": "The root claim of the DisputeGame."
        },
        "returns": {
          "_uuid": "The unique identifier for the given dispute game parameters."
        }
      },
      "initialize(address)": {
        "params": {
          "_owner": "The owner of the contract."
        }
      },
      "owner()": {
        "details": "Returns the address of the current owner."
      },
      "renounceOwnership()": {
        "details": "Leaves the contract without owner. It will not be possible to call `onlyOwner` functions. Can only be called by the current owner. NOTE: Renouncing ownership will leave the contract without an owner, thereby disabling any functionality that is only available to the owner."
      },
      "setImplementation(uint8,address)": {
        "details": "May only be called by the `owner`.",
        "params": {
          "gameType": "The type of the DisputeGame.",
          "impl": "The implementation contract for the given `GameType`."
        }
      },
      "transferOwnership(address)": {
        "details": "Transfers ownership of the contract to a new account (`newOwner`). Can only be called by the current owner."
      },
      "version()": {
        "returns": {
          "_0": "Semver contract version as a string."
        }
      }
    },
    "stateVariables": {
      "_disputeGameList": {
        "details": "this accessor is used by offchain game solvers to efficiently      track dispute games"
      },
      "_disputeGames": {
        "details": "Note: `||` denotes concatenation."
      },
      "gameImpls": {
        "params": {
          "gameType": "The type of the dispute game."
        },
        "return": "The address of the implementation of the game type.         Will be cloned on creation of a new dispute game with the given `gameType`.",
        "returns": {
          "_0": "The address of the implementation of the game type.         Will be cloned on creation of a new dispute game with the given `gameType`."
        }
      }
    },
    "title": "DisputeGameFactory",
    "version": 1
  },
  "userdoc": {
    "errors": {
      "GameAlreadyExists(bytes32)": [
        {
          "notice": "Thrown when a dispute game that already exists is attempted to be created."
        }
      ],
      "NoImplementation(uint8)": [
        {
          "notice": "Thrown when a dispute game is attempted to be created with an unsupported game type."
        }
      ]
    },
    "events": {
      "DisputeGameCreated(address,uint8,bytes32)": {
        "notice": "Emitted when a new dispute game is created"
      },
      "ImplementationSet(address,uint8)": {
        "notice": "Emitted when a new game implementation added to the factory"
      }
    },
    "kind": "user",
    "methods": {
      "constructor": {
        "notice": "constructs a new DisputeGameFactory contract."
      },
      "create(uint8,bytes32,bytes)": {
        "notice": "Creates a new DisputeGame proxy contract."
      },
      "gameAtIndex(uint256)": {
        "notice": "`gameAtIndex` returns the dispute game contract address and its creation timestamp          at the given index. Each created dispute game increments the underlying index."
      },
      "gameCount()": {
        "notice": "The total number of dispute games created by this factory."
      },
      "gameImpls(uint8)": {
        "notice": "`gameImpls` is a mapping that maps `GameType`s to their respective         `IDisputeGame` implementations."
      },
      "games(uint8,bytes32,bytes)": {
        "notice": "`games` queries an internal mapping that maps the hash of         `gameType ++ rootClaim ++ extraData` to the deployed `DisputeGame` clone."
      },
      "getGameUUID(uint8,bytes32,bytes)": {
        "notice": "Returns a unique identifier for the given dispute game parameters."
      },
      "initialize(address)": {
        "notice": "Initializes the contract."
      },
      "setImplementation(uint8,address)": {
        "notice": "Sets the implementation contract for a specific `GameType`."
      },
      "version()": {
        "notice": "Returns the full semver contract version."
      }
    },
    "notice": "A factory contract for creating `IDisputeGame` contracts. All created dispute games         are stored in both a mapping and an append only array. The timestamp of the creation         time of the dispute game is packed tightly into the storage slot with the address of         the dispute game. This is to make offchain discoverability of playable dispute games         easier.",
    "version": 1
  }
}