{
  "contractName": "ERC1155ChallengeableMint",
  "abi": [
    {
      "inputs": [
        {
          "internalType": "address",
          "name": "disputeGameFactoryAddr",
          "type": "address"
        },
        {
          "internalType": "Claim",
          "name": "rootClaim",
          "type": "bytes32"
        }
      ],
      "stateMutability": "nonpayable",
      "type": "constructor"
    },
    {
      "inputs": [
        {
          "internalType": "uint256",
          "name": "id",
          "type": "uint256"
        }
      ],
      "name": "CannotChallengeProposalHasSettled",
      "type": "error"
    },
    {
      "inputs": [
        {
          "internalType": "uint256",
          "name": "id",
          "type": "uint256"
        }
      ],
      "name": "MetadataHashMismatch",
      "type": "error"
    },
    {
      "inputs": [
        {
          "internalType": "uint256",
          "name": "id",
          "type": "uint256"
        }
      ],
      "name": "MintProposalNotSettled",
      "type": "error"
    },
    {
      "inputs": [
        {
          "internalType": "uint256",
          "name": "id",
          "type": "uint256"
        }
      ],
      "name": "ProposalClaimDisproven",
      "type": "error"
    },
    {
      "inputs": [
        {
          "internalType": "uint256",
          "name": "id",
          "type": "uint256"
        }
      ],
      "name": "ProposalHasOpenChallenge",
      "type": "error"
    },
    {
      "anonymous": false,
      "inputs": [
        {
          "indexed": true,
          "internalType": "address",
          "name": "account",
          "type": "address"
        },
        {
          "indexed": true,
          "internalType": "address",
          "name": "operator",
          "type": "address"
        },
        {
          "indexed": false,
          "internalType": "bool",
          "name": "approved",
          "type": "bool"
        }
      ],
      "name": "ApprovalForAll",
      "type": "event"
    },
    {
      "anonymous": false,
      "inputs": [
        {
          "indexed": true,
          "internalType": "uint256",
          "name": "id",
          "type": "uint256"
        },
        {
          "indexed": false,
          "internalType": "address",
          "name": "challenger",
          "type": "address"
        }
      ],
      "name": "MintChallenged",
      "type": "event"
    },
    {
      "anonymous": false,
      "inputs": [
        {
          "indexed": true,
          "internalType": "uint256",
          "name": "id",
          "type": "uint256"
        },
        {
          "indexed": false,
          "internalType": "address",
          "name": "to",
          "type": "address"
        },
        {
          "indexed": false,
          "internalType": "uint256",
          "name": "timestamp",
          "type": "uint256"
        }
      ],
      "name": "MintProposed",
      "type": "event"
    },
    {
      "anonymous": false,
      "inputs": [
        {
          "indexed": true,
          "internalType": "uint256",
          "name": "id",
          "type": "uint256"
        },
        {
          "indexed": true,
          "internalType": "address",
          "name": "to",
          "type": "address"
        }
      ],
      "name": "Minted",
      "type": "event"
    },
    {
      "anonymous": false,
      "inputs": [
        {
          "indexed": true,
          "internalType": "address",
          "name": "operator",
          "type": "address"
        },
        {
          "indexed": true,
          "internalType": "address",
          "name": "from",
          "type": "address"
        },
        {
          "indexed": true,
          "internalType": "address",
          "name": "to",
          "type": "address"
        },
        {
          "indexed": false,
          "internalType": "uint256[]",
          "name": "ids",
          "type": "uint256[]"
        },
        {
          "indexed": false,
          "internalType": "uint256[]",
          "name": "values",
          "type": "uint256[]"
        }
      ],
      "name": "TransferBatch",
      "type": "event"
    },
    {
      "anonymous": false,
      "inputs": [
        {
          "indexed": true,
          "internalType": "address",
          "name": "operator",
          "type": "address"
        },
        {
          "indexed": true,
          "internalType": "address",
          "name": "from",
          "type": "address"
        },
        {
          "indexed": true,
          "internalType": "address",
          "name": "to",
          "type": "address"
        },
        {
          "indexed": false,
          "internalType": "uint256",
          "name": "id",
          "type": "uint256"
        },
        {
          "indexed": false,
          "internalType": "uint256",
          "name": "value",
          "type": "uint256"
        }
      ],
      "name": "TransferSingle",
      "type": "event"
    },
    {
      "anonymous": false,
      "inputs": [
        {
          "indexed": false,
          "internalType": "string",
          "name": "value",
          "type": "string"
        },
        {
          "indexed": true,
          "internalType": "uint256",
          "name": "id",
          "type": "uint256"
        }
      ],
      "name": "URI",
      "type": "event"
    },
    {
      "inputs": [],
      "name": "ROOT_CLAIM",
      "outputs": [
        {
          "internalType": "Claim",
          "name": "",
          "type": "bytes32"
        }
      ],
      "stateMutability": "view",
      "type": "function",
      "constant": true
    },
    {
      "inputs": [],
      "name": "SETTLEMENT_PERIOD",
      "outputs": [
        {
          "internalType": "uint256",
          "name": "",
          "type": "uint256"
        }
      ],
      "stateMutability": "view",
      "type": "function",
      "constant": true
    },
    {
      "inputs": [
        {
          "internalType": "address",
          "name": "account",
          "type": "address"
        },
        {
          "internalType": "uint256",
          "name": "id",
          "type": "uint256"
        }
      ],
      "name": "balanceOf",
      "outputs": [
        {
          "internalType": "uint256",
          "name": "",
          "type": "uint256"
        }
      ],
      "stateMutability": "view",
      "type": "function",
      "constant": true
    },
    {
      "inputs": [
        {
          "internalType": "address[]",
          "name": "accounts",
          "type": "address[]"
        },
        {
          "internalType": "uint256[]",
          "name": "ids",
          "type": "uint256[]"
        }
      ],
      "name": "balanceOfBatch",
      "outputs": [
        {
          "internalType": "uint256[]",
          "name": "",
          "type": "uint256[]"
        }
      ],
      "stateMutability": "view",
      "type": "function",
      "constant": true
    },
    {
      "inputs": [],
      "name": "disputeGameFactory",
      "outputs": [
        {
          "internalType": "contract IDisputeGameFactory",
          "name": "",
          "type": "address"
        }
      ],
      "stateMutability": "view",
      "type": "function",
      "constant": true
    },
    {
      "inputs": [
        {
          "internalType": "address",
          "name": "account",
          "type": "address"
        },
        {
          "internalType": "address",
          "name": "operator",
          "type": "address"
        }
      ],
      "name": "isApprovedForAll",
      "outputs": [
        {
          "internalType": "bool",
          "name": "",
          "type": "bool"
        }
      ],
      "stateMutability": "view",
      "type": "function",
      "constant": true
    },
    {
      "inputs": [],
      "name": "nonce",
      "outputs": [
        {
          "internalType": "uint256",
          "name": "",
          "type": "uint256"
        }
      ],
      "stateMutability": "view",
      "type": "function",
      "constant": true
    },
    {
      "inputs": [
        {
          "internalType": "uint256",
          "name": "",
          "type": "uint256"
        }
      ],
      "name": "pendingMints",
      "outputs": [
        {
          "internalType": "address",
          "name": "to",
          "type": "address"
        },
        {
          "internalType": "bytes32",
          "name": "metadataHash",
          "type": "bytes32"
        },
        {
          "internalType": "bytes32",
          "name": "witnessHash",
          "type": "bytes32"
        },
        {
          "internalType": "uint256",
          "name": "timestamp",
          "type": "uint256"
        }
      ],
      "stateMutability": "view",
      "type": "function",
      "constant": true
    },
    {
      "inputs": [
        {
          "internalType": "address",
          "name": "from",
          "type": "address"
        },
        {
          "internalType": "address",
          "name": "to",
          "type": "address"
        },
        {
          "internalType": "uint256[]",
          "name": "ids",
          "type": "uint256[]"
        },
        {
          "internalType": "uint256[]",
          "name": "amounts",
          "type": "uint256[]"
        },
        {
          "internalType": "bytes",
          "name": "data",
          "type": "bytes"
        }
      ],
      "name": "safeBatchTransferFrom",
      "outputs": [],
      "stateMutability": "nonpayable",
      "type": "function"
    },
    {
      "inputs": [
        {
          "internalType": "address",
          "name": "from",
          "type": "address"
        },
        {
          "internalType": "address",
          "name": "to",
          "type": "address"
        },
        {
          "internalType": "uint256",
          "name": "id",
          "type": "uint256"
        },
        {
          "internalType": "uint256",
          "name": "amount",
          "type": "uint256"
        },
        {
          "internalType": "bytes",
          "name": "data",
          "type": "bytes"
        }
      ],
      "name": "safeTransferFrom",
      "outputs": [],
      "stateMutability": "nonpayable",
      "type": "function"
    },
    {
      "inputs": [
        {
          "internalType": "address",
          "name": "operator",
          "type": "address"
        },
        {
          "internalType": "bool",
          "name": "approved",
          "type": "bool"
        }
      ],
      "name": "setApprovalForAll",
      "outputs": [],
      "stateMutability": "nonpayable",
      "type": "function"
    },
    {
      "inputs": [
        {
          "internalType": "bytes4",
          "name": "interfaceId",
          "type": "bytes4"
        }
      ],
      "name": "supportsInterface",
      "outputs": [
        {
          "internalType": "bool",
          "name": "",
          "type": "bool"
        }
      ],
      "stateMutability": "view",
      "type": "function",
      "constant": true
    },
    {
      "inputs": [
        {
          "internalType": "uint256",
          "name": "tokenId",
          "type": "uint256"
        }
      ],
      "name": "uri",
      "outputs": [
        {
          "internalType": "string",
          "name": "",
          "type": "string"
        }
      ],
      "stateMutability": "view",
      "type": "function",
      "constant": true
    },
    {
      "inputs": [
        {
          "internalType": "address",
          "name": "to",
          "type": "address"
        },
        {
          "internalType": "string",
          "name": "metadataJson",
          "type": "string"
        },
        {
          "internalType": "bytes",
          "name": "witness",
          "type": "bytes"
        }
      ],
      "name": "ProposeMint",
      "outputs": [],
      "stateMutability": "nonpayable",
      "type": "function"
    },
    {
      "inputs": [
        {
          "internalType": "uint256",
          "name": "id",
          "type": "uint256"
        }
      ],
      "name": "ChallengeMint",
      "outputs": [],
      "stateMutability": "nonpayable",
      "type": "function"
    },
    {
      "inputs": [
        {
          "internalType": "uint256",
          "name": "id",
          "type": "uint256"
        },
        {
          "internalType": "string",
          "name": "metadataJson",
          "type": "string"
        }
      ],
      "name": "ClaimMint",
      "outputs": [],
      "stateMutability": "nonpayable",
      "type": "function"
    },
    {
      "inputs": [
        {
          "internalType": "uint256",
          "name": "id",
          "type": "uint256"
        }
      ],
      "name": "gameAddress",
      "outputs": [
        {
          "internalType": "contract IDisputeGame",
          "name": "game",
          "type": "address"
        }
      ],
      "stateMutability": "view",
      "type": "function",
      "constant": true
    }
  ],
  "bytecode": "0x60c06040526040518060200160405280600081525060039081620000249190620003a8565b503480156200003257600080fd5b50604051620047c1380380620047c1833981810160405281019062000058919062000534565b6040518060200160405280600081525062000079816200010460201b60201c565b508173ffffffffffffffffffffffffffffffffffffffff1660a08173ffffffffffffffffffffffffffffffffffffffff16815250508060808181525050620000fc6040518060400160405280601d81526020017f646174613a6170706c69636174696f6e2f6a736f6e3b6261736536342c0000008152506200011960201b60201c565b50506200057b565b8060029081620001159190620003a8565b5050565b80600390816200012a9190620003a8565b5050565b600081519050919050565b7f4e487b7100000000000000000000000000000000000000000000000000000000600052604160045260246000fd5b7f4e487b7100000000000000000000000000000000000000000000000000000000600052602260045260246000fd5b60006002820490506001821680620001b057607f821691505b602082108103620001c657620001c562000168565b5b50919050565b60008190508160005260206000209050919050565b60006020601f8301049050919050565b600082821b905092915050565b600060088302620002307fffffffffffffffffffffffffffffffffffffffffffffffffffffffffffffffff82620001f1565b6200023c8683620001f1565b95508019841693508086168417925050509392505050565b6000819050919050565b6000819050919050565b600062000289620002836200027d8462000254565b6200025e565b62000254565b9050919050565b6000819050919050565b620002a58362000268565b620002bd620002b48262000290565b848454620001fe565b825550505050565b600090565b620002d4620002c5565b620002e18184846200029a565b505050565b5b818110156200030957620002fd600082620002ca565b600181019050620002e7565b5050565b601f82111562000358576200032281620001cc565b6200032d84620001e1565b810160208510156200033d578190505b620003556200034c85620001e1565b830182620002e6565b50505b505050565b600082821c905092915050565b60006200037d600019846008026200035d565b1980831691505092915050565b60006200039883836200036a565b9150826002028217905092915050565b620003b3826200012e565b67ffffffffffffffff811115620003cf57620003ce62000139565b5b620003db825462000197565b620003e88282856200030d565b600060209050601f8311600181146200042057600084156200040b578287015190505b6200041785826200038a565b86555062000487565b601f1984166200043086620001cc565b60005b828110156200045a5784890151825560018201915060208501945060208101905062000433565b868310156200047a578489015162000476601f8916826200036a565b8355505b6001600288020188555050505b505050505050565b600080fd5b600073ffffffffffffffffffffffffffffffffffffffff82169050919050565b6000620004c18262000494565b9050919050565b620004d381620004b4565b8114620004df57600080fd5b50565b600081519050620004f381620004c8565b92915050565b6000819050919050565b6200050e81620004f9565b81146200051a57600080fd5b50565b6000815190506200052e8162000503565b92915050565b600080604083850312156200054e576200054d6200048f565b5b60006200055e85828601620004e2565b925050602062000571858286016200051d565b9150509250929050565b60805160a0516141f6620005cb600039600081816108f901528181610bf00152818161117101526112800152600081816106b90152818161093701528181610c2e01526112be01526141f66000f3fe608060405234801561001057600080fd5b506004361061010a5760003560e01c8063a22cb465116100a2578063e0399c2911610071578063e0399c29146102e0578063e985e9c5146102fc578063f242432a1461032c578063f2b4e61714610348578063faba48a3146103665761010a565b8063a22cb4651461025a578063affed0e014610276578063bea1c28614610294578063d109d230146102c45761010a565b80632eb2c2d6116100de5780632eb2c2d6146101bd5780634a1890f0146101d95780634e1273f4146101f757806363900ca6146102275761010a565b8062fdd58e1461010f57806301ffc9a71461013f57806309e54b5b1461016f5780630e89341c1461018d575b600080fd5b6101296004803603810190610124919061245a565b610382565b60405161013691906124a9565b60405180910390f35b6101596004803603810190610154919061251c565b61044a565b6040516101669190612564565b60405180910390f35b61017761052c565b60405161018491906124a9565b60405180910390f35b6101a760048036038101906101a2919061257f565b610531565b6040516101b49190612645565b60405180910390f35b6101d760048036038101906101d29190612864565b610616565b005b6101e16106b7565b6040516101ee919061295e565b60405180910390f35b610211600480360381019061020c9190612a3c565b6106db565b60405161021e9190612b72565b60405180910390f35b610241600480360381019061023c919061257f565b6107f4565b6040516102519493929190612bb2565b60405180910390f35b610274600480360381019061026f9190612c23565b610844565b005b61027e61085a565b60405161028b91906124a9565b60405180910390f35b6102ae60048036038101906102a9919061257f565b610860565b6040516102bb9190612cc2565b60405180910390f35b6102de60048036038101906102d99190612d8e565b6109f5565b005b6102fa60048036038101906102f59190612ec4565b610b32565b005b61031660048036038101906103119190612f20565b61103a565b6040516103239190612564565b60405180910390f35b61034660048036038101906103419190612f60565b6110ce565b005b61035061116f565b60405161035d9190613018565b60405180910390f35b610380600480360381019061037b919061257f565b611193565b005b60008073ffffffffffffffffffffffffffffffffffffffff168373ffffffffffffffffffffffffffffffffffffffff16036103f2576040517f08c379a00000000000000000000000000000000000000000000000000000000081526004016103e9906130a5565b60405180910390fd5b60008083815260200190815260200160002060008473ffffffffffffffffffffffffffffffffffffffff1673ffffffffffffffffffffffffffffffffffffffff16815260200190815260200160002054905092915050565b60007fd9b67a26000000000000000000000000000000000000000000000000000000007bffffffffffffffffffffffffffffffffffffffffffffffffffffffff1916827bffffffffffffffffffffffffffffffffffffffffffffffffffffffff1916148061051557507f0e89341c000000000000000000000000000000000000000000000000000000007bffffffffffffffffffffffffffffffffffffffffffffffffffffffff1916827bffffffffffffffffffffffffffffffffffffffffffffffffffffffff1916145b806105255750610524826113b1565b5b9050919050565b603c81565b60606000600460008481526020019081526020016000208054610553906130f4565b80601f016020809104026020016040519081016040528092919081815260200182805461057f906130f4565b80156105cc5780601f106105a1576101008083540402835291602001916105cc565b820191906000526020600020905b8154815290600101906020018083116105af57829003601f168201915b5050505050905060008151116105ea576105e58361141b565b61060e565b6003816040516020016105fe9291906131f9565b6040516020818303038152906040525b915050919050565b61061e6114af565b73ffffffffffffffffffffffffffffffffffffffff168573ffffffffffffffffffffffffffffffffffffffff16148061066457506106638561065e6114af565b61103a565b5b6106a3576040517f08c379a000000000000000000000000000000000000000000000000000000000815260040161069a9061328f565b60405180910390fd5b6106b085858585856114b7565b5050505050565b7f000000000000000000000000000000000000000000000000000000000000000081565b60608151835114610721576040517f08c379a000000000000000000000000000000000000000000000000000000000815260040161071890613321565b60405180910390fd5b6000835167ffffffffffffffff81111561073e5761073d61266c565b5b60405190808252806020026020018201604052801561076c5781602001602082028036833780820191505090505b50905060005b84518110156107e9576107b985828151811061079157610790613341565b5b60200260200101518583815181106107ac576107ab613341565b5b6020026020010151610382565b8282815181106107cc576107cb613341565b5b602002602001018181525050806107e29061339f565b9050610772565b508091505092915050565b60066020528060005260406000206000915090508060000160009054906101000a900473ffffffffffffffffffffffffffffffffffffffff16908060010154908060020154908060030154905084565b61085661084f6114af565b83836117d8565b5050565b60055481565b600080600660008481526020019081526020016000206040518060800160405290816000820160009054906101000a900473ffffffffffffffffffffffffffffffffffffffff1673ffffffffffffffffffffffffffffffffffffffff1673ffffffffffffffffffffffffffffffffffffffff168152602001600182015481526020016002820154815260200160038201548152505090507f000000000000000000000000000000000000000000000000000000000000000073ffffffffffffffffffffffffffffffffffffffff1663c49d527160007f0000000000000000000000000000000000000000000000000000000000000000846000015185602001518660400151876060015160405160200161097d9493929190613471565b6040516020818303038152906040526040518463ffffffff1660e01b81526004016109aa93929190613552565b6040805180830381865afa1580156109c6573d6000803e3d6000fd5b505050506040513d601f19601f820116820180604052508101906109ea91906135e3565b508092505050919050565b600060056000815480929190610a0a9061339f565b91905055905060405180608001604052808773ffffffffffffffffffffffffffffffffffffffff1681526020018686604051610a47929190613653565b604051809103902081526020018484604051610a64929190613653565b60405180910390208152602001428152506006600083815260200190815260200160002060008201518160000160006101000a81548173ffffffffffffffffffffffffffffffffffffffff021916908373ffffffffffffffffffffffffffffffffffffffff160217905550602082015181600101556040820151816002015560608201518160030155905050807f98930016b56d575b1305a89408e428980da643672da6b38011bf0770a9f7d5d08742604051610b2292919061366c565b60405180910390a2505050505050565b6000600660008481526020019081526020016000209050603c8160030154610b5a9190613695565b4211610b9d57826040517ff5630a21000000000000000000000000000000000000000000000000000000008152600401610b9491906124a9565b60405180910390fd5b8180519060200120816001015414610bec57826040517f6912760a000000000000000000000000000000000000000000000000000000008152600401610be391906124a9565b60405180910390fd5b60007f000000000000000000000000000000000000000000000000000000000000000073ffffffffffffffffffffffffffffffffffffffff1663c49d527160007f00000000000000000000000000000000000000000000000000000000000000008560000160009054906101000a900473ffffffffffffffffffffffffffffffffffffffff16866001015487600201548860030154604051602001610c949493929190613471565b6040516020818303038152906040526040518463ffffffff1660e01b8152600401610cc193929190613552565b6040805180830381865afa158015610cdd573d6000803e3d6000fd5b505050506040513d601f19601f82011682018060405250810190610d0191906135e3565b509050600073ffffffffffffffffffffffffffffffffffffffff168173ffffffffffffffffffffffffffffffffffffffff1614158015610dd3575060006002811115610d5057610d4f6136eb565b5b8173ffffffffffffffffffffffffffffffffffffffff1663200d2ed26040518163ffffffff1660e01b8152600401602060405180830381865afa158015610d9b573d6000803e3d6000fd5b505050506040513d601f19601f82011682018060405250810190610dbf919061373f565b6002811115610dd157610dd06136eb565b5b145b15610e1557836040517ffca2ffc2000000000000000000000000000000000000000000000000000000008152600401610e0c91906124a9565b60405180910390fd5b600073ffffffffffffffffffffffffffffffffffffffff168173ffffffffffffffffffffffffffffffffffffffff1614158015610ee35750600280811115610e6057610e5f6136eb565b5b8173ffffffffffffffffffffffffffffffffffffffff1663200d2ed26040518163ffffffff1660e01b8152600401602060405180830381865afa158015610eab573d6000803e3d6000fd5b505050506040513d601f19601f82011682018060405250810190610ecf919061373f565b6002811115610ee157610ee06136eb565b5b145b15610f2557836040517f03dcb404000000000000000000000000000000000000000000000000000000008152600401610f1c91906124a9565b60405180910390fd5b610f658260000160009054906101000a900473ffffffffffffffffffffffffffffffffffffffff1685600160405180602001604052806000815250611944565b610f7784610f7285611af4565b611c57565b60066000858152602001908152602001600020600080820160006101000a81549073ffffffffffffffffffffffffffffffffffffffff021916905560018201600090556002820160009055600382016000905550508160000160009054906101000a900473ffffffffffffffffffffffffffffffffffffffff1673ffffffffffffffffffffffffffffffffffffffff16847fb9203d657e9c0ec8274c818292ab0f58b04e1970050716891770eb1bab5d655e60405160405180910390a350505050565b6000600160008473ffffffffffffffffffffffffffffffffffffffff1673ffffffffffffffffffffffffffffffffffffffff16815260200190815260200160002060008373ffffffffffffffffffffffffffffffffffffffff1673ffffffffffffffffffffffffffffffffffffffff16815260200190815260200160002060009054906101000a900460ff16905092915050565b6110d66114af565b73ffffffffffffffffffffffffffffffffffffffff168573ffffffffffffffffffffffffffffffffffffffff16148061111c575061111b856111166114af565b61103a565b5b61115b576040517f08c379a0000000000000000000000000000000000000000000000000000000008152600401611152906137de565b60405180910390fd5b6111688585858585611cbc565b5050505050565b7f000000000000000000000000000000000000000000000000000000000000000081565b6000600660008381526020019081526020016000206040518060800160405290816000820160009054906101000a900473ffffffffffffffffffffffffffffffffffffffff1673ffffffffffffffffffffffffffffffffffffffff1673ffffffffffffffffffffffffffffffffffffffff16815260200160018201548152602001600282015481526020016003820154815250509050603c816060015161123a9190613695565b42111561127e57816040517fcad27b0b00000000000000000000000000000000000000000000000000000000815260040161127591906124a9565b60405180910390fd5b7f000000000000000000000000000000000000000000000000000000000000000073ffffffffffffffffffffffffffffffffffffffff16633142e55e60007f000000000000000000000000000000000000000000000000000000000000000084600001518560200151866040015187606001516040516020016113049493929190613471565b6040516020818303038152906040526040518463ffffffff1660e01b815260040161133193929190613552565b6020604051808303816000875af1158015611350573d6000803e3d6000fd5b505050506040513d601f19601f8201168201806040525081019061137491906137fe565b50817f513913a831f7e641d47b430356dc599acd3e0f4e6e05b191e988a3a1d8b45018336040516113a5919061382b565b60405180910390a25050565b60007f01ffc9a7000000000000000000000000000000000000000000000000000000007bffffffffffffffffffffffffffffffffffffffffffffffffffffffff1916827bffffffffffffffffffffffffffffffffffffffffffffffffffffffff1916149050919050565b60606002805461142a906130f4565b80601f0160208091040260200160405190810160405280929190818152602001828054611456906130f4565b80156114a35780601f10611478576101008083540402835291602001916114a3565b820191906000526020600020905b81548152906001019060200180831161148657829003601f168201915b50505050509050919050565b600033905090565b81518351146114fb576040517f08c379a00000000000000000000000000000000000000000000000000000000081526004016114f2906138b8565b60405180910390fd5b600073ffffffffffffffffffffffffffffffffffffffff168473ffffffffffffffffffffffffffffffffffffffff160361156a576040517f08c379a00000000000000000000000000000000000000000000000000000000081526004016115619061394a565b60405180910390fd5b60006115746114af565b9050611584818787878787611f57565b60005b84518110156117355760008582815181106115a5576115a4613341565b5b6020026020010151905060008583815181106115c4576115c3613341565b5b60200260200101519050600080600084815260200190815260200160002060008b73ffffffffffffffffffffffffffffffffffffffff1673ffffffffffffffffffffffffffffffffffffffff16815260200190815260200160002054905081811015611665576040517f08c379a000000000000000000000000000000000000000000000000000000000815260040161165c906139dc565b60405180910390fd5b81810360008085815260200190815260200160002060008c73ffffffffffffffffffffffffffffffffffffffff1673ffffffffffffffffffffffffffffffffffffffff168152602001908152602001600020819055508160008085815260200190815260200160002060008b73ffffffffffffffffffffffffffffffffffffffff1673ffffffffffffffffffffffffffffffffffffffff168152602001908152602001600020600082825461171a9190613695565b925050819055505050508061172e9061339f565b9050611587565b508473ffffffffffffffffffffffffffffffffffffffff168673ffffffffffffffffffffffffffffffffffffffff168273ffffffffffffffffffffffffffffffffffffffff167f4a39dc06d4c0dbc64b70af90fd698a233a518aa5d07e595d983b8c0526c8f7fb87876040516117ac9291906139fc565b60405180910390a46117c2818787878787611f5f565b6117d0818787878787611f67565b505050505050565b8173ffffffffffffffffffffffffffffffffffffffff168373ffffffffffffffffffffffffffffffffffffffff1603611846576040517f08c379a000000000000000000000000000000000000000000000000000000000815260040161183d90613aa5565b60405180910390fd5b80600160008573ffffffffffffffffffffffffffffffffffffffff1673ffffffffffffffffffffffffffffffffffffffff16815260200190815260200160002060008473ffffffffffffffffffffffffffffffffffffffff1673ffffffffffffffffffffffffffffffffffffffff16815260200190815260200160002060006101000a81548160ff0219169083151502179055508173ffffffffffffffffffffffffffffffffffffffff168373ffffffffffffffffffffffffffffffffffffffff167f17307eab39ab6107e8899845ad3d59bd9653f200f220920489ca2b5937696c31836040516119379190612564565b60405180910390a3505050565b600073ffffffffffffffffffffffffffffffffffffffff168473ffffffffffffffffffffffffffffffffffffffff16036119b3576040517f08c379a00000000000000000000000000000000000000000000000000000000081526004016119aa90613b37565b60405180910390fd5b60006119bd6114af565b905060006119ca8561213e565b905060006119d78561213e565b90506119e883600089858589611f57565b8460008088815260200190815260200160002060008973ffffffffffffffffffffffffffffffffffffffff1673ffffffffffffffffffffffffffffffffffffffff1681526020019081526020016000206000828254611a479190613695565b925050819055508673ffffffffffffffffffffffffffffffffffffffff16600073ffffffffffffffffffffffffffffffffffffffff168473ffffffffffffffffffffffffffffffffffffffff167fc3d58168c5ae7397731d063d5bbf3d657854427343f4c083240f7aacaa2d0f628989604051611ac5929190613b57565b60405180910390a4611adc83600089858589611f5f565b611aeb836000898989896121b8565b50505050505050565b60606000825103611b1657604051806020016040528060008152509050611c52565b60006040518060600160405280604081526020016141816040913990506000600360028551611b459190613695565b611b4f9190613baf565b6004611b5b9190613be0565b67ffffffffffffffff811115611b7457611b7361266c565b5b6040519080825280601f01601f191660200182016040528015611ba65781602001600182028036833780820191505090505b509050600182016020820185865187015b80821015611c12576003820191508151603f8160121c168501518453600184019350603f81600c1c168501518453600184019350603f8160061c168501518453600184019350603f8116850151845360018401935050611bb7565b5050600386510660018114611c2e5760028114611c4157611c49565b603d6001830353603d6002830353611c49565b603d60018303535b50505080925050505b919050565b80600460008481526020019081526020016000209081611c779190613dc7565b50817f6bb7ff708619ba0610cba295a58592e0451dee2622938c8755667688daf3529b611ca384610531565b604051611cb09190612645565b60405180910390a25050565b600073ffffffffffffffffffffffffffffffffffffffff168473ffffffffffffffffffffffffffffffffffffffff1603611d2b576040517f08c379a0000000000000000000000000000000000000000000000000000000008152600401611d229061394a565b60405180910390fd5b6000611d356114af565b90506000611d428561213e565b90506000611d4f8561213e565b9050611d5f838989858589611f57565b600080600088815260200190815260200160002060008a73ffffffffffffffffffffffffffffffffffffffff1673ffffffffffffffffffffffffffffffffffffffff16815260200190815260200160002054905085811015611df6576040517f08c379a0000000000000000000000000000000000000000000000000000000008152600401611ded906139dc565b60405180910390fd5b85810360008089815260200190815260200160002060008b73ffffffffffffffffffffffffffffffffffffffff1673ffffffffffffffffffffffffffffffffffffffff168152602001908152602001600020819055508560008089815260200190815260200160002060008a73ffffffffffffffffffffffffffffffffffffffff1673ffffffffffffffffffffffffffffffffffffffff1681526020019081526020016000206000828254611eab9190613695565b925050819055508773ffffffffffffffffffffffffffffffffffffffff168973ffffffffffffffffffffffffffffffffffffffff168573ffffffffffffffffffffffffffffffffffffffff167fc3d58168c5ae7397731d063d5bbf3d657854427343f4c083240f7aacaa2d0f628a8a604051611f28929190613b57565b60405180910390a4611f3e848a8a86868a611f5f565b611f4c848a8a8a8a8a6121b8565b505050505050505050565b505050505050565b505050505050565b611f868473ffffffffffffffffffffffffffffffffffffffff1661238f565b15612136578373ffffffffffffffffffffffffffffffffffffffff1663bc197c8187878686866040518663ffffffff1660e01b8152600401611fcc959493929190613e99565b6020604051808303816000875af192505050801561200857506040513d601f19601f820116820180604052508101906120059190613f16565b60015b6120ad57612014613f50565b806308c379a0036120705750612028613f72565b806120335750612072565b806040517f08c379a00000000000000000000000000000000000000000000000000000000081526004016120679190612645565b60405180910390fd5b505b6040517f08c379a00000000000000000000000000000000000000000000000000000000081526004016120a490614074565b60405180910390fd5b63bc197c8160e01b7bffffffffffffffffffffffffffffffffffffffffffffffffffffffff1916817bffffffffffffffffffffffffffffffffffffffffffffffffffffffff191614612134576040517f08c379a000000000000000000000000000000000000000000000000000000000815260040161212b90614106565b60405180910390fd5b505b505050505050565b60606000600167ffffffffffffffff81111561215d5761215c61266c565b5b60405190808252806020026020018201604052801561218b5781602001602082028036833780820191505090505b50905082816000815181106121a3576121a2613341565b5b60200260200101818152505080915050919050565b6121d78473ffffffffffffffffffffffffffffffffffffffff1661238f565b15612387578373ffffffffffffffffffffffffffffffffffffffff1663f23a6e6187878686866040518663ffffffff1660e01b815260040161221d959493929190614126565b6020604051808303816000875af192505050801561225957506040513d601f19601f820116820180604052508101906122569190613f16565b60015b6122fe57612265613f50565b806308c379a0036122c15750612279613f72565b8061228457506122c3565b806040517f08c379a00000000000000000000000000000000000000000000000000000000081526004016122b89190612645565b60405180910390fd5b505b6040517f08c379a00000000000000000000000000000000000000000000000000000000081526004016122f590614074565b60405180910390fd5b63f23a6e6160e01b7bffffffffffffffffffffffffffffffffffffffffffffffffffffffff1916817bffffffffffffffffffffffffffffffffffffffffffffffffffffffff191614612385576040517f08c379a000000000000000000000000000000000000000000000000000000000815260040161237c90614106565b60405180910390fd5b505b505050505050565b6000808273ffffffffffffffffffffffffffffffffffffffff163b119050919050565b6000604051905090565b600080fd5b600080fd5b600073ffffffffffffffffffffffffffffffffffffffff82169050919050565b60006123f1826123c6565b9050919050565b612401816123e6565b811461240c57600080fd5b50565b60008135905061241e816123f8565b92915050565b6000819050919050565b61243781612424565b811461244257600080fd5b50565b6000813590506124548161242e565b92915050565b60008060408385031215612471576124706123bc565b5b600061247f8582860161240f565b925050602061249085828601612445565b9150509250929050565b6124a381612424565b82525050565b60006020820190506124be600083018461249a565b92915050565b60007fffffffff0000000000000000000000000000000000000000000000000000000082169050919050565b6124f9816124c4565b811461250457600080fd5b50565b600081359050612516816124f0565b92915050565b600060208284031215612532576125316123bc565b5b600061254084828501612507565b91505092915050565b60008115159050919050565b61255e81612549565b82525050565b60006020820190506125796000830184612555565b92915050565b600060208284031215612595576125946123bc565b5b60006125a384828501612445565b91505092915050565b600081519050919050565b600082825260208201905092915050565b60005b838110156125e65780820151818401526020810190506125cb565b838111156125f5576000848401525b50505050565b6000601f19601f8301169050919050565b6000612617826125ac565b61262181856125b7565b93506126318185602086016125c8565b61263a816125fb565b840191505092915050565b6000602082019050818103600083015261265f818461260c565b905092915050565b600080fd5b7f4e487b7100000000000000000000000000000000000000000000000000000000600052604160045260246000fd5b6126a4826125fb565b810181811067ffffffffffffffff821117156126c3576126c261266c565b5b80604052505050565b60006126d66123b2565b90506126e2828261269b565b919050565b600067ffffffffffffffff8211156127025761270161266c565b5b602082029050602081019050919050565b600080fd5b600061272b612726846126e7565b6126cc565b9050808382526020820190506020840283018581111561274e5761274d612713565b5b835b8181101561277757806127638882612445565b845260208401935050602081019050612750565b5050509392505050565b600082601f83011261279657612795612667565b5b81356127a6848260208601612718565b91505092915050565b600080fd5b600067ffffffffffffffff8211156127cf576127ce61266c565b5b6127d8826125fb565b9050602081019050919050565b82818337600083830152505050565b6000612807612802846127b4565b6126cc565b905082815260208101848484011115612823576128226127af565b5b61282e8482856127e5565b509392505050565b600082601f83011261284b5761284a612667565b5b813561285b8482602086016127f4565b91505092915050565b600080600080600060a086880312156128805761287f6123bc565b5b600061288e8882890161240f565b955050602061289f8882890161240f565b945050604086013567ffffffffffffffff8111156128c0576128bf6123c1565b5b6128cc88828901612781565b935050606086013567ffffffffffffffff8111156128ed576128ec6123c1565b5b6128f988828901612781565b925050608086013567ffffffffffffffff81111561291a576129196123c1565b5b61292688828901612836565b9150509295509295909350565b6000819050919050565b600061294882612933565b9050919050565b6129588161293d565b82525050565b6000602082019050612973600083018461294f565b92915050565b600067ffffffffffffffff8211156129945761299361266c565b5b602082029050602081019050919050565b60006129b86129b384612979565b6126cc565b905080838252602082019050602084028301858111156129db576129da612713565b5b835b81811015612a0457806129f0888261240f565b8452602084019350506020810190506129dd565b5050509392505050565b600082601f830112612a2357612a22612667565b5b8135612a338482602086016129a5565b91505092915050565b60008060408385031215612a5357612a526123bc565b5b600083013567ffffffffffffffff811115612a7157612a706123c1565b5b612a7d85828601612a0e565b925050602083013567ffffffffffffffff811115612a9e57612a9d6123c1565b5b612aaa85828601612781565b9150509250929050565b600081519050919050565b600082825260208201905092915050565b6000819050602082019050919050565b612ae981612424565b82525050565b6000612afb8383612ae0565b60208301905092915050565b6000602082019050919050565b6000612b1f82612ab4565b612b298185612abf565b9350612b3483612ad0565b8060005b83811015612b65578151612b4c8882612aef565b9750612b5783612b07565b925050600181019050612b38565b5085935050505092915050565b60006020820190508181036000830152612b8c8184612b14565b905092915050565b612b9d816123e6565b82525050565b612bac81612933565b82525050565b6000608082019050612bc76000830187612b94565b612bd46020830186612ba3565b612be16040830185612ba3565b612bee606083018461249a565b95945050505050565b612c0081612549565b8114612c0b57600080fd5b50565b600081359050612c1d81612bf7565b92915050565b60008060408385031215612c3a57612c396123bc565b5b6000612c488582860161240f565b9250506020612c5985828601612c0e565b9150509250929050565b6000819050919050565b6000612c88612c83612c7e846123c6565b612c63565b6123c6565b9050919050565b6000612c9a82612c6d565b9050919050565b6000612cac82612c8f565b9050919050565b612cbc81612ca1565b82525050565b6000602082019050612cd76000830184612cb3565b92915050565b600080fd5b60008083601f840112612cf857612cf7612667565b5b8235905067ffffffffffffffff811115612d1557612d14612cdd565b5b602083019150836001820283011115612d3157612d30612713565b5b9250929050565b60008083601f840112612d4e57612d4d612667565b5b8235905067ffffffffffffffff811115612d6b57612d6a612cdd565b5b602083019150836001820283011115612d8757612d86612713565b5b9250929050565b600080600080600060608688031215612daa57612da96123bc565b5b6000612db88882890161240f565b955050602086013567ffffffffffffffff811115612dd957612dd86123c1565b5b612de588828901612ce2565b9450945050604086013567ffffffffffffffff811115612e0857612e076123c1565b5b612e1488828901612d38565b92509250509295509295909350565b600067ffffffffffffffff821115612e3e57612e3d61266c565b5b612e47826125fb565b9050602081019050919050565b6000612e67612e6284612e23565b6126cc565b905082815260208101848484011115612e8357612e826127af565b5b612e8e8482856127e5565b509392505050565b600082601f830112612eab57612eaa612667565b5b8135612ebb848260208601612e54565b91505092915050565b60008060408385031215612edb57612eda6123bc565b5b6000612ee985828601612445565b925050602083013567ffffffffffffffff811115612f0a57612f096123c1565b5b612f1685828601612e96565b9150509250929050565b60008060408385031215612f3757612f366123bc565b5b6000612f458582860161240f565b9250506020612f568582860161240f565b9150509250929050565b600080600080600060a08688031215612f7c57612f7b6123bc565b5b6000612f8a8882890161240f565b9550506020612f9b8882890161240f565b9450506040612fac88828901612445565b9350506060612fbd88828901612445565b925050608086013567ffffffffffffffff811115612fde57612fdd6123c1565b5b612fea88828901612836565b9150509295509295909350565b600061300282612c8f565b9050919050565b61301281612ff7565b82525050565b600060208201905061302d6000830184613009565b92915050565b7f455243313135353a2062616c616e636520717565727920666f7220746865207a60008201527f65726f2061646472657373000000000000000000000000000000000000000000602082015250565b600061308f602b836125b7565b915061309a82613033565b604082019050919050565b600060208201905081810360008301526130be81613082565b9050919050565b7f4e487b7100000000000000000000000000000000000000000000000000000000600052602260045260246000fd5b6000600282049050600182168061310c57607f821691505b60208210810361311f5761311e6130c5565b5b50919050565b600081905092915050565b60008190508160005260206000209050919050565b60008154613152816130f4565b61315c8186613125565b94506001821660008114613177576001811461318c576131bf565b60ff19831686528115158202860193506131bf565b61319585613130565b60005b838110156131b757815481890152600182019150602081019050613198565b838801955050505b50505092915050565b60006131d3826125ac565b6131dd8185613125565b93506131ed8185602086016125c8565b80840191505092915050565b60006132058285613145565b915061321182846131c8565b91508190509392505050565b7f455243313135353a207472616e736665722063616c6c6572206973206e6f742060008201527f6f776e6572206e6f7220617070726f7665640000000000000000000000000000602082015250565b60006132796032836125b7565b91506132848261321d565b604082019050919050565b600060208201905081810360008301526132a88161326c565b9050919050565b7f455243313135353a206163636f756e747320616e6420696473206c656e67746860008201527f206d69736d617463680000000000000000000000000000000000000000000000602082015250565b600061330b6029836125b7565b9150613316826132af565b604082019050919050565b6000602082019050818103600083015261333a816132fe565b9050919050565b7f4e487b7100000000000000000000000000000000000000000000000000000000600052603260045260246000fd5b7f4e487b7100000000000000000000000000000000000000000000000000000000600052601160045260246000fd5b60006133aa82612424565b91507fffffffffffffffffffffffffffffffffffffffffffffffffffffffffffffffff82036133dc576133db613370565b5b600182019050919050565b60008160601b9050919050565b60006133ff826133e7565b9050919050565b6000613411826133f4565b9050919050565b613429613424826123e6565b613406565b82525050565b6000819050919050565b61344a61344582612933565b61342f565b82525050565b6000819050919050565b61346b61346682612424565b613450565b82525050565b600061347d8287613418565b60148201915061348d8286613439565b60208201915061349d8285613439565b6020820191506134ad828461345a565b60208201915081905095945050505050565b600060ff82169050919050565b60006134e76134e26134dd846134bf565b612c63565b6134bf565b9050919050565b6134f7816134cc565b82525050565b600081519050919050565b600082825260208201905092915050565b6000613524826134fd565b61352e8185613508565b935061353e8185602086016125c8565b613547816125fb565b840191505092915050565b600060608201905061356760008301866134ee565b613574602083018561294f565b81810360408301526135868184613519565b9050949350505050565b600061359b826123e6565b9050919050565b6135ab81613590565b81146135b657600080fd5b50565b6000815190506135c8816135a2565b92915050565b6000815190506135dd8161242e565b92915050565b600080604083850312156135fa576135f96123bc565b5b6000613608858286016135b9565b9250506020613619858286016135ce565b9150509250929050565b600081905092915050565b600061363a8385613623565b93506136478385846127e5565b82840190509392505050565b600061366082848661362e565b91508190509392505050565b60006040820190506136816000830185612b94565b61368e602083018461249a565b9392505050565b60006136a082612424565b91506136ab83612424565b9250827fffffffffffffffffffffffffffffffffffffffffffffffffffffffffffffffff038211156136e0576136df613370565b5b828201905092915050565b7f4e487b7100000000000000000000000000000000000000000000000000000000600052602160045260246000fd5b6003811061372757600080fd5b50565b6000815190506137398161371a565b92915050565b600060208284031215613755576137546123bc565b5b60006137638482850161372a565b91505092915050565b7f455243313135353a2063616c6c6572206973206e6f74206f776e6572206e6f7260008201527f20617070726f7665640000000000000000000000000000000000000000000000602082015250565b60006137c86029836125b7565b91506137d38261376c565b604082019050919050565b600060208201905081810360008301526137f7816137bb565b9050919050565b600060208284031215613814576138136123bc565b5b6000613822848285016135b9565b91505092915050565b60006020820190506138406000830184612b94565b92915050565b7f455243313135353a2069647320616e6420616d6f756e7473206c656e6774682060008201527f6d69736d61746368000000000000000000000000000000000000000000000000602082015250565b60006138a26028836125b7565b91506138ad82613846565b604082019050919050565b600060208201905081810360008301526138d181613895565b9050919050565b7f455243313135353a207472616e7366657220746f20746865207a65726f20616460008201527f6472657373000000000000000000000000000000000000000000000000000000602082015250565b60006139346025836125b7565b915061393f826138d8565b604082019050919050565b6000602082019050818103600083015261396381613927565b9050919050565b7f455243313135353a20696e73756666696369656e742062616c616e636520666f60008201527f72207472616e7366657200000000000000000000000000000000000000000000602082015250565b60006139c6602a836125b7565b91506139d18261396a565b604082019050919050565b600060208201905081810360008301526139f5816139b9565b9050919050565b60006040820190508181036000830152613a168185612b14565b90508181036020830152613a2a8184612b14565b90509392505050565b7f455243313135353a2073657474696e6720617070726f76616c2073746174757360008201527f20666f722073656c660000000000000000000000000000000000000000000000602082015250565b6000613a8f6029836125b7565b9150613a9a82613a33565b604082019050919050565b60006020820190508181036000830152613abe81613a82565b9050919050565b7f455243313135353a206d696e7420746f20746865207a65726f2061646472657360008201527f7300000000000000000000000000000000000000000000000000000000000000602082015250565b6000613b216021836125b7565b9150613b2c82613ac5565b604082019050919050565b60006020820190508181036000830152613b5081613b14565b9050919050565b6000604082019050613b6c600083018561249a565b613b79602083018461249a565b9392505050565b7f4e487b7100000000000000000000000000000000000000000000000000000000600052601260045260246000fd5b6000613bba82612424565b9150613bc583612424565b925082613bd557613bd4613b80565b5b828204905092915050565b6000613beb82612424565b9150613bf683612424565b9250817fffffffffffffffffffffffffffffffffffffffffffffffffffffffffffffffff0483118215151615613c2f57613c2e613370565b5b828202905092915050565b60006020601f8301049050919050565b600082821b905092915050565b600060088302613c877fffffffffffffffffffffffffffffffffffffffffffffffffffffffffffffffff82613c4a565b613c918683613c4a565b95508019841693508086168417925050509392505050565b6000613cc4613cbf613cba84612424565b612c63565b612424565b9050919050565b6000819050919050565b613cde83613ca9565b613cf2613cea82613ccb565b848454613c57565b825550505050565b600090565b613d07613cfa565b613d12818484613cd5565b505050565b5b81811015613d3657613d2b600082613cff565b600181019050613d18565b5050565b601f821115613d7b57613d4c81613130565b613d5584613c3a565b81016020851015613d64578190505b613d78613d7085613c3a565b830182613d17565b50505b505050565b600082821c905092915050565b6000613d9e60001984600802613d80565b1980831691505092915050565b6000613db78383613d8d565b9150826002028217905092915050565b613dd0826125ac565b67ffffffffffffffff811115613de957613de861266c565b5b613df382546130f4565b613dfe828285613d3a565b600060209050601f831160018114613e315760008415613e1f578287015190505b613e298582613dab565b865550613e91565b601f198416613e3f86613130565b60005b82811015613e6757848901518255600182019150602085019450602081019050613e42565b86831015613e845784890151613e80601f891682613d8d565b8355505b6001600288020188555050505b505050505050565b600060a082019050613eae6000830188612b94565b613ebb6020830187612b94565b8181036040830152613ecd8186612b14565b90508181036060830152613ee18185612b14565b90508181036080830152613ef58184613519565b90509695505050505050565b600081519050613f10816124f0565b92915050565b600060208284031215613f2c57613f2b6123bc565b5b6000613f3a84828501613f01565b91505092915050565b60008160e01c9050919050565b600060033d1115613f6f5760046000803e613f6c600051613f43565b90505b90565b600060443d10613fff57613f846123b2565b60043d036004823e80513d602482011167ffffffffffffffff82111715613fac575050613fff565b808201805167ffffffffffffffff811115613fca5750505050613fff565b80602083010160043d038501811115613fe7575050505050613fff565b613ff68260200185018661269b565b82955050505050505b90565b7f455243313135353a207472616e7366657220746f206e6f6e204552433131353560008201527f526563656976657220696d706c656d656e746572000000000000000000000000602082015250565b600061405e6034836125b7565b915061406982614002565b604082019050919050565b6000602082019050818103600083015261408d81614051565b9050919050565b7f455243313135353a204552433131353552656365697665722072656a6563746560008201527f6420746f6b656e73000000000000000000000000000000000000000000000000602082015250565b60006140f06028836125b7565b91506140fb82614094565b604082019050919050565b6000602082019050818103600083015261411f816140e3565b9050919050565b600060a08201905061413b6000830188612b94565b6141486020830187612b94565b614155604083018661249a565b614162606083018561249a565b81810360808301526141748184613519565b9050969550505050505056fe4142434445464748494a4b4c4d4e4f505152535455565758595a6162636465666768696a6b6c6d6e6f707172737475767778797a303132333435363738392b2fa26469706673582212207d0f44e57a74c49ff26a95e60fbb2ece7f74c5ae4ab261df91bc870c223d2db764736f6c634300080f0033",
  "immutableReferences": {
    "6938": [
      {
        "length": 32,
        "start": 1721
      },
      {
        "length": 32,
        "start": 2359
      },
      {
        "length": 32,
        "start": 3118
      },
      {
        "length": 32,
        "start": 4798
      }
    ],
    "6942": [
      {
        "length": 32,
        "start": 2297
      },
      {
        "length": 32,
        "start": 3056
      },
      {
        "length": 32,
        "start": 4465
      },
      {
        "length": 32,
        "start": 4736
      }
    ]
  },
  "source": "//SPDX-License-Identifier: MIT\npragma solidity ^0.8.15;\n\nimport { Base64 } from \"@openzeppelin/contracts/utils/Base64.sol\";\nimport { ERC1155URIStorage, ERC1155 } from \"@openzeppelin/contracts/token/ERC1155/extensions/ERC1155URIStorage.sol\";\nimport { IDisputeGameFactory } from \"@eth-optimism/contracts-bedrock/src/dispute/interfaces/IDisputeGameFactory.sol\";\nimport { IDisputeGame } from \"@eth-optimism/contracts-bedrock/src/dispute/interfaces/IDisputeGame.sol\";\nimport { GameTypes, Claim, GameStatus } from \"@eth-optimism/contracts-bedrock/src/libraries/DisputeTypes.sol\";\n\n/**\n* @title ERC1155ChallengeableMint\n* @dev This contract allows for the creation of ERC1155 tokens through a two stage minting process\n*\n*      The first stage is a proposal stage where a user can propose a new token to be minted\n*      during a challenge period anyone who disputes the validity of the token can challenge it by\n*      initiating a dispute game. If the challenger wins the dispute game\n*      the token is not minted and its proposal cancelled.\n*\n*      The second stage is a claim where the original proposer can receive an actual NFT\n*      if it remains unchallenged for sufficiently long.\n*\n*       ---\n*\n*      This contract uses on-chain metadata since the metadata itself is required to check the\n*      validity of the token. This may be expensive for large metadata.\n*/\ncontract ERC1155ChallengeableMint is ERC1155URIStorage {\n\n    /// @dev Represents a token that has yet to be minted. It must persist\n    ///      for at least SETTLEMENT_PERIOD before it can be minted for real\n    struct PendingMint {\n        /// The address that will receive the token once minted\n        address to;\n        /// metadata is not stored, only the hash\n        bytes32 metadataHash;\n        /// hash of public input data to provable computation\n        bytes32 witnessHash;\n        /// block timestamp when proposal created\n        uint256 timestamp;\n    }\n\n    /// @dev The amount of time that must pass before a pending mint can be minted\n    uint256 public constant SETTLEMENT_PERIOD = 1 minutes;\n\n    /// @dev The hash of the code to be run in the provable execution\n    Claim public immutable ROOT_CLAIM;\n\n    /// @dev The dispute game factory used to create and track open disputes\n    IDisputeGameFactory public immutable disputeGameFactory;\n    \n    /// @dev Used to generate a fresh token ID for each token\n    uint256 public nonce;\n\n    /// @dev Mapping from token nonce to mintable status\n    mapping(uint256 => PendingMint) public pendingMints;\n\n\n    event MintProposed(uint256 indexed id, address to, uint256 timestamp);\n    event MintChallenged(uint256 indexed id, address challenger);\n    event Minted(uint256 indexed id, address indexed to);\n\n    error MintProposalNotSettled(uint256 id);\n    error ProposalHasOpenChallenge(uint256 id);\n    error ProposalClaimDisproven(uint256 id);\n    error MetadataHashMismatch(uint256 id);\n    error CannotChallengeProposalHasSettled(uint256 id);\n\n\n    /**\n    * @dev Construct a new NFTCollection contract.\n     */\n    constructor(address disputeGameFactoryAddr, Claim rootClaim) ERC1155(\"\") {\n        disputeGameFactory = IDisputeGameFactory(disputeGameFactoryAddr);\n        ROOT_CLAIM = rootClaim;\n        _setBaseURI(\"data:application/json;base64,\");\n    }\n\n    /**\n    * @dev Propose a new mint.\n    * @param metadataJson The string of metadata.json to associate with the token.\n    * @param witness The witness given as input to the provable program \n    *                to produce this metadata output.\n    *                This must be provided in calldata so watchers can replicate the computation\n    */\n    function ProposeMint(address to, string calldata metadataJson, bytes calldata witness) external {\n        uint256 id = nonce++;\n        pendingMints[id] = PendingMint({\n            to: to,\n            metadataHash: keccak256(bytes(metadataJson)),\n            witnessHash: keccak256(witness),\n            timestamp: block.timestamp\n        });\n        emit MintProposed(id, to, block.timestamp);\n    }\n\n    /**\n    * @dev Challenge a pending mint.\n    *    This will lead to the creation of a challenge game on this mint.\n    *    The winner of the game receives 1/2 the bond from the opponent.\n    *    The rest goes into the dev fund :)\n    * @param id The ID of the pending mint to challenge\n    */\n    function ChallengeMint(uint256 id) external {\n        PendingMint memory proposal = pendingMints[id];\n\n        if (block.timestamp > proposal.timestamp + SETTLEMENT_PERIOD)\n            revert CannotChallengeProposalHasSettled(id);\n\n        disputeGameFactory.create(\n            GameTypes.FAULT,\n            ROOT_CLAIM,\n            bytes(abi.encodePacked(proposal.to, proposal.metadataHash, proposal.witnessHash, proposal.timestamp))\n        );\n\n        emit MintChallenged(id, msg.sender);\n    }\n\n    /**\n    * @dev Mint a new token with the given metadata.\n    * @param id The ID of the pending mint (will also be the ID of the token)\n    * @param metadataJson The string of metadata.json to associate with the token.\n    *                     Must match the hash stored in pending\n    */\n    function ClaimMint(uint256 id, string memory metadataJson) external {\n        PendingMint storage proposal = pendingMints[id];\n\n        if (block.timestamp <= proposal.timestamp + SETTLEMENT_PERIOD)\n            revert MintProposalNotSettled(id);\n\n        if (proposal.metadataHash != keccak256(bytes(metadataJson)))\n            revert MetadataHashMismatch(id);\n\n        // see if there is an open challenge\n        (IDisputeGame game,) = disputeGameFactory.games(\n            GameTypes.FAULT,\n            ROOT_CLAIM,\n            bytes(abi.encodePacked(proposal.to, proposal.metadataHash, proposal.witnessHash, proposal.timestamp))\n        );\n        if (address(game) != address(0) && game.status() == GameStatus.IN_PROGRESS) {\n            revert ProposalHasOpenChallenge(id);\n        }\n        if (address(game) != address(0) && game.status() == GameStatus.DEFENDER_WINS) {\n            revert ProposalClaimDisproven(id);\n        }\n\n        _mint(proposal.to, id, 1, \"\");\n        _setURI(id, Base64.encode(bytes(metadataJson)));\n        delete pendingMints[id];\n\n        emit Minted(id, proposal.to);\n    }\n\n    /**\n     * @dev Get the address of the dispute game for the given pending mint\n     */\n    function gameAddress(uint256 id) public view returns (IDisputeGame game) {\n        PendingMint memory proposal = pendingMints[id];\n        (game,) = disputeGameFactory.games(\n            GameTypes.FAULT,\n            ROOT_CLAIM,\n            bytes(abi.encodePacked(proposal.to, proposal.metadataHash, proposal.witnessHash, proposal.timestamp))\n        );\n    }\n}\n",
  "sourcePath": "/Users/willem/repos/ProofBoy/contracts/ERC1155ChallengeableMint.sol",
  "compiler": {
    "name": "solc",
    "version": "0.8.15+commit.e14f2714.Emscripten.clang"
  },
  "schemaVersion": "3.4.14",
  "updatedAt": "2023-08-12T04:42:00.957Z",
  "networkType": "ethereum",
  "devdoc": {
    "details": "This contract allows for the creation of ERC1155 tokens through a two stage minting process      The first stage is a proposal stage where a user can propose a new token to be minted      during a challenge period anyone who disputes the validity of the token can challenge it by      initiating a dispute game. If the challenger wins the dispute game      the token is not minted and its proposal cancelled.      The second stage is a claim where the original proposer can receive an actual NFT      if it remains unchallenged for sufficiently long.       ---      This contract uses on-chain metadata since the metadata itself is required to check the      validity of the token. This may be expensive for large metadata.",
    "kind": "dev",
    "methods": {
      "ChallengeMint(uint256)": {
        "details": "Challenge a pending mint.    This will lead to the creation of a challenge game on this mint.    The winner of the game receives 1/2 the bond from the opponent.    The rest goes into the dev fund :)",
        "params": {
          "id": "The ID of the pending mint to challenge"
        }
      },
      "ClaimMint(uint256,string)": {
        "details": "Mint a new token with the given metadata.",
        "params": {
          "id": "The ID of the pending mint (will also be the ID of the token)",
          "metadataJson": "The string of metadata.json to associate with the token.                     Must match the hash stored in pending"
        }
      },
      "ProposeMint(address,string,bytes)": {
        "details": "Propose a new mint.",
        "params": {
          "metadataJson": "The string of metadata.json to associate with the token.",
          "witness": "The witness given as input to the provable program                 to produce this metadata output.                This must be provided in calldata so watchers can replicate the computation"
        }
      },
      "balanceOf(address,uint256)": {
        "details": "See {IERC1155-balanceOf}. Requirements: - `account` cannot be the zero address."
      },
      "balanceOfBatch(address[],uint256[])": {
        "details": "See {IERC1155-balanceOfBatch}. Requirements: - `accounts` and `ids` must have the same length."
      },
      "constructor": {
        "details": "Construct a new NFTCollection contract."
      },
      "gameAddress(uint256)": {
        "details": "Get the address of the dispute game for the given pending mint"
      },
      "isApprovedForAll(address,address)": {
        "details": "See {IERC1155-isApprovedForAll}."
      },
      "safeBatchTransferFrom(address,address,uint256[],uint256[],bytes)": {
        "details": "See {IERC1155-safeBatchTransferFrom}."
      },
      "safeTransferFrom(address,address,uint256,uint256,bytes)": {
        "details": "See {IERC1155-safeTransferFrom}."
      },
      "setApprovalForAll(address,bool)": {
        "details": "See {IERC1155-setApprovalForAll}."
      },
      "supportsInterface(bytes4)": {
        "details": "See {IERC165-supportsInterface}."
      },
      "uri(uint256)": {
        "details": "See {IERC1155MetadataURI-uri}. This implementation returns the concatenation of the `_baseURI` and the token-specific uri if the latter is set This enables the following behaviors: - if `_tokenURIs[tokenId]` is set, then the result is the concatenation   of `_baseURI` and `_tokenURIs[tokenId]` (keep in mind that `_baseURI`   is empty per default); - if `_tokenURIs[tokenId]` is NOT set then we fallback to `super.uri()`   which in most cases will contain `ERC1155._uri`; - if `_tokenURIs[tokenId]` is NOT set, and if the parents do not have a   uri value set, then the result is empty."
      }
    },
    "stateVariables": {
      "ROOT_CLAIM": {
        "details": "The hash of the code to be run in the provable execution"
      },
      "SETTLEMENT_PERIOD": {
        "details": "The amount of time that must pass before a pending mint can be minted"
      },
      "disputeGameFactory": {
        "details": "The dispute game factory used to create and track open disputes"
      },
      "nonce": {
        "details": "Used to generate a fresh token ID for each token"
      },
      "pendingMints": {
        "details": "Mapping from token nonce to mintable status"
      }
    },
    "title": "ERC1155ChallengeableMint",
    "version": 1
  },
  "userdoc": {
    "kind": "user",
    "methods": {},
    "version": 1
  }
}