{
  "contractName": "ERC1155ChallengeableMint",
  "abi": [
    {
      "inputs": [
        {
          "internalType": "address",
          "name": "disputeGameFactoryAddr",
          "type": "address"
        },
        {
          "internalType": "Claim",
          "name": "rootClaim",
          "type": "bytes32"
        }
      ],
      "stateMutability": "nonpayable",
      "type": "constructor"
    },
    {
      "inputs": [
        {
          "internalType": "uint256",
          "name": "id",
          "type": "uint256"
        }
      ],
      "name": "CannotChallengeProposalHasSettled",
      "type": "error"
    },
    {
      "inputs": [
        {
          "internalType": "uint256",
          "name": "id",
          "type": "uint256"
        }
      ],
      "name": "MetadataHashMismatch",
      "type": "error"
    },
    {
      "inputs": [
        {
          "internalType": "uint256",
          "name": "id",
          "type": "uint256"
        }
      ],
      "name": "MintProposalNotSettled",
      "type": "error"
    },
    {
      "inputs": [
        {
          "internalType": "uint256",
          "name": "id",
          "type": "uint256"
        }
      ],
      "name": "ProposalHasOpenChallenge",
      "type": "error"
    },
    {
      "anonymous": false,
      "inputs": [
        {
          "indexed": true,
          "internalType": "address",
          "name": "account",
          "type": "address"
        },
        {
          "indexed": true,
          "internalType": "address",
          "name": "operator",
          "type": "address"
        },
        {
          "indexed": false,
          "internalType": "bool",
          "name": "approved",
          "type": "bool"
        }
      ],
      "name": "ApprovalForAll",
      "type": "event"
    },
    {
      "anonymous": false,
      "inputs": [
        {
          "indexed": true,
          "internalType": "uint256",
          "name": "id",
          "type": "uint256"
        },
        {
          "indexed": false,
          "internalType": "address",
          "name": "challenger",
          "type": "address"
        }
      ],
      "name": "MintChallenged",
      "type": "event"
    },
    {
      "anonymous": false,
      "inputs": [
        {
          "indexed": true,
          "internalType": "uint256",
          "name": "id",
          "type": "uint256"
        },
        {
          "indexed": false,
          "internalType": "uint256",
          "name": "timestamp",
          "type": "uint256"
        }
      ],
      "name": "MintProposed",
      "type": "event"
    },
    {
      "anonymous": false,
      "inputs": [
        {
          "indexed": true,
          "internalType": "uint256",
          "name": "id",
          "type": "uint256"
        },
        {
          "indexed": true,
          "internalType": "address",
          "name": "to",
          "type": "address"
        }
      ],
      "name": "Minted",
      "type": "event"
    },
    {
      "anonymous": false,
      "inputs": [
        {
          "indexed": true,
          "internalType": "address",
          "name": "operator",
          "type": "address"
        },
        {
          "indexed": true,
          "internalType": "address",
          "name": "from",
          "type": "address"
        },
        {
          "indexed": true,
          "internalType": "address",
          "name": "to",
          "type": "address"
        },
        {
          "indexed": false,
          "internalType": "uint256[]",
          "name": "ids",
          "type": "uint256[]"
        },
        {
          "indexed": false,
          "internalType": "uint256[]",
          "name": "values",
          "type": "uint256[]"
        }
      ],
      "name": "TransferBatch",
      "type": "event"
    },
    {
      "anonymous": false,
      "inputs": [
        {
          "indexed": true,
          "internalType": "address",
          "name": "operator",
          "type": "address"
        },
        {
          "indexed": true,
          "internalType": "address",
          "name": "from",
          "type": "address"
        },
        {
          "indexed": true,
          "internalType": "address",
          "name": "to",
          "type": "address"
        },
        {
          "indexed": false,
          "internalType": "uint256",
          "name": "id",
          "type": "uint256"
        },
        {
          "indexed": false,
          "internalType": "uint256",
          "name": "value",
          "type": "uint256"
        }
      ],
      "name": "TransferSingle",
      "type": "event"
    },
    {
      "anonymous": false,
      "inputs": [
        {
          "indexed": false,
          "internalType": "string",
          "name": "value",
          "type": "string"
        },
        {
          "indexed": true,
          "internalType": "uint256",
          "name": "id",
          "type": "uint256"
        }
      ],
      "name": "URI",
      "type": "event"
    },
    {
      "inputs": [],
      "name": "ROOT_CLAIM",
      "outputs": [
        {
          "internalType": "Claim",
          "name": "",
          "type": "bytes32"
        }
      ],
      "stateMutability": "view",
      "type": "function"
    },
    {
      "inputs": [],
      "name": "SETTLEMENT_PERIOD",
      "outputs": [
        {
          "internalType": "uint256",
          "name": "",
          "type": "uint256"
        }
      ],
      "stateMutability": "view",
      "type": "function"
    },
    {
      "inputs": [
        {
          "internalType": "address",
          "name": "account",
          "type": "address"
        },
        {
          "internalType": "uint256",
          "name": "id",
          "type": "uint256"
        }
      ],
      "name": "balanceOf",
      "outputs": [
        {
          "internalType": "uint256",
          "name": "",
          "type": "uint256"
        }
      ],
      "stateMutability": "view",
      "type": "function"
    },
    {
      "inputs": [
        {
          "internalType": "address[]",
          "name": "accounts",
          "type": "address[]"
        },
        {
          "internalType": "uint256[]",
          "name": "ids",
          "type": "uint256[]"
        }
      ],
      "name": "balanceOfBatch",
      "outputs": [
        {
          "internalType": "uint256[]",
          "name": "",
          "type": "uint256[]"
        }
      ],
      "stateMutability": "view",
      "type": "function"
    },
    {
      "inputs": [],
      "name": "disputeGameFactory",
      "outputs": [
        {
          "internalType": "contract IDisputeGameFactory",
          "name": "",
          "type": "address"
        }
      ],
      "stateMutability": "view",
      "type": "function"
    },
    {
      "inputs": [
        {
          "internalType": "address",
          "name": "account",
          "type": "address"
        },
        {
          "internalType": "address",
          "name": "operator",
          "type": "address"
        }
      ],
      "name": "isApprovedForAll",
      "outputs": [
        {
          "internalType": "bool",
          "name": "",
          "type": "bool"
        }
      ],
      "stateMutability": "view",
      "type": "function"
    },
    {
      "inputs": [
        {
          "internalType": "uint256",
          "name": "",
          "type": "uint256"
        }
      ],
      "name": "pendingMints",
      "outputs": [
        {
          "internalType": "address",
          "name": "to",
          "type": "address"
        },
        {
          "internalType": "bytes32",
          "name": "metadataHash",
          "type": "bytes32"
        },
        {
          "internalType": "bytes32",
          "name": "journalHash",
          "type": "bytes32"
        },
        {
          "internalType": "uint256",
          "name": "timestamp",
          "type": "uint256"
        }
      ],
      "stateMutability": "view",
      "type": "function"
    },
    {
      "inputs": [
        {
          "internalType": "address",
          "name": "from",
          "type": "address"
        },
        {
          "internalType": "address",
          "name": "to",
          "type": "address"
        },
        {
          "internalType": "uint256[]",
          "name": "ids",
          "type": "uint256[]"
        },
        {
          "internalType": "uint256[]",
          "name": "amounts",
          "type": "uint256[]"
        },
        {
          "internalType": "bytes",
          "name": "data",
          "type": "bytes"
        }
      ],
      "name": "safeBatchTransferFrom",
      "outputs": [],
      "stateMutability": "nonpayable",
      "type": "function"
    },
    {
      "inputs": [
        {
          "internalType": "address",
          "name": "from",
          "type": "address"
        },
        {
          "internalType": "address",
          "name": "to",
          "type": "address"
        },
        {
          "internalType": "uint256",
          "name": "id",
          "type": "uint256"
        },
        {
          "internalType": "uint256",
          "name": "amount",
          "type": "uint256"
        },
        {
          "internalType": "bytes",
          "name": "data",
          "type": "bytes"
        }
      ],
      "name": "safeTransferFrom",
      "outputs": [],
      "stateMutability": "nonpayable",
      "type": "function"
    },
    {
      "inputs": [
        {
          "internalType": "address",
          "name": "operator",
          "type": "address"
        },
        {
          "internalType": "bool",
          "name": "approved",
          "type": "bool"
        }
      ],
      "name": "setApprovalForAll",
      "outputs": [],
      "stateMutability": "nonpayable",
      "type": "function"
    },
    {
      "inputs": [
        {
          "internalType": "bytes4",
          "name": "interfaceId",
          "type": "bytes4"
        }
      ],
      "name": "supportsInterface",
      "outputs": [
        {
          "internalType": "bool",
          "name": "",
          "type": "bool"
        }
      ],
      "stateMutability": "view",
      "type": "function"
    },
    {
      "inputs": [
        {
          "internalType": "uint256",
          "name": "tokenId",
          "type": "uint256"
        }
      ],
      "name": "uri",
      "outputs": [
        {
          "internalType": "string",
          "name": "",
          "type": "string"
        }
      ],
      "stateMutability": "view",
      "type": "function"
    },
    {
      "inputs": [
        {
          "internalType": "address",
          "name": "to",
          "type": "address"
        },
        {
          "internalType": "string",
          "name": "metadataJson",
          "type": "string"
        },
        {
          "internalType": "bytes",
          "name": "journal",
          "type": "bytes"
        }
      ],
      "name": "ProposeMint",
      "outputs": [],
      "stateMutability": "nonpayable",
      "type": "function"
    },
    {
      "inputs": [
        {
          "internalType": "uint256",
          "name": "id",
          "type": "uint256"
        }
      ],
      "name": "ChallengeMint",
      "outputs": [],
      "stateMutability": "nonpayable",
      "type": "function"
    },
    {
      "inputs": [
        {
          "internalType": "uint256",
          "name": "id",
          "type": "uint256"
        },
        {
          "internalType": "string",
          "name": "metadataJson",
          "type": "string"
        }
      ],
      "name": "ClaimMint",
      "outputs": [],
      "stateMutability": "nonpayable",
      "type": "function"
    }
  ],
  "bytecode": "0x60a06040526040518060200160405280600081525060039081620000249190620003b5565b503480156200003257600080fd5b50604051620042dc380380620042dc833981810160405281019062000058919062000541565b6040518060200160405280600081525062000079816200011160201b60201c565b5081600760006101000a81548173ffffffffffffffffffffffffffffffffffffffff021916908373ffffffffffffffffffffffffffffffffffffffff1602179055508060808181525050620001096040518060400160405280601d81526020017f646174613a6170706c69636174696f6e2f6a736f6e3b6261736536342c0000008152506200012660201b60201c565b505062000588565b8060029081620001229190620003b5565b5050565b8060039081620001379190620003b5565b5050565b600081519050919050565b7f4e487b7100000000000000000000000000000000000000000000000000000000600052604160045260246000fd5b7f4e487b7100000000000000000000000000000000000000000000000000000000600052602260045260246000fd5b60006002820490506001821680620001bd57607f821691505b602082108103620001d357620001d262000175565b5b50919050565b60008190508160005260206000209050919050565b60006020601f8301049050919050565b600082821b905092915050565b6000600883026200023d7fffffffffffffffffffffffffffffffffffffffffffffffffffffffffffffffff82620001fe565b620002498683620001fe565b95508019841693508086168417925050509392505050565b6000819050919050565b6000819050919050565b600062000296620002906200028a8462000261565b6200026b565b62000261565b9050919050565b6000819050919050565b620002b28362000275565b620002ca620002c1826200029d565b8484546200020b565b825550505050565b600090565b620002e1620002d2565b620002ee818484620002a7565b505050565b5b8181101562000316576200030a600082620002d7565b600181019050620002f4565b5050565b601f82111562000365576200032f81620001d9565b6200033a84620001ee565b810160208510156200034a578190505b620003626200035985620001ee565b830182620002f3565b50505b505050565b600082821c905092915050565b60006200038a600019846008026200036a565b1980831691505092915050565b6000620003a5838362000377565b9150826002028217905092915050565b620003c0826200013b565b67ffffffffffffffff811115620003dc57620003db62000146565b5b620003e88254620001a4565b620003f58282856200031a565b600060209050601f8311600181146200042d576000841562000418578287015190505b62000424858262000397565b86555062000494565b601f1984166200043d86620001d9565b60005b82811015620004675784890151825560018201915060208501945060208101905062000440565b8683101562000487578489015162000483601f89168262000377565b8355505b6001600288020188555050505b505050505050565b600080fd5b600073ffffffffffffffffffffffffffffffffffffffff82169050919050565b6000620004ce82620004a1565b9050919050565b620004e081620004c1565b8114620004ec57600080fd5b50565b6000815190506200050081620004d5565b92915050565b6000819050919050565b6200051b8162000506565b81146200052757600080fd5b50565b6000815190506200053b8162000510565b92915050565b600080604083850312156200055b576200055a6200049c565b5b60006200056b85828601620004ef565b92505060206200057e858286016200052a565b9150509250929050565b608051613d2a620005b26000396000818161065601528181610a310152610e9b0152613d2a6000f3fe608060405234801561001057600080fd5b50600436106100f45760003560e01c806363900ca611610097578063e985e9c511610066578063e985e9c514610298578063f242432a146102c8578063f2b4e617146102e4578063faba48a314610302576100f4565b806363900ca614610211578063a22cb46514610244578063d109d23014610260578063e0399c291461027c576100f4565b80630e89341c116100d35780630e89341c146101775780632eb2c2d6146101a75780634a1890f0146101c35780634e1273f4146101e1576100f4565b8062fdd58e146100f957806301ffc9a71461012957806309e54b5b14610159575b600080fd5b610113600480360381019061010e9190612037565b61031e565b6040516101209190612086565b60405180910390f35b610143600480360381019061013e91906120f9565b6103e6565b6040516101509190612141565b60405180910390f35b6101616104c8565b60405161016e9190612086565b60405180910390f35b610191600480360381019061018c919061215c565b6104ce565b60405161019e9190612222565b60405180910390f35b6101c160048036038101906101bc9190612441565b6105b3565b005b6101cb610654565b6040516101d8919061253b565b60405180910390f35b6101fb60048036038101906101f69190612619565b610678565b604051610208919061274f565b60405180910390f35b61022b6004803603810190610226919061215c565b610791565b60405161023b949392919061278f565b60405180910390f35b61025e60048036038101906102599190612800565b6107e1565b005b61027a600480360381019061027591906128f1565b6107f7565b005b61029660048036038101906102919190612a27565b610932565b005b6102b260048036038101906102ad9190612a83565b610c12565b6040516102bf9190612141565b60405180910390f35b6102e260048036038101906102dd9190612ac3565b610ca6565b005b6102ec610d47565b6040516102f99190612bb9565b60405180910390f35b61031c6004803603810190610317919061215c565b610d6d565b005b60008073ffffffffffffffffffffffffffffffffffffffff168373ffffffffffffffffffffffffffffffffffffffff160361038e576040517f08c379a000000000000000000000000000000000000000000000000000000000815260040161038590612c46565b60405180910390fd5b60008083815260200190815260200160002060008473ffffffffffffffffffffffffffffffffffffffff1673ffffffffffffffffffffffffffffffffffffffff16815260200190815260200160002054905092915050565b60007fd9b67a26000000000000000000000000000000000000000000000000000000007bffffffffffffffffffffffffffffffffffffffffffffffffffffffff1916827bffffffffffffffffffffffffffffffffffffffffffffffffffffffff191614806104b157507f0e89341c000000000000000000000000000000000000000000000000000000007bffffffffffffffffffffffffffffffffffffffffffffffffffffffff1916827bffffffffffffffffffffffffffffffffffffffffffffffffffffffff1916145b806104c157506104c082610f8e565b5b9050919050565b610e1081565b606060006004600084815260200190815260200160002080546104f090612c95565b80601f016020809104026020016040519081016040528092919081815260200182805461051c90612c95565b80156105695780601f1061053e57610100808354040283529160200191610569565b820191906000526020600020905b81548152906001019060200180831161054c57829003601f168201915b5050505050905060008151116105875761058283610ff8565b6105ab565b60038160405160200161059b929190612d9a565b6040516020818303038152906040525b915050919050565b6105bb61108c565b73ffffffffffffffffffffffffffffffffffffffff168573ffffffffffffffffffffffffffffffffffffffff1614806106015750610600856105fb61108c565b610c12565b5b610640576040517f08c379a000000000000000000000000000000000000000000000000000000000815260040161063790612e30565b60405180910390fd5b61064d8585858585611094565b5050505050565b7f000000000000000000000000000000000000000000000000000000000000000081565b606081518351146106be576040517f08c379a00000000000000000000000000000000000000000000000000000000081526004016106b590612ec2565b60405180910390fd5b6000835167ffffffffffffffff8111156106db576106da612249565b5b6040519080825280602002602001820160405280156107095781602001602082028036833780820191505090505b50905060005b84518110156107865761075685828151811061072e5761072d612ee2565b5b602002602001015185838151811061074957610748612ee2565b5b602002602001015161031e565b82828151811061076957610768612ee2565b5b6020026020010181815250508061077f90612f40565b905061070f565b508091505092915050565b60066020528060005260406000206000915090508060000160009054906101000a900473ffffffffffffffffffffffffffffffffffffffff16908060010154908060020154908060030154905084565b6107f36107ec61108c565b83836113b5565b5050565b60006005600081548092919061080c90612f40565b91905055905060405180608001604052808773ffffffffffffffffffffffffffffffffffffffff1681526020018686604051610849929190612fb8565b604051809103902081526020018484604051610866929190612fb8565b60405180910390208152602001428152506006600083815260200190815260200160002060008201518160000160006101000a81548173ffffffffffffffffffffffffffffffffffffffff021916908373ffffffffffffffffffffffffffffffffffffffff160217905550602082015181600101556040820151816002015560608201518160030155905050807fd0bc66607de65f3b1fabcfbcf0a2623cc9539a0cdbf5a5d1128153ac23ccc549426040516109229190612086565b60405180910390a2505050505050565b600060066000848152602001908152602001600020905042610e10826003015461095c9190612fd1565b1161099e57826040517ff5630a210000000000000000000000000000000000000000000000000000000081526004016109959190612086565b60405180910390fd5b81805190602001208160010154146109ed57826040517f6912760a0000000000000000000000000000000000000000000000000000000081526004016109e49190612086565b60405180910390fd5b6000600760009054906101000a900473ffffffffffffffffffffffffffffffffffffffff1673ffffffffffffffffffffffffffffffffffffffff1663c49d527160007f0000000000000000000000000000000000000000000000000000000000000000856001015486600201548760030154604051602001610a7193929190613069565b6040516020818303038152906040526040518463ffffffff1660e01b8152600401610a9e93929190613139565b6040805180830381865afa158015610aba573d6000803e3d6000fd5b505050506040513d601f19601f82011682018060405250810190610ade91906131ca565b509050600073ffffffffffffffffffffffffffffffffffffffff168173ffffffffffffffffffffffffffffffffffffffff1614610b5257836040517ffca2ffc2000000000000000000000000000000000000000000000000000000008152600401610b499190612086565b60405180910390fd5b610b928260000160009054906101000a900473ffffffffffffffffffffffffffffffffffffffff1685600160405180602001604052806000815250611521565b610ba484610b9f856116d1565b611834565b8160000160009054906101000a900473ffffffffffffffffffffffffffffffffffffffff1673ffffffffffffffffffffffffffffffffffffffff16847fb9203d657e9c0ec8274c818292ab0f58b04e1970050716891770eb1bab5d655e60405160405180910390a350505050565b6000600160008473ffffffffffffffffffffffffffffffffffffffff1673ffffffffffffffffffffffffffffffffffffffff16815260200190815260200160002060008373ffffffffffffffffffffffffffffffffffffffff1673ffffffffffffffffffffffffffffffffffffffff16815260200190815260200160002060009054906101000a900460ff16905092915050565b610cae61108c565b73ffffffffffffffffffffffffffffffffffffffff168573ffffffffffffffffffffffffffffffffffffffff161480610cf45750610cf385610cee61108c565b610c12565b5b610d33576040517f08c379a0000000000000000000000000000000000000000000000000000000008152600401610d2a9061327c565b60405180910390fd5b610d408585858585611899565b5050505050565b600760009054906101000a900473ffffffffffffffffffffffffffffffffffffffff1681565b6000600660008381526020019081526020016000206040518060800160405290816000820160009054906101000a900473ffffffffffffffffffffffffffffffffffffffff1673ffffffffffffffffffffffffffffffffffffffff1673ffffffffffffffffffffffffffffffffffffffff1681526020016001820154815260200160028201548152602001600382015481525050905042610e108260600151610e169190612fd1565b1115610e5957816040517fcad27b0b000000000000000000000000000000000000000000000000000000008152600401610e509190612086565b60405180910390fd5b600760009054906101000a900473ffffffffffffffffffffffffffffffffffffffff1673ffffffffffffffffffffffffffffffffffffffff16633142e55e60007f00000000000000000000000000000000000000000000000000000000000000008460000151856020015186604001518760600151604051602001610ee194939291906132e4565b6040516020818303038152906040526040518463ffffffff1660e01b8152600401610f0e93929190613139565b6020604051808303816000875af1158015610f2d573d6000803e3d6000fd5b505050506040513d601f19601f82011682018060405250810190610f519190613332565b50817f513913a831f7e641d47b430356dc599acd3e0f4e6e05b191e988a3a1d8b4501833604051610f82919061335f565b60405180910390a25050565b60007f01ffc9a7000000000000000000000000000000000000000000000000000000007bffffffffffffffffffffffffffffffffffffffffffffffffffffffff1916827bffffffffffffffffffffffffffffffffffffffffffffffffffffffff1916149050919050565b60606002805461100790612c95565b80601f016020809104026020016040519081016040528092919081815260200182805461103390612c95565b80156110805780601f1061105557610100808354040283529160200191611080565b820191906000526020600020905b81548152906001019060200180831161106357829003601f168201915b50505050509050919050565b600033905090565b81518351146110d8576040517f08c379a00000000000000000000000000000000000000000000000000000000081526004016110cf906133ec565b60405180910390fd5b600073ffffffffffffffffffffffffffffffffffffffff168473ffffffffffffffffffffffffffffffffffffffff1603611147576040517f08c379a000000000000000000000000000000000000000000000000000000000815260040161113e9061347e565b60405180910390fd5b600061115161108c565b9050611161818787878787611b34565b60005b845181101561131257600085828151811061118257611181612ee2565b5b6020026020010151905060008583815181106111a1576111a0612ee2565b5b60200260200101519050600080600084815260200190815260200160002060008b73ffffffffffffffffffffffffffffffffffffffff1673ffffffffffffffffffffffffffffffffffffffff16815260200190815260200160002054905081811015611242576040517f08c379a000000000000000000000000000000000000000000000000000000000815260040161123990613510565b60405180910390fd5b81810360008085815260200190815260200160002060008c73ffffffffffffffffffffffffffffffffffffffff1673ffffffffffffffffffffffffffffffffffffffff168152602001908152602001600020819055508160008085815260200190815260200160002060008b73ffffffffffffffffffffffffffffffffffffffff1673ffffffffffffffffffffffffffffffffffffffff16815260200190815260200160002060008282546112f79190612fd1565b925050819055505050508061130b90612f40565b9050611164565b508473ffffffffffffffffffffffffffffffffffffffff168673ffffffffffffffffffffffffffffffffffffffff168273ffffffffffffffffffffffffffffffffffffffff167f4a39dc06d4c0dbc64b70af90fd698a233a518aa5d07e595d983b8c0526c8f7fb8787604051611389929190613530565b60405180910390a461139f818787878787611b3c565b6113ad818787878787611b44565b505050505050565b8173ffffffffffffffffffffffffffffffffffffffff168373ffffffffffffffffffffffffffffffffffffffff1603611423576040517f08c379a000000000000000000000000000000000000000000000000000000000815260040161141a906135d9565b60405180910390fd5b80600160008573ffffffffffffffffffffffffffffffffffffffff1673ffffffffffffffffffffffffffffffffffffffff16815260200190815260200160002060008473ffffffffffffffffffffffffffffffffffffffff1673ffffffffffffffffffffffffffffffffffffffff16815260200190815260200160002060006101000a81548160ff0219169083151502179055508173ffffffffffffffffffffffffffffffffffffffff168373ffffffffffffffffffffffffffffffffffffffff167f17307eab39ab6107e8899845ad3d59bd9653f200f220920489ca2b5937696c31836040516115149190612141565b60405180910390a3505050565b600073ffffffffffffffffffffffffffffffffffffffff168473ffffffffffffffffffffffffffffffffffffffff1603611590576040517f08c379a00000000000000000000000000000000000000000000000000000000081526004016115879061366b565b60405180910390fd5b600061159a61108c565b905060006115a785611d1b565b905060006115b485611d1b565b90506115c583600089858589611b34565b8460008088815260200190815260200160002060008973ffffffffffffffffffffffffffffffffffffffff1673ffffffffffffffffffffffffffffffffffffffff16815260200190815260200160002060008282546116249190612fd1565b925050819055508673ffffffffffffffffffffffffffffffffffffffff16600073ffffffffffffffffffffffffffffffffffffffff168473ffffffffffffffffffffffffffffffffffffffff167fc3d58168c5ae7397731d063d5bbf3d657854427343f4c083240f7aacaa2d0f6289896040516116a292919061368b565b60405180910390a46116b983600089858589611b3c565b6116c883600089898989611d95565b50505050505050565b606060008251036116f35760405180602001604052806000815250905061182f565b6000604051806060016040528060408152602001613cb560409139905060006003600285516117229190612fd1565b61172c91906136e3565b60046117389190613714565b67ffffffffffffffff81111561175157611750612249565b5b6040519080825280601f01601f1916602001820160405280156117835781602001600182028036833780820191505090505b509050600182016020820185865187015b808210156117ef576003820191508151603f8160121c168501518453600184019350603f81600c1c168501518453600184019350603f8160061c168501518453600184019350603f8116850151845360018401935050611794565b505060038651066001811461180b576002811461181e57611826565b603d6001830353603d6002830353611826565b603d60018303535b50505080925050505b919050565b8060046000848152602001908152602001600020908161185491906138fb565b50817f6bb7ff708619ba0610cba295a58592e0451dee2622938c8755667688daf3529b611880846104ce565b60405161188d9190612222565b60405180910390a25050565b600073ffffffffffffffffffffffffffffffffffffffff168473ffffffffffffffffffffffffffffffffffffffff1603611908576040517f08c379a00000000000000000000000000000000000000000000000000000000081526004016118ff9061347e565b60405180910390fd5b600061191261108c565b9050600061191f85611d1b565b9050600061192c85611d1b565b905061193c838989858589611b34565b600080600088815260200190815260200160002060008a73ffffffffffffffffffffffffffffffffffffffff1673ffffffffffffffffffffffffffffffffffffffff168152602001908152602001600020549050858110156119d3576040517f08c379a00000000000000000000000000000000000000000000000000000000081526004016119ca90613510565b60405180910390fd5b85810360008089815260200190815260200160002060008b73ffffffffffffffffffffffffffffffffffffffff1673ffffffffffffffffffffffffffffffffffffffff168152602001908152602001600020819055508560008089815260200190815260200160002060008a73ffffffffffffffffffffffffffffffffffffffff1673ffffffffffffffffffffffffffffffffffffffff1681526020019081526020016000206000828254611a889190612fd1565b925050819055508773ffffffffffffffffffffffffffffffffffffffff168973ffffffffffffffffffffffffffffffffffffffff168573ffffffffffffffffffffffffffffffffffffffff167fc3d58168c5ae7397731d063d5bbf3d657854427343f4c083240f7aacaa2d0f628a8a604051611b0592919061368b565b60405180910390a4611b1b848a8a86868a611b3c565b611b29848a8a8a8a8a611d95565b505050505050505050565b505050505050565b505050505050565b611b638473ffffffffffffffffffffffffffffffffffffffff16611f6c565b15611d13578373ffffffffffffffffffffffffffffffffffffffff1663bc197c8187878686866040518663ffffffff1660e01b8152600401611ba99594939291906139cd565b6020604051808303816000875af1925050508015611be557506040513d601f19601f82011682018060405250810190611be29190613a4a565b60015b611c8a57611bf1613a84565b806308c379a003611c4d5750611c05613aa6565b80611c105750611c4f565b806040517f08c379a0000000000000000000000000000000000000000000000000000000008152600401611c449190612222565b60405180910390fd5b505b6040517f08c379a0000000000000000000000000000000000000000000000000000000008152600401611c8190613ba8565b60405180910390fd5b63bc197c8160e01b7bffffffffffffffffffffffffffffffffffffffffffffffffffffffff1916817bffffffffffffffffffffffffffffffffffffffffffffffffffffffff191614611d11576040517f08c379a0000000000000000000000000000000000000000000000000000000008152600401611d0890613c3a565b60405180910390fd5b505b505050505050565b60606000600167ffffffffffffffff811115611d3a57611d39612249565b5b604051908082528060200260200182016040528015611d685781602001602082028036833780820191505090505b5090508281600081518110611d8057611d7f612ee2565b5b60200260200101818152505080915050919050565b611db48473ffffffffffffffffffffffffffffffffffffffff16611f6c565b15611f64578373ffffffffffffffffffffffffffffffffffffffff1663f23a6e6187878686866040518663ffffffff1660e01b8152600401611dfa959493929190613c5a565b6020604051808303816000875af1925050508015611e3657506040513d601f19601f82011682018060405250810190611e339190613a4a565b60015b611edb57611e42613a84565b806308c379a003611e9e5750611e56613aa6565b80611e615750611ea0565b806040517f08c379a0000000000000000000000000000000000000000000000000000000008152600401611e959190612222565b60405180910390fd5b505b6040517f08c379a0000000000000000000000000000000000000000000000000000000008152600401611ed290613ba8565b60405180910390fd5b63f23a6e6160e01b7bffffffffffffffffffffffffffffffffffffffffffffffffffffffff1916817bffffffffffffffffffffffffffffffffffffffffffffffffffffffff191614611f62576040517f08c379a0000000000000000000000000000000000000000000000000000000008152600401611f5990613c3a565b60405180910390fd5b505b505050505050565b6000808273ffffffffffffffffffffffffffffffffffffffff163b119050919050565b6000604051905090565b600080fd5b600080fd5b600073ffffffffffffffffffffffffffffffffffffffff82169050919050565b6000611fce82611fa3565b9050919050565b611fde81611fc3565b8114611fe957600080fd5b50565b600081359050611ffb81611fd5565b92915050565b6000819050919050565b61201481612001565b811461201f57600080fd5b50565b6000813590506120318161200b565b92915050565b6000806040838503121561204e5761204d611f99565b5b600061205c85828601611fec565b925050602061206d85828601612022565b9150509250929050565b61208081612001565b82525050565b600060208201905061209b6000830184612077565b92915050565b60007fffffffff0000000000000000000000000000000000000000000000000000000082169050919050565b6120d6816120a1565b81146120e157600080fd5b50565b6000813590506120f3816120cd565b92915050565b60006020828403121561210f5761210e611f99565b5b600061211d848285016120e4565b91505092915050565b60008115159050919050565b61213b81612126565b82525050565b60006020820190506121566000830184612132565b92915050565b60006020828403121561217257612171611f99565b5b600061218084828501612022565b91505092915050565b600081519050919050565b600082825260208201905092915050565b60005b838110156121c35780820151818401526020810190506121a8565b838111156121d2576000848401525b50505050565b6000601f19601f8301169050919050565b60006121f482612189565b6121fe8185612194565b935061220e8185602086016121a5565b612217816121d8565b840191505092915050565b6000602082019050818103600083015261223c81846121e9565b905092915050565b600080fd5b7f4e487b7100000000000000000000000000000000000000000000000000000000600052604160045260246000fd5b612281826121d8565b810181811067ffffffffffffffff821117156122a05761229f612249565b5b80604052505050565b60006122b3611f8f565b90506122bf8282612278565b919050565b600067ffffffffffffffff8211156122df576122de612249565b5b602082029050602081019050919050565b600080fd5b6000612308612303846122c4565b6122a9565b9050808382526020820190506020840283018581111561232b5761232a6122f0565b5b835b8181101561235457806123408882612022565b84526020840193505060208101905061232d565b5050509392505050565b600082601f83011261237357612372612244565b5b81356123838482602086016122f5565b91505092915050565b600080fd5b600067ffffffffffffffff8211156123ac576123ab612249565b5b6123b5826121d8565b9050602081019050919050565b82818337600083830152505050565b60006123e46123df84612391565b6122a9565b905082815260208101848484011115612400576123ff61238c565b5b61240b8482856123c2565b509392505050565b600082601f83011261242857612427612244565b5b81356124388482602086016123d1565b91505092915050565b600080600080600060a0868803121561245d5761245c611f99565b5b600061246b88828901611fec565b955050602061247c88828901611fec565b945050604086013567ffffffffffffffff81111561249d5761249c611f9e565b5b6124a98882890161235e565b935050606086013567ffffffffffffffff8111156124ca576124c9611f9e565b5b6124d68882890161235e565b925050608086013567ffffffffffffffff8111156124f7576124f6611f9e565b5b61250388828901612413565b9150509295509295909350565b6000819050919050565b600061252582612510565b9050919050565b6125358161251a565b82525050565b6000602082019050612550600083018461252c565b92915050565b600067ffffffffffffffff82111561257157612570612249565b5b602082029050602081019050919050565b600061259561259084612556565b6122a9565b905080838252602082019050602084028301858111156125b8576125b76122f0565b5b835b818110156125e157806125cd8882611fec565b8452602084019350506020810190506125ba565b5050509392505050565b600082601f830112612600576125ff612244565b5b8135612610848260208601612582565b91505092915050565b600080604083850312156126305761262f611f99565b5b600083013567ffffffffffffffff81111561264e5761264d611f9e565b5b61265a858286016125eb565b925050602083013567ffffffffffffffff81111561267b5761267a611f9e565b5b6126878582860161235e565b9150509250929050565b600081519050919050565b600082825260208201905092915050565b6000819050602082019050919050565b6126c681612001565b82525050565b60006126d883836126bd565b60208301905092915050565b6000602082019050919050565b60006126fc82612691565b612706818561269c565b9350612711836126ad565b8060005b8381101561274257815161272988826126cc565b9750612734836126e4565b925050600181019050612715565b5085935050505092915050565b6000602082019050818103600083015261276981846126f1565b905092915050565b61277a81611fc3565b82525050565b61278981612510565b82525050565b60006080820190506127a46000830187612771565b6127b16020830186612780565b6127be6040830185612780565b6127cb6060830184612077565b95945050505050565b6127dd81612126565b81146127e857600080fd5b50565b6000813590506127fa816127d4565b92915050565b6000806040838503121561281757612816611f99565b5b600061282585828601611fec565b9250506020612836858286016127eb565b9150509250929050565b600080fd5b60008083601f84011261285b5761285a612244565b5b8235905067ffffffffffffffff81111561287857612877612840565b5b602083019150836001820283011115612894576128936122f0565b5b9250929050565b60008083601f8401126128b1576128b0612244565b5b8235905067ffffffffffffffff8111156128ce576128cd612840565b5b6020830191508360018202830111156128ea576128e96122f0565b5b9250929050565b60008060008060006060868803121561290d5761290c611f99565b5b600061291b88828901611fec565b955050602086013567ffffffffffffffff81111561293c5761293b611f9e565b5b61294888828901612845565b9450945050604086013567ffffffffffffffff81111561296b5761296a611f9e565b5b6129778882890161289b565b92509250509295509295909350565b600067ffffffffffffffff8211156129a1576129a0612249565b5b6129aa826121d8565b9050602081019050919050565b60006129ca6129c584612986565b6122a9565b9050828152602081018484840111156129e6576129e561238c565b5b6129f18482856123c2565b509392505050565b600082601f830112612a0e57612a0d612244565b5b8135612a1e8482602086016129b7565b91505092915050565b60008060408385031215612a3e57612a3d611f99565b5b6000612a4c85828601612022565b925050602083013567ffffffffffffffff811115612a6d57612a6c611f9e565b5b612a79858286016129f9565b9150509250929050565b60008060408385031215612a9a57612a99611f99565b5b6000612aa885828601611fec565b9250506020612ab985828601611fec565b9150509250929050565b600080600080600060a08688031215612adf57612ade611f99565b5b6000612aed88828901611fec565b9550506020612afe88828901611fec565b9450506040612b0f88828901612022565b9350506060612b2088828901612022565b925050608086013567ffffffffffffffff811115612b4157612b40611f9e565b5b612b4d88828901612413565b9150509295509295909350565b6000819050919050565b6000612b7f612b7a612b7584611fa3565b612b5a565b611fa3565b9050919050565b6000612b9182612b64565b9050919050565b6000612ba382612b86565b9050919050565b612bb381612b98565b82525050565b6000602082019050612bce6000830184612baa565b92915050565b7f455243313135353a2062616c616e636520717565727920666f7220746865207a60008201527f65726f2061646472657373000000000000000000000000000000000000000000602082015250565b6000612c30602b83612194565b9150612c3b82612bd4565b604082019050919050565b60006020820190508181036000830152612c5f81612c23565b9050919050565b7f4e487b7100000000000000000000000000000000000000000000000000000000600052602260045260246000fd5b60006002820490506001821680612cad57607f821691505b602082108103612cc057612cbf612c66565b5b50919050565b600081905092915050565b60008190508160005260206000209050919050565b60008154612cf381612c95565b612cfd8186612cc6565b94506001821660008114612d185760018114612d2d57612d60565b60ff1983168652811515820286019350612d60565b612d3685612cd1565b60005b83811015612d5857815481890152600182019150602081019050612d39565b838801955050505b50505092915050565b6000612d7482612189565b612d7e8185612cc6565b9350612d8e8185602086016121a5565b80840191505092915050565b6000612da68285612ce6565b9150612db28284612d69565b91508190509392505050565b7f455243313135353a207472616e736665722063616c6c6572206973206e6f742060008201527f6f776e6572206e6f7220617070726f7665640000000000000000000000000000602082015250565b6000612e1a603283612194565b9150612e2582612dbe565b604082019050919050565b60006020820190508181036000830152612e4981612e0d565b9050919050565b7f455243313135353a206163636f756e747320616e6420696473206c656e67746860008201527f206d69736d617463680000000000000000000000000000000000000000000000602082015250565b6000612eac602983612194565b9150612eb782612e50565b604082019050919050565b60006020820190508181036000830152612edb81612e9f565b9050919050565b7f4e487b7100000000000000000000000000000000000000000000000000000000600052603260045260246000fd5b7f4e487b7100000000000000000000000000000000000000000000000000000000600052601160045260246000fd5b6000612f4b82612001565b91507fffffffffffffffffffffffffffffffffffffffffffffffffffffffffffffffff8203612f7d57612f7c612f11565b5b600182019050919050565b600081905092915050565b6000612f9f8385612f88565b9350612fac8385846123c2565b82840190509392505050565b6000612fc5828486612f93565b91508190509392505050565b6000612fdc82612001565b9150612fe783612001565b9250827fffffffffffffffffffffffffffffffffffffffffffffffffffffffffffffffff0382111561301c5761301b612f11565b5b828201905092915050565b6000819050919050565b61304261303d82612510565b613027565b82525050565b6000819050919050565b61306361305e82612001565b613048565b82525050565b60006130758286613031565b6020820191506130858285613031565b6020820191506130958284613052565b602082019150819050949350505050565b600060ff82169050919050565b60006130ce6130c96130c4846130a6565b612b5a565b6130a6565b9050919050565b6130de816130b3565b82525050565b600081519050919050565b600082825260208201905092915050565b600061310b826130e4565b61311581856130ef565b93506131258185602086016121a5565b61312e816121d8565b840191505092915050565b600060608201905061314e60008301866130d5565b61315b602083018561252c565b818103604083015261316d8184613100565b9050949350505050565b600061318282611fc3565b9050919050565b61319281613177565b811461319d57600080fd5b50565b6000815190506131af81613189565b92915050565b6000815190506131c48161200b565b92915050565b600080604083850312156131e1576131e0611f99565b5b60006131ef858286016131a0565b9250506020613200858286016131b5565b9150509250929050565b7f455243313135353a2063616c6c6572206973206e6f74206f776e6572206e6f7260008201527f20617070726f7665640000000000000000000000000000000000000000000000602082015250565b6000613266602983612194565b91506132718261320a565b604082019050919050565b6000602082019050818103600083015261329581613259565b9050919050565b60008160601b9050919050565b60006132b48261329c565b9050919050565b60006132c6826132a9565b9050919050565b6132de6132d982611fc3565b6132bb565b82525050565b60006132f082876132cd565b6014820191506133008286613031565b6020820191506133108285613031565b6020820191506133208284613052565b60208201915081905095945050505050565b60006020828403121561334857613347611f99565b5b6000613356848285016131a0565b91505092915050565b60006020820190506133746000830184612771565b92915050565b7f455243313135353a2069647320616e6420616d6f756e7473206c656e6774682060008201527f6d69736d61746368000000000000000000000000000000000000000000000000602082015250565b60006133d6602883612194565b91506133e18261337a565b604082019050919050565b60006020820190508181036000830152613405816133c9565b9050919050565b7f455243313135353a207472616e7366657220746f20746865207a65726f20616460008201527f6472657373000000000000000000000000000000000000000000000000000000602082015250565b6000613468602583612194565b91506134738261340c565b604082019050919050565b600060208201905081810360008301526134978161345b565b9050919050565b7f455243313135353a20696e73756666696369656e742062616c616e636520666f60008201527f72207472616e7366657200000000000000000000000000000000000000000000602082015250565b60006134fa602a83612194565b91506135058261349e565b604082019050919050565b60006020820190508181036000830152613529816134ed565b9050919050565b6000604082019050818103600083015261354a81856126f1565b9050818103602083015261355e81846126f1565b90509392505050565b7f455243313135353a2073657474696e6720617070726f76616c2073746174757360008201527f20666f722073656c660000000000000000000000000000000000000000000000602082015250565b60006135c3602983612194565b91506135ce82613567565b604082019050919050565b600060208201905081810360008301526135f2816135b6565b9050919050565b7f455243313135353a206d696e7420746f20746865207a65726f2061646472657360008201527f7300000000000000000000000000000000000000000000000000000000000000602082015250565b6000613655602183612194565b9150613660826135f9565b604082019050919050565b6000602082019050818103600083015261368481613648565b9050919050565b60006040820190506136a06000830185612077565b6136ad6020830184612077565b9392505050565b7f4e487b7100000000000000000000000000000000000000000000000000000000600052601260045260246000fd5b60006136ee82612001565b91506136f983612001565b925082613709576137086136b4565b5b828204905092915050565b600061371f82612001565b915061372a83612001565b9250817fffffffffffffffffffffffffffffffffffffffffffffffffffffffffffffffff048311821515161561376357613762612f11565b5b828202905092915050565b60006020601f8301049050919050565b600082821b905092915050565b6000600883026137bb7fffffffffffffffffffffffffffffffffffffffffffffffffffffffffffffffff8261377e565b6137c5868361377e565b95508019841693508086168417925050509392505050565b60006137f86137f36137ee84612001565b612b5a565b612001565b9050919050565b6000819050919050565b613812836137dd565b61382661381e826137ff565b84845461378b565b825550505050565b600090565b61383b61382e565b613846818484613809565b505050565b5b8181101561386a5761385f600082613833565b60018101905061384c565b5050565b601f8211156138af5761388081612cd1565b6138898461376e565b81016020851015613898578190505b6138ac6138a48561376e565b83018261384b565b50505b505050565b600082821c905092915050565b60006138d2600019846008026138b4565b1980831691505092915050565b60006138eb83836138c1565b9150826002028217905092915050565b61390482612189565b67ffffffffffffffff81111561391d5761391c612249565b5b6139278254612c95565b61393282828561386e565b600060209050601f8311600181146139655760008415613953578287015190505b61395d85826138df565b8655506139c5565b601f19841661397386612cd1565b60005b8281101561399b57848901518255600182019150602085019450602081019050613976565b868310156139b857848901516139b4601f8916826138c1565b8355505b6001600288020188555050505b505050505050565b600060a0820190506139e26000830188612771565b6139ef6020830187612771565b8181036040830152613a0181866126f1565b90508181036060830152613a1581856126f1565b90508181036080830152613a298184613100565b90509695505050505050565b600081519050613a44816120cd565b92915050565b600060208284031215613a6057613a5f611f99565b5b6000613a6e84828501613a35565b91505092915050565b60008160e01c9050919050565b600060033d1115613aa35760046000803e613aa0600051613a77565b90505b90565b600060443d10613b3357613ab8611f8f565b60043d036004823e80513d602482011167ffffffffffffffff82111715613ae0575050613b33565b808201805167ffffffffffffffff811115613afe5750505050613b33565b80602083010160043d038501811115613b1b575050505050613b33565b613b2a82602001850186612278565b82955050505050505b90565b7f455243313135353a207472616e7366657220746f206e6f6e204552433131353560008201527f526563656976657220696d706c656d656e746572000000000000000000000000602082015250565b6000613b92603483612194565b9150613b9d82613b36565b604082019050919050565b60006020820190508181036000830152613bc181613b85565b9050919050565b7f455243313135353a204552433131353552656365697665722072656a6563746560008201527f6420746f6b656e73000000000000000000000000000000000000000000000000602082015250565b6000613c24602883612194565b9150613c2f82613bc8565b604082019050919050565b60006020820190508181036000830152613c5381613c17565b9050919050565b600060a082019050613c6f6000830188612771565b613c7c6020830187612771565b613c896040830186612077565b613c966060830185612077565b8181036080830152613ca88184613100565b9050969550505050505056fe4142434445464748494a4b4c4d4e4f505152535455565758595a6162636465666768696a6b6c6d6e6f707172737475767778797a303132333435363738392b2fa26469706673582212200022005b39585870736569943d71fa61cc1c126d069a4e822048a5e4b15cb28164736f6c634300080f0033",
  "immutableReferences": {
    "2682": [
      {
        "length": 32,
        "start": 1622
      },
      {
        "length": 32,
        "start": 2609
      },
      {
        "length": 32,
        "start": 3739
      }
    ]
  },
  "source": "//SPDX-License-Identifier: MIT\npragma solidity ^0.8.15;\n\nimport { Base64 } from \"@openzeppelin/contracts/utils/Base64.sol\";\nimport { ERC1155URIStorage, ERC1155 } from \"@openzeppelin/contracts/token/ERC1155/extensions/ERC1155URIStorage.sol\";\nimport { IDisputeGameFactory } from \"@eth-optimism/contracts-bedrock/src/dispute/interfaces/IDisputeGameFactory.sol\";\nimport { IDisputeGame } from \"@eth-optimism/contracts-bedrock/src/dispute/interfaces/IDisputeGame.sol\";\nimport { GameTypes, Claim } from \"@eth-optimism/contracts-bedrock/src/libraries/DisputeTypes.sol\";\n\n/**\n* @title ERC1155ChallengeableMint\n* @dev This contract allows for the creation of ERC1155 tokens through a two stage minting process\n*\n*      The first stage is a proposal stage where a user can propose a new token to be minted\n*      during a challenge period anyone who disputes the validity of the token can challenge it by\n*      initiating a dispute game. If the challenger wins the dispute game\n*      the token is not minted and its proposal cancelled.\n*\n*      The second stage is a claim where the original proposer can receive an actual NFT\n*      if it remains unchallenged for sufficiently long.\n*/\ncontract ERC1155ChallengeableMint is ERC1155URIStorage {\n\n    /// @dev Represents a token that has yet to be minted. It must persist\n    ///      for at least SETTLEMENT_PERIOD before it can be minted for real\n    struct PendingMint {\n        /// The address that will receive the token once minted\n        address to;\n        /// metadata is not stored, only the hash\n        bytes32 metadataHash;\n        /// journal hash\n        bytes32 journalHash;\n        /// block timestamp when proposal created\n        uint256 timestamp;\n    }\n\n    /// @dev The amount of time that must pass before a pending mint can be minted\n    uint256 public constant SETTLEMENT_PERIOD = 1 hours;\n\n    /// @dev The hash of the code to be run in the provable execution\n    Claim public immutable ROOT_CLAIM;\n\n    /// @dev Used to generate a fresh token ID for each token\n    uint256 private nonce;\n\n    /// @dev Mapping from token nonce to mintable status\n    mapping(uint256 => PendingMint) public pendingMints;\n\n    /// @dev The dispute game factory used to create and track open disputes\n    IDisputeGameFactory public disputeGameFactory;\n\n    event MintProposed(uint256 indexed id, uint256 timestamp);\n    event MintChallenged(uint256 indexed id, address challenger);\n    event Minted(uint256 indexed id, address indexed to);\n\n    error MintProposalNotSettled(uint256 id);\n    error ProposalHasOpenChallenge(uint256 id);\n    error MetadataHashMismatch(uint256 id);\n    error CannotChallengeProposalHasSettled(uint256 id);\n\n\n    /**\n    * @dev Construct a new NFTCollection contract.\n     */\n    constructor(address disputeGameFactoryAddr, Claim rootClaim) ERC1155(\"\") {\n        disputeGameFactory = IDisputeGameFactory(disputeGameFactoryAddr);\n        ROOT_CLAIM = rootClaim;\n        _setBaseURI(\"data:application/json;base64,\");\n    }\n\n    /**\n    * @dev Propose a new mint.\n    * @param metadataJson The string of metadata.json to associate with the token.\n    * @param journal The journal given as input to the provable program \n    *                to produce this metadata output.\n    *                This must be provided in calldata so watchers can replicate the computation\n    */\n    function ProposeMint(address to, string calldata metadataJson, bytes calldata journal) external {\n        uint256 id = nonce++;\n        pendingMints[id] = PendingMint({\n            to: to,\n            metadataHash: keccak256(bytes(metadataJson)),\n            journalHash: keccak256(journal),\n            timestamp: block.timestamp\n        });\n        emit MintProposed(id,  block.timestamp);\n    }\n\n    /**\n    * @dev Challenge a pending mint.\n        This will lead to the creation of a challenge game on this mint.\n        The winner of the game receives 1/2 the bond from the opponent.\n        The rest goes into the dev fund :)\n    */\n    function ChallengeMint(uint256 id) external {\n        PendingMint memory proposal = pendingMints[id];\n\n        if (proposal.timestamp + SETTLEMENT_PERIOD > block.timestamp)\n            revert CannotChallengeProposalHasSettled(id);\n\n        disputeGameFactory.create(\n            GameTypes.FAULT,\n            ROOT_CLAIM,\n            bytes(abi.encodePacked(proposal.to, proposal.metadataHash, proposal.journalHash, proposal.timestamp))\n        );\n\n        emit MintChallenged(id, msg.sender);\n    }\n\n    /**\n    * @dev Mint a new token with the given metadata.\n    * @param id The ID of the pending mint (will also be the ID of the token)\n    * @param metadataJson The string of metadata.json to associate with the token.\n    *                     Must match the hash stored in pending\n    */\n    function ClaimMint(uint256 id, string memory metadataJson) external {\n        PendingMint storage proposal = pendingMints[id];\n\n        if (proposal.timestamp + SETTLEMENT_PERIOD <= block.timestamp)\n            revert MintProposalNotSettled(id);\n\n        if (proposal.metadataHash != keccak256(bytes(metadataJson)))\n            revert MetadataHashMismatch(id);\n\n        // see if there is an open challenge\n        (IDisputeGame game,) = disputeGameFactory.games(\n            GameTypes.FAULT,\n            ROOT_CLAIM,\n            bytes(abi.encodePacked(proposal.metadataHash, proposal.journalHash, proposal.timestamp))\n        );\n        if (address(game) != address(0)) {\n            revert ProposalHasOpenChallenge(id);\n        }\n\n        _mint(proposal.to, id, 1, \"\");\n        _setURI(id, Base64.encode(bytes(metadataJson)));\n\n        emit Minted(id, proposal.to);\n    }\n}\n",
  "sourcePath": "/Users/willem/repos/ProofBoy/contracts/ERC1155ChallengeableMint.sol",
  "compiler": {
    "name": "solc",
    "version": "0.8.15+commit.e14f2714.Emscripten.clang"
  },
  "schemaVersion": "3.4.14",
  "updatedAt": "2023-08-04T02:57:29.278Z",
  "devdoc": {
    "details": "This contract allows for the creation of ERC1155 tokens through a two stage minting process      The first stage is a proposal stage where a user can propose a new token to be minted      during a challenge period anyone who disputes the validity of the token can challenge it by      initiating a dispute game. If the challenger wins the dispute game      the token is not minted and its proposal cancelled.      The second stage is a claim where the original proposer can receive an actual NFT      if it remains unchallenged for sufficiently long.",
    "kind": "dev",
    "methods": {
      "ChallengeMint(uint256)": {
        "details": "Challenge a pending mint. This will lead to the creation of a challenge game on this mint. The winner of the game receives 1/2 the bond from the opponent. The rest goes into the dev fund :)"
      },
      "ClaimMint(uint256,string)": {
        "details": "Mint a new token with the given metadata.",
        "params": {
          "id": "The ID of the pending mint (will also be the ID of the token)",
          "metadataJson": "The string of metadata.json to associate with the token.                     Must match the hash stored in pending"
        }
      },
      "ProposeMint(address,string,bytes)": {
        "details": "Propose a new mint.",
        "params": {
          "journal": "The journal given as input to the provable program                 to produce this metadata output.                This must be provided in calldata so watchers can replicate the computation",
          "metadataJson": "The string of metadata.json to associate with the token."
        }
      },
      "balanceOf(address,uint256)": {
        "details": "See {IERC1155-balanceOf}. Requirements: - `account` cannot be the zero address."
      },
      "balanceOfBatch(address[],uint256[])": {
        "details": "See {IERC1155-balanceOfBatch}. Requirements: - `accounts` and `ids` must have the same length."
      },
      "constructor": {
        "details": "Construct a new NFTCollection contract."
      },
      "isApprovedForAll(address,address)": {
        "details": "See {IERC1155-isApprovedForAll}."
      },
      "safeBatchTransferFrom(address,address,uint256[],uint256[],bytes)": {
        "details": "See {IERC1155-safeBatchTransferFrom}."
      },
      "safeTransferFrom(address,address,uint256,uint256,bytes)": {
        "details": "See {IERC1155-safeTransferFrom}."
      },
      "setApprovalForAll(address,bool)": {
        "details": "See {IERC1155-setApprovalForAll}."
      },
      "supportsInterface(bytes4)": {
        "details": "See {IERC165-supportsInterface}."
      },
      "uri(uint256)": {
        "details": "See {IERC1155MetadataURI-uri}. This implementation returns the concatenation of the `_baseURI` and the token-specific uri if the latter is set This enables the following behaviors: - if `_tokenURIs[tokenId]` is set, then the result is the concatenation   of `_baseURI` and `_tokenURIs[tokenId]` (keep in mind that `_baseURI`   is empty per default); - if `_tokenURIs[tokenId]` is NOT set then we fallback to `super.uri()`   which in most cases will contain `ERC1155._uri`; - if `_tokenURIs[tokenId]` is NOT set, and if the parents do not have a   uri value set, then the result is empty."
      }
    },
    "stateVariables": {
      "ROOT_CLAIM": {
        "details": "The hash of the code to be run in the provable execution"
      },
      "SETTLEMENT_PERIOD": {
        "details": "The amount of time that must pass before a pending mint can be minted"
      },
      "disputeGameFactory": {
        "details": "The dispute game factory used to create and track open disputes"
      },
      "nonce": {
        "details": "Used to generate a fresh token ID for each token"
      },
      "pendingMints": {
        "details": "Mapping from token nonce to mintable status"
      }
    },
    "title": "ERC1155ChallengeableMint",
    "version": 1
  },
  "userdoc": {
    "kind": "user",
    "methods": {},
    "version": 1
  }
}