{
  "contractName": "ERC1155ChallengeableMint",
  "abi": [
    {
      "inputs": [
        {
          "internalType": "address",
          "name": "disputeGameFactoryAddr",
          "type": "address"
        },
        {
          "internalType": "Claim",
          "name": "rootClaim",
          "type": "bytes32"
        }
      ],
      "stateMutability": "nonpayable",
      "type": "constructor"
    },
    {
      "inputs": [
        {
          "internalType": "uint256",
          "name": "id",
          "type": "uint256"
        }
      ],
      "name": "CannotChallengeProposalHasSettled",
      "type": "error"
    },
    {
      "inputs": [
        {
          "internalType": "uint256",
          "name": "id",
          "type": "uint256"
        }
      ],
      "name": "MetadataHashMismatch",
      "type": "error"
    },
    {
      "inputs": [
        {
          "internalType": "uint256",
          "name": "id",
          "type": "uint256"
        }
      ],
      "name": "MintProposalNotSettled",
      "type": "error"
    },
    {
      "inputs": [
        {
          "internalType": "uint256",
          "name": "id",
          "type": "uint256"
        }
      ],
      "name": "ProposalHasOpenChallenge",
      "type": "error"
    },
    {
      "anonymous": false,
      "inputs": [
        {
          "indexed": true,
          "internalType": "address",
          "name": "account",
          "type": "address"
        },
        {
          "indexed": true,
          "internalType": "address",
          "name": "operator",
          "type": "address"
        },
        {
          "indexed": false,
          "internalType": "bool",
          "name": "approved",
          "type": "bool"
        }
      ],
      "name": "ApprovalForAll",
      "type": "event"
    },
    {
      "anonymous": false,
      "inputs": [
        {
          "indexed": true,
          "internalType": "uint256",
          "name": "id",
          "type": "uint256"
        },
        {
          "indexed": false,
          "internalType": "address",
          "name": "challenger",
          "type": "address"
        }
      ],
      "name": "MintChallenged",
      "type": "event"
    },
    {
      "anonymous": false,
      "inputs": [
        {
          "indexed": true,
          "internalType": "uint256",
          "name": "id",
          "type": "uint256"
        },
        {
          "indexed": false,
          "internalType": "uint256",
          "name": "timestamp",
          "type": "uint256"
        }
      ],
      "name": "MintProposed",
      "type": "event"
    },
    {
      "anonymous": false,
      "inputs": [
        {
          "indexed": true,
          "internalType": "uint256",
          "name": "id",
          "type": "uint256"
        },
        {
          "indexed": true,
          "internalType": "address",
          "name": "to",
          "type": "address"
        }
      ],
      "name": "Minted",
      "type": "event"
    },
    {
      "anonymous": false,
      "inputs": [
        {
          "indexed": true,
          "internalType": "address",
          "name": "operator",
          "type": "address"
        },
        {
          "indexed": true,
          "internalType": "address",
          "name": "from",
          "type": "address"
        },
        {
          "indexed": true,
          "internalType": "address",
          "name": "to",
          "type": "address"
        },
        {
          "indexed": false,
          "internalType": "uint256[]",
          "name": "ids",
          "type": "uint256[]"
        },
        {
          "indexed": false,
          "internalType": "uint256[]",
          "name": "values",
          "type": "uint256[]"
        }
      ],
      "name": "TransferBatch",
      "type": "event"
    },
    {
      "anonymous": false,
      "inputs": [
        {
          "indexed": true,
          "internalType": "address",
          "name": "operator",
          "type": "address"
        },
        {
          "indexed": true,
          "internalType": "address",
          "name": "from",
          "type": "address"
        },
        {
          "indexed": true,
          "internalType": "address",
          "name": "to",
          "type": "address"
        },
        {
          "indexed": false,
          "internalType": "uint256",
          "name": "id",
          "type": "uint256"
        },
        {
          "indexed": false,
          "internalType": "uint256",
          "name": "value",
          "type": "uint256"
        }
      ],
      "name": "TransferSingle",
      "type": "event"
    },
    {
      "anonymous": false,
      "inputs": [
        {
          "indexed": false,
          "internalType": "string",
          "name": "value",
          "type": "string"
        },
        {
          "indexed": true,
          "internalType": "uint256",
          "name": "id",
          "type": "uint256"
        }
      ],
      "name": "URI",
      "type": "event"
    },
    {
      "inputs": [],
      "name": "ROOT_CLAIM",
      "outputs": [
        {
          "internalType": "Claim",
          "name": "",
          "type": "bytes32"
        }
      ],
      "stateMutability": "view",
      "type": "function",
      "constant": true
    },
    {
      "inputs": [],
      "name": "SETTLEMENT_PERIOD",
      "outputs": [
        {
          "internalType": "uint256",
          "name": "",
          "type": "uint256"
        }
      ],
      "stateMutability": "view",
      "type": "function",
      "constant": true
    },
    {
      "inputs": [
        {
          "internalType": "address",
          "name": "account",
          "type": "address"
        },
        {
          "internalType": "uint256",
          "name": "id",
          "type": "uint256"
        }
      ],
      "name": "balanceOf",
      "outputs": [
        {
          "internalType": "uint256",
          "name": "",
          "type": "uint256"
        }
      ],
      "stateMutability": "view",
      "type": "function",
      "constant": true
    },
    {
      "inputs": [
        {
          "internalType": "address[]",
          "name": "accounts",
          "type": "address[]"
        },
        {
          "internalType": "uint256[]",
          "name": "ids",
          "type": "uint256[]"
        }
      ],
      "name": "balanceOfBatch",
      "outputs": [
        {
          "internalType": "uint256[]",
          "name": "",
          "type": "uint256[]"
        }
      ],
      "stateMutability": "view",
      "type": "function",
      "constant": true
    },
    {
      "inputs": [],
      "name": "disputeGameFactory",
      "outputs": [
        {
          "internalType": "contract IDisputeGameFactory",
          "name": "",
          "type": "address"
        }
      ],
      "stateMutability": "view",
      "type": "function",
      "constant": true
    },
    {
      "inputs": [
        {
          "internalType": "address",
          "name": "account",
          "type": "address"
        },
        {
          "internalType": "address",
          "name": "operator",
          "type": "address"
        }
      ],
      "name": "isApprovedForAll",
      "outputs": [
        {
          "internalType": "bool",
          "name": "",
          "type": "bool"
        }
      ],
      "stateMutability": "view",
      "type": "function",
      "constant": true
    },
    {
      "inputs": [
        {
          "internalType": "uint256",
          "name": "",
          "type": "uint256"
        }
      ],
      "name": "pendingMints",
      "outputs": [
        {
          "internalType": "address",
          "name": "to",
          "type": "address"
        },
        {
          "internalType": "bytes32",
          "name": "metadataHash",
          "type": "bytes32"
        },
        {
          "internalType": "bytes32",
          "name": "witnessHash",
          "type": "bytes32"
        },
        {
          "internalType": "uint256",
          "name": "timestamp",
          "type": "uint256"
        }
      ],
      "stateMutability": "view",
      "type": "function",
      "constant": true
    },
    {
      "inputs": [
        {
          "internalType": "address",
          "name": "from",
          "type": "address"
        },
        {
          "internalType": "address",
          "name": "to",
          "type": "address"
        },
        {
          "internalType": "uint256[]",
          "name": "ids",
          "type": "uint256[]"
        },
        {
          "internalType": "uint256[]",
          "name": "amounts",
          "type": "uint256[]"
        },
        {
          "internalType": "bytes",
          "name": "data",
          "type": "bytes"
        }
      ],
      "name": "safeBatchTransferFrom",
      "outputs": [],
      "stateMutability": "nonpayable",
      "type": "function"
    },
    {
      "inputs": [
        {
          "internalType": "address",
          "name": "from",
          "type": "address"
        },
        {
          "internalType": "address",
          "name": "to",
          "type": "address"
        },
        {
          "internalType": "uint256",
          "name": "id",
          "type": "uint256"
        },
        {
          "internalType": "uint256",
          "name": "amount",
          "type": "uint256"
        },
        {
          "internalType": "bytes",
          "name": "data",
          "type": "bytes"
        }
      ],
      "name": "safeTransferFrom",
      "outputs": [],
      "stateMutability": "nonpayable",
      "type": "function"
    },
    {
      "inputs": [
        {
          "internalType": "address",
          "name": "operator",
          "type": "address"
        },
        {
          "internalType": "bool",
          "name": "approved",
          "type": "bool"
        }
      ],
      "name": "setApprovalForAll",
      "outputs": [],
      "stateMutability": "nonpayable",
      "type": "function"
    },
    {
      "inputs": [
        {
          "internalType": "bytes4",
          "name": "interfaceId",
          "type": "bytes4"
        }
      ],
      "name": "supportsInterface",
      "outputs": [
        {
          "internalType": "bool",
          "name": "",
          "type": "bool"
        }
      ],
      "stateMutability": "view",
      "type": "function",
      "constant": true
    },
    {
      "inputs": [
        {
          "internalType": "uint256",
          "name": "tokenId",
          "type": "uint256"
        }
      ],
      "name": "uri",
      "outputs": [
        {
          "internalType": "string",
          "name": "",
          "type": "string"
        }
      ],
      "stateMutability": "view",
      "type": "function",
      "constant": true
    },
    {
      "inputs": [
        {
          "internalType": "address",
          "name": "to",
          "type": "address"
        },
        {
          "internalType": "string",
          "name": "metadataJson",
          "type": "string"
        },
        {
          "internalType": "bytes",
          "name": "witness",
          "type": "bytes"
        }
      ],
      "name": "ProposeMint",
      "outputs": [],
      "stateMutability": "nonpayable",
      "type": "function"
    },
    {
      "inputs": [
        {
          "internalType": "uint256",
          "name": "id",
          "type": "uint256"
        }
      ],
      "name": "ChallengeMint",
      "outputs": [],
      "stateMutability": "nonpayable",
      "type": "function"
    },
    {
      "inputs": [
        {
          "internalType": "uint256",
          "name": "id",
          "type": "uint256"
        },
        {
          "internalType": "string",
          "name": "metadataJson",
          "type": "string"
        }
      ],
      "name": "ClaimMint",
      "outputs": [],
      "stateMutability": "nonpayable",
      "type": "function"
    }
  ],
  "bytecode": "0x60c06040526040518060200160405280600081525060039081620000249190620003a8565b503480156200003257600080fd5b50604051620042e1380380620042e1833981810160405281019062000058919062000534565b6040518060200160405280600081525062000079816200010460201b60201c565b508173ffffffffffffffffffffffffffffffffffffffff1660a08173ffffffffffffffffffffffffffffffffffffffff16815250508060808181525050620000fc6040518060400160405280601d81526020017f646174613a6170706c69636174696f6e2f6a736f6e3b6261736536342c0000008152506200011960201b60201c565b50506200057b565b8060029081620001159190620003a8565b5050565b80600390816200012a9190620003a8565b5050565b600081519050919050565b7f4e487b7100000000000000000000000000000000000000000000000000000000600052604160045260246000fd5b7f4e487b7100000000000000000000000000000000000000000000000000000000600052602260045260246000fd5b60006002820490506001821680620001b057607f821691505b602082108103620001c657620001c562000168565b5b50919050565b60008190508160005260206000209050919050565b60006020601f8301049050919050565b600082821b905092915050565b600060088302620002307fffffffffffffffffffffffffffffffffffffffffffffffffffffffffffffffff82620001f1565b6200023c8683620001f1565b95508019841693508086168417925050509392505050565b6000819050919050565b6000819050919050565b600062000289620002836200027d8462000254565b6200025e565b62000254565b9050919050565b6000819050919050565b620002a58362000268565b620002bd620002b48262000290565b848454620001fe565b825550505050565b600090565b620002d4620002c5565b620002e18184846200029a565b505050565b5b818110156200030957620002fd600082620002ca565b600181019050620002e7565b5050565b601f82111562000358576200032281620001cc565b6200032d84620001e1565b810160208510156200033d578190505b620003556200034c85620001e1565b830182620002e6565b50505b505050565b600082821c905092915050565b60006200037d600019846008026200035d565b1980831691505092915050565b60006200039883836200036a565b9150826002028217905092915050565b620003b3826200012e565b67ffffffffffffffff811115620003cf57620003ce62000139565b5b620003db825462000197565b620003e88282856200030d565b600060209050601f8311600181146200042057600084156200040b578287015190505b6200041785826200038a565b86555062000487565b601f1984166200043086620001cc565b60005b828110156200045a5784890151825560018201915060208501945060208101905062000433565b868310156200047a578489015162000476601f8916826200036a565b8355505b6001600288020188555050505b505050505050565b600080fd5b600073ffffffffffffffffffffffffffffffffffffffff82169050919050565b6000620004c18262000494565b9050919050565b620004d381620004b4565b8114620004df57600080fd5b50565b600081519050620004f381620004c8565b92915050565b6000819050919050565b6200050e81620004f9565b81146200051a57600080fd5b50565b6000815190506200052e8162000503565b92915050565b600080604083850312156200054e576200054d6200048f565b5b60006200055e85828601620004e2565b925050602062000571858286016200051d565b9150509250929050565b60805160a051613d24620005bd600039600081816109f101528181610d470152610e5701526000818161065601528181610a2f0152610e950152613d246000f3fe608060405234801561001057600080fd5b50600436106100f45760003560e01c806363900ca611610097578063e985e9c511610066578063e985e9c514610298578063f242432a146102c8578063f2b4e617146102e4578063faba48a314610302576100f4565b806363900ca614610211578063a22cb46514610244578063d109d23014610260578063e0399c291461027c576100f4565b80630e89341c116100d35780630e89341c146101775780632eb2c2d6146101a75780634a1890f0146101c35780634e1273f4146101e1576100f4565b8062fdd58e146100f957806301ffc9a71461012957806309e54b5b14610159575b600080fd5b610113600480360381019061010e9190612031565b61031e565b6040516101209190612080565b60405180910390f35b610143600480360381019061013e91906120f3565b6103e6565b604051610150919061213b565b60405180910390f35b6101616104c8565b60405161016e9190612080565b60405180910390f35b610191600480360381019061018c9190612156565b6104ce565b60405161019e919061221c565b60405180910390f35b6101c160048036038101906101bc919061243b565b6105b3565b005b6101cb610654565b6040516101d89190612535565b60405180910390f35b6101fb60048036038101906101f69190612613565b610678565b6040516102089190612749565b60405180910390f35b61022b60048036038101906102269190612156565b610791565b60405161023b9493929190612789565b60405180910390f35b61025e600480360381019061025991906127fa565b6107e1565b005b61027a600480360381019061027591906128eb565b6107f7565b005b61029660048036038101906102919190612a21565b610932565b005b6102b260048036038101906102ad9190612a7d565b610c10565b6040516102bf919061213b565b60405180910390f35b6102e260048036038101906102dd9190612abd565b610ca4565b005b6102ec610d45565b6040516102f99190612bb3565b60405180910390f35b61031c60048036038101906103179190612156565b610d69565b005b60008073ffffffffffffffffffffffffffffffffffffffff168373ffffffffffffffffffffffffffffffffffffffff160361038e576040517f08c379a000000000000000000000000000000000000000000000000000000000815260040161038590612c40565b60405180910390fd5b60008083815260200190815260200160002060008473ffffffffffffffffffffffffffffffffffffffff1673ffffffffffffffffffffffffffffffffffffffff16815260200190815260200160002054905092915050565b60007fd9b67a26000000000000000000000000000000000000000000000000000000007bffffffffffffffffffffffffffffffffffffffffffffffffffffffff1916827bffffffffffffffffffffffffffffffffffffffffffffffffffffffff191614806104b157507f0e89341c000000000000000000000000000000000000000000000000000000007bffffffffffffffffffffffffffffffffffffffffffffffffffffffff1916827bffffffffffffffffffffffffffffffffffffffffffffffffffffffff1916145b806104c157506104c082610f88565b5b9050919050565b610e1081565b606060006004600084815260200190815260200160002080546104f090612c8f565b80601f016020809104026020016040519081016040528092919081815260200182805461051c90612c8f565b80156105695780601f1061053e57610100808354040283529160200191610569565b820191906000526020600020905b81548152906001019060200180831161054c57829003601f168201915b5050505050905060008151116105875761058283610ff2565b6105ab565b60038160405160200161059b929190612d94565b6040516020818303038152906040525b915050919050565b6105bb611086565b73ffffffffffffffffffffffffffffffffffffffff168573ffffffffffffffffffffffffffffffffffffffff1614806106015750610600856105fb611086565b610c10565b5b610640576040517f08c379a000000000000000000000000000000000000000000000000000000000815260040161063790612e2a565b60405180910390fd5b61064d858585858561108e565b5050505050565b7f000000000000000000000000000000000000000000000000000000000000000081565b606081518351146106be576040517f08c379a00000000000000000000000000000000000000000000000000000000081526004016106b590612ebc565b60405180910390fd5b6000835167ffffffffffffffff8111156106db576106da612243565b5b6040519080825280602002602001820160405280156107095781602001602082028036833780820191505090505b50905060005b84518110156107865761075685828151811061072e5761072d612edc565b5b602002602001015185838151811061074957610748612edc565b5b602002602001015161031e565b82828151811061076957610768612edc565b5b6020026020010181815250508061077f90612f3a565b905061070f565b508091505092915050565b60066020528060005260406000206000915090508060000160009054906101000a900473ffffffffffffffffffffffffffffffffffffffff16908060010154908060020154908060030154905084565b6107f36107ec611086565b83836113af565b5050565b60006005600081548092919061080c90612f3a565b91905055905060405180608001604052808773ffffffffffffffffffffffffffffffffffffffff1681526020018686604051610849929190612fb2565b604051809103902081526020018484604051610866929190612fb2565b60405180910390208152602001428152506006600083815260200190815260200160002060008201518160000160006101000a81548173ffffffffffffffffffffffffffffffffffffffff021916908373ffffffffffffffffffffffffffffffffffffffff160217905550602082015181600101556040820151816002015560608201518160030155905050807fd0bc66607de65f3b1fabcfbcf0a2623cc9539a0cdbf5a5d1128153ac23ccc549426040516109229190612080565b60405180910390a2505050505050565b600060066000848152602001908152602001600020905042610e10826003015461095c9190612fcb565b1161099e57826040517ff5630a210000000000000000000000000000000000000000000000000000000081526004016109959190612080565b60405180910390fd5b81805190602001208160010154146109ed57826040517f6912760a0000000000000000000000000000000000000000000000000000000081526004016109e49190612080565b60405180910390fd5b60007f000000000000000000000000000000000000000000000000000000000000000073ffffffffffffffffffffffffffffffffffffffff1663c49d527160007f0000000000000000000000000000000000000000000000000000000000000000856001015486600201548760030154604051602001610a6f93929190613063565b6040516020818303038152906040526040518463ffffffff1660e01b8152600401610a9c93929190613133565b6040805180830381865afa158015610ab8573d6000803e3d6000fd5b505050506040513d601f19601f82011682018060405250810190610adc91906131c4565b509050600073ffffffffffffffffffffffffffffffffffffffff168173ffffffffffffffffffffffffffffffffffffffff1614610b5057836040517ffca2ffc2000000000000000000000000000000000000000000000000000000008152600401610b479190612080565b60405180910390fd5b610b908260000160009054906101000a900473ffffffffffffffffffffffffffffffffffffffff168560016040518060200160405280600081525061151b565b610ba284610b9d856116cb565b61182e565b8160000160009054906101000a900473ffffffffffffffffffffffffffffffffffffffff1673ffffffffffffffffffffffffffffffffffffffff16847fb9203d657e9c0ec8274c818292ab0f58b04e1970050716891770eb1bab5d655e60405160405180910390a350505050565b6000600160008473ffffffffffffffffffffffffffffffffffffffff1673ffffffffffffffffffffffffffffffffffffffff16815260200190815260200160002060008373ffffffffffffffffffffffffffffffffffffffff1673ffffffffffffffffffffffffffffffffffffffff16815260200190815260200160002060009054906101000a900460ff16905092915050565b610cac611086565b73ffffffffffffffffffffffffffffffffffffffff168573ffffffffffffffffffffffffffffffffffffffff161480610cf25750610cf185610cec611086565b610c10565b5b610d31576040517f08c379a0000000000000000000000000000000000000000000000000000000008152600401610d2890613276565b60405180910390fd5b610d3e8585858585611893565b5050505050565b7f000000000000000000000000000000000000000000000000000000000000000081565b6000600660008381526020019081526020016000206040518060800160405290816000820160009054906101000a900473ffffffffffffffffffffffffffffffffffffffff1673ffffffffffffffffffffffffffffffffffffffff1673ffffffffffffffffffffffffffffffffffffffff1681526020016001820154815260200160028201548152602001600382015481525050905042610e108260600151610e129190612fcb565b1115610e5557816040517fcad27b0b000000000000000000000000000000000000000000000000000000008152600401610e4c9190612080565b60405180910390fd5b7f000000000000000000000000000000000000000000000000000000000000000073ffffffffffffffffffffffffffffffffffffffff16633142e55e60007f00000000000000000000000000000000000000000000000000000000000000008460000151856020015186604001518760600151604051602001610edb94939291906132de565b6040516020818303038152906040526040518463ffffffff1660e01b8152600401610f0893929190613133565b6020604051808303816000875af1158015610f27573d6000803e3d6000fd5b505050506040513d601f19601f82011682018060405250810190610f4b919061332c565b50817f513913a831f7e641d47b430356dc599acd3e0f4e6e05b191e988a3a1d8b4501833604051610f7c9190613359565b60405180910390a25050565b60007f01ffc9a7000000000000000000000000000000000000000000000000000000007bffffffffffffffffffffffffffffffffffffffffffffffffffffffff1916827bffffffffffffffffffffffffffffffffffffffffffffffffffffffff1916149050919050565b60606002805461100190612c8f565b80601f016020809104026020016040519081016040528092919081815260200182805461102d90612c8f565b801561107a5780601f1061104f5761010080835404028352916020019161107a565b820191906000526020600020905b81548152906001019060200180831161105d57829003601f168201915b50505050509050919050565b600033905090565b81518351146110d2576040517f08c379a00000000000000000000000000000000000000000000000000000000081526004016110c9906133e6565b60405180910390fd5b600073ffffffffffffffffffffffffffffffffffffffff168473ffffffffffffffffffffffffffffffffffffffff1603611141576040517f08c379a000000000000000000000000000000000000000000000000000000000815260040161113890613478565b60405180910390fd5b600061114b611086565b905061115b818787878787611b2e565b60005b845181101561130c57600085828151811061117c5761117b612edc565b5b60200260200101519050600085838151811061119b5761119a612edc565b5b60200260200101519050600080600084815260200190815260200160002060008b73ffffffffffffffffffffffffffffffffffffffff1673ffffffffffffffffffffffffffffffffffffffff1681526020019081526020016000205490508181101561123c576040517f08c379a00000000000000000000000000000000000000000000000000000000081526004016112339061350a565b60405180910390fd5b81810360008085815260200190815260200160002060008c73ffffffffffffffffffffffffffffffffffffffff1673ffffffffffffffffffffffffffffffffffffffff168152602001908152602001600020819055508160008085815260200190815260200160002060008b73ffffffffffffffffffffffffffffffffffffffff1673ffffffffffffffffffffffffffffffffffffffff16815260200190815260200160002060008282546112f19190612fcb565b925050819055505050508061130590612f3a565b905061115e565b508473ffffffffffffffffffffffffffffffffffffffff168673ffffffffffffffffffffffffffffffffffffffff168273ffffffffffffffffffffffffffffffffffffffff167f4a39dc06d4c0dbc64b70af90fd698a233a518aa5d07e595d983b8c0526c8f7fb878760405161138392919061352a565b60405180910390a4611399818787878787611b36565b6113a7818787878787611b3e565b505050505050565b8173ffffffffffffffffffffffffffffffffffffffff168373ffffffffffffffffffffffffffffffffffffffff160361141d576040517f08c379a0000000000000000000000000000000000000000000000000000000008152600401611414906135d3565b60405180910390fd5b80600160008573ffffffffffffffffffffffffffffffffffffffff1673ffffffffffffffffffffffffffffffffffffffff16815260200190815260200160002060008473ffffffffffffffffffffffffffffffffffffffff1673ffffffffffffffffffffffffffffffffffffffff16815260200190815260200160002060006101000a81548160ff0219169083151502179055508173ffffffffffffffffffffffffffffffffffffffff168373ffffffffffffffffffffffffffffffffffffffff167f17307eab39ab6107e8899845ad3d59bd9653f200f220920489ca2b5937696c318360405161150e919061213b565b60405180910390a3505050565b600073ffffffffffffffffffffffffffffffffffffffff168473ffffffffffffffffffffffffffffffffffffffff160361158a576040517f08c379a000000000000000000000000000000000000000000000000000000000815260040161158190613665565b60405180910390fd5b6000611594611086565b905060006115a185611d15565b905060006115ae85611d15565b90506115bf83600089858589611b2e565b8460008088815260200190815260200160002060008973ffffffffffffffffffffffffffffffffffffffff1673ffffffffffffffffffffffffffffffffffffffff168152602001908152602001600020600082825461161e9190612fcb565b925050819055508673ffffffffffffffffffffffffffffffffffffffff16600073ffffffffffffffffffffffffffffffffffffffff168473ffffffffffffffffffffffffffffffffffffffff167fc3d58168c5ae7397731d063d5bbf3d657854427343f4c083240f7aacaa2d0f62898960405161169c929190613685565b60405180910390a46116b383600089858589611b36565b6116c283600089898989611d8f565b50505050505050565b606060008251036116ed57604051806020016040528060008152509050611829565b6000604051806060016040528060408152602001613caf604091399050600060036002855161171c9190612fcb565b61172691906136dd565b6004611732919061370e565b67ffffffffffffffff81111561174b5761174a612243565b5b6040519080825280601f01601f19166020018201604052801561177d5781602001600182028036833780820191505090505b509050600182016020820185865187015b808210156117e9576003820191508151603f8160121c168501518453600184019350603f81600c1c168501518453600184019350603f8160061c168501518453600184019350603f811685015184536001840193505061178e565b5050600386510660018114611805576002811461181857611820565b603d6001830353603d6002830353611820565b603d60018303535b50505080925050505b919050565b8060046000848152602001908152602001600020908161184e91906138f5565b50817f6bb7ff708619ba0610cba295a58592e0451dee2622938c8755667688daf3529b61187a846104ce565b604051611887919061221c565b60405180910390a25050565b600073ffffffffffffffffffffffffffffffffffffffff168473ffffffffffffffffffffffffffffffffffffffff1603611902576040517f08c379a00000000000000000000000000000000000000000000000000000000081526004016118f990613478565b60405180910390fd5b600061190c611086565b9050600061191985611d15565b9050600061192685611d15565b9050611936838989858589611b2e565b600080600088815260200190815260200160002060008a73ffffffffffffffffffffffffffffffffffffffff1673ffffffffffffffffffffffffffffffffffffffff168152602001908152602001600020549050858110156119cd576040517f08c379a00000000000000000000000000000000000000000000000000000000081526004016119c49061350a565b60405180910390fd5b85810360008089815260200190815260200160002060008b73ffffffffffffffffffffffffffffffffffffffff1673ffffffffffffffffffffffffffffffffffffffff168152602001908152602001600020819055508560008089815260200190815260200160002060008a73ffffffffffffffffffffffffffffffffffffffff1673ffffffffffffffffffffffffffffffffffffffff1681526020019081526020016000206000828254611a829190612fcb565b925050819055508773ffffffffffffffffffffffffffffffffffffffff168973ffffffffffffffffffffffffffffffffffffffff168573ffffffffffffffffffffffffffffffffffffffff167fc3d58168c5ae7397731d063d5bbf3d657854427343f4c083240f7aacaa2d0f628a8a604051611aff929190613685565b60405180910390a4611b15848a8a86868a611b36565b611b23848a8a8a8a8a611d8f565b505050505050505050565b505050505050565b505050505050565b611b5d8473ffffffffffffffffffffffffffffffffffffffff16611f66565b15611d0d578373ffffffffffffffffffffffffffffffffffffffff1663bc197c8187878686866040518663ffffffff1660e01b8152600401611ba39594939291906139c7565b6020604051808303816000875af1925050508015611bdf57506040513d601f19601f82011682018060405250810190611bdc9190613a44565b60015b611c8457611beb613a7e565b806308c379a003611c475750611bff613aa0565b80611c0a5750611c49565b806040517f08c379a0000000000000000000000000000000000000000000000000000000008152600401611c3e919061221c565b60405180910390fd5b505b6040517f08c379a0000000000000000000000000000000000000000000000000000000008152600401611c7b90613ba2565b60405180910390fd5b63bc197c8160e01b7bffffffffffffffffffffffffffffffffffffffffffffffffffffffff1916817bffffffffffffffffffffffffffffffffffffffffffffffffffffffff191614611d0b576040517f08c379a0000000000000000000000000000000000000000000000000000000008152600401611d0290613c34565b60405180910390fd5b505b505050505050565b60606000600167ffffffffffffffff811115611d3457611d33612243565b5b604051908082528060200260200182016040528015611d625781602001602082028036833780820191505090505b5090508281600081518110611d7a57611d79612edc565b5b60200260200101818152505080915050919050565b611dae8473ffffffffffffffffffffffffffffffffffffffff16611f66565b15611f5e578373ffffffffffffffffffffffffffffffffffffffff1663f23a6e6187878686866040518663ffffffff1660e01b8152600401611df4959493929190613c54565b6020604051808303816000875af1925050508015611e3057506040513d601f19601f82011682018060405250810190611e2d9190613a44565b60015b611ed557611e3c613a7e565b806308c379a003611e985750611e50613aa0565b80611e5b5750611e9a565b806040517f08c379a0000000000000000000000000000000000000000000000000000000008152600401611e8f919061221c565b60405180910390fd5b505b6040517f08c379a0000000000000000000000000000000000000000000000000000000008152600401611ecc90613ba2565b60405180910390fd5b63f23a6e6160e01b7bffffffffffffffffffffffffffffffffffffffffffffffffffffffff1916817bffffffffffffffffffffffffffffffffffffffffffffffffffffffff191614611f5c576040517f08c379a0000000000000000000000000000000000000000000000000000000008152600401611f5390613c34565b60405180910390fd5b505b505050505050565b6000808273ffffffffffffffffffffffffffffffffffffffff163b119050919050565b6000604051905090565b600080fd5b600080fd5b600073ffffffffffffffffffffffffffffffffffffffff82169050919050565b6000611fc882611f9d565b9050919050565b611fd881611fbd565b8114611fe357600080fd5b50565b600081359050611ff581611fcf565b92915050565b6000819050919050565b61200e81611ffb565b811461201957600080fd5b50565b60008135905061202b81612005565b92915050565b6000806040838503121561204857612047611f93565b5b600061205685828601611fe6565b92505060206120678582860161201c565b9150509250929050565b61207a81611ffb565b82525050565b60006020820190506120956000830184612071565b92915050565b60007fffffffff0000000000000000000000000000000000000000000000000000000082169050919050565b6120d08161209b565b81146120db57600080fd5b50565b6000813590506120ed816120c7565b92915050565b60006020828403121561210957612108611f93565b5b6000612117848285016120de565b91505092915050565b60008115159050919050565b61213581612120565b82525050565b6000602082019050612150600083018461212c565b92915050565b60006020828403121561216c5761216b611f93565b5b600061217a8482850161201c565b91505092915050565b600081519050919050565b600082825260208201905092915050565b60005b838110156121bd5780820151818401526020810190506121a2565b838111156121cc576000848401525b50505050565b6000601f19601f8301169050919050565b60006121ee82612183565b6121f8818561218e565b935061220881856020860161219f565b612211816121d2565b840191505092915050565b6000602082019050818103600083015261223681846121e3565b905092915050565b600080fd5b7f4e487b7100000000000000000000000000000000000000000000000000000000600052604160045260246000fd5b61227b826121d2565b810181811067ffffffffffffffff8211171561229a57612299612243565b5b80604052505050565b60006122ad611f89565b90506122b98282612272565b919050565b600067ffffffffffffffff8211156122d9576122d8612243565b5b602082029050602081019050919050565b600080fd5b60006123026122fd846122be565b6122a3565b90508083825260208201905060208402830185811115612325576123246122ea565b5b835b8181101561234e578061233a888261201c565b845260208401935050602081019050612327565b5050509392505050565b600082601f83011261236d5761236c61223e565b5b813561237d8482602086016122ef565b91505092915050565b600080fd5b600067ffffffffffffffff8211156123a6576123a5612243565b5b6123af826121d2565b9050602081019050919050565b82818337600083830152505050565b60006123de6123d98461238b565b6122a3565b9050828152602081018484840111156123fa576123f9612386565b5b6124058482856123bc565b509392505050565b600082601f8301126124225761242161223e565b5b81356124328482602086016123cb565b91505092915050565b600080600080600060a0868803121561245757612456611f93565b5b600061246588828901611fe6565b955050602061247688828901611fe6565b945050604086013567ffffffffffffffff81111561249757612496611f98565b5b6124a388828901612358565b935050606086013567ffffffffffffffff8111156124c4576124c3611f98565b5b6124d088828901612358565b925050608086013567ffffffffffffffff8111156124f1576124f0611f98565b5b6124fd8882890161240d565b9150509295509295909350565b6000819050919050565b600061251f8261250a565b9050919050565b61252f81612514565b82525050565b600060208201905061254a6000830184612526565b92915050565b600067ffffffffffffffff82111561256b5761256a612243565b5b602082029050602081019050919050565b600061258f61258a84612550565b6122a3565b905080838252602082019050602084028301858111156125b2576125b16122ea565b5b835b818110156125db57806125c78882611fe6565b8452602084019350506020810190506125b4565b5050509392505050565b600082601f8301126125fa576125f961223e565b5b813561260a84826020860161257c565b91505092915050565b6000806040838503121561262a57612629611f93565b5b600083013567ffffffffffffffff81111561264857612647611f98565b5b612654858286016125e5565b925050602083013567ffffffffffffffff81111561267557612674611f98565b5b61268185828601612358565b9150509250929050565b600081519050919050565b600082825260208201905092915050565b6000819050602082019050919050565b6126c081611ffb565b82525050565b60006126d283836126b7565b60208301905092915050565b6000602082019050919050565b60006126f68261268b565b6127008185612696565b935061270b836126a7565b8060005b8381101561273c57815161272388826126c6565b975061272e836126de565b92505060018101905061270f565b5085935050505092915050565b6000602082019050818103600083015261276381846126eb565b905092915050565b61277481611fbd565b82525050565b6127838161250a565b82525050565b600060808201905061279e600083018761276b565b6127ab602083018661277a565b6127b8604083018561277a565b6127c56060830184612071565b95945050505050565b6127d781612120565b81146127e257600080fd5b50565b6000813590506127f4816127ce565b92915050565b6000806040838503121561281157612810611f93565b5b600061281f85828601611fe6565b9250506020612830858286016127e5565b9150509250929050565b600080fd5b60008083601f8401126128555761285461223e565b5b8235905067ffffffffffffffff8111156128725761287161283a565b5b60208301915083600182028301111561288e5761288d6122ea565b5b9250929050565b60008083601f8401126128ab576128aa61223e565b5b8235905067ffffffffffffffff8111156128c8576128c761283a565b5b6020830191508360018202830111156128e4576128e36122ea565b5b9250929050565b60008060008060006060868803121561290757612906611f93565b5b600061291588828901611fe6565b955050602086013567ffffffffffffffff81111561293657612935611f98565b5b6129428882890161283f565b9450945050604086013567ffffffffffffffff81111561296557612964611f98565b5b61297188828901612895565b92509250509295509295909350565b600067ffffffffffffffff82111561299b5761299a612243565b5b6129a4826121d2565b9050602081019050919050565b60006129c46129bf84612980565b6122a3565b9050828152602081018484840111156129e0576129df612386565b5b6129eb8482856123bc565b509392505050565b600082601f830112612a0857612a0761223e565b5b8135612a188482602086016129b1565b91505092915050565b60008060408385031215612a3857612a37611f93565b5b6000612a468582860161201c565b925050602083013567ffffffffffffffff811115612a6757612a66611f98565b5b612a73858286016129f3565b9150509250929050565b60008060408385031215612a9457612a93611f93565b5b6000612aa285828601611fe6565b9250506020612ab385828601611fe6565b9150509250929050565b600080600080600060a08688031215612ad957612ad8611f93565b5b6000612ae788828901611fe6565b9550506020612af888828901611fe6565b9450506040612b098882890161201c565b9350506060612b1a8882890161201c565b925050608086013567ffffffffffffffff811115612b3b57612b3a611f98565b5b612b478882890161240d565b9150509295509295909350565b6000819050919050565b6000612b79612b74612b6f84611f9d565b612b54565b611f9d565b9050919050565b6000612b8b82612b5e565b9050919050565b6000612b9d82612b80565b9050919050565b612bad81612b92565b82525050565b6000602082019050612bc86000830184612ba4565b92915050565b7f455243313135353a2062616c616e636520717565727920666f7220746865207a60008201527f65726f2061646472657373000000000000000000000000000000000000000000602082015250565b6000612c2a602b8361218e565b9150612c3582612bce565b604082019050919050565b60006020820190508181036000830152612c5981612c1d565b9050919050565b7f4e487b7100000000000000000000000000000000000000000000000000000000600052602260045260246000fd5b60006002820490506001821680612ca757607f821691505b602082108103612cba57612cb9612c60565b5b50919050565b600081905092915050565b60008190508160005260206000209050919050565b60008154612ced81612c8f565b612cf78186612cc0565b94506001821660008114612d125760018114612d2757612d5a565b60ff1983168652811515820286019350612d5a565b612d3085612ccb565b60005b83811015612d5257815481890152600182019150602081019050612d33565b838801955050505b50505092915050565b6000612d6e82612183565b612d788185612cc0565b9350612d8881856020860161219f565b80840191505092915050565b6000612da08285612ce0565b9150612dac8284612d63565b91508190509392505050565b7f455243313135353a207472616e736665722063616c6c6572206973206e6f742060008201527f6f776e6572206e6f7220617070726f7665640000000000000000000000000000602082015250565b6000612e1460328361218e565b9150612e1f82612db8565b604082019050919050565b60006020820190508181036000830152612e4381612e07565b9050919050565b7f455243313135353a206163636f756e747320616e6420696473206c656e67746860008201527f206d69736d617463680000000000000000000000000000000000000000000000602082015250565b6000612ea660298361218e565b9150612eb182612e4a565b604082019050919050565b60006020820190508181036000830152612ed581612e99565b9050919050565b7f4e487b7100000000000000000000000000000000000000000000000000000000600052603260045260246000fd5b7f4e487b7100000000000000000000000000000000000000000000000000000000600052601160045260246000fd5b6000612f4582611ffb565b91507fffffffffffffffffffffffffffffffffffffffffffffffffffffffffffffffff8203612f7757612f76612f0b565b5b600182019050919050565b600081905092915050565b6000612f998385612f82565b9350612fa68385846123bc565b82840190509392505050565b6000612fbf828486612f8d565b91508190509392505050565b6000612fd682611ffb565b9150612fe183611ffb565b9250827fffffffffffffffffffffffffffffffffffffffffffffffffffffffffffffffff0382111561301657613015612f0b565b5b828201905092915050565b6000819050919050565b61303c6130378261250a565b613021565b82525050565b6000819050919050565b61305d61305882611ffb565b613042565b82525050565b600061306f828661302b565b60208201915061307f828561302b565b60208201915061308f828461304c565b602082019150819050949350505050565b600060ff82169050919050565b60006130c86130c36130be846130a0565b612b54565b6130a0565b9050919050565b6130d8816130ad565b82525050565b600081519050919050565b600082825260208201905092915050565b6000613105826130de565b61310f81856130e9565b935061311f81856020860161219f565b613128816121d2565b840191505092915050565b600060608201905061314860008301866130cf565b6131556020830185612526565b818103604083015261316781846130fa565b9050949350505050565b600061317c82611fbd565b9050919050565b61318c81613171565b811461319757600080fd5b50565b6000815190506131a981613183565b92915050565b6000815190506131be81612005565b92915050565b600080604083850312156131db576131da611f93565b5b60006131e98582860161319a565b92505060206131fa858286016131af565b9150509250929050565b7f455243313135353a2063616c6c6572206973206e6f74206f776e6572206e6f7260008201527f20617070726f7665640000000000000000000000000000000000000000000000602082015250565b600061326060298361218e565b915061326b82613204565b604082019050919050565b6000602082019050818103600083015261328f81613253565b9050919050565b60008160601b9050919050565b60006132ae82613296565b9050919050565b60006132c0826132a3565b9050919050565b6132d86132d382611fbd565b6132b5565b82525050565b60006132ea82876132c7565b6014820191506132fa828661302b565b60208201915061330a828561302b565b60208201915061331a828461304c565b60208201915081905095945050505050565b60006020828403121561334257613341611f93565b5b60006133508482850161319a565b91505092915050565b600060208201905061336e600083018461276b565b92915050565b7f455243313135353a2069647320616e6420616d6f756e7473206c656e6774682060008201527f6d69736d61746368000000000000000000000000000000000000000000000000602082015250565b60006133d060288361218e565b91506133db82613374565b604082019050919050565b600060208201905081810360008301526133ff816133c3565b9050919050565b7f455243313135353a207472616e7366657220746f20746865207a65726f20616460008201527f6472657373000000000000000000000000000000000000000000000000000000602082015250565b600061346260258361218e565b915061346d82613406565b604082019050919050565b6000602082019050818103600083015261349181613455565b9050919050565b7f455243313135353a20696e73756666696369656e742062616c616e636520666f60008201527f72207472616e7366657200000000000000000000000000000000000000000000602082015250565b60006134f4602a8361218e565b91506134ff82613498565b604082019050919050565b60006020820190508181036000830152613523816134e7565b9050919050565b6000604082019050818103600083015261354481856126eb565b9050818103602083015261355881846126eb565b90509392505050565b7f455243313135353a2073657474696e6720617070726f76616c2073746174757360008201527f20666f722073656c660000000000000000000000000000000000000000000000602082015250565b60006135bd60298361218e565b91506135c882613561565b604082019050919050565b600060208201905081810360008301526135ec816135b0565b9050919050565b7f455243313135353a206d696e7420746f20746865207a65726f2061646472657360008201527f7300000000000000000000000000000000000000000000000000000000000000602082015250565b600061364f60218361218e565b915061365a826135f3565b604082019050919050565b6000602082019050818103600083015261367e81613642565b9050919050565b600060408201905061369a6000830185612071565b6136a76020830184612071565b9392505050565b7f4e487b7100000000000000000000000000000000000000000000000000000000600052601260045260246000fd5b60006136e882611ffb565b91506136f383611ffb565b925082613703576137026136ae565b5b828204905092915050565b600061371982611ffb565b915061372483611ffb565b9250817fffffffffffffffffffffffffffffffffffffffffffffffffffffffffffffffff048311821515161561375d5761375c612f0b565b5b828202905092915050565b60006020601f8301049050919050565b600082821b905092915050565b6000600883026137b57fffffffffffffffffffffffffffffffffffffffffffffffffffffffffffffffff82613778565b6137bf8683613778565b95508019841693508086168417925050509392505050565b60006137f26137ed6137e884611ffb565b612b54565b611ffb565b9050919050565b6000819050919050565b61380c836137d7565b613820613818826137f9565b848454613785565b825550505050565b600090565b613835613828565b613840818484613803565b505050565b5b818110156138645761385960008261382d565b600181019050613846565b5050565b601f8211156138a95761387a81612ccb565b61388384613768565b81016020851015613892578190505b6138a661389e85613768565b830182613845565b50505b505050565b600082821c905092915050565b60006138cc600019846008026138ae565b1980831691505092915050565b60006138e583836138bb565b9150826002028217905092915050565b6138fe82612183565b67ffffffffffffffff81111561391757613916612243565b5b6139218254612c8f565b61392c828285613868565b600060209050601f83116001811461395f576000841561394d578287015190505b61395785826138d9565b8655506139bf565b601f19841661396d86612ccb565b60005b8281101561399557848901518255600182019150602085019450602081019050613970565b868310156139b257848901516139ae601f8916826138bb565b8355505b6001600288020188555050505b505050505050565b600060a0820190506139dc600083018861276b565b6139e9602083018761276b565b81810360408301526139fb81866126eb565b90508181036060830152613a0f81856126eb565b90508181036080830152613a2381846130fa565b90509695505050505050565b600081519050613a3e816120c7565b92915050565b600060208284031215613a5a57613a59611f93565b5b6000613a6884828501613a2f565b91505092915050565b60008160e01c9050919050565b600060033d1115613a9d5760046000803e613a9a600051613a71565b90505b90565b600060443d10613b2d57613ab2611f89565b60043d036004823e80513d602482011167ffffffffffffffff82111715613ada575050613b2d565b808201805167ffffffffffffffff811115613af85750505050613b2d565b80602083010160043d038501811115613b15575050505050613b2d565b613b2482602001850186612272565b82955050505050505b90565b7f455243313135353a207472616e7366657220746f206e6f6e204552433131353560008201527f526563656976657220696d706c656d656e746572000000000000000000000000602082015250565b6000613b8c60348361218e565b9150613b9782613b30565b604082019050919050565b60006020820190508181036000830152613bbb81613b7f565b9050919050565b7f455243313135353a204552433131353552656365697665722072656a6563746560008201527f6420746f6b656e73000000000000000000000000000000000000000000000000602082015250565b6000613c1e60288361218e565b9150613c2982613bc2565b604082019050919050565b60006020820190508181036000830152613c4d81613c11565b9050919050565b600060a082019050613c69600083018861276b565b613c76602083018761276b565b613c836040830186612071565b613c906060830185612071565b8181036080830152613ca281846130fa565b9050969550505050505056fe4142434445464748494a4b4c4d4e4f505152535455565758595a6162636465666768696a6b6c6d6e6f707172737475767778797a303132333435363738392b2fa2646970667358221220492e6758bf809b3fa90d19421cfc8bcafff2ce14f0e82b587fd4ad6f804786de64736f6c634300080f0033",
  "immutableReferences": {
    "5042": [
      {
        "length": 32,
        "start": 1622
      },
      {
        "length": 32,
        "start": 2607
      },
      {
        "length": 32,
        "start": 3733
      }
    ],
    "5046": [
      {
        "length": 32,
        "start": 2545
      },
      {
        "length": 32,
        "start": 3399
      },
      {
        "length": 32,
        "start": 3671
      }
    ]
  },
  "source": "//SPDX-License-Identifier: MIT\npragma solidity ^0.8.15;\n\nimport { Base64 } from \"@openzeppelin/contracts/utils/Base64.sol\";\nimport { ERC1155URIStorage, ERC1155 } from \"@openzeppelin/contracts/token/ERC1155/extensions/ERC1155URIStorage.sol\";\nimport { IDisputeGameFactory } from \"@eth-optimism/contracts-bedrock/src/dispute/interfaces/IDisputeGameFactory.sol\";\nimport { IDisputeGame } from \"@eth-optimism/contracts-bedrock/src/dispute/interfaces/IDisputeGame.sol\";\nimport { GameTypes, Claim } from \"@eth-optimism/contracts-bedrock/src/libraries/DisputeTypes.sol\";\n\n/**\n* @title ERC1155ChallengeableMint\n* @dev This contract allows for the creation of ERC1155 tokens through a two stage minting process\n*\n*      The first stage is a proposal stage where a user can propose a new token to be minted\n*      during a challenge period anyone who disputes the validity of the token can challenge it by\n*      initiating a dispute game. If the challenger wins the dispute game\n*      the token is not minted and its proposal cancelled.\n*\n*      The second stage is a claim where the original proposer can receive an actual NFT\n*      if it remains unchallenged for sufficiently long.\n*\n*       ---\n*\n*      This contract uses on-chain metadata since the metadata itself is required to check the\n*      validity of the token. This may be expensive for large metadata.\n*/\ncontract ERC1155ChallengeableMint is ERC1155URIStorage {\n\n    /// @dev Represents a token that has yet to be minted. It must persist\n    ///      for at least SETTLEMENT_PERIOD before it can be minted for real\n    struct PendingMint {\n        /// The address that will receive the token once minted\n        address to;\n        /// metadata is not stored, only the hash\n        bytes32 metadataHash;\n        /// hash of public input data to provable computation\n        bytes32 witnessHash;\n        /// block timestamp when proposal created\n        uint256 timestamp;\n    }\n\n    /// @dev The amount of time that must pass before a pending mint can be minted\n    uint256 public constant SETTLEMENT_PERIOD = 1 hours;\n\n    /// @dev The hash of the code to be run in the provable execution\n    Claim public immutable ROOT_CLAIM;\n\n    /// @dev The dispute game factory used to create and track open disputes\n    IDisputeGameFactory public immutable disputeGameFactory;\n    \n    /// @dev Used to generate a fresh token ID for each token\n    uint256 private nonce;\n\n    /// @dev Mapping from token nonce to mintable status\n    mapping(uint256 => PendingMint) public pendingMints;\n\n\n    event MintProposed(uint256 indexed id, uint256 timestamp);\n    event MintChallenged(uint256 indexed id, address challenger);\n    event Minted(uint256 indexed id, address indexed to);\n\n    error MintProposalNotSettled(uint256 id);\n    error ProposalHasOpenChallenge(uint256 id);\n    error MetadataHashMismatch(uint256 id);\n    error CannotChallengeProposalHasSettled(uint256 id);\n\n\n    /**\n    * @dev Construct a new NFTCollection contract.\n     */\n    constructor(address disputeGameFactoryAddr, Claim rootClaim) ERC1155(\"\") {\n        disputeGameFactory = IDisputeGameFactory(disputeGameFactoryAddr);\n        ROOT_CLAIM = rootClaim;\n        _setBaseURI(\"data:application/json;base64,\");\n    }\n\n    /**\n    * @dev Propose a new mint.\n    * @param metadataJson The string of metadata.json to associate with the token.\n    * @param witness The witness given as input to the provable program \n    *                to produce this metadata output.\n    *                This must be provided in calldata so watchers can replicate the computation\n    */\n    function ProposeMint(address to, string calldata metadataJson, bytes calldata witness) external {\n        uint256 id = nonce++;\n        pendingMints[id] = PendingMint({\n            to: to,\n            metadataHash: keccak256(bytes(metadataJson)),\n            witnessHash: keccak256(witness),\n            timestamp: block.timestamp\n        });\n        emit MintProposed(id,  block.timestamp);\n    }\n\n    /**\n    * @dev Challenge a pending mint.\n    *    This will lead to the creation of a challenge game on this mint.\n    *    The winner of the game receives 1/2 the bond from the opponent.\n    *    The rest goes into the dev fund :)\n    * @param id The ID of the pending mint to challenge\n    */\n    function ChallengeMint(uint256 id) external {\n        PendingMint memory proposal = pendingMints[id];\n\n        if (proposal.timestamp + SETTLEMENT_PERIOD > block.timestamp)\n            revert CannotChallengeProposalHasSettled(id);\n\n        disputeGameFactory.create(\n            GameTypes.FAULT,\n            ROOT_CLAIM,\n            bytes(abi.encodePacked(proposal.to, proposal.metadataHash, proposal.witnessHash, proposal.timestamp))\n        );\n\n        emit MintChallenged(id, msg.sender);\n    }\n\n    /**\n    * @dev Mint a new token with the given metadata.\n    * @param id The ID of the pending mint (will also be the ID of the token)\n    * @param metadataJson The string of metadata.json to associate with the token.\n    *                     Must match the hash stored in pending\n    */\n    function ClaimMint(uint256 id, string memory metadataJson) external {\n        PendingMint storage proposal = pendingMints[id];\n\n        if (proposal.timestamp + SETTLEMENT_PERIOD <= block.timestamp)\n            revert MintProposalNotSettled(id);\n\n        if (proposal.metadataHash != keccak256(bytes(metadataJson)))\n            revert MetadataHashMismatch(id);\n\n        // see if there is an open challenge\n        (IDisputeGame game,) = disputeGameFactory.games(\n            GameTypes.FAULT,\n            ROOT_CLAIM,\n            bytes(abi.encodePacked(proposal.metadataHash, proposal.witnessHash, proposal.timestamp))\n        );\n        if (address(game) != address(0)) {\n            revert ProposalHasOpenChallenge(id);\n        }\n\n        _mint(proposal.to, id, 1, \"\");\n        _setURI(id, Base64.encode(bytes(metadataJson)));\n\n        emit Minted(id, proposal.to);\n    }\n}\n",
  "sourcePath": "/Users/willem/repos/ProofBoy/contracts/ERC1155ChallengeableMint.sol",
  "compiler": {
    "name": "solc",
    "version": "0.8.15+commit.e14f2714.Emscripten.clang"
  },
  "schemaVersion": "3.4.14",
  "updatedAt": "2023-08-04T05:30:52.685Z",
  "networkType": "ethereum",
  "devdoc": {
    "details": "This contract allows for the creation of ERC1155 tokens through a two stage minting process      The first stage is a proposal stage where a user can propose a new token to be minted      during a challenge period anyone who disputes the validity of the token can challenge it by      initiating a dispute game. If the challenger wins the dispute game      the token is not minted and its proposal cancelled.      The second stage is a claim where the original proposer can receive an actual NFT      if it remains unchallenged for sufficiently long.       ---      This contract uses on-chain metadata since the metadata itself is required to check the      validity of the token. This may be expensive for large metadata.",
    "kind": "dev",
    "methods": {
      "ChallengeMint(uint256)": {
        "details": "Challenge a pending mint.    This will lead to the creation of a challenge game on this mint.    The winner of the game receives 1/2 the bond from the opponent.    The rest goes into the dev fund :)",
        "params": {
          "id": "The ID of the pending mint to challenge"
        }
      },
      "ClaimMint(uint256,string)": {
        "details": "Mint a new token with the given metadata.",
        "params": {
          "id": "The ID of the pending mint (will also be the ID of the token)",
          "metadataJson": "The string of metadata.json to associate with the token.                     Must match the hash stored in pending"
        }
      },
      "ProposeMint(address,string,bytes)": {
        "details": "Propose a new mint.",
        "params": {
          "metadataJson": "The string of metadata.json to associate with the token.",
          "witness": "The witness given as input to the provable program                 to produce this metadata output.                This must be provided in calldata so watchers can replicate the computation"
        }
      },
      "balanceOf(address,uint256)": {
        "details": "See {IERC1155-balanceOf}. Requirements: - `account` cannot be the zero address."
      },
      "balanceOfBatch(address[],uint256[])": {
        "details": "See {IERC1155-balanceOfBatch}. Requirements: - `accounts` and `ids` must have the same length."
      },
      "constructor": {
        "details": "Construct a new NFTCollection contract."
      },
      "isApprovedForAll(address,address)": {
        "details": "See {IERC1155-isApprovedForAll}."
      },
      "safeBatchTransferFrom(address,address,uint256[],uint256[],bytes)": {
        "details": "See {IERC1155-safeBatchTransferFrom}."
      },
      "safeTransferFrom(address,address,uint256,uint256,bytes)": {
        "details": "See {IERC1155-safeTransferFrom}."
      },
      "setApprovalForAll(address,bool)": {
        "details": "See {IERC1155-setApprovalForAll}."
      },
      "supportsInterface(bytes4)": {
        "details": "See {IERC165-supportsInterface}."
      },
      "uri(uint256)": {
        "details": "See {IERC1155MetadataURI-uri}. This implementation returns the concatenation of the `_baseURI` and the token-specific uri if the latter is set This enables the following behaviors: - if `_tokenURIs[tokenId]` is set, then the result is the concatenation   of `_baseURI` and `_tokenURIs[tokenId]` (keep in mind that `_baseURI`   is empty per default); - if `_tokenURIs[tokenId]` is NOT set then we fallback to `super.uri()`   which in most cases will contain `ERC1155._uri`; - if `_tokenURIs[tokenId]` is NOT set, and if the parents do not have a   uri value set, then the result is empty."
      }
    },
    "stateVariables": {
      "ROOT_CLAIM": {
        "details": "The hash of the code to be run in the provable execution"
      },
      "SETTLEMENT_PERIOD": {
        "details": "The amount of time that must pass before a pending mint can be minted"
      },
      "disputeGameFactory": {
        "details": "The dispute game factory used to create and track open disputes"
      },
      "nonce": {
        "details": "Used to generate a fresh token ID for each token"
      },
      "pendingMints": {
        "details": "Mapping from token nonce to mintable status"
      }
    },
    "title": "ERC1155ChallengeableMint",
    "version": 1
  },
  "userdoc": {
    "kind": "user",
    "methods": {},
    "version": 1
  }
}