{
  "contractName": "ERC1155ChallengeableMint",
  "abi": [
    {
      "inputs": [
        {
          "internalType": "address",
          "name": "disputeGameFactoryAddr",
          "type": "address"
        },
        {
          "internalType": "Claim",
          "name": "rootClaim",
          "type": "bytes32"
        }
      ],
      "stateMutability": "nonpayable",
      "type": "constructor"
    },
    {
      "inputs": [
        {
          "internalType": "uint256",
          "name": "id",
          "type": "uint256"
        }
      ],
      "name": "CannotChallengeProposalHasSettled",
      "type": "error"
    },
    {
      "inputs": [
        {
          "internalType": "uint256",
          "name": "id",
          "type": "uint256"
        }
      ],
      "name": "MetadataHashMismatch",
      "type": "error"
    },
    {
      "inputs": [
        {
          "internalType": "uint256",
          "name": "id",
          "type": "uint256"
        }
      ],
      "name": "MintProposalNotSettled",
      "type": "error"
    },
    {
      "inputs": [
        {
          "internalType": "uint256",
          "name": "id",
          "type": "uint256"
        }
      ],
      "name": "ProposalHasOpenChallenge",
      "type": "error"
    },
    {
      "anonymous": false,
      "inputs": [
        {
          "indexed": true,
          "internalType": "address",
          "name": "account",
          "type": "address"
        },
        {
          "indexed": true,
          "internalType": "address",
          "name": "operator",
          "type": "address"
        },
        {
          "indexed": false,
          "internalType": "bool",
          "name": "approved",
          "type": "bool"
        }
      ],
      "name": "ApprovalForAll",
      "type": "event"
    },
    {
      "anonymous": false,
      "inputs": [
        {
          "indexed": true,
          "internalType": "uint256",
          "name": "id",
          "type": "uint256"
        },
        {
          "indexed": false,
          "internalType": "address",
          "name": "challenger",
          "type": "address"
        }
      ],
      "name": "MintChallenged",
      "type": "event"
    },
    {
      "anonymous": false,
      "inputs": [
        {
          "indexed": true,
          "internalType": "uint256",
          "name": "id",
          "type": "uint256"
        },
        {
          "indexed": false,
          "internalType": "uint256",
          "name": "timestamp",
          "type": "uint256"
        }
      ],
      "name": "MintProposed",
      "type": "event"
    },
    {
      "anonymous": false,
      "inputs": [
        {
          "indexed": true,
          "internalType": "uint256",
          "name": "id",
          "type": "uint256"
        },
        {
          "indexed": true,
          "internalType": "address",
          "name": "to",
          "type": "address"
        }
      ],
      "name": "Minted",
      "type": "event"
    },
    {
      "anonymous": false,
      "inputs": [
        {
          "indexed": true,
          "internalType": "address",
          "name": "operator",
          "type": "address"
        },
        {
          "indexed": true,
          "internalType": "address",
          "name": "from",
          "type": "address"
        },
        {
          "indexed": true,
          "internalType": "address",
          "name": "to",
          "type": "address"
        },
        {
          "indexed": false,
          "internalType": "uint256[]",
          "name": "ids",
          "type": "uint256[]"
        },
        {
          "indexed": false,
          "internalType": "uint256[]",
          "name": "values",
          "type": "uint256[]"
        }
      ],
      "name": "TransferBatch",
      "type": "event"
    },
    {
      "anonymous": false,
      "inputs": [
        {
          "indexed": true,
          "internalType": "address",
          "name": "operator",
          "type": "address"
        },
        {
          "indexed": true,
          "internalType": "address",
          "name": "from",
          "type": "address"
        },
        {
          "indexed": true,
          "internalType": "address",
          "name": "to",
          "type": "address"
        },
        {
          "indexed": false,
          "internalType": "uint256",
          "name": "id",
          "type": "uint256"
        },
        {
          "indexed": false,
          "internalType": "uint256",
          "name": "value",
          "type": "uint256"
        }
      ],
      "name": "TransferSingle",
      "type": "event"
    },
    {
      "anonymous": false,
      "inputs": [
        {
          "indexed": false,
          "internalType": "string",
          "name": "value",
          "type": "string"
        },
        {
          "indexed": true,
          "internalType": "uint256",
          "name": "id",
          "type": "uint256"
        }
      ],
      "name": "URI",
      "type": "event"
    },
    {
      "inputs": [],
      "name": "ROOT_CLAIM",
      "outputs": [
        {
          "internalType": "Claim",
          "name": "",
          "type": "bytes32"
        }
      ],
      "stateMutability": "view",
      "type": "function",
      "constant": true
    },
    {
      "inputs": [],
      "name": "SETTLEMENT_PERIOD",
      "outputs": [
        {
          "internalType": "uint256",
          "name": "",
          "type": "uint256"
        }
      ],
      "stateMutability": "view",
      "type": "function",
      "constant": true
    },
    {
      "inputs": [
        {
          "internalType": "address",
          "name": "account",
          "type": "address"
        },
        {
          "internalType": "uint256",
          "name": "id",
          "type": "uint256"
        }
      ],
      "name": "balanceOf",
      "outputs": [
        {
          "internalType": "uint256",
          "name": "",
          "type": "uint256"
        }
      ],
      "stateMutability": "view",
      "type": "function",
      "constant": true
    },
    {
      "inputs": [
        {
          "internalType": "address[]",
          "name": "accounts",
          "type": "address[]"
        },
        {
          "internalType": "uint256[]",
          "name": "ids",
          "type": "uint256[]"
        }
      ],
      "name": "balanceOfBatch",
      "outputs": [
        {
          "internalType": "uint256[]",
          "name": "",
          "type": "uint256[]"
        }
      ],
      "stateMutability": "view",
      "type": "function",
      "constant": true
    },
    {
      "inputs": [],
      "name": "disputeGameFactory",
      "outputs": [
        {
          "internalType": "contract IDisputeGameFactory",
          "name": "",
          "type": "address"
        }
      ],
      "stateMutability": "view",
      "type": "function",
      "constant": true
    },
    {
      "inputs": [
        {
          "internalType": "address",
          "name": "account",
          "type": "address"
        },
        {
          "internalType": "address",
          "name": "operator",
          "type": "address"
        }
      ],
      "name": "isApprovedForAll",
      "outputs": [
        {
          "internalType": "bool",
          "name": "",
          "type": "bool"
        }
      ],
      "stateMutability": "view",
      "type": "function",
      "constant": true
    },
    {
      "inputs": [],
      "name": "nonce",
      "outputs": [
        {
          "internalType": "uint256",
          "name": "",
          "type": "uint256"
        }
      ],
      "stateMutability": "view",
      "type": "function",
      "constant": true
    },
    {
      "inputs": [
        {
          "internalType": "uint256",
          "name": "",
          "type": "uint256"
        }
      ],
      "name": "pendingMints",
      "outputs": [
        {
          "internalType": "address",
          "name": "to",
          "type": "address"
        },
        {
          "internalType": "bytes32",
          "name": "metadataHash",
          "type": "bytes32"
        },
        {
          "internalType": "bytes32",
          "name": "witnessHash",
          "type": "bytes32"
        },
        {
          "internalType": "uint256",
          "name": "timestamp",
          "type": "uint256"
        }
      ],
      "stateMutability": "view",
      "type": "function",
      "constant": true
    },
    {
      "inputs": [
        {
          "internalType": "address",
          "name": "from",
          "type": "address"
        },
        {
          "internalType": "address",
          "name": "to",
          "type": "address"
        },
        {
          "internalType": "uint256[]",
          "name": "ids",
          "type": "uint256[]"
        },
        {
          "internalType": "uint256[]",
          "name": "amounts",
          "type": "uint256[]"
        },
        {
          "internalType": "bytes",
          "name": "data",
          "type": "bytes"
        }
      ],
      "name": "safeBatchTransferFrom",
      "outputs": [],
      "stateMutability": "nonpayable",
      "type": "function"
    },
    {
      "inputs": [
        {
          "internalType": "address",
          "name": "from",
          "type": "address"
        },
        {
          "internalType": "address",
          "name": "to",
          "type": "address"
        },
        {
          "internalType": "uint256",
          "name": "id",
          "type": "uint256"
        },
        {
          "internalType": "uint256",
          "name": "amount",
          "type": "uint256"
        },
        {
          "internalType": "bytes",
          "name": "data",
          "type": "bytes"
        }
      ],
      "name": "safeTransferFrom",
      "outputs": [],
      "stateMutability": "nonpayable",
      "type": "function"
    },
    {
      "inputs": [
        {
          "internalType": "address",
          "name": "operator",
          "type": "address"
        },
        {
          "internalType": "bool",
          "name": "approved",
          "type": "bool"
        }
      ],
      "name": "setApprovalForAll",
      "outputs": [],
      "stateMutability": "nonpayable",
      "type": "function"
    },
    {
      "inputs": [
        {
          "internalType": "bytes4",
          "name": "interfaceId",
          "type": "bytes4"
        }
      ],
      "name": "supportsInterface",
      "outputs": [
        {
          "internalType": "bool",
          "name": "",
          "type": "bool"
        }
      ],
      "stateMutability": "view",
      "type": "function",
      "constant": true
    },
    {
      "inputs": [
        {
          "internalType": "uint256",
          "name": "tokenId",
          "type": "uint256"
        }
      ],
      "name": "uri",
      "outputs": [
        {
          "internalType": "string",
          "name": "",
          "type": "string"
        }
      ],
      "stateMutability": "view",
      "type": "function",
      "constant": true
    },
    {
      "inputs": [
        {
          "internalType": "address",
          "name": "to",
          "type": "address"
        },
        {
          "internalType": "string",
          "name": "metadataJson",
          "type": "string"
        },
        {
          "internalType": "bytes",
          "name": "witness",
          "type": "bytes"
        }
      ],
      "name": "ProposeMint",
      "outputs": [],
      "stateMutability": "nonpayable",
      "type": "function"
    },
    {
      "inputs": [
        {
          "internalType": "uint256",
          "name": "id",
          "type": "uint256"
        }
      ],
      "name": "ChallengeMint",
      "outputs": [],
      "stateMutability": "nonpayable",
      "type": "function"
    },
    {
      "inputs": [
        {
          "internalType": "uint256",
          "name": "id",
          "type": "uint256"
        },
        {
          "internalType": "string",
          "name": "metadataJson",
          "type": "string"
        }
      ],
      "name": "ClaimMint",
      "outputs": [],
      "stateMutability": "nonpayable",
      "type": "function"
    }
  ],
  "bytecode": "0x60c06040526040518060200160405280600081525060039081620000249190620003a8565b503480156200003257600080fd5b5060405162003b5138038062003b51833981810160405281019062000058919062000534565b6040518060200160405280600081525062000079816200010460201b60201c565b508173ffffffffffffffffffffffffffffffffffffffff1660a08173ffffffffffffffffffffffffffffffffffffffff16815250508060808181525050620000fc6040518060400160405280601d81526020017f646174613a6170706c69636174696f6e2f6a736f6e3b6261736536342c0000008152506200011960201b60201c565b50506200057b565b8060029081620001159190620003a8565b5050565b80600390816200012a9190620003a8565b5050565b600081519050919050565b7f4e487b7100000000000000000000000000000000000000000000000000000000600052604160045260246000fd5b7f4e487b7100000000000000000000000000000000000000000000000000000000600052602260045260246000fd5b60006002820490506001821680620001b057607f821691505b602082108103620001c657620001c562000168565b5b50919050565b60008190508160005260206000209050919050565b60006020601f8301049050919050565b600082821b905092915050565b600060088302620002307fffffffffffffffffffffffffffffffffffffffffffffffffffffffffffffffff82620001f1565b6200023c8683620001f1565b95508019841693508086168417925050509392505050565b6000819050919050565b6000819050919050565b600062000289620002836200027d8462000254565b6200025e565b62000254565b9050919050565b6000819050919050565b620002a58362000268565b620002bd620002b48262000290565b848454620001fe565b825550505050565b600090565b620002d4620002c5565b620002e18184846200029a565b505050565b5b818110156200030957620002fd600082620002ca565b600181019050620002e7565b5050565b601f82111562000358576200032281620001cc565b6200032d84620001e1565b810160208510156200033d578190505b620003556200034c85620001e1565b830182620002e6565b50505b505050565b600082821c905092915050565b60006200037d600019846008026200035d565b1980831691505092915050565b60006200039883836200036a565b9150826002028217905092915050565b620003b3826200012e565b67ffffffffffffffff811115620003cf57620003ce62000139565b5b620003db825462000197565b620003e88282856200030d565b600060209050601f8311600181146200042057600084156200040b578287015190505b6200041785826200038a565b86555062000487565b601f1984166200043086620001cc565b60005b828110156200045a5784890151825560018201915060208501945060208101905062000433565b868310156200047a578489015162000476601f8916826200036a565b8355505b6001600288020188555050505b505050505050565b600080fd5b600073ffffffffffffffffffffffffffffffffffffffff82169050919050565b6000620004c18262000494565b9050919050565b620004d381620004b4565b8114620004df57600080fd5b50565b600081519050620004f381620004c8565b92915050565b6000819050919050565b6200050e81620004f9565b81146200051a57600080fd5b50565b6000815190506200052e8162000503565b92915050565b600080604083850312156200054e576200054d6200048f565b5b60006200055e85828601620004e2565b925050602062000571858286016200051d565b9150509250929050565b60805160a0516135a2620005af60003960008181610b3f0152610c4f01526000818161067f0152610c8d01526135a26000f3fe608060405234801561001057600080fd5b50600436106100ff5760003560e01c8063a22cb46511610097578063e985e9c511610066578063e985e9c5146102c1578063f242432a146102f1578063f2b4e6171461030d578063faba48a31461032b576100ff565b8063a22cb4651461024f578063affed0e01461026b578063d109d23014610289578063e0399c29146102a5576100ff565b80632eb2c2d6116100d35780632eb2c2d6146101b25780634a1890f0146101ce5780634e1273f4146101ec57806363900ca61461021c576100ff565b8062fdd58e1461010457806301ffc9a71461013457806309e54b5b146101645780630e89341c14610182575b600080fd5b61011e60048036038101906101199190611b50565b610347565b60405161012b9190611b9f565b60405180910390f35b61014e60048036038101906101499190611c12565b61040f565b60405161015b9190611c5a565b60405180910390f35b61016c6104f1565b6040516101799190611b9f565b60405180910390f35b61019c60048036038101906101979190611c75565b6104f7565b6040516101a99190611d3b565b60405180910390f35b6101cc60048036038101906101c79190611f5a565b6105dc565b005b6101d661067d565b6040516101e39190612054565b60405180910390f35b61020660048036038101906102019190612132565b6106a1565b6040516102139190612268565b60405180910390f35b61023660048036038101906102319190611c75565b6107ba565b60405161024694939291906122a8565b60405180910390f35b61026960048036038101906102649190612319565b61080a565b005b610273610820565b6040516102809190611b9f565b60405180910390f35b6102a3600480360381019061029e919061240a565b610826565b005b6102bf60048036038101906102ba9190612540565b610961565b005b6102db60048036038101906102d6919061259c565b610a08565b6040516102e89190611c5a565b60405180910390f35b61030b600480360381019061030691906125dc565b610a9c565b005b610315610b3d565b60405161032291906126d2565b60405180910390f35b61034560048036038101906103409190611c75565b610b61565b005b60008073ffffffffffffffffffffffffffffffffffffffff168373ffffffffffffffffffffffffffffffffffffffff16036103b7576040517f08c379a00000000000000000000000000000000000000000000000000000000081526004016103ae9061275f565b60405180910390fd5b60008083815260200190815260200160002060008473ffffffffffffffffffffffffffffffffffffffff1673ffffffffffffffffffffffffffffffffffffffff16815260200190815260200160002054905092915050565b60007fd9b67a26000000000000000000000000000000000000000000000000000000007bffffffffffffffffffffffffffffffffffffffffffffffffffffffff1916827bffffffffffffffffffffffffffffffffffffffffffffffffffffffff191614806104da57507f0e89341c000000000000000000000000000000000000000000000000000000007bffffffffffffffffffffffffffffffffffffffffffffffffffffffff1916827bffffffffffffffffffffffffffffffffffffffffffffffffffffffff1916145b806104ea57506104e982610d80565b5b9050919050565b610e1081565b60606000600460008481526020019081526020016000208054610519906127ae565b80601f0160208091040260200160405190810160405280929190818152602001828054610545906127ae565b80156105925780601f1061056757610100808354040283529160200191610592565b820191906000526020600020905b81548152906001019060200180831161057557829003601f168201915b5050505050905060008151116105b0576105ab83610dea565b6105d4565b6003816040516020016105c49291906128b3565b6040516020818303038152906040525b915050919050565b6105e4610e7e565b73ffffffffffffffffffffffffffffffffffffffff168573ffffffffffffffffffffffffffffffffffffffff16148061062a575061062985610624610e7e565b610a08565b5b610669576040517f08c379a000000000000000000000000000000000000000000000000000000000815260040161066090612949565b60405180910390fd5b6106768585858585610e86565b5050505050565b7f000000000000000000000000000000000000000000000000000000000000000081565b606081518351146106e7576040517f08c379a00000000000000000000000000000000000000000000000000000000081526004016106de906129db565b60405180910390fd5b6000835167ffffffffffffffff81111561070457610703611d62565b5b6040519080825280602002602001820160405280156107325781602001602082028036833780820191505090505b50905060005b84518110156107af5761077f858281518110610757576107566129fb565b5b6020026020010151858381518110610772576107716129fb565b5b6020026020010151610347565b828281518110610792576107916129fb565b5b602002602001018181525050806107a890612a59565b9050610738565b508091505092915050565b60066020528060005260406000206000915090508060000160009054906101000a900473ffffffffffffffffffffffffffffffffffffffff16908060010154908060020154908060030154905084565b61081c610815610e7e565b83836111a7565b5050565b60055481565b60006005600081548092919061083b90612a59565b91905055905060405180608001604052808773ffffffffffffffffffffffffffffffffffffffff1681526020018686604051610878929190612ad1565b604051809103902081526020018484604051610895929190612ad1565b60405180910390208152602001428152506006600083815260200190815260200160002060008201518160000160006101000a81548173ffffffffffffffffffffffffffffffffffffffff021916908373ffffffffffffffffffffffffffffffffffffffff160217905550602082015181600101556040820151816002015560608201518160030155905050807fd0bc66607de65f3b1fabcfbcf0a2623cc9539a0cdbf5a5d1128153ac23ccc549426040516109519190611b9f565b60405180910390a2505050505050565b6000600660008481526020019081526020016000209050610e10816003015461098a9190612aea565b42116109cb576040517f08c379a00000000000000000000000000000000000000000000000000000000081526004016109c290612b8c565b60405180910390fd5b826040517ff5630a210000000000000000000000000000000000000000000000000000000081526004016109ff9190611b9f565b60405180910390fd5b6000600160008473ffffffffffffffffffffffffffffffffffffffff1673ffffffffffffffffffffffffffffffffffffffff16815260200190815260200160002060008373ffffffffffffffffffffffffffffffffffffffff1673ffffffffffffffffffffffffffffffffffffffff16815260200190815260200160002060009054906101000a900460ff16905092915050565b610aa4610e7e565b73ffffffffffffffffffffffffffffffffffffffff168573ffffffffffffffffffffffffffffffffffffffff161480610aea5750610ae985610ae4610e7e565b610a08565b5b610b29576040517f08c379a0000000000000000000000000000000000000000000000000000000008152600401610b2090612d6f565b60405180910390fd5b610b3685858585856113b2565b5050505050565b7f000000000000000000000000000000000000000000000000000000000000000081565b6000600660008381526020019081526020016000206040518060800160405290816000820160009054906101000a900473ffffffffffffffffffffffffffffffffffffffff1673ffffffffffffffffffffffffffffffffffffffff1673ffffffffffffffffffffffffffffffffffffffff1681526020016001820154815260200160028201548152602001600382015481525050905042610e108260600151610c0a9190612aea565b1115610c4d57816040517fcad27b0b000000000000000000000000000000000000000000000000000000008152600401610c449190611b9f565b60405180910390fd5b7f000000000000000000000000000000000000000000000000000000000000000073ffffffffffffffffffffffffffffffffffffffff16633142e55e60007f00000000000000000000000000000000000000000000000000000000000000008460000151856020015186604001518760600151604051602001610cd39493929190612dd7565b6040516020818303038152906040526040518463ffffffff1660e01b8152600401610d0093929190612c81565b6020604051808303816000875af1158015610d1f573d6000803e3d6000fd5b505050506040513d601f19601f82011682018060405250810190610d439190612e25565b50817f513913a831f7e641d47b430356dc599acd3e0f4e6e05b191e988a3a1d8b4501833604051610d749190612e52565b60405180910390a25050565b60007f01ffc9a7000000000000000000000000000000000000000000000000000000007bffffffffffffffffffffffffffffffffffffffffffffffffffffffff1916827bffffffffffffffffffffffffffffffffffffffffffffffffffffffff1916149050919050565b606060028054610df9906127ae565b80601f0160208091040260200160405190810160405280929190818152602001828054610e25906127ae565b8015610e725780601f10610e4757610100808354040283529160200191610e72565b820191906000526020600020905b815481529060010190602001808311610e5557829003601f168201915b50505050509050919050565b600033905090565b8151835114610eca576040517f08c379a0000000000000000000000000000000000000000000000000000000008152600401610ec190612edf565b60405180910390fd5b600073ffffffffffffffffffffffffffffffffffffffff168473ffffffffffffffffffffffffffffffffffffffff1603610f39576040517f08c379a0000000000000000000000000000000000000000000000000000000008152600401610f3090612f71565b60405180910390fd5b6000610f43610e7e565b9050610f5381878787878761164d565b60005b8451811015611104576000858281518110610f7457610f736129fb565b5b602002602001015190506000858381518110610f9357610f926129fb565b5b60200260200101519050600080600084815260200190815260200160002060008b73ffffffffffffffffffffffffffffffffffffffff1673ffffffffffffffffffffffffffffffffffffffff16815260200190815260200160002054905081811015611034576040517f08c379a000000000000000000000000000000000000000000000000000000000815260040161102b90613003565b60405180910390fd5b81810360008085815260200190815260200160002060008c73ffffffffffffffffffffffffffffffffffffffff1673ffffffffffffffffffffffffffffffffffffffff168152602001908152602001600020819055508160008085815260200190815260200160002060008b73ffffffffffffffffffffffffffffffffffffffff1673ffffffffffffffffffffffffffffffffffffffff16815260200190815260200160002060008282546110e99190612aea565b92505081905550505050806110fd90612a59565b9050610f56565b508473ffffffffffffffffffffffffffffffffffffffff168673ffffffffffffffffffffffffffffffffffffffff168273ffffffffffffffffffffffffffffffffffffffff167f4a39dc06d4c0dbc64b70af90fd698a233a518aa5d07e595d983b8c0526c8f7fb878760405161117b929190613023565b60405180910390a4611191818787878787611655565b61119f81878787878761165d565b505050505050565b8173ffffffffffffffffffffffffffffffffffffffff168373ffffffffffffffffffffffffffffffffffffffff1603611215576040517f08c379a000000000000000000000000000000000000000000000000000000000815260040161120c906130cc565b60405180910390fd5b80600160008573ffffffffffffffffffffffffffffffffffffffff1673ffffffffffffffffffffffffffffffffffffffff16815260200190815260200160002060008473ffffffffffffffffffffffffffffffffffffffff1673ffffffffffffffffffffffffffffffffffffffff16815260200190815260200160002060006101000a81548160ff0219169083151502179055508173ffffffffffffffffffffffffffffffffffffffff168373ffffffffffffffffffffffffffffffffffffffff167f17307eab39ab6107e8899845ad3d59bd9653f200f220920489ca2b5937696c31836040516113069190611c5a565b60405180910390a3505050565b8082101561136e576003820191508151603f8160121c168501518453600184019350603f81600c1c168501518453600184019350603f8160061c168501518453600184019350603f8116850151845360018401935050611313565b505060038651066001811461138a576002811461139d576113a5565b603d6001830353603d60028303536113a5565b603d60018303535b5050508092505050919050565b600073ffffffffffffffffffffffffffffffffffffffff168473ffffffffffffffffffffffffffffffffffffffff1603611421576040517f08c379a000000000000000000000000000000000000000000000000000000000815260040161141890612f71565b60405180910390fd5b600061142b610e7e565b9050600061143885611834565b9050600061144585611834565b905061145583898985858961164d565b600080600088815260200190815260200160002060008a73ffffffffffffffffffffffffffffffffffffffff1673ffffffffffffffffffffffffffffffffffffffff168152602001908152602001600020549050858110156114ec576040517f08c379a00000000000000000000000000000000000000000000000000000000081526004016114e390613003565b60405180910390fd5b85810360008089815260200190815260200160002060008b73ffffffffffffffffffffffffffffffffffffffff1673ffffffffffffffffffffffffffffffffffffffff168152602001908152602001600020819055508560008089815260200190815260200160002060008a73ffffffffffffffffffffffffffffffffffffffff1673ffffffffffffffffffffffffffffffffffffffff16815260200190815260200160002060008282546115a19190612aea565b925050819055508773ffffffffffffffffffffffffffffffffffffffff168973ffffffffffffffffffffffffffffffffffffffff168573ffffffffffffffffffffffffffffffffffffffff167fc3d58168c5ae7397731d063d5bbf3d657854427343f4c083240f7aacaa2d0f628a8a60405161161e9291906130ec565b60405180910390a4611634848a8a86868a611655565b611642848a8a8a8a8a6118ae565b505050505050505050565b505050505050565b505050505050565b61167c8473ffffffffffffffffffffffffffffffffffffffff16611a85565b1561182c578373ffffffffffffffffffffffffffffffffffffffff1663bc197c8187878686866040518663ffffffff1660e01b81526004016116c2959493929190613285565b6020604051808303816000875af19250505080156116fe57506040513d601f19601f820116820180604052508101906116fb9190613302565b60015b6117a35761170a61333c565b806308c379a003611766575061171e61335e565b806117295750611768565b806040517f08c379a000000000000000000000000000000000000000000000000000000000815260040161175d9190611d3b565b60405180910390fd5b505b6040517f08c379a000000000000000000000000000000000000000000000000000000000815260040161179a90613460565b60405180910390fd5b63bc197c8160e01b7bffffffffffffffffffffffffffffffffffffffffffffffffffffffff1916817bffffffffffffffffffffffffffffffffffffffffffffffffffffffff19161461182a576040517f08c379a0000000000000000000000000000000000000000000000000000000008152600401611821906134f2565b60405180910390fd5b505b505050505050565b60606000600167ffffffffffffffff81111561185357611852611d62565b5b6040519080825280602002602001820160405280156118815781602001602082028036833780820191505090505b5090508281600081518110611899576118986129fb565b5b60200260200101818152505080915050919050565b6118cd8473ffffffffffffffffffffffffffffffffffffffff16611a85565b15611a7d578373ffffffffffffffffffffffffffffffffffffffff1663f23a6e6187878686866040518663ffffffff1660e01b8152600401611913959493929190613512565b6020604051808303816000875af192505050801561194f57506040513d601f19601f8201168201806040525081019061194c9190613302565b60015b6119f45761195b61333c565b806308c379a0036119b7575061196f61335e565b8061197a57506119b9565b806040517f08c379a00000000000000000000000000000000000000000000000000000000081526004016119ae9190611d3b565b60405180910390fd5b505b6040517f08c379a00000000000000000000000000000000000000000000000000000000081526004016119eb90613460565b60405180910390fd5b63f23a6e6160e01b7bffffffffffffffffffffffffffffffffffffffffffffffffffffffff1916817bffffffffffffffffffffffffffffffffffffffffffffffffffffffff191614611a7b576040517f08c379a0000000000000000000000000000000000000000000000000000000008152600401611a72906134f2565b60405180910390fd5b505b505050505050565b6000808273ffffffffffffffffffffffffffffffffffffffff163b119050919050565b6000604051905090565b600080fd5b600080fd5b600073ffffffffffffffffffffffffffffffffffffffff82169050919050565b6000611ae782611abc565b9050919050565b611af781611adc565b8114611b0257600080fd5b50565b600081359050611b1481611aee565b92915050565b6000819050919050565b611b2d81611b1a565b8114611b3857600080fd5b50565b600081359050611b4a81611b24565b92915050565b60008060408385031215611b6757611b66611ab2565b5b6000611b7585828601611b05565b9250506020611b8685828601611b3b565b9150509250929050565b611b9981611b1a565b82525050565b6000602082019050611bb46000830184611b90565b92915050565b60007fffffffff0000000000000000000000000000000000000000000000000000000082169050919050565b611bef81611bba565b8114611bfa57600080fd5b50565b600081359050611c0c81611be6565b92915050565b600060208284031215611c2857611c27611ab2565b5b6000611c3684828501611bfd565b91505092915050565b60008115159050919050565b611c5481611c3f565b82525050565b6000602082019050611c6f6000830184611c4b565b92915050565b600060208284031215611c8b57611c8a611ab2565b5b6000611c9984828501611b3b565b91505092915050565b600081519050919050565b600082825260208201905092915050565b60005b83811015611cdc578082015181840152602081019050611cc1565b83811115611ceb576000848401525b50505050565b6000601f19601f8301169050919050565b6000611d0d82611ca2565b611d178185611cad565b9350611d27818560208601611cbe565b611d3081611cf1565b840191505092915050565b60006020820190508181036000830152611d558184611d02565b905092915050565b600080fd5b7f4e487b7100000000000000000000000000000000000000000000000000000000600052604160045260246000fd5b611d9a82611cf1565b810181811067ffffffffffffffff82111715611db957611db8611d62565b5b80604052505050565b6000611dcc611aa8565b9050611dd88282611d91565b919050565b600067ffffffffffffffff821115611df857611df7611d62565b5b602082029050602081019050919050565b600080fd5b6000611e21611e1c84611ddd565b611dc2565b90508083825260208201905060208402830185811115611e4457611e43611e09565b5b835b81811015611e6d5780611e598882611b3b565b845260208401935050602081019050611e46565b5050509392505050565b600082601f830112611e8c57611e8b611d5d565b5b8135611e9c848260208601611e0e565b91505092915050565b600080fd5b600067ffffffffffffffff821115611ec557611ec4611d62565b5b611ece82611cf1565b9050602081019050919050565b82818337600083830152505050565b6000611efd611ef884611eaa565b611dc2565b905082815260208101848484011115611f1957611f18611ea5565b5b611f24848285611edb565b509392505050565b600082601f830112611f4157611f40611d5d565b5b8135611f51848260208601611eea565b91505092915050565b600080600080600060a08688031215611f7657611f75611ab2565b5b6000611f8488828901611b05565b9550506020611f9588828901611b05565b945050604086013567ffffffffffffffff811115611fb657611fb5611ab7565b5b611fc288828901611e77565b935050606086013567ffffffffffffffff811115611fe357611fe2611ab7565b5b611fef88828901611e77565b925050608086013567ffffffffffffffff8111156120105761200f611ab7565b5b61201c88828901611f2c565b9150509295509295909350565b6000819050919050565b600061203e82612029565b9050919050565b61204e81612033565b82525050565b60006020820190506120696000830184612045565b92915050565b600067ffffffffffffffff82111561208a57612089611d62565b5b602082029050602081019050919050565b60006120ae6120a98461206f565b611dc2565b905080838252602082019050602084028301858111156120d1576120d0611e09565b5b835b818110156120fa57806120e68882611b05565b8452602084019350506020810190506120d3565b5050509392505050565b600082601f83011261211957612118611d5d565b5b813561212984826020860161209b565b91505092915050565b6000806040838503121561214957612148611ab2565b5b600083013567ffffffffffffffff81111561216757612166611ab7565b5b61217385828601612104565b925050602083013567ffffffffffffffff81111561219457612193611ab7565b5b6121a085828601611e77565b9150509250929050565b600081519050919050565b600082825260208201905092915050565b6000819050602082019050919050565b6121df81611b1a565b82525050565b60006121f183836121d6565b60208301905092915050565b6000602082019050919050565b6000612215826121aa565b61221f81856121b5565b935061222a836121c6565b8060005b8381101561225b57815161224288826121e5565b975061224d836121fd565b92505060018101905061222e565b5085935050505092915050565b60006020820190508181036000830152612282818461220a565b905092915050565b61229381611adc565b82525050565b6122a281612029565b82525050565b60006080820190506122bd600083018761228a565b6122ca6020830186612299565b6122d76040830185612299565b6122e46060830184611b90565b95945050505050565b6122f681611c3f565b811461230157600080fd5b50565b600081359050612313816122ed565b92915050565b600080604083850312156123305761232f611ab2565b5b600061233e85828601611b05565b925050602061234f85828601612304565b9150509250929050565b600080fd5b60008083601f84011261237457612373611d5d565b5b8235905067ffffffffffffffff81111561239157612390612359565b5b6020830191508360018202830111156123ad576123ac611e09565b5b9250929050565b60008083601f8401126123ca576123c9611d5d565b5b8235905067ffffffffffffffff8111156123e7576123e6612359565b5b60208301915083600182028301111561240357612402611e09565b5b9250929050565b60008060008060006060868803121561242657612425611ab2565b5b600061243488828901611b05565b955050602086013567ffffffffffffffff81111561245557612454611ab7565b5b6124618882890161235e565b9450945050604086013567ffffffffffffffff81111561248457612483611ab7565b5b612490888289016123b4565b92509250509295509295909350565b600067ffffffffffffffff8211156124ba576124b9611d62565b5b6124c382611cf1565b9050602081019050919050565b60006124e36124de8461249f565b611dc2565b9050828152602081018484840111156124ff576124fe611ea5565b5b61250a848285611edb565b509392505050565b600082601f83011261252757612526611d5d565b5b81356125378482602086016124d0565b91505092915050565b6000806040838503121561255757612556611ab2565b5b600061256585828601611b3b565b925050602083013567ffffffffffffffff81111561258657612585611ab7565b5b61259285828601612512565b9150509250929050565b600080604083850312156125b3576125b2611ab2565b5b60006125c185828601611b05565b92505060206125d285828601611b05565b9150509250929050565b600080600080600060a086880312156125f8576125f7611ab2565b5b600061260688828901611b05565b955050602061261788828901611b05565b945050604061262888828901611b3b565b935050606061263988828901611b3b565b925050608086013567ffffffffffffffff81111561265a57612659611ab7565b5b61266688828901611f2c565b9150509295509295909350565b6000819050919050565b600061269861269361268e84611abc565b612673565b611abc565b9050919050565b60006126aa8261267d565b9050919050565b60006126bc8261269f565b9050919050565b6126cc816126b1565b82525050565b60006020820190506126e760008301846126c3565b92915050565b7f455243313135353a2062616c616e636520717565727920666f7220746865207a60008201527f65726f2061646472657373000000000000000000000000000000000000000000602082015250565b6000612749602b83611cad565b9150612754826126ed565b604082019050919050565b600060208201905081810360008301526127788161273c565b9050919050565b7f4e487b7100000000000000000000000000000000000000000000000000000000600052602260045260246000fd5b600060028204905060018216806127c657607f821691505b6020821081036127d9576127d861277f565b5b50919050565b600081905092915050565b60008190508160005260206000209050919050565b6000815461280c816127ae565b61281681866127df565b94506001821660008114612831576001811461284657612879565b60ff1983168652811515820286019350612879565b61284f856127ea565b60005b8381101561287157815481890152600182019150602081019050612852565b838801955050505b50505092915050565b600061288d82611ca2565b61289781856127df565b93506128a7818560208601611cbe565b80840191505092915050565b60006128bf82856127ff565b91506128cb8284612882565b91508190509392505050565b7f455243313135353a207472616e736665722063616c6c6572206973206e6f742060008201527f6f776e6572206e6f7220617070726f7665640000000000000000000000000000602082015250565b6000612933603283611cad565b915061293e826128d7565b604082019050919050565b6000602082019050818103600083015261296281612926565b9050919050565b7f455243313135353a206163636f756e747320616e6420696473206c656e67746860008201527f206d69736d617463680000000000000000000000000000000000000000000000602082015250565b60006129c5602983611cad565b91506129d082612969565b604082019050919050565b600060208201905081810360008301526129f4816129b8565b9050919050565b7f4e487b7100000000000000000000000000000000000000000000000000000000600052603260045260246000fd5b7f4e487b7100000000000000000000000000000000000000000000000000000000600052601160045260246000fd5b6000612a6482611b1a565b91507fffffffffffffffffffffffffffffffffffffffffffffffffffffffffffffffff8203612a9657612a95612a2a565b5b600182019050919050565b600081905092915050565b6000612ab88385612aa1565b9350612ac5838584611edb565b82840190509392505050565b6000612ade828486612aac565b91508190509392505050565b6000612af582611b1a565b9150612b0083611b1a565b9250827fffffffffffffffffffffffffffffffffffffffffffffffffffffffffffffffff03821115612b3557612b34612a2a565b5b828201905092915050565b7f74696d65206e6f7420656c617073656400000000000000000000000000000000600082015250565b6000612b76601083611cad565b9150612b8182612b40565b602082019050919050565b60006020820190508181036000830152612ba581612b69565b9050919050565b6000819050919050565b612bc7612bc282612029565b612bac565b82525050565b6000819050919050565b612be8612be382611b1a565b612bcd565b82525050565b600060ff82169050919050565b6000612c16612c11612c0c84612bee565b612673565b612bee565b9050919050565b612c2681612bfb565b82525050565b600081519050919050565b600082825260208201905092915050565b6000612c5382612c2c565b612c5d8185612c37565b9350612c6d818560208601611cbe565b612c7681611cf1565b840191505092915050565b6000606082019050612c966000830186612c1d565b612ca36020830185612045565b8181036040830152612cb58184612c48565b9050949350505050565b6000612cca82611adc565b9050919050565b612cda81612cbf565b8114612ce557600080fd5b50565b600081519050612cf781612cd1565b92915050565b7f455243313135353a2063616c6c6572206973206e6f74206f776e6572206e6f7260008201527f20617070726f7665640000000000000000000000000000000000000000000000602082015250565b6000612d59602983611cad565b9150612d6482612cfd565b604082019050919050565b60006020820190508181036000830152612d8881612d4c565b9050919050565b60008160601b9050919050565b6000612da782612d8f565b9050919050565b6000612db982612d9c565b9050919050565b612dd1612dcc82611adc565b612dae565b82525050565b6000612de38287612dc0565b601482019150612df38286612bb6565b602082019150612e038285612bb6565b602082019150612e138284612bd7565b60208201915081905095945050505050565b600060208284031215612e3b57612e3a611ab2565b5b6000612e4984828501612ce8565b91505092915050565b6000602082019050612e67600083018461228a565b92915050565b7f455243313135353a2069647320616e6420616d6f756e7473206c656e6774682060008201527f6d69736d61746368000000000000000000000000000000000000000000000000602082015250565b6000612ec9602883611cad565b9150612ed482612e6d565b604082019050919050565b60006020820190508181036000830152612ef881612ebc565b9050919050565b7f455243313135353a207472616e7366657220746f20746865207a65726f20616460008201527f6472657373000000000000000000000000000000000000000000000000000000602082015250565b6000612f5b602583611cad565b9150612f6682612eff565b604082019050919050565b60006020820190508181036000830152612f8a81612f4e565b9050919050565b7f455243313135353a20696e73756666696369656e742062616c616e636520666f60008201527f72207472616e7366657200000000000000000000000000000000000000000000602082015250565b6000612fed602a83611cad565b9150612ff882612f91565b604082019050919050565b6000602082019050818103600083015261301c81612fe0565b9050919050565b6000604082019050818103600083015261303d818561220a565b90508181036020830152613051818461220a565b90509392505050565b7f455243313135353a2073657474696e6720617070726f76616c2073746174757360008201527f20666f722073656c660000000000000000000000000000000000000000000000602082015250565b60006130b6602983611cad565b91506130c18261305a565b604082019050919050565b600060208201905081810360008301526130e5816130a9565b9050919050565b60006040820190506131016000830185611b90565b61310e6020830184611b90565b9392505050565b600082821b905092915050565b6000600883026131527fffffffffffffffffffffffffffffffffffffffffffffffffffffffffffffffff82613115565b61315c8683613115565b95508019841693508086168417925050509392505050565b600061318f61318a61318584611b1a565b612673565b611b1a565b9050919050565b6000819050919050565b6131a983613174565b6131bd6131b582613196565b848454613122565b825550505050565b600090565b6131d26131c5565b6131dd8184846131a0565b505050565b81811015613200576131f56000826131ca565b6001810190506131e2565b5050565b600082821c905092915050565b600061322260001984600802613204565b1980831691505092915050565b828110156132545784890151825560018201915060208501945060208101905061322f565b86831015613271578489015161326d601f891682613211565b8355505b600160028802018855505050505050505050565b600060a08201905061329a600083018861228a565b6132a7602083018761228a565b81810360408301526132b9818661220a565b905081810360608301526132cd818561220a565b905081810360808301526132e18184612c48565b90509695505050505050565b6000815190506132fc81611be6565b92915050565b60006020828403121561331857613317611ab2565b5b6000613326848285016132ed565b91505092915050565b60008160e01c9050919050565b600060033d111561335b5760046000803e61335860005161332f565b90505b90565b600060443d106133eb57613370611aa8565b60043d036004823e80513d602482011167ffffffffffffffff821117156133985750506133eb565b808201805167ffffffffffffffff8111156133b657505050506133eb565b80602083010160043d0385018111156133d35750505050506133eb565b6133e282602001850186611d91565b82955050505050505b90565b7f455243313135353a207472616e7366657220746f206e6f6e204552433131353560008201527f526563656976657220696d706c656d656e746572000000000000000000000000602082015250565b600061344a603483611cad565b9150613455826133ee565b604082019050919050565b600060208201905081810360008301526134798161343d565b9050919050565b7f455243313135353a204552433131353552656365697665722072656a6563746560008201527f6420746f6b656e73000000000000000000000000000000000000000000000000602082015250565b60006134dc602883611cad565b91506134e782613480565b604082019050919050565b6000602082019050818103600083015261350b816134cf565b9050919050565b600060a082019050613527600083018861228a565b613534602083018761228a565b6135416040830186611b90565b61354e6060830185611b90565b81810360808301526135608184612c48565b9050969550505050505056fea26469706673582212208011626fb333e6b281e578d5a382dba30ceecf6ae02a651ea997a3b7f77b14be64736f6c634300080f0033",
  "immutableReferences": {
    "2682": [
      {
        "length": 32,
        "start": 1663
      },
      {
        "length": 32,
        "start": 3213
      }
    ],
    "2686": [
      {
        "length": 32,
        "start": 2879
      },
      {
        "length": 32,
        "start": 3151
      }
    ]
  },
  "source": "//SPDX-License-Identifier: MIT\npragma solidity ^0.8.15;\n\nimport { Base64 } from \"@openzeppelin/contracts/utils/Base64.sol\";\nimport { ERC1155URIStorage, ERC1155 } from \"@openzeppelin/contracts/token/ERC1155/extensions/ERC1155URIStorage.sol\";\nimport { IDisputeGameFactory } from \"@eth-optimism/contracts-bedrock/src/dispute/interfaces/IDisputeGameFactory.sol\";\nimport { IDisputeGame } from \"@eth-optimism/contracts-bedrock/src/dispute/interfaces/IDisputeGame.sol\";\nimport { GameTypes, Claim } from \"@eth-optimism/contracts-bedrock/src/libraries/DisputeTypes.sol\";\n\n/**\n* @title ERC1155ChallengeableMint\n* @dev This contract allows for the creation of ERC1155 tokens through a two stage minting process\n*\n*      The first stage is a proposal stage where a user can propose a new token to be minted\n*      during a challenge period anyone who disputes the validity of the token can challenge it by\n*      initiating a dispute game. If the challenger wins the dispute game\n*      the token is not minted and its proposal cancelled.\n*\n*      The second stage is a claim where the original proposer can receive an actual NFT\n*      if it remains unchallenged for sufficiently long.\n*\n*       ---\n*\n*      This contract uses on-chain metadata since the metadata itself is required to check the\n*      validity of the token. This may be expensive for large metadata.\n*/\ncontract ERC1155ChallengeableMint is ERC1155URIStorage {\n\n    /// @dev Represents a token that has yet to be minted. It must persist\n    ///      for at least SETTLEMENT_PERIOD before it can be minted for real\n    struct PendingMint {\n        /// The address that will receive the token once minted\n        address to;\n        /// metadata is not stored, only the hash\n        bytes32 metadataHash;\n        /// hash of public input data to provable computation\n        bytes32 witnessHash;\n        /// block timestamp when proposal created\n        uint256 timestamp;\n    }\n\n    /// @dev The amount of time that must pass before a pending mint can be minted\n    uint256 public constant SETTLEMENT_PERIOD = 1 hours;\n\n    /// @dev The hash of the code to be run in the provable execution\n    Claim public immutable ROOT_CLAIM;\n\n    /// @dev The dispute game factory used to create and track open disputes\n    IDisputeGameFactory public immutable disputeGameFactory;\n    \n    /// @dev Used to generate a fresh token ID for each token\n    uint256 public nonce;\n\n    /// @dev Mapping from token nonce to mintable status\n    mapping(uint256 => PendingMint) public pendingMints;\n\n\n    event MintProposed(uint256 indexed id, uint256 timestamp);\n    event MintChallenged(uint256 indexed id, address challenger);\n    event Minted(uint256 indexed id, address indexed to);\n\n    error MintProposalNotSettled(uint256 id);\n    error ProposalHasOpenChallenge(uint256 id);\n    error MetadataHashMismatch(uint256 id);\n    error CannotChallengeProposalHasSettled(uint256 id);\n\n\n    /**\n    * @dev Construct a new NFTCollection contract.\n     */\n    constructor(address disputeGameFactoryAddr, Claim rootClaim) ERC1155(\"\") {\n        disputeGameFactory = IDisputeGameFactory(disputeGameFactoryAddr);\n        ROOT_CLAIM = rootClaim;\n        _setBaseURI(\"data:application/json;base64,\");\n    }\n\n    /**\n    * @dev Propose a new mint.\n    * @param metadataJson The string of metadata.json to associate with the token.\n    * @param witness The witness given as input to the provable program \n    *                to produce this metadata output.\n    *                This must be provided in calldata so watchers can replicate the computation\n    */\n    function ProposeMint(address to, string calldata metadataJson, bytes calldata witness) external {\n        uint256 id = nonce++;\n        pendingMints[id] = PendingMint({\n            to: to,\n            metadataHash: keccak256(bytes(metadataJson)),\n            witnessHash: keccak256(witness),\n            timestamp: block.timestamp\n        });\n        emit MintProposed(id,  block.timestamp);\n    }\n\n    /**\n    * @dev Challenge a pending mint.\n    *    This will lead to the creation of a challenge game on this mint.\n    *    The winner of the game receives 1/2 the bond from the opponent.\n    *    The rest goes into the dev fund :)\n    * @param id The ID of the pending mint to challenge\n    */\n    function ChallengeMint(uint256 id) external {\n        PendingMint memory proposal = pendingMints[id];\n\n        if (proposal.timestamp + SETTLEMENT_PERIOD > block.timestamp)\n            revert CannotChallengeProposalHasSettled(id);\n\n        disputeGameFactory.create(\n            GameTypes.FAULT,\n            ROOT_CLAIM,\n            bytes(abi.encodePacked(proposal.to, proposal.metadataHash, proposal.witnessHash, proposal.timestamp))\n        );\n\n        emit MintChallenged(id, msg.sender);\n    }\n\n    /**\n    * @dev Mint a new token with the given metadata.\n    * @param id The ID of the pending mint (will also be the ID of the token)\n    * @param metadataJson The string of metadata.json to associate with the token.\n    *                     Must match the hash stored in pending\n    */\n    function ClaimMint(uint256 id, string memory metadataJson) external {\n        PendingMint storage proposal = pendingMints[id];\n\n        if (block.timestamp <= proposal.timestamp + SETTLEMENT_PERIOD)\n            revert(\"time not elapsed\");\n            revert MintProposalNotSettled(id);\n\n        if (proposal.metadataHash != keccak256(bytes(metadataJson)))\n            revert(\"Metadata mismatch\");\n            revert MetadataHashMismatch(id);\n\n        // see if there is an open challenge\n        (IDisputeGame game,) = disputeGameFactory.games(\n            GameTypes.FAULT,\n            ROOT_CLAIM,\n            bytes(abi.encodePacked(proposal.metadataHash, proposal.witnessHash, proposal.timestamp))\n        );\n        if (address(game) != address(0)) {\n            revert(\"open challenge exists\");\n            // revert ProposalHasOpenChallenge(id);\n        }\n\n        _mint(proposal.to, id, 1, \"\");\n        _setURI(id, Base64.encode(bytes(metadataJson)));\n        delete pendingMints[id];\n\n        emit Minted(id, proposal.to);\n    }\n}\n",
  "sourcePath": "/Users/willem/repos/ProofBoy/contracts/ERC1155ChallengeableMint.sol",
  "compiler": {
    "name": "solc",
    "version": "0.8.15+commit.e14f2714.Emscripten.clang"
  },
  "schemaVersion": "3.4.14",
  "updatedAt": "2023-08-04T06:11:43.616Z",
  "networkType": "ethereum",
  "devdoc": {
    "details": "This contract allows for the creation of ERC1155 tokens through a two stage minting process      The first stage is a proposal stage where a user can propose a new token to be minted      during a challenge period anyone who disputes the validity of the token can challenge it by      initiating a dispute game. If the challenger wins the dispute game      the token is not minted and its proposal cancelled.      The second stage is a claim where the original proposer can receive an actual NFT      if it remains unchallenged for sufficiently long.       ---      This contract uses on-chain metadata since the metadata itself is required to check the      validity of the token. This may be expensive for large metadata.",
    "kind": "dev",
    "methods": {
      "ChallengeMint(uint256)": {
        "details": "Challenge a pending mint.    This will lead to the creation of a challenge game on this mint.    The winner of the game receives 1/2 the bond from the opponent.    The rest goes into the dev fund :)",
        "params": {
          "id": "The ID of the pending mint to challenge"
        }
      },
      "ClaimMint(uint256,string)": {
        "details": "Mint a new token with the given metadata.",
        "params": {
          "id": "The ID of the pending mint (will also be the ID of the token)",
          "metadataJson": "The string of metadata.json to associate with the token.                     Must match the hash stored in pending"
        }
      },
      "ProposeMint(address,string,bytes)": {
        "details": "Propose a new mint.",
        "params": {
          "metadataJson": "The string of metadata.json to associate with the token.",
          "witness": "The witness given as input to the provable program                 to produce this metadata output.                This must be provided in calldata so watchers can replicate the computation"
        }
      },
      "balanceOf(address,uint256)": {
        "details": "See {IERC1155-balanceOf}. Requirements: - `account` cannot be the zero address."
      },
      "balanceOfBatch(address[],uint256[])": {
        "details": "See {IERC1155-balanceOfBatch}. Requirements: - `accounts` and `ids` must have the same length."
      },
      "constructor": {
        "details": "Construct a new NFTCollection contract."
      },
      "isApprovedForAll(address,address)": {
        "details": "See {IERC1155-isApprovedForAll}."
      },
      "safeBatchTransferFrom(address,address,uint256[],uint256[],bytes)": {
        "details": "See {IERC1155-safeBatchTransferFrom}."
      },
      "safeTransferFrom(address,address,uint256,uint256,bytes)": {
        "details": "See {IERC1155-safeTransferFrom}."
      },
      "setApprovalForAll(address,bool)": {
        "details": "See {IERC1155-setApprovalForAll}."
      },
      "supportsInterface(bytes4)": {
        "details": "See {IERC165-supportsInterface}."
      },
      "uri(uint256)": {
        "details": "See {IERC1155MetadataURI-uri}. This implementation returns the concatenation of the `_baseURI` and the token-specific uri if the latter is set This enables the following behaviors: - if `_tokenURIs[tokenId]` is set, then the result is the concatenation   of `_baseURI` and `_tokenURIs[tokenId]` (keep in mind that `_baseURI`   is empty per default); - if `_tokenURIs[tokenId]` is NOT set then we fallback to `super.uri()`   which in most cases will contain `ERC1155._uri`; - if `_tokenURIs[tokenId]` is NOT set, and if the parents do not have a   uri value set, then the result is empty."
      }
    },
    "stateVariables": {
      "ROOT_CLAIM": {
        "details": "The hash of the code to be run in the provable execution"
      },
      "SETTLEMENT_PERIOD": {
        "details": "The amount of time that must pass before a pending mint can be minted"
      },
      "disputeGameFactory": {
        "details": "The dispute game factory used to create and track open disputes"
      },
      "nonce": {
        "details": "Used to generate a fresh token ID for each token"
      },
      "pendingMints": {
        "details": "Mapping from token nonce to mintable status"
      }
    },
    "title": "ERC1155ChallengeableMint",
    "version": 1
  },
  "userdoc": {
    "kind": "user",
    "methods": {},
    "version": 1
  }
}