{
  "contractName": "ERC1155ChallengeableMint",
  "abi": [
    {
      "inputs": [
        {
          "internalType": "address",
          "name": "disputeGameFactoryAddr",
          "type": "address"
        },
        {
          "internalType": "Claim",
          "name": "rootClaim",
          "type": "bytes32"
        }
      ],
      "stateMutability": "nonpayable",
      "type": "constructor"
    },
    {
      "inputs": [
        {
          "internalType": "uint256",
          "name": "id",
          "type": "uint256"
        }
      ],
      "name": "CannotChallengeProposalHasSettled",
      "type": "error"
    },
    {
      "inputs": [
        {
          "internalType": "uint256",
          "name": "id",
          "type": "uint256"
        }
      ],
      "name": "MetadataHashMismatch",
      "type": "error"
    },
    {
      "inputs": [
        {
          "internalType": "uint256",
          "name": "id",
          "type": "uint256"
        }
      ],
      "name": "MintProposalNotSettled",
      "type": "error"
    },
    {
      "inputs": [
        {
          "internalType": "uint256",
          "name": "id",
          "type": "uint256"
        }
      ],
      "name": "ProposalClaimDisproven",
      "type": "error"
    },
    {
      "inputs": [
        {
          "internalType": "uint256",
          "name": "id",
          "type": "uint256"
        }
      ],
      "name": "ProposalHasOpenChallenge",
      "type": "error"
    },
    {
      "anonymous": false,
      "inputs": [
        {
          "indexed": true,
          "internalType": "address",
          "name": "account",
          "type": "address"
        },
        {
          "indexed": true,
          "internalType": "address",
          "name": "operator",
          "type": "address"
        },
        {
          "indexed": false,
          "internalType": "bool",
          "name": "approved",
          "type": "bool"
        }
      ],
      "name": "ApprovalForAll",
      "type": "event"
    },
    {
      "anonymous": false,
      "inputs": [
        {
          "indexed": true,
          "internalType": "uint256",
          "name": "id",
          "type": "uint256"
        },
        {
          "indexed": false,
          "internalType": "address",
          "name": "challenger",
          "type": "address"
        }
      ],
      "name": "MintChallenged",
      "type": "event"
    },
    {
      "anonymous": false,
      "inputs": [
        {
          "indexed": true,
          "internalType": "uint256",
          "name": "id",
          "type": "uint256"
        },
        {
          "indexed": false,
          "internalType": "uint256",
          "name": "timestamp",
          "type": "uint256"
        }
      ],
      "name": "MintProposed",
      "type": "event"
    },
    {
      "anonymous": false,
      "inputs": [
        {
          "indexed": true,
          "internalType": "uint256",
          "name": "id",
          "type": "uint256"
        },
        {
          "indexed": true,
          "internalType": "address",
          "name": "to",
          "type": "address"
        }
      ],
      "name": "Minted",
      "type": "event"
    },
    {
      "anonymous": false,
      "inputs": [
        {
          "indexed": true,
          "internalType": "address",
          "name": "operator",
          "type": "address"
        },
        {
          "indexed": true,
          "internalType": "address",
          "name": "from",
          "type": "address"
        },
        {
          "indexed": true,
          "internalType": "address",
          "name": "to",
          "type": "address"
        },
        {
          "indexed": false,
          "internalType": "uint256[]",
          "name": "ids",
          "type": "uint256[]"
        },
        {
          "indexed": false,
          "internalType": "uint256[]",
          "name": "values",
          "type": "uint256[]"
        }
      ],
      "name": "TransferBatch",
      "type": "event"
    },
    {
      "anonymous": false,
      "inputs": [
        {
          "indexed": true,
          "internalType": "address",
          "name": "operator",
          "type": "address"
        },
        {
          "indexed": true,
          "internalType": "address",
          "name": "from",
          "type": "address"
        },
        {
          "indexed": true,
          "internalType": "address",
          "name": "to",
          "type": "address"
        },
        {
          "indexed": false,
          "internalType": "uint256",
          "name": "id",
          "type": "uint256"
        },
        {
          "indexed": false,
          "internalType": "uint256",
          "name": "value",
          "type": "uint256"
        }
      ],
      "name": "TransferSingle",
      "type": "event"
    },
    {
      "anonymous": false,
      "inputs": [
        {
          "indexed": false,
          "internalType": "string",
          "name": "value",
          "type": "string"
        },
        {
          "indexed": true,
          "internalType": "uint256",
          "name": "id",
          "type": "uint256"
        }
      ],
      "name": "URI",
      "type": "event"
    },
    {
      "inputs": [],
      "name": "ROOT_CLAIM",
      "outputs": [
        {
          "internalType": "Claim",
          "name": "",
          "type": "bytes32"
        }
      ],
      "stateMutability": "view",
      "type": "function",
      "constant": true
    },
    {
      "inputs": [],
      "name": "SETTLEMENT_PERIOD",
      "outputs": [
        {
          "internalType": "uint256",
          "name": "",
          "type": "uint256"
        }
      ],
      "stateMutability": "view",
      "type": "function",
      "constant": true
    },
    {
      "inputs": [
        {
          "internalType": "address",
          "name": "account",
          "type": "address"
        },
        {
          "internalType": "uint256",
          "name": "id",
          "type": "uint256"
        }
      ],
      "name": "balanceOf",
      "outputs": [
        {
          "internalType": "uint256",
          "name": "",
          "type": "uint256"
        }
      ],
      "stateMutability": "view",
      "type": "function",
      "constant": true
    },
    {
      "inputs": [
        {
          "internalType": "address[]",
          "name": "accounts",
          "type": "address[]"
        },
        {
          "internalType": "uint256[]",
          "name": "ids",
          "type": "uint256[]"
        }
      ],
      "name": "balanceOfBatch",
      "outputs": [
        {
          "internalType": "uint256[]",
          "name": "",
          "type": "uint256[]"
        }
      ],
      "stateMutability": "view",
      "type": "function",
      "constant": true
    },
    {
      "inputs": [],
      "name": "disputeGameFactory",
      "outputs": [
        {
          "internalType": "contract IDisputeGameFactory",
          "name": "",
          "type": "address"
        }
      ],
      "stateMutability": "view",
      "type": "function",
      "constant": true
    },
    {
      "inputs": [
        {
          "internalType": "address",
          "name": "account",
          "type": "address"
        },
        {
          "internalType": "address",
          "name": "operator",
          "type": "address"
        }
      ],
      "name": "isApprovedForAll",
      "outputs": [
        {
          "internalType": "bool",
          "name": "",
          "type": "bool"
        }
      ],
      "stateMutability": "view",
      "type": "function",
      "constant": true
    },
    {
      "inputs": [],
      "name": "nonce",
      "outputs": [
        {
          "internalType": "uint256",
          "name": "",
          "type": "uint256"
        }
      ],
      "stateMutability": "view",
      "type": "function",
      "constant": true
    },
    {
      "inputs": [
        {
          "internalType": "uint256",
          "name": "",
          "type": "uint256"
        }
      ],
      "name": "pendingMints",
      "outputs": [
        {
          "internalType": "address",
          "name": "to",
          "type": "address"
        },
        {
          "internalType": "bytes32",
          "name": "metadataHash",
          "type": "bytes32"
        },
        {
          "internalType": "bytes32",
          "name": "witnessHash",
          "type": "bytes32"
        },
        {
          "internalType": "uint256",
          "name": "timestamp",
          "type": "uint256"
        }
      ],
      "stateMutability": "view",
      "type": "function",
      "constant": true
    },
    {
      "inputs": [
        {
          "internalType": "address",
          "name": "from",
          "type": "address"
        },
        {
          "internalType": "address",
          "name": "to",
          "type": "address"
        },
        {
          "internalType": "uint256[]",
          "name": "ids",
          "type": "uint256[]"
        },
        {
          "internalType": "uint256[]",
          "name": "amounts",
          "type": "uint256[]"
        },
        {
          "internalType": "bytes",
          "name": "data",
          "type": "bytes"
        }
      ],
      "name": "safeBatchTransferFrom",
      "outputs": [],
      "stateMutability": "nonpayable",
      "type": "function"
    },
    {
      "inputs": [
        {
          "internalType": "address",
          "name": "from",
          "type": "address"
        },
        {
          "internalType": "address",
          "name": "to",
          "type": "address"
        },
        {
          "internalType": "uint256",
          "name": "id",
          "type": "uint256"
        },
        {
          "internalType": "uint256",
          "name": "amount",
          "type": "uint256"
        },
        {
          "internalType": "bytes",
          "name": "data",
          "type": "bytes"
        }
      ],
      "name": "safeTransferFrom",
      "outputs": [],
      "stateMutability": "nonpayable",
      "type": "function"
    },
    {
      "inputs": [
        {
          "internalType": "address",
          "name": "operator",
          "type": "address"
        },
        {
          "internalType": "bool",
          "name": "approved",
          "type": "bool"
        }
      ],
      "name": "setApprovalForAll",
      "outputs": [],
      "stateMutability": "nonpayable",
      "type": "function"
    },
    {
      "inputs": [
        {
          "internalType": "bytes4",
          "name": "interfaceId",
          "type": "bytes4"
        }
      ],
      "name": "supportsInterface",
      "outputs": [
        {
          "internalType": "bool",
          "name": "",
          "type": "bool"
        }
      ],
      "stateMutability": "view",
      "type": "function",
      "constant": true
    },
    {
      "inputs": [
        {
          "internalType": "uint256",
          "name": "tokenId",
          "type": "uint256"
        }
      ],
      "name": "uri",
      "outputs": [
        {
          "internalType": "string",
          "name": "",
          "type": "string"
        }
      ],
      "stateMutability": "view",
      "type": "function",
      "constant": true
    },
    {
      "inputs": [
        {
          "internalType": "address",
          "name": "to",
          "type": "address"
        },
        {
          "internalType": "string",
          "name": "metadataJson",
          "type": "string"
        },
        {
          "internalType": "bytes",
          "name": "witness",
          "type": "bytes"
        }
      ],
      "name": "ProposeMint",
      "outputs": [],
      "stateMutability": "nonpayable",
      "type": "function"
    },
    {
      "inputs": [
        {
          "internalType": "uint256",
          "name": "id",
          "type": "uint256"
        }
      ],
      "name": "ChallengeMint",
      "outputs": [],
      "stateMutability": "nonpayable",
      "type": "function"
    },
    {
      "inputs": [
        {
          "internalType": "uint256",
          "name": "id",
          "type": "uint256"
        },
        {
          "internalType": "string",
          "name": "metadataJson",
          "type": "string"
        }
      ],
      "name": "ClaimMint",
      "outputs": [],
      "stateMutability": "nonpayable",
      "type": "function"
    },
    {
      "inputs": [
        {
          "internalType": "uint256",
          "name": "id",
          "type": "uint256"
        }
      ],
      "name": "gameAddress",
      "outputs": [
        {
          "internalType": "contract IDisputeGame",
          "name": "game",
          "type": "address"
        }
      ],
      "stateMutability": "view",
      "type": "function",
      "constant": true
    }
  ],
  "bytecode": "0x60c06040526040518060200160405280600081525060039081620000249190620003a8565b503480156200003257600080fd5b506040516200479938038062004799833981810160405281019062000058919062000534565b6040518060200160405280600081525062000079816200010460201b60201c565b508173ffffffffffffffffffffffffffffffffffffffff1660a08173ffffffffffffffffffffffffffffffffffffffff16815250508060808181525050620000fc6040518060400160405280601d81526020017f646174613a6170706c69636174696f6e2f6a736f6e3b6261736536342c0000008152506200011960201b60201c565b50506200057b565b8060029081620001159190620003a8565b5050565b80600390816200012a9190620003a8565b5050565b600081519050919050565b7f4e487b7100000000000000000000000000000000000000000000000000000000600052604160045260246000fd5b7f4e487b7100000000000000000000000000000000000000000000000000000000600052602260045260246000fd5b60006002820490506001821680620001b057607f821691505b602082108103620001c657620001c562000168565b5b50919050565b60008190508160005260206000209050919050565b60006020601f8301049050919050565b600082821b905092915050565b600060088302620002307fffffffffffffffffffffffffffffffffffffffffffffffffffffffffffffffff82620001f1565b6200023c8683620001f1565b95508019841693508086168417925050509392505050565b6000819050919050565b6000819050919050565b600062000289620002836200027d8462000254565b6200025e565b62000254565b9050919050565b6000819050919050565b620002a58362000268565b620002bd620002b48262000290565b848454620001fe565b825550505050565b600090565b620002d4620002c5565b620002e18184846200029a565b505050565b5b818110156200030957620002fd600082620002ca565b600181019050620002e7565b5050565b601f82111562000358576200032281620001cc565b6200032d84620001e1565b810160208510156200033d578190505b620003556200034c85620001e1565b830182620002e6565b50505b505050565b600082821c905092915050565b60006200037d600019846008026200035d565b1980831691505092915050565b60006200039883836200036a565b9150826002028217905092915050565b620003b3826200012e565b67ffffffffffffffff811115620003cf57620003ce62000139565b5b620003db825462000197565b620003e88282856200030d565b600060209050601f8311600181146200042057600084156200040b578287015190505b6200041785826200038a565b86555062000487565b601f1984166200043086620001cc565b60005b828110156200045a5784890151825560018201915060208501945060208101905062000433565b868310156200047a578489015162000476601f8916826200036a565b8355505b6001600288020188555050505b505050505050565b600080fd5b600073ffffffffffffffffffffffffffffffffffffffff82169050919050565b6000620004c18262000494565b9050919050565b620004d381620004b4565b8114620004df57600080fd5b50565b600081519050620004f381620004c8565b92915050565b6000819050919050565b6200050e81620004f9565b81146200051a57600080fd5b50565b6000815190506200052e8162000503565b92915050565b600080604083850312156200054e576200054d6200048f565b5b60006200055e85828601620004e2565b925050602062000571858286016200051d565b9150509250929050565b60805160a0516141ce620005cb600039600081816108fa01528181610bf00152818161117101526112810152600081816106ba0152818161093801528181610c2e01526112bf01526141ce6000f3fe608060405234801561001057600080fd5b506004361061010a5760003560e01c8063a22cb465116100a2578063e0399c2911610071578063e0399c29146102e0578063e985e9c5146102fc578063f242432a1461032c578063f2b4e61714610348578063faba48a3146103665761010a565b8063a22cb4651461025a578063affed0e014610276578063bea1c28614610294578063d109d230146102c45761010a565b80632eb2c2d6116100de5780632eb2c2d6146101bd5780634a1890f0146101d95780634e1273f4146101f757806363900ca6146102275761010a565b8062fdd58e1461010f57806301ffc9a71461013f57806309e54b5b1461016f5780630e89341c1461018d575b600080fd5b6101296004803603810190610124919061245b565b610382565b60405161013691906124aa565b60405180910390f35b6101596004803603810190610154919061251d565b61044a565b6040516101669190612565565b60405180910390f35b61017761052c565b60405161018491906124aa565b60405180910390f35b6101a760048036038101906101a29190612580565b610532565b6040516101b49190612646565b60405180910390f35b6101d760048036038101906101d29190612865565b610617565b005b6101e16106b8565b6040516101ee919061295f565b60405180910390f35b610211600480360381019061020c9190612a3d565b6106dc565b60405161021e9190612b73565b60405180910390f35b610241600480360381019061023c9190612580565b6107f5565b6040516102519493929190612bb3565b60405180910390f35b610274600480360381019061026f9190612c24565b610845565b005b61027e61085b565b60405161028b91906124aa565b60405180910390f35b6102ae60048036038101906102a99190612580565b610861565b6040516102bb9190612cc3565b60405180910390f35b6102de60048036038101906102d99190612d8f565b6109f6565b005b6102fa60048036038101906102f59190612ec5565b610b31565b005b61031660048036038101906103119190612f21565b61103a565b6040516103239190612565565b60405180910390f35b61034660048036038101906103419190612f61565b6110ce565b005b61035061116f565b60405161035d9190613019565b60405180910390f35b610380600480360381019061037b9190612580565b611193565b005b60008073ffffffffffffffffffffffffffffffffffffffff168373ffffffffffffffffffffffffffffffffffffffff16036103f2576040517f08c379a00000000000000000000000000000000000000000000000000000000081526004016103e9906130a6565b60405180910390fd5b60008083815260200190815260200160002060008473ffffffffffffffffffffffffffffffffffffffff1673ffffffffffffffffffffffffffffffffffffffff16815260200190815260200160002054905092915050565b60007fd9b67a26000000000000000000000000000000000000000000000000000000007bffffffffffffffffffffffffffffffffffffffffffffffffffffffff1916827bffffffffffffffffffffffffffffffffffffffffffffffffffffffff1916148061051557507f0e89341c000000000000000000000000000000000000000000000000000000007bffffffffffffffffffffffffffffffffffffffffffffffffffffffff1916827bffffffffffffffffffffffffffffffffffffffffffffffffffffffff1916145b806105255750610524826113b2565b5b9050919050565b611c2081565b60606000600460008481526020019081526020016000208054610554906130f5565b80601f0160208091040260200160405190810160405280929190818152602001828054610580906130f5565b80156105cd5780601f106105a2576101008083540402835291602001916105cd565b820191906000526020600020905b8154815290600101906020018083116105b057829003601f168201915b5050505050905060008151116105eb576105e68361141c565b61060f565b6003816040516020016105ff9291906131fa565b6040516020818303038152906040525b915050919050565b61061f6114b0565b73ffffffffffffffffffffffffffffffffffffffff168573ffffffffffffffffffffffffffffffffffffffff16148061066557506106648561065f6114b0565b61103a565b5b6106a4576040517f08c379a000000000000000000000000000000000000000000000000000000000815260040161069b90613290565b60405180910390fd5b6106b185858585856114b8565b5050505050565b7f000000000000000000000000000000000000000000000000000000000000000081565b60608151835114610722576040517f08c379a000000000000000000000000000000000000000000000000000000000815260040161071990613322565b60405180910390fd5b6000835167ffffffffffffffff81111561073f5761073e61266d565b5b60405190808252806020026020018201604052801561076d5781602001602082028036833780820191505090505b50905060005b84518110156107ea576107ba85828151811061079257610791613342565b5b60200260200101518583815181106107ad576107ac613342565b5b6020026020010151610382565b8282815181106107cd576107cc613342565b5b602002602001018181525050806107e3906133a0565b9050610773565b508091505092915050565b60066020528060005260406000206000915090508060000160009054906101000a900473ffffffffffffffffffffffffffffffffffffffff16908060010154908060020154908060030154905084565b6108576108506114b0565b83836117d9565b5050565b60055481565b600080600660008481526020019081526020016000206040518060800160405290816000820160009054906101000a900473ffffffffffffffffffffffffffffffffffffffff1673ffffffffffffffffffffffffffffffffffffffff1673ffffffffffffffffffffffffffffffffffffffff168152602001600182015481526020016002820154815260200160038201548152505090507f000000000000000000000000000000000000000000000000000000000000000073ffffffffffffffffffffffffffffffffffffffff1663c49d527160007f0000000000000000000000000000000000000000000000000000000000000000846000015185602001518660400151876060015160405160200161097e9493929190613472565b6040516020818303038152906040526040518463ffffffff1660e01b81526004016109ab93929190613553565b6040805180830381865afa1580156109c7573d6000803e3d6000fd5b505050506040513d601f19601f820116820180604052508101906109eb91906135e4565b508092505050919050565b600060056000815480929190610a0b906133a0565b91905055905060405180608001604052808773ffffffffffffffffffffffffffffffffffffffff1681526020018686604051610a48929190613654565b604051809103902081526020018484604051610a65929190613654565b60405180910390208152602001428152506006600083815260200190815260200160002060008201518160000160006101000a81548173ffffffffffffffffffffffffffffffffffffffff021916908373ffffffffffffffffffffffffffffffffffffffff160217905550602082015181600101556040820151816002015560608201518160030155905050807fd0bc66607de65f3b1fabcfbcf0a2623cc9539a0cdbf5a5d1128153ac23ccc54942604051610b2191906124aa565b60405180910390a2505050505050565b6000600660008481526020019081526020016000209050611c208160030154610b5a919061366d565b4211610b9d57826040517ff5630a21000000000000000000000000000000000000000000000000000000008152600401610b9491906124aa565b60405180910390fd5b8180519060200120816001015414610bec57826040517f6912760a000000000000000000000000000000000000000000000000000000008152600401610be391906124aa565b60405180910390fd5b60007f000000000000000000000000000000000000000000000000000000000000000073ffffffffffffffffffffffffffffffffffffffff1663c49d527160007f00000000000000000000000000000000000000000000000000000000000000008560000160009054906101000a900473ffffffffffffffffffffffffffffffffffffffff16866001015487600201548860030154604051602001610c949493929190613472565b6040516020818303038152906040526040518463ffffffff1660e01b8152600401610cc193929190613553565b6040805180830381865afa158015610cdd573d6000803e3d6000fd5b505050506040513d601f19601f82011682018060405250810190610d0191906135e4565b509050600073ffffffffffffffffffffffffffffffffffffffff168173ffffffffffffffffffffffffffffffffffffffff1614158015610dd3575060006002811115610d5057610d4f6136c3565b5b8173ffffffffffffffffffffffffffffffffffffffff1663200d2ed26040518163ffffffff1660e01b8152600401602060405180830381865afa158015610d9b573d6000803e3d6000fd5b505050506040513d601f19601f82011682018060405250810190610dbf9190613717565b6002811115610dd157610dd06136c3565b5b145b15610e1557836040517ffca2ffc2000000000000000000000000000000000000000000000000000000008152600401610e0c91906124aa565b60405180910390fd5b600073ffffffffffffffffffffffffffffffffffffffff168173ffffffffffffffffffffffffffffffffffffffff1614158015610ee35750600280811115610e6057610e5f6136c3565b5b8173ffffffffffffffffffffffffffffffffffffffff1663200d2ed26040518163ffffffff1660e01b8152600401602060405180830381865afa158015610eab573d6000803e3d6000fd5b505050506040513d601f19601f82011682018060405250810190610ecf9190613717565b6002811115610ee157610ee06136c3565b5b145b15610f2557836040517f03dcb404000000000000000000000000000000000000000000000000000000008152600401610f1c91906124aa565b60405180910390fd5b610f658260000160009054906101000a900473ffffffffffffffffffffffffffffffffffffffff1685600160405180602001604052806000815250611945565b610f7784610f7285611af5565b611c58565b60066000858152602001908152602001600020600080820160006101000a81549073ffffffffffffffffffffffffffffffffffffffff021916905560018201600090556002820160009055600382016000905550508160000160009054906101000a900473ffffffffffffffffffffffffffffffffffffffff1673ffffffffffffffffffffffffffffffffffffffff16847fb9203d657e9c0ec8274c818292ab0f58b04e1970050716891770eb1bab5d655e60405160405180910390a350505050565b6000600160008473ffffffffffffffffffffffffffffffffffffffff1673ffffffffffffffffffffffffffffffffffffffff16815260200190815260200160002060008373ffffffffffffffffffffffffffffffffffffffff1673ffffffffffffffffffffffffffffffffffffffff16815260200190815260200160002060009054906101000a900460ff16905092915050565b6110d66114b0565b73ffffffffffffffffffffffffffffffffffffffff168573ffffffffffffffffffffffffffffffffffffffff16148061111c575061111b856111166114b0565b61103a565b5b61115b576040517f08c379a0000000000000000000000000000000000000000000000000000000008152600401611152906137b6565b60405180910390fd5b6111688585858585611cbd565b5050505050565b7f000000000000000000000000000000000000000000000000000000000000000081565b6000600660008381526020019081526020016000206040518060800160405290816000820160009054906101000a900473ffffffffffffffffffffffffffffffffffffffff1673ffffffffffffffffffffffffffffffffffffffff1673ffffffffffffffffffffffffffffffffffffffff16815260200160018201548152602001600282015481526020016003820154815250509050611c20816060015161123b919061366d565b42111561127f57816040517fcad27b0b00000000000000000000000000000000000000000000000000000000815260040161127691906124aa565b60405180910390fd5b7f000000000000000000000000000000000000000000000000000000000000000073ffffffffffffffffffffffffffffffffffffffff16633142e55e60007f000000000000000000000000000000000000000000000000000000000000000084600001518560200151866040015187606001516040516020016113059493929190613472565b6040516020818303038152906040526040518463ffffffff1660e01b815260040161133293929190613553565b6020604051808303816000875af1158015611351573d6000803e3d6000fd5b505050506040513d601f19601f8201168201806040525081019061137591906137d6565b50817f513913a831f7e641d47b430356dc599acd3e0f4e6e05b191e988a3a1d8b45018336040516113a69190613803565b60405180910390a25050565b60007f01ffc9a7000000000000000000000000000000000000000000000000000000007bffffffffffffffffffffffffffffffffffffffffffffffffffffffff1916827bffffffffffffffffffffffffffffffffffffffffffffffffffffffff1916149050919050565b60606002805461142b906130f5565b80601f0160208091040260200160405190810160405280929190818152602001828054611457906130f5565b80156114a45780601f10611479576101008083540402835291602001916114a4565b820191906000526020600020905b81548152906001019060200180831161148757829003601f168201915b50505050509050919050565b600033905090565b81518351146114fc576040517f08c379a00000000000000000000000000000000000000000000000000000000081526004016114f390613890565b60405180910390fd5b600073ffffffffffffffffffffffffffffffffffffffff168473ffffffffffffffffffffffffffffffffffffffff160361156b576040517f08c379a000000000000000000000000000000000000000000000000000000000815260040161156290613922565b60405180910390fd5b60006115756114b0565b9050611585818787878787611f58565b60005b84518110156117365760008582815181106115a6576115a5613342565b5b6020026020010151905060008583815181106115c5576115c4613342565b5b60200260200101519050600080600084815260200190815260200160002060008b73ffffffffffffffffffffffffffffffffffffffff1673ffffffffffffffffffffffffffffffffffffffff16815260200190815260200160002054905081811015611666576040517f08c379a000000000000000000000000000000000000000000000000000000000815260040161165d906139b4565b60405180910390fd5b81810360008085815260200190815260200160002060008c73ffffffffffffffffffffffffffffffffffffffff1673ffffffffffffffffffffffffffffffffffffffff168152602001908152602001600020819055508160008085815260200190815260200160002060008b73ffffffffffffffffffffffffffffffffffffffff1673ffffffffffffffffffffffffffffffffffffffff168152602001908152602001600020600082825461171b919061366d565b925050819055505050508061172f906133a0565b9050611588565b508473ffffffffffffffffffffffffffffffffffffffff168673ffffffffffffffffffffffffffffffffffffffff168273ffffffffffffffffffffffffffffffffffffffff167f4a39dc06d4c0dbc64b70af90fd698a233a518aa5d07e595d983b8c0526c8f7fb87876040516117ad9291906139d4565b60405180910390a46117c3818787878787611f60565b6117d1818787878787611f68565b505050505050565b8173ffffffffffffffffffffffffffffffffffffffff168373ffffffffffffffffffffffffffffffffffffffff1603611847576040517f08c379a000000000000000000000000000000000000000000000000000000000815260040161183e90613a7d565b60405180910390fd5b80600160008573ffffffffffffffffffffffffffffffffffffffff1673ffffffffffffffffffffffffffffffffffffffff16815260200190815260200160002060008473ffffffffffffffffffffffffffffffffffffffff1673ffffffffffffffffffffffffffffffffffffffff16815260200190815260200160002060006101000a81548160ff0219169083151502179055508173ffffffffffffffffffffffffffffffffffffffff168373ffffffffffffffffffffffffffffffffffffffff167f17307eab39ab6107e8899845ad3d59bd9653f200f220920489ca2b5937696c31836040516119389190612565565b60405180910390a3505050565b600073ffffffffffffffffffffffffffffffffffffffff168473ffffffffffffffffffffffffffffffffffffffff16036119b4576040517f08c379a00000000000000000000000000000000000000000000000000000000081526004016119ab90613b0f565b60405180910390fd5b60006119be6114b0565b905060006119cb8561213f565b905060006119d88561213f565b90506119e983600089858589611f58565b8460008088815260200190815260200160002060008973ffffffffffffffffffffffffffffffffffffffff1673ffffffffffffffffffffffffffffffffffffffff1681526020019081526020016000206000828254611a48919061366d565b925050819055508673ffffffffffffffffffffffffffffffffffffffff16600073ffffffffffffffffffffffffffffffffffffffff168473ffffffffffffffffffffffffffffffffffffffff167fc3d58168c5ae7397731d063d5bbf3d657854427343f4c083240f7aacaa2d0f628989604051611ac6929190613b2f565b60405180910390a4611add83600089858589611f60565b611aec836000898989896121b9565b50505050505050565b60606000825103611b1757604051806020016040528060008152509050611c53565b60006040518060600160405280604081526020016141596040913990506000600360028551611b46919061366d565b611b509190613b87565b6004611b5c9190613bb8565b67ffffffffffffffff811115611b7557611b7461266d565b5b6040519080825280601f01601f191660200182016040528015611ba75781602001600182028036833780820191505090505b509050600182016020820185865187015b80821015611c13576003820191508151603f8160121c168501518453600184019350603f81600c1c168501518453600184019350603f8160061c168501518453600184019350603f8116850151845360018401935050611bb8565b5050600386510660018114611c2f5760028114611c4257611c4a565b603d6001830353603d6002830353611c4a565b603d60018303535b50505080925050505b919050565b80600460008481526020019081526020016000209081611c789190613d9f565b50817f6bb7ff708619ba0610cba295a58592e0451dee2622938c8755667688daf3529b611ca484610532565b604051611cb19190612646565b60405180910390a25050565b600073ffffffffffffffffffffffffffffffffffffffff168473ffffffffffffffffffffffffffffffffffffffff1603611d2c576040517f08c379a0000000000000000000000000000000000000000000000000000000008152600401611d2390613922565b60405180910390fd5b6000611d366114b0565b90506000611d438561213f565b90506000611d508561213f565b9050611d60838989858589611f58565b600080600088815260200190815260200160002060008a73ffffffffffffffffffffffffffffffffffffffff1673ffffffffffffffffffffffffffffffffffffffff16815260200190815260200160002054905085811015611df7576040517f08c379a0000000000000000000000000000000000000000000000000000000008152600401611dee906139b4565b60405180910390fd5b85810360008089815260200190815260200160002060008b73ffffffffffffffffffffffffffffffffffffffff1673ffffffffffffffffffffffffffffffffffffffff168152602001908152602001600020819055508560008089815260200190815260200160002060008a73ffffffffffffffffffffffffffffffffffffffff1673ffffffffffffffffffffffffffffffffffffffff1681526020019081526020016000206000828254611eac919061366d565b925050819055508773ffffffffffffffffffffffffffffffffffffffff168973ffffffffffffffffffffffffffffffffffffffff168573ffffffffffffffffffffffffffffffffffffffff167fc3d58168c5ae7397731d063d5bbf3d657854427343f4c083240f7aacaa2d0f628a8a604051611f29929190613b2f565b60405180910390a4611f3f848a8a86868a611f60565b611f4d848a8a8a8a8a6121b9565b505050505050505050565b505050505050565b505050505050565b611f878473ffffffffffffffffffffffffffffffffffffffff16612390565b15612137578373ffffffffffffffffffffffffffffffffffffffff1663bc197c8187878686866040518663ffffffff1660e01b8152600401611fcd959493929190613e71565b6020604051808303816000875af192505050801561200957506040513d601f19601f820116820180604052508101906120069190613eee565b60015b6120ae57612015613f28565b806308c379a0036120715750612029613f4a565b806120345750612073565b806040517f08c379a00000000000000000000000000000000000000000000000000000000081526004016120689190612646565b60405180910390fd5b505b6040517f08c379a00000000000000000000000000000000000000000000000000000000081526004016120a59061404c565b60405180910390fd5b63bc197c8160e01b7bffffffffffffffffffffffffffffffffffffffffffffffffffffffff1916817bffffffffffffffffffffffffffffffffffffffffffffffffffffffff191614612135576040517f08c379a000000000000000000000000000000000000000000000000000000000815260040161212c906140de565b60405180910390fd5b505b505050505050565b60606000600167ffffffffffffffff81111561215e5761215d61266d565b5b60405190808252806020026020018201604052801561218c5781602001602082028036833780820191505090505b50905082816000815181106121a4576121a3613342565b5b60200260200101818152505080915050919050565b6121d88473ffffffffffffffffffffffffffffffffffffffff16612390565b15612388578373ffffffffffffffffffffffffffffffffffffffff1663f23a6e6187878686866040518663ffffffff1660e01b815260040161221e9594939291906140fe565b6020604051808303816000875af192505050801561225a57506040513d601f19601f820116820180604052508101906122579190613eee565b60015b6122ff57612266613f28565b806308c379a0036122c2575061227a613f4a565b8061228557506122c4565b806040517f08c379a00000000000000000000000000000000000000000000000000000000081526004016122b99190612646565b60405180910390fd5b505b6040517f08c379a00000000000000000000000000000000000000000000000000000000081526004016122f69061404c565b60405180910390fd5b63f23a6e6160e01b7bffffffffffffffffffffffffffffffffffffffffffffffffffffffff1916817bffffffffffffffffffffffffffffffffffffffffffffffffffffffff191614612386576040517f08c379a000000000000000000000000000000000000000000000000000000000815260040161237d906140de565b60405180910390fd5b505b505050505050565b6000808273ffffffffffffffffffffffffffffffffffffffff163b119050919050565b6000604051905090565b600080fd5b600080fd5b600073ffffffffffffffffffffffffffffffffffffffff82169050919050565b60006123f2826123c7565b9050919050565b612402816123e7565b811461240d57600080fd5b50565b60008135905061241f816123f9565b92915050565b6000819050919050565b61243881612425565b811461244357600080fd5b50565b6000813590506124558161242f565b92915050565b60008060408385031215612472576124716123bd565b5b600061248085828601612410565b925050602061249185828601612446565b9150509250929050565b6124a481612425565b82525050565b60006020820190506124bf600083018461249b565b92915050565b60007fffffffff0000000000000000000000000000000000000000000000000000000082169050919050565b6124fa816124c5565b811461250557600080fd5b50565b600081359050612517816124f1565b92915050565b600060208284031215612533576125326123bd565b5b600061254184828501612508565b91505092915050565b60008115159050919050565b61255f8161254a565b82525050565b600060208201905061257a6000830184612556565b92915050565b600060208284031215612596576125956123bd565b5b60006125a484828501612446565b91505092915050565b600081519050919050565b600082825260208201905092915050565b60005b838110156125e75780820151818401526020810190506125cc565b838111156125f6576000848401525b50505050565b6000601f19601f8301169050919050565b6000612618826125ad565b61262281856125b8565b93506126328185602086016125c9565b61263b816125fc565b840191505092915050565b60006020820190508181036000830152612660818461260d565b905092915050565b600080fd5b7f4e487b7100000000000000000000000000000000000000000000000000000000600052604160045260246000fd5b6126a5826125fc565b810181811067ffffffffffffffff821117156126c4576126c361266d565b5b80604052505050565b60006126d76123b3565b90506126e3828261269c565b919050565b600067ffffffffffffffff8211156127035761270261266d565b5b602082029050602081019050919050565b600080fd5b600061272c612727846126e8565b6126cd565b9050808382526020820190506020840283018581111561274f5761274e612714565b5b835b8181101561277857806127648882612446565b845260208401935050602081019050612751565b5050509392505050565b600082601f83011261279757612796612668565b5b81356127a7848260208601612719565b91505092915050565b600080fd5b600067ffffffffffffffff8211156127d0576127cf61266d565b5b6127d9826125fc565b9050602081019050919050565b82818337600083830152505050565b6000612808612803846127b5565b6126cd565b905082815260208101848484011115612824576128236127b0565b5b61282f8482856127e6565b509392505050565b600082601f83011261284c5761284b612668565b5b813561285c8482602086016127f5565b91505092915050565b600080600080600060a08688031215612881576128806123bd565b5b600061288f88828901612410565b95505060206128a088828901612410565b945050604086013567ffffffffffffffff8111156128c1576128c06123c2565b5b6128cd88828901612782565b935050606086013567ffffffffffffffff8111156128ee576128ed6123c2565b5b6128fa88828901612782565b925050608086013567ffffffffffffffff81111561291b5761291a6123c2565b5b61292788828901612837565b9150509295509295909350565b6000819050919050565b600061294982612934565b9050919050565b6129598161293e565b82525050565b60006020820190506129746000830184612950565b92915050565b600067ffffffffffffffff8211156129955761299461266d565b5b602082029050602081019050919050565b60006129b96129b48461297a565b6126cd565b905080838252602082019050602084028301858111156129dc576129db612714565b5b835b81811015612a0557806129f18882612410565b8452602084019350506020810190506129de565b5050509392505050565b600082601f830112612a2457612a23612668565b5b8135612a348482602086016129a6565b91505092915050565b60008060408385031215612a5457612a536123bd565b5b600083013567ffffffffffffffff811115612a7257612a716123c2565b5b612a7e85828601612a0f565b925050602083013567ffffffffffffffff811115612a9f57612a9e6123c2565b5b612aab85828601612782565b9150509250929050565b600081519050919050565b600082825260208201905092915050565b6000819050602082019050919050565b612aea81612425565b82525050565b6000612afc8383612ae1565b60208301905092915050565b6000602082019050919050565b6000612b2082612ab5565b612b2a8185612ac0565b9350612b3583612ad1565b8060005b83811015612b66578151612b4d8882612af0565b9750612b5883612b08565b925050600181019050612b39565b5085935050505092915050565b60006020820190508181036000830152612b8d8184612b15565b905092915050565b612b9e816123e7565b82525050565b612bad81612934565b82525050565b6000608082019050612bc86000830187612b95565b612bd56020830186612ba4565b612be26040830185612ba4565b612bef606083018461249b565b95945050505050565b612c018161254a565b8114612c0c57600080fd5b50565b600081359050612c1e81612bf8565b92915050565b60008060408385031215612c3b57612c3a6123bd565b5b6000612c4985828601612410565b9250506020612c5a85828601612c0f565b9150509250929050565b6000819050919050565b6000612c89612c84612c7f846123c7565b612c64565b6123c7565b9050919050565b6000612c9b82612c6e565b9050919050565b6000612cad82612c90565b9050919050565b612cbd81612ca2565b82525050565b6000602082019050612cd86000830184612cb4565b92915050565b600080fd5b60008083601f840112612cf957612cf8612668565b5b8235905067ffffffffffffffff811115612d1657612d15612cde565b5b602083019150836001820283011115612d3257612d31612714565b5b9250929050565b60008083601f840112612d4f57612d4e612668565b5b8235905067ffffffffffffffff811115612d6c57612d6b612cde565b5b602083019150836001820283011115612d8857612d87612714565b5b9250929050565b600080600080600060608688031215612dab57612daa6123bd565b5b6000612db988828901612410565b955050602086013567ffffffffffffffff811115612dda57612dd96123c2565b5b612de688828901612ce3565b9450945050604086013567ffffffffffffffff811115612e0957612e086123c2565b5b612e1588828901612d39565b92509250509295509295909350565b600067ffffffffffffffff821115612e3f57612e3e61266d565b5b612e48826125fc565b9050602081019050919050565b6000612e68612e6384612e24565b6126cd565b905082815260208101848484011115612e8457612e836127b0565b5b612e8f8482856127e6565b509392505050565b600082601f830112612eac57612eab612668565b5b8135612ebc848260208601612e55565b91505092915050565b60008060408385031215612edc57612edb6123bd565b5b6000612eea85828601612446565b925050602083013567ffffffffffffffff811115612f0b57612f0a6123c2565b5b612f1785828601612e97565b9150509250929050565b60008060408385031215612f3857612f376123bd565b5b6000612f4685828601612410565b9250506020612f5785828601612410565b9150509250929050565b600080600080600060a08688031215612f7d57612f7c6123bd565b5b6000612f8b88828901612410565b9550506020612f9c88828901612410565b9450506040612fad88828901612446565b9350506060612fbe88828901612446565b925050608086013567ffffffffffffffff811115612fdf57612fde6123c2565b5b612feb88828901612837565b9150509295509295909350565b600061300382612c90565b9050919050565b61301381612ff8565b82525050565b600060208201905061302e600083018461300a565b92915050565b7f455243313135353a2062616c616e636520717565727920666f7220746865207a60008201527f65726f2061646472657373000000000000000000000000000000000000000000602082015250565b6000613090602b836125b8565b915061309b82613034565b604082019050919050565b600060208201905081810360008301526130bf81613083565b9050919050565b7f4e487b7100000000000000000000000000000000000000000000000000000000600052602260045260246000fd5b6000600282049050600182168061310d57607f821691505b6020821081036131205761311f6130c6565b5b50919050565b600081905092915050565b60008190508160005260206000209050919050565b60008154613153816130f5565b61315d8186613126565b94506001821660008114613178576001811461318d576131c0565b60ff19831686528115158202860193506131c0565b61319685613131565b60005b838110156131b857815481890152600182019150602081019050613199565b838801955050505b50505092915050565b60006131d4826125ad565b6131de8185613126565b93506131ee8185602086016125c9565b80840191505092915050565b60006132068285613146565b915061321282846131c9565b91508190509392505050565b7f455243313135353a207472616e736665722063616c6c6572206973206e6f742060008201527f6f776e6572206e6f7220617070726f7665640000000000000000000000000000602082015250565b600061327a6032836125b8565b91506132858261321e565b604082019050919050565b600060208201905081810360008301526132a98161326d565b9050919050565b7f455243313135353a206163636f756e747320616e6420696473206c656e67746860008201527f206d69736d617463680000000000000000000000000000000000000000000000602082015250565b600061330c6029836125b8565b9150613317826132b0565b604082019050919050565b6000602082019050818103600083015261333b816132ff565b9050919050565b7f4e487b7100000000000000000000000000000000000000000000000000000000600052603260045260246000fd5b7f4e487b7100000000000000000000000000000000000000000000000000000000600052601160045260246000fd5b60006133ab82612425565b91507fffffffffffffffffffffffffffffffffffffffffffffffffffffffffffffffff82036133dd576133dc613371565b5b600182019050919050565b60008160601b9050919050565b6000613400826133e8565b9050919050565b6000613412826133f5565b9050919050565b61342a613425826123e7565b613407565b82525050565b6000819050919050565b61344b61344682612934565b613430565b82525050565b6000819050919050565b61346c61346782612425565b613451565b82525050565b600061347e8287613419565b60148201915061348e828661343a565b60208201915061349e828561343a565b6020820191506134ae828461345b565b60208201915081905095945050505050565b600060ff82169050919050565b60006134e86134e36134de846134c0565b612c64565b6134c0565b9050919050565b6134f8816134cd565b82525050565b600081519050919050565b600082825260208201905092915050565b6000613525826134fe565b61352f8185613509565b935061353f8185602086016125c9565b613548816125fc565b840191505092915050565b600060608201905061356860008301866134ef565b6135756020830185612950565b8181036040830152613587818461351a565b9050949350505050565b600061359c826123e7565b9050919050565b6135ac81613591565b81146135b757600080fd5b50565b6000815190506135c9816135a3565b92915050565b6000815190506135de8161242f565b92915050565b600080604083850312156135fb576135fa6123bd565b5b6000613609858286016135ba565b925050602061361a858286016135cf565b9150509250929050565b600081905092915050565b600061363b8385613624565b93506136488385846127e6565b82840190509392505050565b600061366182848661362f565b91508190509392505050565b600061367882612425565b915061368383612425565b9250827fffffffffffffffffffffffffffffffffffffffffffffffffffffffffffffffff038211156136b8576136b7613371565b5b828201905092915050565b7f4e487b7100000000000000000000000000000000000000000000000000000000600052602160045260246000fd5b600381106136ff57600080fd5b50565b600081519050613711816136f2565b92915050565b60006020828403121561372d5761372c6123bd565b5b600061373b84828501613702565b91505092915050565b7f455243313135353a2063616c6c6572206973206e6f74206f776e6572206e6f7260008201527f20617070726f7665640000000000000000000000000000000000000000000000602082015250565b60006137a06029836125b8565b91506137ab82613744565b604082019050919050565b600060208201905081810360008301526137cf81613793565b9050919050565b6000602082840312156137ec576137eb6123bd565b5b60006137fa848285016135ba565b91505092915050565b60006020820190506138186000830184612b95565b92915050565b7f455243313135353a2069647320616e6420616d6f756e7473206c656e6774682060008201527f6d69736d61746368000000000000000000000000000000000000000000000000602082015250565b600061387a6028836125b8565b91506138858261381e565b604082019050919050565b600060208201905081810360008301526138a98161386d565b9050919050565b7f455243313135353a207472616e7366657220746f20746865207a65726f20616460008201527f6472657373000000000000000000000000000000000000000000000000000000602082015250565b600061390c6025836125b8565b9150613917826138b0565b604082019050919050565b6000602082019050818103600083015261393b816138ff565b9050919050565b7f455243313135353a20696e73756666696369656e742062616c616e636520666f60008201527f72207472616e7366657200000000000000000000000000000000000000000000602082015250565b600061399e602a836125b8565b91506139a982613942565b604082019050919050565b600060208201905081810360008301526139cd81613991565b9050919050565b600060408201905081810360008301526139ee8185612b15565b90508181036020830152613a028184612b15565b90509392505050565b7f455243313135353a2073657474696e6720617070726f76616c2073746174757360008201527f20666f722073656c660000000000000000000000000000000000000000000000602082015250565b6000613a676029836125b8565b9150613a7282613a0b565b604082019050919050565b60006020820190508181036000830152613a9681613a5a565b9050919050565b7f455243313135353a206d696e7420746f20746865207a65726f2061646472657360008201527f7300000000000000000000000000000000000000000000000000000000000000602082015250565b6000613af96021836125b8565b9150613b0482613a9d565b604082019050919050565b60006020820190508181036000830152613b2881613aec565b9050919050565b6000604082019050613b44600083018561249b565b613b51602083018461249b565b9392505050565b7f4e487b7100000000000000000000000000000000000000000000000000000000600052601260045260246000fd5b6000613b9282612425565b9150613b9d83612425565b925082613bad57613bac613b58565b5b828204905092915050565b6000613bc382612425565b9150613bce83612425565b9250817fffffffffffffffffffffffffffffffffffffffffffffffffffffffffffffffff0483118215151615613c0757613c06613371565b5b828202905092915050565b60006020601f8301049050919050565b600082821b905092915050565b600060088302613c5f7fffffffffffffffffffffffffffffffffffffffffffffffffffffffffffffffff82613c22565b613c698683613c22565b95508019841693508086168417925050509392505050565b6000613c9c613c97613c9284612425565b612c64565b612425565b9050919050565b6000819050919050565b613cb683613c81565b613cca613cc282613ca3565b848454613c2f565b825550505050565b600090565b613cdf613cd2565b613cea818484613cad565b505050565b5b81811015613d0e57613d03600082613cd7565b600181019050613cf0565b5050565b601f821115613d5357613d2481613131565b613d2d84613c12565b81016020851015613d3c578190505b613d50613d4885613c12565b830182613cef565b50505b505050565b600082821c905092915050565b6000613d7660001984600802613d58565b1980831691505092915050565b6000613d8f8383613d65565b9150826002028217905092915050565b613da8826125ad565b67ffffffffffffffff811115613dc157613dc061266d565b5b613dcb82546130f5565b613dd6828285613d12565b600060209050601f831160018114613e095760008415613df7578287015190505b613e018582613d83565b865550613e69565b601f198416613e1786613131565b60005b82811015613e3f57848901518255600182019150602085019450602081019050613e1a565b86831015613e5c5784890151613e58601f891682613d65565b8355505b6001600288020188555050505b505050505050565b600060a082019050613e866000830188612b95565b613e936020830187612b95565b8181036040830152613ea58186612b15565b90508181036060830152613eb98185612b15565b90508181036080830152613ecd818461351a565b90509695505050505050565b600081519050613ee8816124f1565b92915050565b600060208284031215613f0457613f036123bd565b5b6000613f1284828501613ed9565b91505092915050565b60008160e01c9050919050565b600060033d1115613f475760046000803e613f44600051613f1b565b90505b90565b600060443d10613fd757613f5c6123b3565b60043d036004823e80513d602482011167ffffffffffffffff82111715613f84575050613fd7565b808201805167ffffffffffffffff811115613fa25750505050613fd7565b80602083010160043d038501811115613fbf575050505050613fd7565b613fce8260200185018661269c565b82955050505050505b90565b7f455243313135353a207472616e7366657220746f206e6f6e204552433131353560008201527f526563656976657220696d706c656d656e746572000000000000000000000000602082015250565b60006140366034836125b8565b915061404182613fda565b604082019050919050565b6000602082019050818103600083015261406581614029565b9050919050565b7f455243313135353a204552433131353552656365697665722072656a6563746560008201527f6420746f6b656e73000000000000000000000000000000000000000000000000602082015250565b60006140c86028836125b8565b91506140d38261406c565b604082019050919050565b600060208201905081810360008301526140f7816140bb565b9050919050565b600060a0820190506141136000830188612b95565b6141206020830187612b95565b61412d604083018661249b565b61413a606083018561249b565b818103608083015261414c818461351a565b9050969550505050505056fe4142434445464748494a4b4c4d4e4f505152535455565758595a6162636465666768696a6b6c6d6e6f707172737475767778797a303132333435363738392b2fa2646970667358221220961a52a541dafa94f1cffaccb86cc5ee2f42f820b7120ad7551677773ae4d37b64736f6c634300080f0033",
  "immutableReferences": {
    "2683": [
      {
        "length": 32,
        "start": 1722
      },
      {
        "length": 32,
        "start": 2360
      },
      {
        "length": 32,
        "start": 3118
      },
      {
        "length": 32,
        "start": 4799
      }
    ],
    "2687": [
      {
        "length": 32,
        "start": 2298
      },
      {
        "length": 32,
        "start": 3056
      },
      {
        "length": 32,
        "start": 4465
      },
      {
        "length": 32,
        "start": 4737
      }
    ]
  },
  "source": "//SPDX-License-Identifier: MIT\npragma solidity ^0.8.15;\n\nimport { Base64 } from \"@openzeppelin/contracts/utils/Base64.sol\";\nimport { ERC1155URIStorage, ERC1155 } from \"@openzeppelin/contracts/token/ERC1155/extensions/ERC1155URIStorage.sol\";\nimport { IDisputeGameFactory } from \"@eth-optimism/contracts-bedrock/src/dispute/interfaces/IDisputeGameFactory.sol\";\nimport { IDisputeGame } from \"@eth-optimism/contracts-bedrock/src/dispute/interfaces/IDisputeGame.sol\";\nimport { GameTypes, Claim, GameStatus } from \"@eth-optimism/contracts-bedrock/src/libraries/DisputeTypes.sol\";\n\n/**\n* @title ERC1155ChallengeableMint\n* @dev This contract allows for the creation of ERC1155 tokens through a two stage minting process\n*\n*      The first stage is a proposal stage where a user can propose a new token to be minted\n*      during a challenge period anyone who disputes the validity of the token can challenge it by\n*      initiating a dispute game. If the challenger wins the dispute game\n*      the token is not minted and its proposal cancelled.\n*\n*      The second stage is a claim where the original proposer can receive an actual NFT\n*      if it remains unchallenged for sufficiently long.\n*\n*       ---\n*\n*      This contract uses on-chain metadata since the metadata itself is required to check the\n*      validity of the token. This may be expensive for large metadata.\n*/\ncontract ERC1155ChallengeableMint is ERC1155URIStorage {\n\n    /// @dev Represents a token that has yet to be minted. It must persist\n    ///      for at least SETTLEMENT_PERIOD before it can be minted for real\n    struct PendingMint {\n        /// The address that will receive the token once minted\n        address to;\n        /// metadata is not stored, only the hash\n        bytes32 metadataHash;\n        /// hash of public input data to provable computation\n        bytes32 witnessHash;\n        /// block timestamp when proposal created\n        uint256 timestamp;\n    }\n\n    /// @dev The amount of time that must pass before a pending mint can be minted\n    uint256 public constant SETTLEMENT_PERIOD = 2 hours;\n\n    /// @dev The hash of the code to be run in the provable execution\n    Claim public immutable ROOT_CLAIM;\n\n    /// @dev The dispute game factory used to create and track open disputes\n    IDisputeGameFactory public immutable disputeGameFactory;\n    \n    /// @dev Used to generate a fresh token ID for each token\n    uint256 public nonce;\n\n    /// @dev Mapping from token nonce to mintable status\n    mapping(uint256 => PendingMint) public pendingMints;\n\n\n    event MintProposed(uint256 indexed id, uint256 timestamp);\n    event MintChallenged(uint256 indexed id, address challenger);\n    event Minted(uint256 indexed id, address indexed to);\n\n    error MintProposalNotSettled(uint256 id);\n    error ProposalHasOpenChallenge(uint256 id);\n    error ProposalClaimDisproven(uint256 id);\n    error MetadataHashMismatch(uint256 id);\n    error CannotChallengeProposalHasSettled(uint256 id);\n\n\n    /**\n    * @dev Construct a new NFTCollection contract.\n     */\n    constructor(address disputeGameFactoryAddr, Claim rootClaim) ERC1155(\"\") {\n        disputeGameFactory = IDisputeGameFactory(disputeGameFactoryAddr);\n        ROOT_CLAIM = rootClaim;\n        _setBaseURI(\"data:application/json;base64,\");\n    }\n\n    /**\n    * @dev Propose a new mint.\n    * @param metadataJson The string of metadata.json to associate with the token.\n    * @param witness The witness given as input to the provable program \n    *                to produce this metadata output.\n    *                This must be provided in calldata so watchers can replicate the computation\n    */\n    function ProposeMint(address to, string calldata metadataJson, bytes calldata witness) external {\n        uint256 id = nonce++;\n        pendingMints[id] = PendingMint({\n            to: to,\n            metadataHash: keccak256(bytes(metadataJson)),\n            witnessHash: keccak256(witness),\n            timestamp: block.timestamp\n        });\n        emit MintProposed(id,  block.timestamp);\n    }\n\n    /**\n    * @dev Challenge a pending mint.\n    *    This will lead to the creation of a challenge game on this mint.\n    *    The winner of the game receives 1/2 the bond from the opponent.\n    *    The rest goes into the dev fund :)\n    * @param id The ID of the pending mint to challenge\n    */\n    function ChallengeMint(uint256 id) external {\n        PendingMint memory proposal = pendingMints[id];\n\n        if (block.timestamp > proposal.timestamp + SETTLEMENT_PERIOD)\n            revert CannotChallengeProposalHasSettled(id);\n\n        disputeGameFactory.create(\n            GameTypes.FAULT,\n            ROOT_CLAIM,\n            bytes(abi.encodePacked(proposal.to, proposal.metadataHash, proposal.witnessHash, proposal.timestamp))\n        );\n\n        emit MintChallenged(id, msg.sender);\n    }\n\n    /**\n    * @dev Mint a new token with the given metadata.\n    * @param id The ID of the pending mint (will also be the ID of the token)\n    * @param metadataJson The string of metadata.json to associate with the token.\n    *                     Must match the hash stored in pending\n    */\n    function ClaimMint(uint256 id, string memory metadataJson) external {\n        PendingMint storage proposal = pendingMints[id];\n\n        if (block.timestamp <= proposal.timestamp + SETTLEMENT_PERIOD)\n            revert MintProposalNotSettled(id);\n\n        if (proposal.metadataHash != keccak256(bytes(metadataJson)))\n            revert MetadataHashMismatch(id);\n\n        // see if there is an open challenge\n        (IDisputeGame game,) = disputeGameFactory.games(\n            GameTypes.FAULT,\n            ROOT_CLAIM,\n            bytes(abi.encodePacked(proposal.to, proposal.metadataHash, proposal.witnessHash, proposal.timestamp))\n        );\n        if (address(game) != address(0) && game.status() == GameStatus.IN_PROGRESS) {\n            revert ProposalHasOpenChallenge(id);\n        }\n        if (address(game) != address(0) && game.status() == GameStatus.DEFENDER_WINS) {\n            revert ProposalClaimDisproven(id);\n        }\n\n        _mint(proposal.to, id, 1, \"\");\n        _setURI(id, Base64.encode(bytes(metadataJson)));\n        delete pendingMints[id];\n\n        emit Minted(id, proposal.to);\n    }\n\n    /**\n     * @dev Get the address of the dispute game for the given pending mint\n     */\n    function gameAddress(uint256 id) public view returns (IDisputeGame game) {\n        PendingMint memory proposal = pendingMints[id];\n        (game,) = disputeGameFactory.games(\n            GameTypes.FAULT,\n            ROOT_CLAIM,\n            bytes(abi.encodePacked(proposal.to, proposal.metadataHash, proposal.witnessHash, proposal.timestamp))\n        );\n    }\n}\n",
  "sourcePath": "/Users/willem/repos/ProofBoy/contracts/ERC1155ChallengeableMint.sol",
  "compiler": {
    "name": "solc",
    "version": "0.8.15+commit.e14f2714.Emscripten.clang"
  },
  "schemaVersion": "3.4.14",
  "updatedAt": "2023-08-10T09:01:56.515Z",
  "networkType": "ethereum",
  "devdoc": {
    "details": "This contract allows for the creation of ERC1155 tokens through a two stage minting process      The first stage is a proposal stage where a user can propose a new token to be minted      during a challenge period anyone who disputes the validity of the token can challenge it by      initiating a dispute game. If the challenger wins the dispute game      the token is not minted and its proposal cancelled.      The second stage is a claim where the original proposer can receive an actual NFT      if it remains unchallenged for sufficiently long.       ---      This contract uses on-chain metadata since the metadata itself is required to check the      validity of the token. This may be expensive for large metadata.",
    "kind": "dev",
    "methods": {
      "ChallengeMint(uint256)": {
        "details": "Challenge a pending mint.    This will lead to the creation of a challenge game on this mint.    The winner of the game receives 1/2 the bond from the opponent.    The rest goes into the dev fund :)",
        "params": {
          "id": "The ID of the pending mint to challenge"
        }
      },
      "ClaimMint(uint256,string)": {
        "details": "Mint a new token with the given metadata.",
        "params": {
          "id": "The ID of the pending mint (will also be the ID of the token)",
          "metadataJson": "The string of metadata.json to associate with the token.                     Must match the hash stored in pending"
        }
      },
      "ProposeMint(address,string,bytes)": {
        "details": "Propose a new mint.",
        "params": {
          "metadataJson": "The string of metadata.json to associate with the token.",
          "witness": "The witness given as input to the provable program                 to produce this metadata output.                This must be provided in calldata so watchers can replicate the computation"
        }
      },
      "balanceOf(address,uint256)": {
        "details": "See {IERC1155-balanceOf}. Requirements: - `account` cannot be the zero address."
      },
      "balanceOfBatch(address[],uint256[])": {
        "details": "See {IERC1155-balanceOfBatch}. Requirements: - `accounts` and `ids` must have the same length."
      },
      "constructor": {
        "details": "Construct a new NFTCollection contract."
      },
      "gameAddress(uint256)": {
        "details": "Get the address of the dispute game for the given pending mint"
      },
      "isApprovedForAll(address,address)": {
        "details": "See {IERC1155-isApprovedForAll}."
      },
      "safeBatchTransferFrom(address,address,uint256[],uint256[],bytes)": {
        "details": "See {IERC1155-safeBatchTransferFrom}."
      },
      "safeTransferFrom(address,address,uint256,uint256,bytes)": {
        "details": "See {IERC1155-safeTransferFrom}."
      },
      "setApprovalForAll(address,bool)": {
        "details": "See {IERC1155-setApprovalForAll}."
      },
      "supportsInterface(bytes4)": {
        "details": "See {IERC165-supportsInterface}."
      },
      "uri(uint256)": {
        "details": "See {IERC1155MetadataURI-uri}. This implementation returns the concatenation of the `_baseURI` and the token-specific uri if the latter is set This enables the following behaviors: - if `_tokenURIs[tokenId]` is set, then the result is the concatenation   of `_baseURI` and `_tokenURIs[tokenId]` (keep in mind that `_baseURI`   is empty per default); - if `_tokenURIs[tokenId]` is NOT set then we fallback to `super.uri()`   which in most cases will contain `ERC1155._uri`; - if `_tokenURIs[tokenId]` is NOT set, and if the parents do not have a   uri value set, then the result is empty."
      }
    },
    "stateVariables": {
      "ROOT_CLAIM": {
        "details": "The hash of the code to be run in the provable execution"
      },
      "SETTLEMENT_PERIOD": {
        "details": "The amount of time that must pass before a pending mint can be minted"
      },
      "disputeGameFactory": {
        "details": "The dispute game factory used to create and track open disputes"
      },
      "nonce": {
        "details": "Used to generate a fresh token ID for each token"
      },
      "pendingMints": {
        "details": "Mapping from token nonce to mintable status"
      }
    },
    "title": "ERC1155ChallengeableMint",
    "version": 1
  },
  "userdoc": {
    "kind": "user",
    "methods": {},
    "version": 1
  }
}