{
  "contractName": "FaultDisputeGame",
  "abi": [
    {
      "inputs": [
        {
          "internalType": "Claim",
          "name": "_absolutePrestate",
          "type": "bytes32"
        },
        {
          "internalType": "uint256",
          "name": "_maxGameDepth",
          "type": "uint256"
        },
        {
          "internalType": "Duration",
          "name": "_gameDuration",
          "type": "uint64"
        },
        {
          "internalType": "contract IBigStepper",
          "name": "_vm",
          "type": "address"
        }
      ],
      "stateMutability": "nonpayable",
      "type": "constructor"
    },
    {
      "inputs": [],
      "name": "CannotDefendRootClaim",
      "type": "error"
    },
    {
      "inputs": [],
      "name": "ClaimAlreadyExists",
      "type": "error"
    },
    {
      "inputs": [],
      "name": "ClockNotExpired",
      "type": "error"
    },
    {
      "inputs": [],
      "name": "ClockTimeExceeded",
      "type": "error"
    },
    {
      "inputs": [],
      "name": "GameDepthExceeded",
      "type": "error"
    },
    {
      "inputs": [],
      "name": "GameNotInProgress",
      "type": "error"
    },
    {
      "inputs": [],
      "name": "InvalidParent",
      "type": "error"
    },
    {
      "inputs": [],
      "name": "InvalidPrestate",
      "type": "error"
    },
    {
      "inputs": [],
      "name": "L1HeadTooOld",
      "type": "error"
    },
    {
      "inputs": [],
      "name": "ValidStep",
      "type": "error"
    },
    {
      "anonymous": false,
      "inputs": [
        {
          "indexed": true,
          "internalType": "uint256",
          "name": "parentIndex",
          "type": "uint256"
        },
        {
          "indexed": true,
          "internalType": "Claim",
          "name": "claim",
          "type": "bytes32"
        },
        {
          "indexed": true,
          "internalType": "address",
          "name": "claimant",
          "type": "address"
        }
      ],
      "name": "Move",
      "type": "event"
    },
    {
      "anonymous": false,
      "inputs": [
        {
          "indexed": true,
          "internalType": "enum GameStatus",
          "name": "status",
          "type": "uint8"
        }
      ],
      "name": "Resolved",
      "type": "event"
    },
    {
      "inputs": [],
      "name": "ABSOLUTE_PRESTATE",
      "outputs": [
        {
          "internalType": "Claim",
          "name": "",
          "type": "bytes32"
        }
      ],
      "stateMutability": "view",
      "type": "function",
      "constant": true
    },
    {
      "inputs": [],
      "name": "BLOCK_ORACLE",
      "outputs": [
        {
          "internalType": "contract BlockOracle",
          "name": "",
          "type": "address"
        }
      ],
      "stateMutability": "view",
      "type": "function",
      "constant": true
    },
    {
      "inputs": [],
      "name": "GAME_DURATION",
      "outputs": [
        {
          "internalType": "Duration",
          "name": "",
          "type": "uint64"
        }
      ],
      "stateMutability": "view",
      "type": "function",
      "constant": true
    },
    {
      "inputs": [],
      "name": "L2_OUTPUT_ORACLE",
      "outputs": [
        {
          "internalType": "contract L2OutputOracle",
          "name": "",
          "type": "address"
        }
      ],
      "stateMutability": "view",
      "type": "function",
      "constant": true
    },
    {
      "inputs": [],
      "name": "MAX_GAME_DEPTH",
      "outputs": [
        {
          "internalType": "uint256",
          "name": "",
          "type": "uint256"
        }
      ],
      "stateMutability": "view",
      "type": "function",
      "constant": true
    },
    {
      "inputs": [],
      "name": "VM",
      "outputs": [
        {
          "internalType": "contract IBigStepper",
          "name": "",
          "type": "address"
        }
      ],
      "stateMutability": "view",
      "type": "function",
      "constant": true
    },
    {
      "inputs": [
        {
          "internalType": "uint256",
          "name": "_ident",
          "type": "uint256"
        },
        {
          "internalType": "uint256",
          "name": "_partOffset",
          "type": "uint256"
        }
      ],
      "name": "addLocalData",
      "outputs": [],
      "stateMutability": "nonpayable",
      "type": "function"
    },
    {
      "inputs": [
        {
          "internalType": "uint256",
          "name": "_parentIndex",
          "type": "uint256"
        },
        {
          "internalType": "Claim",
          "name": "_claim",
          "type": "bytes32"
        }
      ],
      "name": "attack",
      "outputs": [],
      "stateMutability": "payable",
      "type": "function",
      "payable": true
    },
    {
      "inputs": [],
      "name": "bondManager",
      "outputs": [
        {
          "internalType": "contract IBondManager",
          "name": "",
          "type": "address"
        }
      ],
      "stateMutability": "view",
      "type": "function",
      "constant": true
    },
    {
      "inputs": [
        {
          "internalType": "uint256",
          "name": "",
          "type": "uint256"
        }
      ],
      "name": "claimData",
      "outputs": [
        {
          "internalType": "uint32",
          "name": "parentIndex",
          "type": "uint32"
        },
        {
          "internalType": "bool",
          "name": "countered",
          "type": "bool"
        },
        {
          "internalType": "Claim",
          "name": "claim",
          "type": "bytes32"
        },
        {
          "internalType": "Position",
          "name": "position",
          "type": "uint128"
        },
        {
          "internalType": "Clock",
          "name": "clock",
          "type": "uint128"
        }
      ],
      "stateMutability": "view",
      "type": "function",
      "constant": true
    },
    {
      "inputs": [],
      "name": "claimDataLen",
      "outputs": [
        {
          "internalType": "uint256",
          "name": "len_",
          "type": "uint256"
        }
      ],
      "stateMutability": "view",
      "type": "function",
      "constant": true
    },
    {
      "inputs": [],
      "name": "createdAt",
      "outputs": [
        {
          "internalType": "Timestamp",
          "name": "createdAt_",
          "type": "uint64"
        }
      ],
      "stateMutability": "view",
      "type": "function",
      "constant": true
    },
    {
      "inputs": [
        {
          "internalType": "uint256",
          "name": "_parentIndex",
          "type": "uint256"
        },
        {
          "internalType": "Claim",
          "name": "_claim",
          "type": "bytes32"
        }
      ],
      "name": "defend",
      "outputs": [],
      "stateMutability": "payable",
      "type": "function",
      "payable": true
    },
    {
      "inputs": [],
      "name": "extraData",
      "outputs": [
        {
          "internalType": "bytes",
          "name": "extraData_",
          "type": "bytes"
        }
      ],
      "stateMutability": "pure",
      "type": "function",
      "constant": true
    },
    {
      "inputs": [],
      "name": "gameData",
      "outputs": [
        {
          "internalType": "GameType",
          "name": "gameType_",
          "type": "uint8"
        },
        {
          "internalType": "Claim",
          "name": "rootClaim_",
          "type": "bytes32"
        },
        {
          "internalType": "bytes",
          "name": "extraData_",
          "type": "bytes"
        }
      ],
      "stateMutability": "pure",
      "type": "function",
      "constant": true
    },
    {
      "inputs": [],
      "name": "gameStart",
      "outputs": [
        {
          "internalType": "Timestamp",
          "name": "",
          "type": "uint64"
        }
      ],
      "stateMutability": "view",
      "type": "function",
      "constant": true
    },
    {
      "inputs": [],
      "name": "gameType",
      "outputs": [
        {
          "internalType": "GameType",
          "name": "gameType_",
          "type": "uint8"
        }
      ],
      "stateMutability": "pure",
      "type": "function",
      "constant": true
    },
    {
      "inputs": [],
      "name": "initialize",
      "outputs": [],
      "stateMutability": "nonpayable",
      "type": "function"
    },
    {
      "inputs": [],
      "name": "l1BlockNumber",
      "outputs": [
        {
          "internalType": "uint256",
          "name": "l1BlockNumber_",
          "type": "uint256"
        }
      ],
      "stateMutability": "pure",
      "type": "function",
      "constant": true
    },
    {
      "inputs": [],
      "name": "l1Head",
      "outputs": [
        {
          "internalType": "Hash",
          "name": "",
          "type": "bytes32"
        }
      ],
      "stateMutability": "view",
      "type": "function",
      "constant": true
    },
    {
      "inputs": [],
      "name": "l2BlockNumber",
      "outputs": [
        {
          "internalType": "uint256",
          "name": "l2BlockNumber_",
          "type": "uint256"
        }
      ],
      "stateMutability": "pure",
      "type": "function",
      "constant": true
    },
    {
      "inputs": [
        {
          "internalType": "uint256",
          "name": "_challengeIndex",
          "type": "uint256"
        },
        {
          "internalType": "Claim",
          "name": "_claim",
          "type": "bytes32"
        },
        {
          "internalType": "bool",
          "name": "_isAttack",
          "type": "bool"
        }
      ],
      "name": "move",
      "outputs": [],
      "stateMutability": "payable",
      "type": "function",
      "payable": true
    },
    {
      "inputs": [],
      "name": "proposals",
      "outputs": [
        {
          "components": [
            {
              "internalType": "uint128",
              "name": "index",
              "type": "uint128"
            },
            {
              "internalType": "uint128",
              "name": "l2BlockNumber",
              "type": "uint128"
            },
            {
              "internalType": "Hash",
              "name": "outputRoot",
              "type": "bytes32"
            }
          ],
          "internalType": "struct IFaultDisputeGame.OutputProposal",
          "name": "starting",
          "type": "tuple"
        },
        {
          "components": [
            {
              "internalType": "uint128",
              "name": "index",
              "type": "uint128"
            },
            {
              "internalType": "uint128",
              "name": "l2BlockNumber",
              "type": "uint128"
            },
            {
              "internalType": "Hash",
              "name": "outputRoot",
              "type": "bytes32"
            }
          ],
          "internalType": "struct IFaultDisputeGame.OutputProposal",
          "name": "disputed",
          "type": "tuple"
        }
      ],
      "stateMutability": "view",
      "type": "function",
      "constant": true
    },
    {
      "inputs": [],
      "name": "resolve",
      "outputs": [
        {
          "internalType": "enum GameStatus",
          "name": "status_",
          "type": "uint8"
        }
      ],
      "stateMutability": "nonpayable",
      "type": "function"
    },
    {
      "inputs": [],
      "name": "rootClaim",
      "outputs": [
        {
          "internalType": "Claim",
          "name": "rootClaim_",
          "type": "bytes32"
        }
      ],
      "stateMutability": "pure",
      "type": "function",
      "constant": true
    },
    {
      "inputs": [],
      "name": "status",
      "outputs": [
        {
          "internalType": "enum GameStatus",
          "name": "",
          "type": "uint8"
        }
      ],
      "stateMutability": "view",
      "type": "function",
      "constant": true
    },
    {
      "inputs": [
        {
          "internalType": "uint256",
          "name": "_claimIndex",
          "type": "uint256"
        },
        {
          "internalType": "bool",
          "name": "_isAttack",
          "type": "bool"
        },
        {
          "internalType": "bytes",
          "name": "_stateData",
          "type": "bytes"
        },
        {
          "internalType": "bytes",
          "name": "_proof",
          "type": "bytes"
        }
      ],
      "name": "step",
      "outputs": [],
      "stateMutability": "nonpayable",
      "type": "function"
    },
    {
      "inputs": [],
      "name": "version",
      "outputs": [
        {
          "internalType": "string",
          "name": "",
          "type": "string"
        }
      ],
      "stateMutability": "view",
      "type": "function",
      "constant": true
    }
  ],
  "bytecode": "0x6101a06040523480156200001257600080fd5b5060405162003d8f38038062003d8f833981810160405281019062000038919062000275565b83838383600080600080600682608081815250508160a081815250508060c081815250505050508560e081815250508461010081815250508367ffffffffffffffff166101208167ffffffffffffffff16815250508273ffffffffffffffffffffffffffffffffffffffff166101408173ffffffffffffffffffffffffffffffffffffffff16815250508173ffffffffffffffffffffffffffffffffffffffff166101608173ffffffffffffffffffffffffffffffffffffffff16815250508073ffffffffffffffffffffffffffffffffffffffff166101808173ffffffffffffffffffffffffffffffffffffffff168152505050505050505050505050620002e7565b600080fd5b6000819050919050565b620001568162000141565b81146200016257600080fd5b50565b60008151905062000176816200014b565b92915050565b6000819050919050565b62000191816200017c565b81146200019d57600080fd5b50565b600081519050620001b18162000186565b92915050565b600067ffffffffffffffff82169050919050565b620001d681620001b7565b8114620001e257600080fd5b50565b600081519050620001f681620001cb565b92915050565b600073ffffffffffffffffffffffffffffffffffffffff82169050919050565b60006200022982620001fc565b9050919050565b60006200023d826200021c565b9050919050565b6200024f8162000230565b81146200025b57600080fd5b50565b6000815190506200026f8162000244565b92915050565b600080600080608085870312156200029257620002916200013c565b5b6000620002a28782880162000165565b9450506020620002b587828801620001a0565b9350506040620002c887828801620001e5565b9250506060620002db878288016200025e565b91505092959194509250565b60805160a05160c05160e05161010051610120516101405161016051610180516139e3620003ac60003960008181610f330152611b5701526000818161196a01528181611a0f01528181611ab90152611e970152600081816106b501528181611e5d015261223e015260008181610cef015281816114eb0152611ebb015260008181610baf01528181610f0f0152818161139c015261208a015260008181610a89015261214601526000610fae01526000610f8501526000610f5c01526139e36000f3fe6080604052600436106101b75760003560e01c80636361506d116100ec578063c0c3a0921161008a578063c6f0308c11610064578063c6f0308c14610582578063cf09e0d0146105c3578063d8cc1a3c146105ee578063fa24f74314610617576101b7565b8063c0c3a09214610510578063c31b29ce1461053b578063c55cd0c714610566576101b7565b80638b85902b116100c65780638b85902b14610464578063929312981461048f578063bbdc02db146104ba578063bcef3b55146104e5576101b7565b80636361506d146103f75780638129fc1c146104225780638980e0cc14610439576101b7565b8063363cc4271161015957806354fd4d501161013357806354fd4d501461035957806355ef20e614610384578063609d3334146103b0578063632247ea146103db576101b7565b8063363cc427146102d85780634778efe814610303578063529184c91461032e576101b7565b80632810e1d6116101955780632810e1d61461023b578063298c9005146102665780633218b99d1461029157806335fef567146102bc576101b7565b80631e27052a146101bc578063200d2ed2146101e5578063266198f914610210575b600080fd5b3480156101c857600080fd5b506101e360048036038101906101de91906128a2565b610644565b005b3480156101f157600080fd5b506101fa610a74565b6040516102079190612959565b60405180910390f35b34801561021c57600080fd5b50610225610a87565b604051610232919061299f565b60405180910390f35b34801561024757600080fd5b50610250610aab565b60405161025d9190612959565b60405180910390f35b34801561027257600080fd5b5061027b610eae565b60405161028891906129c9565b60405180910390f35b34801561029d57600080fd5b506102a6610ebf565b6040516102b39190612a33565b60405180910390f35b6102d660048036038101906102d19190612a7a565b610ed7565b005b3480156102e457600080fd5b506102ed610ee7565b6040516102fa9190612b2f565b60405180910390f35b34801561030f57600080fd5b50610318610f0d565b60405161032591906129c9565b60405180910390f35b34801561033a57600080fd5b50610343610f31565b6040516103509190612b6b565b60405180910390f35b34801561036557600080fd5b5061036e610f55565b60405161037b9190612c1f565b60405180910390f35b34801561039057600080fd5b50610399610ff8565b6040516103a7929190612cbd565b60405180910390f35b3480156103bc57600080fd5b506103c561115a565b6040516103d29190612d3b565b60405180910390f35b6103f560048036038101906103f09190612d95565b61116d565b005b34801561040357600080fd5b5061040c6117ac565b6040516104199190612df7565b60405180910390f35b34801561042e57600080fd5b506104376117b2565b005b34801561044557600080fd5b5061044e611e3d565b60405161045b91906129c9565b60405180910390f35b34801561047057600080fd5b50610479611e4a565b60405161048691906129c9565b60405180910390f35b34801561049b57600080fd5b506104a4611e5b565b6040516104b19190612e33565b60405180910390f35b3480156104c657600080fd5b506104cf611e7f565b6040516104dc9190612e8c565b60405180910390f35b3480156104f157600080fd5b506104fa611e84565b604051610507919061299f565b60405180910390f35b34801561051c57600080fd5b50610525611e95565b6040516105329190612ec8565b60405180910390f35b34801561054757600080fd5b50610550611eb9565b60405161055d9190612ef2565b60405180910390f35b610580600480360381019061057b9190612a7a565b611edd565b005b34801561058e57600080fd5b506105a960048036038101906105a49190612f0d565b611eed565b6040516105ba959493929190612fa8565b60405180910390f35b3480156105cf57600080fd5b506105d8611f88565b6040516105e59190612a33565b60405180910390f35b3480156105fa57600080fd5b5061061560048036038101906106109190613060565b611fa5565b005b34801561062357600080fd5b5061062c6123c6565b60405161063b93929190613107565b60405180910390f35b60006002811115610658576106576128e2565b5b600060089054906101000a900460ff16600281111561067a576106796128e2565b5b146106b1576040517f67fe195000000000000000000000000000000000000000000000000000000000815260040160405180910390fd5b60007f000000000000000000000000000000000000000000000000000000000000000073ffffffffffffffffffffffffffffffffffffffff16637dc0d1d06040518163ffffffff1660e01b8152600401602060405180830381865afa15801561071e573d6000803e3d6000fd5b505050506040513d601f19601f820116820180604052508101906107429190613195565b9050600183036107d7578073ffffffffffffffffffffffffffffffffffffffff16639a1f5e7f846001546020866040518563ffffffff1660e01b815260040161078e949392919061320c565b6020604051808303816000875af11580156107ad573d6000803e3d6000fd5b505050506040513d601f19601f820116820180604052508101906107d1919061327d565b50610a6f565b60028303610870578073ffffffffffffffffffffffffffffffffffffffff16639a1f5e7f846003600001600101546020866040518563ffffffff1660e01b8152600401610827949392919061320c565b6020604051808303816000875af1158015610846573d6000803e3d6000fd5b505050506040513d601f19601f8201168201806040525081019061086a919061327d565b50610a6e565b60038303610909578073ffffffffffffffffffffffffffffffffffffffff16639a1f5e7f846003600201600101546020866040518563ffffffff1660e01b81526004016108c0949392919061320c565b6020604051808303816000875af11580156108df573d6000803e3d6000fd5b505050506040513d601f19601f82011682018060405250810190610903919061327d565b50610a6d565b600483036109d7578073ffffffffffffffffffffffffffffffffffffffff16639a1f5e7f8460c0600360000160000160109054906101000a90046fffffffffffffffffffffffffffffffff166fffffffffffffffffffffffffffffffff16901b60001b6008866040518563ffffffff1660e01b815260040161098e94939291906132e5565b6020604051808303816000875af11580156109ad573d6000803e3d6000fd5b505050506040513d601f19601f820116820180604052508101906109d1919061327d565b50610a6c565b60058303610a6b578073ffffffffffffffffffffffffffffffffffffffff16639a1f5e7f8460c046901b60001b6008866040518563ffffffff1660e01b8152600401610a2694939291906132e5565b6020604051808303816000875af1158015610a45573d6000803e3d6000fd5b505050506040513d601f19601f82011682018060405250810190610a69919061327d565b505b5b5b5b5b505050565b600060089054906101000a900460ff1681565b7f000000000000000000000000000000000000000000000000000000000000000081565b6000806002811115610ac057610abf6128e2565b5b600060089054906101000a900460ff166002811115610ae257610ae16128e2565b5b14610b19576040517f67fe195000000000000000000000000000000000000000000000000000000000815260040160405180910390fd5b60006001600280549050610b2d9190613359565b905060006fffffffffffffffffffffffffffffffff8016905060008290505b67ffffffffffffffff8016811015610c2b57600060028281548110610b7457610b7361338d565b5b90600052602060002090600302019050816001900391508060000160049054906101000a900460ff1615610ba85750610c26565b6000610c0f7f00000000000000000000000000000000000000000000000000000000000000008360020160009054906101000a90046fffffffffffffffffffffffffffffffff166fffffffffffffffffffffffffffffffff166123ee90919063ffffffff16565b905083811015610c23578093506001830194505b50505b610b4c565b50600060028381548110610c4257610c4161338d565b5b9060005260206000209060030201905060008160000160009054906101000a900463ffffffff1663ffffffff169050600063ffffffff80168214610cc75760028281548110610c9457610c9361338d565b5b906000526020600020906003020160020160109054906101000a90046fffffffffffffffffffffffffffffffff16610ce9565b8260020160109054906101000a90046fffffffffffffffffffffffffffffffff165b905060017f000000000000000000000000000000000000000000000000000000000000000067ffffffffffffffff16901c67ffffffffffffffff16610d3f826fffffffffffffffffffffffffffffffff16612422565b67ffffffffffffffff1642610d549190613359565b610d6f836fffffffffffffffffffffffffffffffff16612432565b67ffffffffffffffff16610d8391906133bc565b11610dba576040517ff2440b5300000000000000000000000000000000000000000000000000000000815260040160405180910390fd5b60006002610df98560020160009054906101000a90046fffffffffffffffffffffffffffffffff166fffffffffffffffffffffffffffffffff1661243f565b610e039190613441565b67ffffffffffffffff16148015610e2c57506fffffffffffffffffffffffffffffffff80168414155b15610e3a5760029550610e3f565b600195505b85600060086101000a81548160ff02191690836002811115610e6457610e636128e2565b5b021790556002811115610e7a57610e796128e2565b5b7f5e186f09b9c93491f14e277eea7faa5de6a2d4bda75a79af7a3684fbfb42da6060405160405180910390a2505050505090565b6000610eba60406124c9565b905090565b60008054906101000a900467ffffffffffffffff1681565b610ee38282600061116d565b5050565b600060099054906101000a900473ffffffffffffffffffffffffffffffffffffffff1681565b7f000000000000000000000000000000000000000000000000000000000000000081565b7f000000000000000000000000000000000000000000000000000000000000000081565b6060610f807f00000000000000000000000000000000000000000000000000000000000000006124e2565b610fa97f00000000000000000000000000000000000000000000000000000000000000006124e2565b610fd27f00000000000000000000000000000000000000000000000000000000000000006124e2565b604051602001610fe4939291906134fa565b604051602081830303815290604052905090565b6003806000016040518060600160405290816000820160009054906101000a90046fffffffffffffffffffffffffffffffff166fffffffffffffffffffffffffffffffff166fffffffffffffffffffffffffffffffff1681526020016000820160109054906101000a90046fffffffffffffffffffffffffffffffff166fffffffffffffffffffffffffffffffff166fffffffffffffffffffffffffffffffff16815260200160018201548152505090806002016040518060600160405290816000820160009054906101000a90046fffffffffffffffffffffffffffffffff166fffffffffffffffffffffffffffffffff166fffffffffffffffffffffffffffffffff1681526020016000820160109054906101000a90046fffffffffffffffffffffffffffffffff166fffffffffffffffffffffffffffffffff166fffffffffffffffffffffffffffffffff168152602001600182015481525050905082565b606061116860206040612642565b905090565b60006002811115611181576111806128e2565b5b600060089054906101000a900460ff1660028111156111a3576111a26128e2565b5b146111da576040517f67fe195000000000000000000000000000000000000000000000000000000000815260040160405180910390fd5b6000831480156111e8575080155b1561121f576040517fa42637bc00000000000000000000000000000000000000000000000000000000815260040160405180910390fd5b6000600284815481106112355761123461338d565b5b90600052602060002090600302016040518060a00160405290816000820160009054906101000a900463ffffffff1663ffffffff1663ffffffff1681526020016000820160049054906101000a900460ff16151515158152602001600182015481526020016002820160009054906101000a90046fffffffffffffffffffffffffffffffff166fffffffffffffffffffffffffffffffff166fffffffffffffffffffffffffffffffff1681526020016002820160109054906101000a90046fffffffffffffffffffffffffffffffff166fffffffffffffffffffffffffffffffff166fffffffffffffffffffffffffffffffff168152505090506001600285815481106113455761134461338d565b5b906000526020600020906003020160000160046101000a81548160ff02191690831515021790555060006113988383606001516fffffffffffffffffffffffffffffffff166126c290919063ffffffff16565b90507f00000000000000000000000000000000000000000000000000000000000000006113d6826fffffffffffffffffffffffffffffffff1661243f565b67ffffffffffffffff161115611418576040517f56f57b2b00000000000000000000000000000000000000000000000000000000815260040160405180910390fd5b600063ffffffff8016836000015163ffffffff1614611480576002836000015163ffffffff168154811061144f5761144e61338d565b5b906000526020600020906003020160020160109054906101000a90046fffffffffffffffffffffffffffffffff1690505b60006114a184608001516fffffffffffffffffffffffffffffffff16612422565b67ffffffffffffffff16426114c7846fffffffffffffffffffffffffffffffff16612432565b67ffffffffffffffff166114db91906133bc565b6114e59190613359565b905060017f000000000000000000000000000000000000000000000000000000000000000067ffffffffffffffff16901c67ffffffffffffffff168167ffffffffffffffff161115611563576040517f3381d11400000000000000000000000000000000000000000000000000000000815260040160405180910390fd5b600061156f82426126d3565b9050600061158685896126e390919063ffffffff16565b90506007600082815260200190815260200160002060009054906101000a900460ff16156115e0576040517f80497e3b00000000000000000000000000000000000000000000000000000000815260040160405180910390fd5b60016007600083815260200190815260200160002060006101000a81548160ff02191690831515021790555060026040518060a001604052808b63ffffffff1681526020016000151581526020018a8152602001876fffffffffffffffffffffffffffffffff168152602001846fffffffffffffffffffffffffffffffff16815250908060018154018082558091505060019003906000526020600020906003020160009091909190915060008201518160000160006101000a81548163ffffffff021916908363ffffffff16021790555060208201518160000160046101000a81548160ff0219169083151502179055506040820151816001015560608201518160020160006101000a8154816fffffffffffffffffffffffffffffffff02191690836fffffffffffffffffffffffffffffffff16021790555060808201518160020160106101000a8154816fffffffffffffffffffffffffffffffff02191690836fffffffffffffffffffffffffffffffff16021790555050503373ffffffffffffffffffffffffffffffffffffffff16888a7f9b3245740ec3b155098a55be84957a4da13eaf7f14a8bc6f53126c0b9350f2be60405160405180910390a4505050505050505050565b60015481565b426000806101000a81548167ffffffffffffffff021916908367ffffffffffffffff16021790555060008060086101000a81548160ff021916908360028111156117ff576117fe6128e2565b5b021790555060026040518060a0016040528063ffffffff8016815260200160001515815260200161182e611e84565b815260200160016fffffffffffffffffffffffffffffffff1681526020016118576000426126d3565b6fffffffffffffffffffffffffffffffff16815250908060018154018082558091505060019003906000526020600020906003020160009091909190915060008201518160000160006101000a81548163ffffffff021916908363ffffffff16021790555060208201518160000160046101000a81548160ff0219169083151502179055506040820151816001015560608201518160020160006101000a8154816fffffffffffffffffffffffffffffffff02191690836fffffffffffffffffffffffffffffffff16021790555060808201518160020160106101000a8154816fffffffffffffffffffffffffffffffff02191690836fffffffffffffffffffffffffffffffff160217905550505060007f000000000000000000000000000000000000000000000000000000000000000073ffffffffffffffffffffffffffffffffffffffff16637f0064206119ac611e4a565b6040518263ffffffff1660e01b81526004016119c891906129c9565b602060405180830381865afa1580156119e5573d6000803e3d6000fd5b505050506040513d601f19601f82011682018060405250810190611a099190613556565b905060007f000000000000000000000000000000000000000000000000000000000000000073ffffffffffffffffffffffffffffffffffffffff1663a25ae557600184611a569190613359565b6040518263ffffffff1660e01b8152600401611a7291906129c9565b606060405180830381865afa158015611a8f573d6000803e3d6000fd5b505050506040513d601f19601f82011682018060405250810190611ab39190613693565b905060007f000000000000000000000000000000000000000000000000000000000000000073ffffffffffffffffffffffffffffffffffffffff1663a25ae557846040518263ffffffff1660e01b8152600401611b1091906129c9565b606060405180830381865afa158015611b2d573d6000803e3d6000fd5b505050506040513d601f19601f82011682018060405250810190611b519190613693565b905060007f000000000000000000000000000000000000000000000000000000000000000073ffffffffffffffffffffffffffffffffffffffff166399d548aa611b99610eae565b6040518263ffffffff1660e01b8152600401611bb591906129c9565b6040805180830381865afa158015611bd1573d6000803e3d6000fd5b505050506040513d601f19601f82011682018060405250810190611bf59190613768565b905081602001516fffffffffffffffffffffffffffffffff16816020015167ffffffffffffffff1611611c54576040517f13809ba500000000000000000000000000000000000000000000000000000000815260040160405180910390fd5b60405180604001604052806040518060600160405280600188611c779190613359565b6fffffffffffffffffffffffffffffffff16815260200186604001516fffffffffffffffffffffffffffffffff168152602001866000015181525081526020016040518060600160405280876fffffffffffffffffffffffffffffffff16815260200185604001516fffffffffffffffffffffffffffffffff1681526020018560000151815250815250600360008201518160000160008201518160000160006101000a8154816fffffffffffffffffffffffffffffffff02191690836fffffffffffffffffffffffffffffffff16021790555060208201518160000160106101000a8154816fffffffffffffffffffffffffffffffff02191690836fffffffffffffffffffffffffffffffff16021790555060408201518160010155505060208201518160020160008201518160000160006101000a8154816fffffffffffffffffffffffffffffffff02191690836fffffffffffffffffffffffffffffffff16021790555060208201518160000160106101000a8154816fffffffffffffffffffffffffffffffff02191690836fffffffffffffffffffffffffffffffff160217905550604082015181600101555050905050806000015160018190555050505050565b6000600280549050905090565b6000611e5660206124c9565b905090565b7f000000000000000000000000000000000000000000000000000000000000000081565b600090565b6000611e9060006126fa565b905090565b7f000000000000000000000000000000000000000000000000000000000000000081565b7f000000000000000000000000000000000000000000000000000000000000000081565b611ee98282600161116d565b5050565b60028181548110611efd57600080fd5b90600052602060002090600302016000915090508060000160009054906101000a900463ffffffff16908060000160049054906101000a900460ff16908060010154908060020160009054906101000a90046fffffffffffffffffffffffffffffffff16908060020160109054906101000a90046fffffffffffffffffffffffffffffffff16905085565b60008060009054906101000a900467ffffffffffffffff16905090565b60006002811115611fb957611fb86128e2565b5b600060089054906101000a900460ff166002811115611fdb57611fda6128e2565b5b14612012576040517f67fe195000000000000000000000000000000000000000000000000000000000815260040160405180910390fd5b6000600287815481106120285761202761338d565b5b9060005260206000209060030201905060008160020160009054906101000a90046fffffffffffffffffffffffffffffffff169050600061208488836fffffffffffffffffffffffffffffffff166126c290919063ffffffff16565b905060017f00000000000000000000000000000000000000000000000000000000000000006120b391906133bc565b6120ce826fffffffffffffffffffffffffffffffff1661243f565b67ffffffffffffffff161461210f576040517f5f53dd9800000000000000000000000000000000000000000000000000000000815260040160405180910390fd5b60008089156121ab576000612135846fffffffffffffffffffffffffffffffff16612713565b67ffffffffffffffff160361216c577f000000000000000000000000000000000000000000000000000000000000000091506121a3565b61219c60018561217c9190613795565b8660000160009054906101000a900463ffffffff1663ffffffff16612739565b6001015491505b8490506121e5565b846001015491506121e26001856121c291906137c9565b8660000160009054906101000a900463ffffffff1663ffffffff16612739565b90505b8189896040516121f692919061384e565b604051809103902014612235576040517f696550ff00000000000000000000000000000000000000000000000000000000815260040160405180910390fd5b600081600101547f000000000000000000000000000000000000000000000000000000000000000073ffffffffffffffffffffffffffffffffffffffff1663f8e0cb968c8c8c8c6040518563ffffffff1660e01b815260040161229b9493929190613894565b6020604051808303816000875af11580156122ba573d6000803e3d6000fd5b505050506040513d601f19601f820116820180604052508101906122de919061327d565b14905060008060026123218560020160009054906101000a90046fffffffffffffffffffffffffffffffff166fffffffffffffffffffffffffffffffff1661243f565b61233c896fffffffffffffffffffffffffffffffff1661243f565b61234691906138cf565b6123509190613441565b67ffffffffffffffff161490508115158115150361239a576040517ffb4e40dd00000000000000000000000000000000000000000000000000000000815260040160405180910390fd5b60018760000160046101000a81548160ff02191690831515021790555050505050505050505050505050565b60008060606123d3611e7f565b92506123dd611e84565b91506123e761115a565b9050909192565b6000806123fa8461243f565b67ffffffffffffffff1690508083036001841b600180831b0386831b17039250505092915050565b60008160c01b60c01c9050919050565b60008160401c9050919050565b600081811c67ffffffffffffffff1060061b8117905081811c63ffffffff1060051b8117905081811c91508160011c821791508160021c821791508160041c821791508160081c821791508160101c821791507e09010a0d15021d0b0e10121619031e080c141c0f111807131b17061a05041f6307c4acdd60e01b830260fb1c1a81179050919050565b6000806124d4612813565b905082810135915050919050565b606060008203612529576040518060400160405280600181526020017f3000000000000000000000000000000000000000000000000000000000000000815250905061263d565b600082905060005b6000821461255b57808061254490613903565b915050600a82612554919061394b565b9150612531565b60008167ffffffffffffffff81111561257757612576613588565b5b6040519080825280601f01601f1916602001820160405280156125a95781602001600182028036833780820191505090505b5090505b60008514612636576001826125c29190613359565b9150600a856125d1919061397c565b60306125dd91906133bc565b60f81b8183815181106125f3576125f261338d565b5b60200101907effffffffffffffffffffffffffffffffffffffffffffffffffffffffffffff1916908160001a905350600a8561262f919061394b565b94506125ad565b8093505050505b919050565b606060008361264f612813565b61265991906133bc565b90508267ffffffffffffffff1667ffffffffffffffff81111561267f5761267e613588565b5b6040519080825280601f01601f1916602001820160405280156126b15781602001600182028036833780820191505090505b509150828160208401375092915050565b60008282151760011b905092915050565b6000818360401b17905092915050565b600082600052816020526040600020905092915050565b600080612705612813565b905082810135915050919050565b60008061271f8361243f565b67ffffffffffffffff1690506001811b8303915050919050565b600080612757846fffffffffffffffffffffffffffffffff16612824565b90506002838154811061276d5761276c61338d565b5b906000526020600020906003020191505b806fffffffffffffffffffffffffffffffff168260020160009054906101000a90046fffffffffffffffffffffffffffffffff166fffffffffffffffffffffffffffffffff161461280c5760028260000160009054906101000a900463ffffffff1663ffffffff16815481106127f7576127f661338d565b5b9060005260206000209060030201915061277e565b5092915050565b6000600236033560f01c3603905090565b600080600183018319169050600061283b8261243f565b67ffffffffffffffff16905083811c801581179350505050919050565b6000604051905090565b600080fd5b600080fd5b6000819050919050565b61287f8161286c565b811461288a57600080fd5b50565b60008135905061289c81612876565b92915050565b600080604083850312156128b9576128b8612862565b5b60006128c78582860161288d565b92505060206128d88582860161288d565b9150509250929050565b7f4e487b7100000000000000000000000000000000000000000000000000000000600052602160045260246000fd5b60038110612922576129216128e2565b5b50565b600081905061293382612911565b919050565b600061294382612925565b9050919050565b61295381612938565b82525050565b600060208201905061296e600083018461294a565b92915050565b6000819050919050565b600061298982612974565b9050919050565b6129998161297e565b82525050565b60006020820190506129b46000830184612990565b92915050565b6129c38161286c565b82525050565b60006020820190506129de60008301846129ba565b92915050565b600067ffffffffffffffff82169050919050565b6000819050919050565b6000612a1d612a18612a13846129e4565b6129f8565b6129e4565b9050919050565b612a2d81612a02565b82525050565b6000602082019050612a486000830184612a24565b92915050565b612a5781612974565b8114612a6257600080fd5b50565b600081359050612a7481612a4e565b92915050565b60008060408385031215612a9157612a90612862565b5b6000612a9f8582860161288d565b9250506020612ab085828601612a65565b9150509250929050565b600073ffffffffffffffffffffffffffffffffffffffff82169050919050565b6000612af5612af0612aeb84612aba565b6129f8565b612aba565b9050919050565b6000612b0782612ada565b9050919050565b6000612b1982612afc565b9050919050565b612b2981612b0e565b82525050565b6000602082019050612b446000830184612b20565b92915050565b6000612b5582612afc565b9050919050565b612b6581612b4a565b82525050565b6000602082019050612b806000830184612b5c565b92915050565b600081519050919050565b600082825260208201905092915050565b60005b83811015612bc0578082015181840152602081019050612ba5565b83811115612bcf576000848401525b50505050565b6000601f19601f8301169050919050565b6000612bf182612b86565b612bfb8185612b91565b9350612c0b818560208601612ba2565b612c1481612bd5565b840191505092915050565b60006020820190508181036000830152612c398184612be6565b905092915050565b60006fffffffffffffffffffffffffffffffff82169050919050565b612c6681612c41565b82525050565b612c758161297e565b82525050565b606082016000820151612c916000850182612c5d565b506020820151612ca46020850182612c5d565b506040820151612cb76040850182612c6c565b50505050565b600060c082019050612cd26000830185612c7b565b612cdf6060830184612c7b565b9392505050565b600081519050919050565b600082825260208201905092915050565b6000612d0d82612ce6565b612d178185612cf1565b9350612d27818560208601612ba2565b612d3081612bd5565b840191505092915050565b60006020820190508181036000830152612d558184612d02565b905092915050565b60008115159050919050565b612d7281612d5d565b8114612d7d57600080fd5b50565b600081359050612d8f81612d69565b92915050565b600080600060608486031215612dae57612dad612862565b5b6000612dbc8682870161288d565b9350506020612dcd86828701612a65565b9250506040612dde86828701612d80565b9150509250925092565b612df18161297e565b82525050565b6000602082019050612e0c6000830184612de8565b92915050565b6000612e1d82612afc565b9050919050565b612e2d81612e12565b82525050565b6000602082019050612e486000830184612e24565b92915050565b600060ff82169050919050565b6000612e76612e71612e6c84612e4e565b6129f8565b612e4e565b9050919050565b612e8681612e5b565b82525050565b6000602082019050612ea16000830184612e7d565b92915050565b6000612eb282612afc565b9050919050565b612ec281612ea7565b82525050565b6000602082019050612edd6000830184612eb9565b92915050565b612eec81612a02565b82525050565b6000602082019050612f076000830184612ee3565b92915050565b600060208284031215612f2357612f22612862565b5b6000612f318482850161288d565b91505092915050565b600063ffffffff82169050919050565b612f5381612f3a565b82525050565b612f6281612d5d565b82525050565b6000612f83612f7e612f7984612c41565b6129f8565b612c41565b9050919050565b612f9381612f68565b82525050565b612fa281612f68565b82525050565b600060a082019050612fbd6000830188612f4a565b612fca6020830187612f59565b612fd76040830186612990565b612fe46060830185612f8a565b612ff16080830184612f99565b9695505050505050565b600080fd5b600080fd5b600080fd5b60008083601f8401126130205761301f612ffb565b5b8235905067ffffffffffffffff81111561303d5761303c613000565b5b60208301915083600182028301111561305957613058613005565b5b9250929050565b6000806000806000806080878903121561307d5761307c612862565b5b600061308b89828a0161288d565b965050602061309c89828a01612d80565b955050604087013567ffffffffffffffff8111156130bd576130bc612867565b5b6130c989828a0161300a565b9450945050606087013567ffffffffffffffff8111156130ec576130eb612867565b5b6130f889828a0161300a565b92509250509295509295509295565b600060608201905061311c6000830186612e7d565b6131296020830185612990565b818103604083015261313b8184612d02565b9050949350505050565b600061315082612aba565b9050919050565b600061316282613145565b9050919050565b61317281613157565b811461317d57600080fd5b50565b60008151905061318f81613169565b92915050565b6000602082840312156131ab576131aa612862565b5b60006131b984828501613180565b91505092915050565b6131cb81612974565b82525050565b6000819050919050565b60006131f66131f16131ec846131d1565b6129f8565b61286c565b9050919050565b613206816131db565b82525050565b600060808201905061322160008301876129ba565b61322e60208301866131c2565b61323b60408301856131fd565b61324860608301846129ba565b95945050505050565b61325a81612974565b811461326557600080fd5b50565b60008151905061327781613251565b92915050565b60006020828403121561329357613292612862565b5b60006132a184828501613268565b91505092915050565b6000819050919050565b60006132cf6132ca6132c5846132aa565b6129f8565b61286c565b9050919050565b6132df816132b4565b82525050565b60006080820190506132fa60008301876129ba565b61330760208301866131c2565b61331460408301856132d6565b61332160608301846129ba565b95945050505050565b7f4e487b7100000000000000000000000000000000000000000000000000000000600052601160045260246000fd5b60006133648261286c565b915061336f8361286c565b9250828210156133825761338161332a565b5b828203905092915050565b7f4e487b7100000000000000000000000000000000000000000000000000000000600052603260045260246000fd5b60006133c78261286c565b91506133d28361286c565b9250827fffffffffffffffffffffffffffffffffffffffffffffffffffffffffffffffff038211156134075761340661332a565b5b828201905092915050565b7f4e487b7100000000000000000000000000000000000000000000000000000000600052601260045260246000fd5b600061344c826129e4565b9150613457836129e4565b92508261346757613466613412565b5b828206905092915050565b600081905092915050565b600061348882612b86565b6134928185613472565b93506134a2818560208601612ba2565b80840191505092915050565b7f2e00000000000000000000000000000000000000000000000000000000000000600082015250565b60006134e4600183613472565b91506134ef826134ae565b600182019050919050565b6000613506828661347d565b9150613511826134d7565b915061351d828561347d565b9150613528826134d7565b9150613534828461347d565b9150819050949350505050565b60008151905061355081612876565b92915050565b60006020828403121561356c5761356b612862565b5b600061357a84828501613541565b91505092915050565b600080fd5b7f4e487b7100000000000000000000000000000000000000000000000000000000600052604160045260246000fd5b6135c082612bd5565b810181811067ffffffffffffffff821117156135df576135de613588565b5b80604052505050565b60006135f2612858565b90506135fe82826135b7565b919050565b61360c81612c41565b811461361757600080fd5b50565b60008151905061362981613603565b92915050565b60006060828403121561364557613644613583565b5b61364f60606135e8565b9050600061365f84828501613268565b60008301525060206136738482850161361a565b60208301525060406136878482850161361a565b60408301525092915050565b6000606082840312156136a9576136a8612862565b5b60006136b78482850161362f565b91505092915050565b6136c981612974565b81146136d457600080fd5b50565b6000815190506136e6816136c0565b92915050565b6136f5816129e4565b811461370057600080fd5b50565b600081519050613712816136ec565b92915050565b60006040828403121561372e5761372d613583565b5b61373860406135e8565b90506000613748848285016136d7565b600083015250602061375c84828501613703565b60208301525092915050565b60006040828403121561377e5761377d612862565b5b600061378c84828501613718565b91505092915050565b60006137a082612c41565b91506137ab83612c41565b9250828210156137be576137bd61332a565b5b828203905092915050565b60006137d482612c41565b91506137df83612c41565b9250826fffffffffffffffffffffffffffffffff038211156138045761380361332a565b5b828201905092915050565b600081905092915050565b82818337600083830152505050565b6000613835838561380f565b935061384283858461381a565b82840190509392505050565b600061385b828486613829565b91508190509392505050565b60006138738385612cf1565b935061388083858461381a565b61388983612bd5565b840190509392505050565b600060408201905081810360008301526138af818688613867565b905081810360208301526138c4818486613867565b905095945050505050565b60006138da826129e4565b91506138e5836129e4565b9250828210156138f8576138f761332a565b5b828203905092915050565b600061390e8261286c565b91507fffffffffffffffffffffffffffffffffffffffffffffffffffffffffffffffff82036139405761393f61332a565b5b600182019050919050565b60006139568261286c565b91506139618361286c565b92508261397157613970613412565b5b828204905092915050565b60006139878261286c565b91506139928361286c565b9250826139a2576139a1613412565b5b82820690509291505056fea2646970667358221220acd178be37440e4fc20ed107d64bf9dcfe5b6f676b0f85251a2bc2ccc5e2b53864736f6c634300080f0033",
  "immutableReferences": {
    "648": [
      {
        "length": 32,
        "start": 2697
      },
      {
        "length": 32,
        "start": 8518
      }
    ],
    "651": [
      {
        "length": 32,
        "start": 2991
      },
      {
        "length": 32,
        "start": 3855
      },
      {
        "length": 32,
        "start": 5020
      },
      {
        "length": 32,
        "start": 8330
      }
    ],
    "655": [
      {
        "length": 32,
        "start": 3311
      },
      {
        "length": 32,
        "start": 5355
      },
      {
        "length": 32,
        "start": 7867
      }
    ],
    "659": [
      {
        "length": 32,
        "start": 1717
      },
      {
        "length": 32,
        "start": 7773
      },
      {
        "length": 32,
        "start": 8766
      }
    ],
    "663": [
      {
        "length": 32,
        "start": 6506
      },
      {
        "length": 32,
        "start": 6671
      },
      {
        "length": 32,
        "start": 6841
      },
      {
        "length": 32,
        "start": 7831
      }
    ],
    "667": [
      {
        "length": 32,
        "start": 3891
      },
      {
        "length": 32,
        "start": 6999
      }
    ],
    "2602": [
      {
        "length": 32,
        "start": 3932
      }
    ],
    "2605": [
      {
        "length": 32,
        "start": 3973
      }
    ],
    "2608": [
      {
        "length": 32,
        "start": 4014
      }
    ]
  },
  "source": "//SPDX-License-Identifier: MIT\npragma solidity ^0.8.15;\n\nimport { FaultDisputeGame as OpFaultDisputeGame } from \"@eth-optimism/contracts-bedrock/src/dispute/FaultDisputeGame.sol\";\nimport { IBigStepper } from \"@eth-optimism/contracts-bedrock/src/dispute/interfaces/IBigStepper.sol\";\nimport { L2OutputOracle } from \"@eth-optimism/contracts-bedrock/src/L1/L2OutputOracle.sol\";\nimport { BlockOracle } from \"@eth-optimism/contracts-bedrock/src/dispute/BlockOracle.sol\";\nimport { Claim, Duration } from \"@eth-optimism/contracts-bedrock/src/libraries/DisputeTypes.sol\";\n\ncontract FaultDisputeGame is OpFaultDisputeGame {\n    constructor(\n        Claim _absolutePrestate,\n        uint256 _maxGameDepth,\n        Duration _gameDuration,\n        IBigStepper _vm\n    ) OpFaultDisputeGame(_absolutePrestate, _maxGameDepth, _gameDuration, _vm, L2OutputOracle(address(0)), BlockOracle(address(0))) {}\n}\n",
  "sourcePath": "/Users/willem/repos/ProofBoy/contracts/FaultDisputeGame.sol",
  "compiler": {
    "name": "solc",
    "version": "0.8.15+commit.e14f2714.Emscripten.clang"
  },
  "schemaVersion": "3.4.14",
  "updatedAt": "2023-08-04T06:11:43.621Z",
  "networkType": "ethereum",
  "devdoc": {
    "kind": "dev",
    "methods": {
      "addLocalData(uint256,uint256)": {
        "params": {
          "_ident": "The local identifier of the data to post.",
          "_partOffset": "The offset of the data to post."
        }
      },
      "attack(uint256,bytes32)": {
        "params": {
          "_claim": "The `Claim` at the relative attack position.",
          "_parentIndex": "Index of the `Claim` to attack in `claimData`."
        }
      },
      "createdAt()": {
        "returns": {
          "createdAt_": "The timestamp that the DisputeGame contract was created at."
        }
      },
      "defend(uint256,bytes32)": {
        "params": {
          "_claim": "The `Claim` at the relative defense position.",
          "_parentIndex": "Index of the claim to defend in `claimData`."
        }
      },
      "extraData()": {
        "details": "`clones-with-immutable-args` argument #2",
        "returns": {
          "extraData_": "Any extra data supplied to the dispute game contract by the creator."
        }
      },
      "gameData()": {
        "returns": {
          "extraData_": "Any extra data supplied to the dispute game contract by the creator.",
          "gameType_": "The type of proof system being used.",
          "rootClaim_": "The root claim of the DisputeGame."
        }
      },
      "gameType()": {
        "details": "The reference impl should be entirely different depending on the type (fault, validity)      i.e. The game type should indicate the security model.",
        "returns": {
          "gameType_": "The type of proof system being used."
        }
      },
      "initialize()": {
        "details": "This function may only be called once."
      },
      "move(uint256,bytes32,bool)": {
        "params": {
          "_challengeIndex": "The index of the claim being moved against.",
          "_claim": "The claim at the next logical position in the game.",
          "_isAttack": "Whether or not the move is an attack or defense."
        }
      },
      "resolve()": {
        "details": "May only be called if the `status` is `IN_PROGRESS`.",
        "returns": {
          "status_": "The status of the game after resolution."
        }
      },
      "rootClaim()": {
        "details": "`clones-with-immutable-args` argument #1",
        "returns": {
          "rootClaim_": "The root claim of the DisputeGame."
        }
      },
      "step(uint256,bool,bytes,bytes)": {
        "details": "This function should point to a fault proof processor in order to execute      a step in the fault proof program on-chain. The interface of the fault proof      processor contract should be generic enough such that we can use different      fault proof VMs (MIPS, RiscV5, etc.)",
        "params": {
          "_claimIndex": "The index of the challenged claim within `claimData`.",
          "_isAttack": "Whether or not the step is an attack or a defense.",
          "_proof": "Proof to access memory leaf nodes in the VM.",
          "_stateData": "The stateData of the step is the preimage of the claim at the given        prestate, which is at `_stateIndex` if the move is an attack and `_claimIndex` if        the move is a defense. If the step is an attack on the first instruction, it is        the absolute prestate of the fault proof VM."
        }
      },
      "version()": {
        "returns": {
          "_0": "Semver contract version as a string."
        }
      }
    },
    "version": 1
  },
  "userdoc": {
    "errors": {
      "CannotDefendRootClaim()": [
        {
          "notice": "Thrown when a defense against the root claim is attempted."
        }
      ],
      "ClaimAlreadyExists()": [
        {
          "notice": "Thrown when a claim is attempting to be made that already exists."
        }
      ],
      "ClockNotExpired()": [
        {
          "notice": "Thrown when the game is attempted to be resolved too early."
        }
      ],
      "ClockTimeExceeded()": [
        {
          "notice": "Thrown when a move is attempted to be made after the clock has timed out."
        }
      ],
      "GameDepthExceeded()": [
        {
          "notice": "Thrown when a move is attempted to be made at or greater than the max depth of the game."
        }
      ],
      "GameNotInProgress()": [
        {
          "notice": "Thrown when an action that requires the game to be `IN_PROGRESS` is invoked when         the game is not in progress."
        }
      ],
      "InvalidParent()": [
        {
          "notice": "Thrown when a step is attempted above the maximum game depth."
        }
      ],
      "InvalidPrestate()": [
        {
          "notice": "Thrown when an invalid prestate is supplied to `step`."
        }
      ],
      "L1HeadTooOld()": [
        {
          "notice": "Thrown when a game is attempted to be initialized with an L1 head that does         not contain the disputed output root."
        }
      ],
      "ValidStep()": [
        {
          "notice": "Thrown when a step is made that computes the expected post state correctly."
        }
      ]
    },
    "events": {
      "Move(uint256,bytes32,address)": {
        "notice": "Emitted when a new claim is added to the DAG by `claimant`"
      },
      "Resolved(uint8)": {
        "notice": "Emitted when the game is resolved."
      }
    },
    "kind": "user",
    "methods": {
      "ABSOLUTE_PRESTATE()": {
        "notice": "The absolute prestate of the instruction trace. This is a constant that is defined         by the program that is being used to execute the trace."
      },
      "BLOCK_ORACLE()": {
        "notice": "The block hash oracle, used for loading block hashes further back         than the `BLOCKHASH` opcode allows as well as their estimated timestamps."
      },
      "GAME_DURATION()": {
        "notice": "The duration of the game."
      },
      "L2_OUTPUT_ORACLE()": {
        "notice": "The trusted L2OutputOracle contract."
      },
      "MAX_GAME_DEPTH()": {
        "notice": "The max depth of the game."
      },
      "VM()": {
        "notice": "An onchain VM that performs single instruction steps on a fault proof program trace."
      },
      "addLocalData(uint256,uint256)": {
        "notice": "Posts the requested local data to the VM's `PreimageOralce`."
      },
      "attack(uint256,bytes32)": {
        "notice": "Attack a disagreed upon `Claim`."
      },
      "bondManager()": {
        "notice": "Returns the address of the `BondManager` used."
      },
      "claimData(uint256)": {
        "notice": "An append-only array of all claims made during the dispute game."
      },
      "claimDataLen()": {
        "notice": "Returns the length of the `claimData` array."
      },
      "createdAt()": {
        "notice": "Returns the timestamp that the DisputeGame contract was created at."
      },
      "defend(uint256,bytes32)": {
        "notice": "Defend an agreed upon `Claim`."
      },
      "extraData()": {
        "notice": "Getter for the extra data."
      },
      "gameData()": {
        "notice": "A compliant implementation of this interface should return the components of the         game UUID's preimage provided in the cwia payload. The preimage of the UUID is         constructed as `keccak256(gameType . rootClaim . extraData)` where `.` denotes         concatenation."
      },
      "gameStart()": {
        "notice": "The starting timestamp of the game"
      },
      "gameType()": {
        "notice": "Getter for the game type."
      },
      "initialize()": {
        "notice": "Initializes the contract."
      },
      "l1BlockNumber()": {
        "notice": "The l1BlockNumber that Cannon was ran from to generate the root claim."
      },
      "l1Head()": {
        "notice": "Returns the L1 block hash at the time of the game's creation."
      },
      "l2BlockNumber()": {
        "notice": "The l2BlockNumber that the `rootClaim` commits to. The trace being bisected within         the game is from `l2BlockNumber - 1` -> `l2BlockNumber`."
      },
      "move(uint256,bytes32,bool)": {
        "notice": "Internal move function, used by both `attack` and `defend`."
      },
      "proposals()": {
        "notice": "The starting and disputed output proposal for the game. Includes information about         the output indexes in the `L2OutputOracle` and the output roots at the time of         game creation."
      },
      "resolve()": {
        "notice": "If all necessary information has been gathered, this function should mark the game         status as either `CHALLENGER_WINS` or `DEFENDER_WINS` and return the status of         the resolved game. It is at this stage that the bonds should be awarded to the         necessary parties."
      },
      "rootClaim()": {
        "notice": "Getter for the root claim."
      },
      "status()": {
        "notice": "Returns the current status of the game."
      },
      "step(uint256,bool,bytes,bytes)": {
        "notice": "Perform the final step via an on-chain fault proof processor"
      },
      "version()": {
        "notice": "Returns the full semver contract version."
      }
    },
    "version": 1
  }
}