{
  "contractName": "FaultDisputeGame",
  "abi": [
    {
      "inputs": [
        {
          "internalType": "Claim",
          "name": "_absolutePrestate",
          "type": "bytes32"
        },
        {
          "internalType": "uint256",
          "name": "_maxGameDepth",
          "type": "uint256"
        },
        {
          "internalType": "Duration",
          "name": "_gameDuration",
          "type": "uint64"
        },
        {
          "internalType": "contract IBigStepper",
          "name": "_vm",
          "type": "address"
        }
      ],
      "stateMutability": "nonpayable",
      "type": "constructor"
    },
    {
      "inputs": [],
      "name": "CannotDefendRootClaim",
      "type": "error"
    },
    {
      "inputs": [],
      "name": "ClaimAlreadyExists",
      "type": "error"
    },
    {
      "inputs": [],
      "name": "ClockNotExpired",
      "type": "error"
    },
    {
      "inputs": [],
      "name": "ClockTimeExceeded",
      "type": "error"
    },
    {
      "inputs": [],
      "name": "GameDepthExceeded",
      "type": "error"
    },
    {
      "inputs": [],
      "name": "GameNotInProgress",
      "type": "error"
    },
    {
      "inputs": [],
      "name": "InvalidParent",
      "type": "error"
    },
    {
      "inputs": [],
      "name": "InvalidPrestate",
      "type": "error"
    },
    {
      "inputs": [],
      "name": "ValidStep",
      "type": "error"
    },
    {
      "anonymous": false,
      "inputs": [
        {
          "indexed": true,
          "internalType": "uint256",
          "name": "parentIndex",
          "type": "uint256"
        },
        {
          "indexed": true,
          "internalType": "Claim",
          "name": "claim",
          "type": "bytes32"
        },
        {
          "indexed": true,
          "internalType": "address",
          "name": "claimant",
          "type": "address"
        }
      ],
      "name": "Move",
      "type": "event"
    },
    {
      "anonymous": false,
      "inputs": [
        {
          "indexed": true,
          "internalType": "enum GameStatus",
          "name": "status",
          "type": "uint8"
        }
      ],
      "name": "Resolved",
      "type": "event"
    },
    {
      "inputs": [],
      "name": "ABSOLUTE_PRESTATE",
      "outputs": [
        {
          "internalType": "Claim",
          "name": "",
          "type": "bytes32"
        }
      ],
      "stateMutability": "view",
      "type": "function"
    },
    {
      "inputs": [],
      "name": "GAME_DURATION",
      "outputs": [
        {
          "internalType": "Duration",
          "name": "",
          "type": "uint64"
        }
      ],
      "stateMutability": "view",
      "type": "function"
    },
    {
      "inputs": [],
      "name": "MAX_GAME_DEPTH",
      "outputs": [
        {
          "internalType": "uint256",
          "name": "",
          "type": "uint256"
        }
      ],
      "stateMutability": "view",
      "type": "function"
    },
    {
      "inputs": [],
      "name": "VM",
      "outputs": [
        {
          "internalType": "contract IBigStepper",
          "name": "",
          "type": "address"
        }
      ],
      "stateMutability": "view",
      "type": "function"
    },
    {
      "inputs": [],
      "name": "bondManager",
      "outputs": [
        {
          "internalType": "contract IBondManager",
          "name": "",
          "type": "address"
        }
      ],
      "stateMutability": "view",
      "type": "function"
    },
    {
      "inputs": [
        {
          "internalType": "uint256",
          "name": "",
          "type": "uint256"
        }
      ],
      "name": "claimData",
      "outputs": [
        {
          "internalType": "uint32",
          "name": "parentIndex",
          "type": "uint32"
        },
        {
          "internalType": "bool",
          "name": "countered",
          "type": "bool"
        },
        {
          "internalType": "Claim",
          "name": "claim",
          "type": "bytes32"
        },
        {
          "internalType": "Position",
          "name": "position",
          "type": "uint128"
        },
        {
          "internalType": "Clock",
          "name": "clock",
          "type": "uint128"
        }
      ],
      "stateMutability": "view",
      "type": "function"
    },
    {
      "inputs": [],
      "name": "gameStart",
      "outputs": [
        {
          "internalType": "Timestamp",
          "name": "",
          "type": "uint64"
        }
      ],
      "stateMutability": "view",
      "type": "function"
    },
    {
      "inputs": [],
      "name": "l1Head",
      "outputs": [
        {
          "internalType": "Hash",
          "name": "",
          "type": "bytes32"
        }
      ],
      "stateMutability": "view",
      "type": "function"
    },
    {
      "inputs": [],
      "name": "proposals",
      "outputs": [
        {
          "components": [
            {
              "internalType": "uint128",
              "name": "index",
              "type": "uint128"
            },
            {
              "internalType": "uint128",
              "name": "l2BlockNumber",
              "type": "uint128"
            },
            {
              "internalType": "Hash",
              "name": "outputRoot",
              "type": "bytes32"
            }
          ],
          "internalType": "struct IFaultDisputeGame.OutputProposal",
          "name": "starting",
          "type": "tuple"
        },
        {
          "components": [
            {
              "internalType": "uint128",
              "name": "index",
              "type": "uint128"
            },
            {
              "internalType": "uint128",
              "name": "l2BlockNumber",
              "type": "uint128"
            },
            {
              "internalType": "Hash",
              "name": "outputRoot",
              "type": "bytes32"
            }
          ],
          "internalType": "struct IFaultDisputeGame.OutputProposal",
          "name": "disputed",
          "type": "tuple"
        }
      ],
      "stateMutability": "view",
      "type": "function"
    },
    {
      "inputs": [],
      "name": "status",
      "outputs": [
        {
          "internalType": "enum GameStatus",
          "name": "",
          "type": "uint8"
        }
      ],
      "stateMutability": "view",
      "type": "function"
    },
    {
      "inputs": [],
      "name": "version",
      "outputs": [
        {
          "internalType": "string",
          "name": "",
          "type": "string"
        }
      ],
      "stateMutability": "view",
      "type": "function"
    },
    {
      "inputs": [
        {
          "internalType": "uint256",
          "name": "_claimIndex",
          "type": "uint256"
        },
        {
          "internalType": "bool",
          "name": "_isAttack",
          "type": "bool"
        },
        {
          "internalType": "bytes",
          "name": "_stateData",
          "type": "bytes"
        },
        {
          "internalType": "bytes",
          "name": "_proof",
          "type": "bytes"
        }
      ],
      "name": "step",
      "outputs": [],
      "stateMutability": "nonpayable",
      "type": "function"
    },
    {
      "inputs": [
        {
          "internalType": "uint256",
          "name": "_challengeIndex",
          "type": "uint256"
        },
        {
          "internalType": "Claim",
          "name": "_claim",
          "type": "bytes32"
        },
        {
          "internalType": "bool",
          "name": "_isAttack",
          "type": "bool"
        }
      ],
      "name": "move",
      "outputs": [],
      "stateMutability": "payable",
      "type": "function"
    },
    {
      "inputs": [
        {
          "internalType": "uint256",
          "name": "_parentIndex",
          "type": "uint256"
        },
        {
          "internalType": "Claim",
          "name": "_claim",
          "type": "bytes32"
        }
      ],
      "name": "attack",
      "outputs": [],
      "stateMutability": "payable",
      "type": "function"
    },
    {
      "inputs": [
        {
          "internalType": "uint256",
          "name": "_parentIndex",
          "type": "uint256"
        },
        {
          "internalType": "Claim",
          "name": "_claim",
          "type": "bytes32"
        }
      ],
      "name": "defend",
      "outputs": [],
      "stateMutability": "payable",
      "type": "function"
    },
    {
      "inputs": [
        {
          "internalType": "uint256",
          "name": "_ident",
          "type": "uint256"
        },
        {
          "internalType": "uint256",
          "name": "_partOffset",
          "type": "uint256"
        }
      ],
      "name": "addLocalData",
      "outputs": [],
      "stateMutability": "nonpayable",
      "type": "function"
    },
    {
      "inputs": [],
      "name": "l2BlockNumber",
      "outputs": [
        {
          "internalType": "uint256",
          "name": "l2BlockNumber_",
          "type": "uint256"
        }
      ],
      "stateMutability": "pure",
      "type": "function"
    },
    {
      "inputs": [],
      "name": "l1BlockNumber",
      "outputs": [
        {
          "internalType": "uint256",
          "name": "l1BlockNumber_",
          "type": "uint256"
        }
      ],
      "stateMutability": "pure",
      "type": "function"
    },
    {
      "inputs": [],
      "name": "gameType",
      "outputs": [
        {
          "internalType": "GameType",
          "name": "gameType_",
          "type": "uint8"
        }
      ],
      "stateMutability": "pure",
      "type": "function"
    },
    {
      "inputs": [],
      "name": "createdAt",
      "outputs": [
        {
          "internalType": "Timestamp",
          "name": "createdAt_",
          "type": "uint64"
        }
      ],
      "stateMutability": "view",
      "type": "function"
    },
    {
      "inputs": [],
      "name": "resolve",
      "outputs": [
        {
          "internalType": "enum GameStatus",
          "name": "status_",
          "type": "uint8"
        }
      ],
      "stateMutability": "nonpayable",
      "type": "function"
    },
    {
      "inputs": [],
      "name": "rootClaim",
      "outputs": [
        {
          "internalType": "Claim",
          "name": "rootClaim_",
          "type": "bytes32"
        }
      ],
      "stateMutability": "pure",
      "type": "function"
    },
    {
      "inputs": [],
      "name": "extraData",
      "outputs": [
        {
          "internalType": "bytes",
          "name": "extraData_",
          "type": "bytes"
        }
      ],
      "stateMutability": "pure",
      "type": "function"
    },
    {
      "inputs": [],
      "name": "gameData",
      "outputs": [
        {
          "internalType": "GameType",
          "name": "gameType_",
          "type": "uint8"
        },
        {
          "internalType": "Claim",
          "name": "rootClaim_",
          "type": "bytes32"
        },
        {
          "internalType": "bytes",
          "name": "extraData_",
          "type": "bytes"
        }
      ],
      "stateMutability": "pure",
      "type": "function"
    },
    {
      "inputs": [],
      "name": "initialize",
      "outputs": [],
      "stateMutability": "nonpayable",
      "type": "function"
    },
    {
      "inputs": [],
      "name": "claimDataLen",
      "outputs": [
        {
          "internalType": "uint256",
          "name": "len_",
          "type": "uint256"
        }
      ],
      "stateMutability": "view",
      "type": "function"
    }
  ],
  "bytecode": "0x6101606040523480156200001257600080fd5b5060405162003496380380620034968339818101604052810190620000389190620001fe565b600080600682608081815250508160a081815250508060c081815250505050508360e081815250508261010081815250508167ffffffffffffffff166101208167ffffffffffffffff16815250508073ffffffffffffffffffffffffffffffffffffffff166101408173ffffffffffffffffffffffffffffffffffffffff16815250505050505062000270565b600080fd5b6000819050919050565b620000df81620000ca565b8114620000eb57600080fd5b50565b600081519050620000ff81620000d4565b92915050565b6000819050919050565b6200011a8162000105565b81146200012657600080fd5b50565b6000815190506200013a816200010f565b92915050565b600067ffffffffffffffff82169050919050565b6200015f8162000140565b81146200016b57600080fd5b50565b6000815190506200017f8162000154565b92915050565b600073ffffffffffffffffffffffffffffffffffffffff82169050919050565b6000620001b28262000185565b9050919050565b6000620001c682620001a5565b9050919050565b620001d881620001b9565b8114620001e457600080fd5b50565b600081519050620001f881620001cd565b92915050565b600080600080608085870312156200021b576200021a620000c5565b5b60006200022b87828801620000ee565b94505060206200023e8782880162000129565b935050604062000251878288016200016e565b92505060606200026487828801620001e7565b91505092959194509250565b60805160a05160c05160e0516101005161012051610140516131936200030360003960008181610629015281816118d80152611c95015260008181610c630152818161143b0152611912015260008181610b2301528181610e83015281816112ec0152611ae10152600081816109fd0152611b9d01526000610efe01526000610ed501526000610eac01526131936000f3fe6080604052600436106101815760003560e01c80636361506d116100d1578063bcef3b551161008a578063c6f0308c11610064578063c6f0308c146104f6578063cf09e0d014610537578063d8cc1a3c14610562578063fa24f7431461058b57610181565b8063bcef3b5514610484578063c31b29ce146104af578063c55cd0c7146104da57610181565b80636361506d146103965780638129fc1c146103c15780638980e0cc146103d85780638b85902b14610403578063929312981461042e578063bbdc02db1461045957610181565b806335fef5671161013e57806354fd4d501161011857806354fd4d50146102f857806355ef20e614610323578063609d33341461034f578063632247ea1461037a57610181565b806335fef56714610286578063363cc427146102a25780634778efe8146102cd57610181565b80631e27052a14610186578063200d2ed2146101af578063266198f9146101da5780632810e1d614610205578063298c9005146102305780633218b99d1461025b575b600080fd5b34801561019257600080fd5b506101ad60048036038101906101a891906122ef565b6105b8565b005b3480156101bb57600080fd5b506101c46109e8565b6040516101d191906123a6565b60405180910390f35b3480156101e657600080fd5b506101ef6109fb565b6040516101fc91906123ec565b60405180910390f35b34801561021157600080fd5b5061021a610a1f565b60405161022791906123a6565b60405180910390f35b34801561023c57600080fd5b50610245610e22565b6040516102529190612416565b60405180910390f35b34801561026757600080fd5b50610270610e33565b60405161027d9190612480565b60405180910390f35b6102a0600480360381019061029b91906124c7565b610e4b565b005b3480156102ae57600080fd5b506102b7610e5b565b6040516102c4919061257c565b60405180910390f35b3480156102d957600080fd5b506102e2610e81565b6040516102ef9190612416565b60405180910390f35b34801561030457600080fd5b5061030d610ea5565b60405161031a9190612630565b60405180910390f35b34801561032f57600080fd5b50610338610f48565b6040516103469291906126ce565b60405180910390f35b34801561035b57600080fd5b506103646110aa565b604051610371919061274c565b60405180910390f35b610394600480360381019061038f91906127a6565b6110bd565b005b3480156103a257600080fd5b506103ab6116fc565b6040516103b89190612808565b60405180910390f35b3480156103cd57600080fd5b506103d6611702565b005b3480156103e457600080fd5b506103ed6118b8565b6040516103fa9190612416565b60405180910390f35b34801561040f57600080fd5b506104186118c5565b6040516104259190612416565b60405180910390f35b34801561043a57600080fd5b506104436118d6565b6040516104509190612844565b60405180910390f35b34801561046557600080fd5b5061046e6118fa565b60405161047b919061289d565b60405180910390f35b34801561049057600080fd5b506104996118ff565b6040516104a691906123ec565b60405180910390f35b3480156104bb57600080fd5b506104c4611910565b6040516104d191906128c7565b60405180910390f35b6104f460048036038101906104ef91906124c7565b611934565b005b34801561050257600080fd5b5061051d600480360381019061051891906128e2565b611944565b60405161052e95949392919061297d565b60405180910390f35b34801561054357600080fd5b5061054c6119df565b6040516105599190612480565b60405180910390f35b34801561056e57600080fd5b5061058960048036038101906105849190612a35565b6119fc565b005b34801561059757600080fd5b506105a0611e1d565b6040516105af93929190612adc565b60405180910390f35b600060028111156105cc576105cb61232f565b5b600060089054906101000a900460ff1660028111156105ee576105ed61232f565b5b14610625576040517f67fe195000000000000000000000000000000000000000000000000000000000815260040160405180910390fd5b60007f000000000000000000000000000000000000000000000000000000000000000073ffffffffffffffffffffffffffffffffffffffff16637dc0d1d06040518163ffffffff1660e01b8152600401602060405180830381865afa158015610692573d6000803e3d6000fd5b505050506040513d601f19601f820116820180604052508101906106b69190612b6a565b90506001830361074b578073ffffffffffffffffffffffffffffffffffffffff16639a1f5e7f846001546020866040518563ffffffff1660e01b81526004016107029493929190612be1565b6020604051808303816000875af1158015610721573d6000803e3d6000fd5b505050506040513d601f19601f820116820180604052508101906107459190612c52565b506109e3565b600283036107e4578073ffffffffffffffffffffffffffffffffffffffff16639a1f5e7f846003600001600101546020866040518563ffffffff1660e01b815260040161079b9493929190612be1565b6020604051808303816000875af11580156107ba573d6000803e3d6000fd5b505050506040513d601f19601f820116820180604052508101906107de9190612c52565b506109e2565b6003830361087d578073ffffffffffffffffffffffffffffffffffffffff16639a1f5e7f846003600201600101546020866040518563ffffffff1660e01b81526004016108349493929190612be1565b6020604051808303816000875af1158015610853573d6000803e3d6000fd5b505050506040513d601f19601f820116820180604052508101906108779190612c52565b506109e1565b6004830361094b578073ffffffffffffffffffffffffffffffffffffffff16639a1f5e7f8460c0600360000160000160109054906101000a90046fffffffffffffffffffffffffffffffff166fffffffffffffffffffffffffffffffff16901b60001b6008866040518563ffffffff1660e01b81526004016109029493929190612cba565b6020604051808303816000875af1158015610921573d6000803e3d6000fd5b505050506040513d601f19601f820116820180604052508101906109459190612c52565b506109e0565b600583036109df578073ffffffffffffffffffffffffffffffffffffffff16639a1f5e7f8460c046901b60001b6008866040518563ffffffff1660e01b815260040161099a9493929190612cba565b6020604051808303816000875af11580156109b9573d6000803e3d6000fd5b505050506040513d601f19601f820116820180604052508101906109dd9190612c52565b505b5b5b5b5b505050565b600060089054906101000a900460ff1681565b7f000000000000000000000000000000000000000000000000000000000000000081565b6000806002811115610a3457610a3361232f565b5b600060089054906101000a900460ff166002811115610a5657610a5561232f565b5b14610a8d576040517f67fe195000000000000000000000000000000000000000000000000000000000815260040160405180910390fd5b60006001600280549050610aa19190612d2e565b905060006fffffffffffffffffffffffffffffffff8016905060008290505b67ffffffffffffffff8016811015610b9f57600060028281548110610ae857610ae7612d62565b5b90600052602060002090600302019050816001900391508060000160049054906101000a900460ff1615610b1c5750610b9a565b6000610b837f00000000000000000000000000000000000000000000000000000000000000008360020160009054906101000a90046fffffffffffffffffffffffffffffffff166fffffffffffffffffffffffffffffffff16611e4590919063ffffffff16565b905083811015610b97578093506001830194505b50505b610ac0565b50600060028381548110610bb657610bb5612d62565b5b9060005260206000209060030201905060008160000160009054906101000a900463ffffffff1663ffffffff169050600063ffffffff80168214610c3b5760028281548110610c0857610c07612d62565b5b906000526020600020906003020160020160109054906101000a90046fffffffffffffffffffffffffffffffff16610c5d565b8260020160109054906101000a90046fffffffffffffffffffffffffffffffff165b905060017f000000000000000000000000000000000000000000000000000000000000000067ffffffffffffffff16901c67ffffffffffffffff16610cb3826fffffffffffffffffffffffffffffffff16611e79565b67ffffffffffffffff1642610cc89190612d2e565b610ce3836fffffffffffffffffffffffffffffffff16611e89565b67ffffffffffffffff16610cf79190612d91565b11610d2e576040517ff2440b5300000000000000000000000000000000000000000000000000000000815260040160405180910390fd5b60006002610d6d8560020160009054906101000a90046fffffffffffffffffffffffffffffffff166fffffffffffffffffffffffffffffffff16611e96565b610d779190612e16565b67ffffffffffffffff16148015610da057506fffffffffffffffffffffffffffffffff80168414155b15610dae5760029550610db3565b600195505b85600060086101000a81548160ff02191690836002811115610dd857610dd761232f565b5b021790556002811115610dee57610ded61232f565b5b7f5e186f09b9c93491f14e277eea7faa5de6a2d4bda75a79af7a3684fbfb42da6060405160405180910390a2505050505090565b6000610e2e6040611f20565b905090565b60008054906101000a900467ffffffffffffffff1681565b610e57828260006110bd565b5050565b600060099054906101000a900473ffffffffffffffffffffffffffffffffffffffff1681565b7f000000000000000000000000000000000000000000000000000000000000000081565b6060610ed07f0000000000000000000000000000000000000000000000000000000000000000611f39565b610ef97f0000000000000000000000000000000000000000000000000000000000000000611f39565b610f227f0000000000000000000000000000000000000000000000000000000000000000611f39565b604051602001610f3493929190612ecf565b604051602081830303815290604052905090565b6003806000016040518060600160405290816000820160009054906101000a90046fffffffffffffffffffffffffffffffff166fffffffffffffffffffffffffffffffff166fffffffffffffffffffffffffffffffff1681526020016000820160109054906101000a90046fffffffffffffffffffffffffffffffff166fffffffffffffffffffffffffffffffff166fffffffffffffffffffffffffffffffff16815260200160018201548152505090806002016040518060600160405290816000820160009054906101000a90046fffffffffffffffffffffffffffffffff166fffffffffffffffffffffffffffffffff166fffffffffffffffffffffffffffffffff1681526020016000820160109054906101000a90046fffffffffffffffffffffffffffffffff166fffffffffffffffffffffffffffffffff166fffffffffffffffffffffffffffffffff168152602001600182015481525050905082565b60606110b860206040612099565b905090565b600060028111156110d1576110d061232f565b5b600060089054906101000a900460ff1660028111156110f3576110f261232f565b5b1461112a576040517f67fe195000000000000000000000000000000000000000000000000000000000815260040160405180910390fd5b600083148015611138575080155b1561116f576040517fa42637bc00000000000000000000000000000000000000000000000000000000815260040160405180910390fd5b60006002848154811061118557611184612d62565b5b90600052602060002090600302016040518060a00160405290816000820160009054906101000a900463ffffffff1663ffffffff1663ffffffff1681526020016000820160049054906101000a900460ff16151515158152602001600182015481526020016002820160009054906101000a90046fffffffffffffffffffffffffffffffff166fffffffffffffffffffffffffffffffff166fffffffffffffffffffffffffffffffff1681526020016002820160109054906101000a90046fffffffffffffffffffffffffffffffff166fffffffffffffffffffffffffffffffff166fffffffffffffffffffffffffffffffff1681525050905060016002858154811061129557611294612d62565b5b906000526020600020906003020160000160046101000a81548160ff02191690831515021790555060006112e88383606001516fffffffffffffffffffffffffffffffff1661211990919063ffffffff16565b90507f0000000000000000000000000000000000000000000000000000000000000000611326826fffffffffffffffffffffffffffffffff16611e96565b67ffffffffffffffff161115611368576040517f56f57b2b00000000000000000000000000000000000000000000000000000000815260040160405180910390fd5b600063ffffffff8016836000015163ffffffff16146113d0576002836000015163ffffffff168154811061139f5761139e612d62565b5b906000526020600020906003020160020160109054906101000a90046fffffffffffffffffffffffffffffffff1690505b60006113f184608001516fffffffffffffffffffffffffffffffff16611e79565b67ffffffffffffffff1642611417846fffffffffffffffffffffffffffffffff16611e89565b67ffffffffffffffff1661142b9190612d91565b6114359190612d2e565b905060017f000000000000000000000000000000000000000000000000000000000000000067ffffffffffffffff16901c67ffffffffffffffff168167ffffffffffffffff1611156114b3576040517f3381d11400000000000000000000000000000000000000000000000000000000815260040160405180910390fd5b60006114bf824261212a565b905060006114d6858961213a90919063ffffffff16565b90506007600082815260200190815260200160002060009054906101000a900460ff1615611530576040517f80497e3b00000000000000000000000000000000000000000000000000000000815260040160405180910390fd5b60016007600083815260200190815260200160002060006101000a81548160ff02191690831515021790555060026040518060a001604052808b63ffffffff1681526020016000151581526020018a8152602001876fffffffffffffffffffffffffffffffff168152602001846fffffffffffffffffffffffffffffffff16815250908060018154018082558091505060019003906000526020600020906003020160009091909190915060008201518160000160006101000a81548163ffffffff021916908363ffffffff16021790555060208201518160000160046101000a81548160ff0219169083151502179055506040820151816001015560608201518160020160006101000a8154816fffffffffffffffffffffffffffffffff02191690836fffffffffffffffffffffffffffffffff16021790555060808201518160020160106101000a8154816fffffffffffffffffffffffffffffffff02191690836fffffffffffffffffffffffffffffffff16021790555050503373ffffffffffffffffffffffffffffffffffffffff16888a7f9b3245740ec3b155098a55be84957a4da13eaf7f14a8bc6f53126c0b9350f2be60405160405180910390a4505050505050505050565b60015481565b426000806101000a81548167ffffffffffffffff021916908367ffffffffffffffff16021790555060008060086101000a81548160ff0219169083600281111561174f5761174e61232f565b5b021790555060026040518060a0016040528063ffffffff8016815260200160001515815260200161177e6118ff565b815260200160016fffffffffffffffffffffffffffffffff1681526020016117a760004261212a565b6fffffffffffffffffffffffffffffffff16815250908060018154018082558091505060019003906000526020600020906003020160009091909190915060008201518160000160006101000a81548163ffffffff021916908363ffffffff16021790555060208201518160000160046101000a81548160ff0219169083151502179055506040820151816001015560608201518160020160006101000a8154816fffffffffffffffffffffffffffffffff02191690836fffffffffffffffffffffffffffffffff16021790555060808201518160020160106101000a8154816fffffffffffffffffffffffffffffffff02191690836fffffffffffffffffffffffffffffffff1602179055505050565b6000600280549050905090565b60006118d16020611f20565b905090565b7f000000000000000000000000000000000000000000000000000000000000000081565b600090565b600061190b6000612151565b905090565b7f000000000000000000000000000000000000000000000000000000000000000081565b611940828260016110bd565b5050565b6002818154811061195457600080fd5b90600052602060002090600302016000915090508060000160009054906101000a900463ffffffff16908060000160049054906101000a900460ff16908060010154908060020160009054906101000a90046fffffffffffffffffffffffffffffffff16908060020160109054906101000a90046fffffffffffffffffffffffffffffffff16905085565b60008060009054906101000a900467ffffffffffffffff16905090565b60006002811115611a1057611a0f61232f565b5b600060089054906101000a900460ff166002811115611a3257611a3161232f565b5b14611a69576040517f67fe195000000000000000000000000000000000000000000000000000000000815260040160405180910390fd5b600060028781548110611a7f57611a7e612d62565b5b9060005260206000209060030201905060008160020160009054906101000a90046fffffffffffffffffffffffffffffffff1690506000611adb88836fffffffffffffffffffffffffffffffff1661211990919063ffffffff16565b905060017f0000000000000000000000000000000000000000000000000000000000000000611b0a9190612d91565b611b25826fffffffffffffffffffffffffffffffff16611e96565b67ffffffffffffffff1614611b66576040517f5f53dd9800000000000000000000000000000000000000000000000000000000815260040160405180910390fd5b6000808915611c02576000611b8c846fffffffffffffffffffffffffffffffff1661216a565b67ffffffffffffffff1603611bc3577f00000000000000000000000000000000000000000000000000000000000000009150611bfa565b611bf3600185611bd39190612f16565b8660000160009054906101000a900463ffffffff1663ffffffff16612190565b6001015491505b849050611c3c565b84600101549150611c39600185611c199190612f4a565b8660000160009054906101000a900463ffffffff1663ffffffff16612190565b90505b818989604051611c4d929190612fcf565b604051809103902014611c8c576040517f696550ff00000000000000000000000000000000000000000000000000000000815260040160405180910390fd5b600081600101547f000000000000000000000000000000000000000000000000000000000000000073ffffffffffffffffffffffffffffffffffffffff1663f8e0cb968c8c8c8c6040518563ffffffff1660e01b8152600401611cf29493929190613015565b6020604051808303816000875af1158015611d11573d6000803e3d6000fd5b505050506040513d601f19601f82011682018060405250810190611d359190612c52565b1490506000806002611d788560020160009054906101000a90046fffffffffffffffffffffffffffffffff166fffffffffffffffffffffffffffffffff16611e96565b611d93896fffffffffffffffffffffffffffffffff16611e96565b611d9d9190613050565b611da79190612e16565b67ffffffffffffffff1614905081151581151503611df1576040517ffb4e40dd00000000000000000000000000000000000000000000000000000000815260040160405180910390fd5b60018760000160046101000a81548160ff02191690831515021790555050505050505050505050505050565b6000806060611e2a6118fa565b9250611e346118ff565b9150611e3e6110aa565b9050909192565b600080611e5184611e96565b67ffffffffffffffff1690508083036001841b600180831b0386831b17039250505092915050565b60008160c01b60c01c9050919050565b60008160401c9050919050565b600081811c67ffffffffffffffff1060061b8117905081811c63ffffffff1060051b8117905081811c91508160011c821791508160021c821791508160041c821791508160081c821791508160101c821791507e09010a0d15021d0b0e10121619031e080c141c0f111807131b17061a05041f6307c4acdd60e01b830260fb1c1a81179050919050565b600080611f2b61226a565b905082810135915050919050565b606060008203611f80576040518060400160405280600181526020017f30000000000000000000000000000000000000000000000000000000000000008152509050612094565b600082905060005b60008214611fb2578080611f9b90613084565b915050600a82611fab91906130cc565b9150611f88565b60008167ffffffffffffffff811115611fce57611fcd6130fd565b5b6040519080825280601f01601f1916602001820160405280156120005781602001600182028036833780820191505090505b5090505b6000851461208d576001826120199190612d2e565b9150600a85612028919061312c565b60306120349190612d91565b60f81b81838151811061204a57612049612d62565b5b60200101907effffffffffffffffffffffffffffffffffffffffffffffffffffffffffffff1916908160001a905350600a8561208691906130cc565b9450612004565b8093505050505b919050565b60606000836120a661226a565b6120b09190612d91565b90508267ffffffffffffffff1667ffffffffffffffff8111156120d6576120d56130fd565b5b6040519080825280601f01601f1916602001820160405280156121085781602001600182028036833780820191505090505b509150828160208401375092915050565b60008282151760011b905092915050565b6000818360401b17905092915050565b600082600052816020526040600020905092915050565b60008061215c61226a565b905082810135915050919050565b60008061217683611e96565b67ffffffffffffffff1690506001811b8303915050919050565b6000806121ae846fffffffffffffffffffffffffffffffff1661227b565b9050600283815481106121c4576121c3612d62565b5b906000526020600020906003020191505b806fffffffffffffffffffffffffffffffff168260020160009054906101000a90046fffffffffffffffffffffffffffffffff166fffffffffffffffffffffffffffffffff16146122635760028260000160009054906101000a900463ffffffff1663ffffffff168154811061224e5761224d612d62565b5b906000526020600020906003020191506121d5565b5092915050565b6000600236033560f01c3603905090565b600080600183018319169050600061229282611e96565b67ffffffffffffffff16905083811c801581179350505050919050565b600080fd5b600080fd5b6000819050919050565b6122cc816122b9565b81146122d757600080fd5b50565b6000813590506122e9816122c3565b92915050565b60008060408385031215612306576123056122af565b5b6000612314858286016122da565b9250506020612325858286016122da565b9150509250929050565b7f4e487b7100000000000000000000000000000000000000000000000000000000600052602160045260246000fd5b6003811061236f5761236e61232f565b5b50565b60008190506123808261235e565b919050565b600061239082612372565b9050919050565b6123a081612385565b82525050565b60006020820190506123bb6000830184612397565b92915050565b6000819050919050565b60006123d6826123c1565b9050919050565b6123e6816123cb565b82525050565b600060208201905061240160008301846123dd565b92915050565b612410816122b9565b82525050565b600060208201905061242b6000830184612407565b92915050565b600067ffffffffffffffff82169050919050565b6000819050919050565b600061246a61246561246084612431565b612445565b612431565b9050919050565b61247a8161244f565b82525050565b60006020820190506124956000830184612471565b92915050565b6124a4816123c1565b81146124af57600080fd5b50565b6000813590506124c18161249b565b92915050565b600080604083850312156124de576124dd6122af565b5b60006124ec858286016122da565b92505060206124fd858286016124b2565b9150509250929050565b600073ffffffffffffffffffffffffffffffffffffffff82169050919050565b600061254261253d61253884612507565b612445565b612507565b9050919050565b600061255482612527565b9050919050565b600061256682612549565b9050919050565b6125768161255b565b82525050565b6000602082019050612591600083018461256d565b92915050565b600081519050919050565b600082825260208201905092915050565b60005b838110156125d15780820151818401526020810190506125b6565b838111156125e0576000848401525b50505050565b6000601f19601f8301169050919050565b600061260282612597565b61260c81856125a2565b935061261c8185602086016125b3565b612625816125e6565b840191505092915050565b6000602082019050818103600083015261264a81846125f7565b905092915050565b60006fffffffffffffffffffffffffffffffff82169050919050565b61267781612652565b82525050565b612686816123cb565b82525050565b6060820160008201516126a2600085018261266e565b5060208201516126b5602085018261266e565b5060408201516126c8604085018261267d565b50505050565b600060c0820190506126e3600083018561268c565b6126f0606083018461268c565b9392505050565b600081519050919050565b600082825260208201905092915050565b600061271e826126f7565b6127288185612702565b93506127388185602086016125b3565b612741816125e6565b840191505092915050565b600060208201905081810360008301526127668184612713565b905092915050565b60008115159050919050565b6127838161276e565b811461278e57600080fd5b50565b6000813590506127a08161277a565b92915050565b6000806000606084860312156127bf576127be6122af565b5b60006127cd868287016122da565b93505060206127de868287016124b2565b92505060406127ef86828701612791565b9150509250925092565b612802816123cb565b82525050565b600060208201905061281d60008301846127f9565b92915050565b600061282e82612549565b9050919050565b61283e81612823565b82525050565b60006020820190506128596000830184612835565b92915050565b600060ff82169050919050565b600061288761288261287d8461285f565b612445565b61285f565b9050919050565b6128978161286c565b82525050565b60006020820190506128b2600083018461288e565b92915050565b6128c18161244f565b82525050565b60006020820190506128dc60008301846128b8565b92915050565b6000602082840312156128f8576128f76122af565b5b6000612906848285016122da565b91505092915050565b600063ffffffff82169050919050565b6129288161290f565b82525050565b6129378161276e565b82525050565b600061295861295361294e84612652565b612445565b612652565b9050919050565b6129688161293d565b82525050565b6129778161293d565b82525050565b600060a082019050612992600083018861291f565b61299f602083018761292e565b6129ac60408301866123dd565b6129b9606083018561295f565b6129c6608083018461296e565b9695505050505050565b600080fd5b600080fd5b600080fd5b60008083601f8401126129f5576129f46129d0565b5b8235905067ffffffffffffffff811115612a1257612a116129d5565b5b602083019150836001820283011115612a2e57612a2d6129da565b5b9250929050565b60008060008060008060808789031215612a5257612a516122af565b5b6000612a6089828a016122da565b9650506020612a7189828a01612791565b955050604087013567ffffffffffffffff811115612a9257612a916122b4565b5b612a9e89828a016129df565b9450945050606087013567ffffffffffffffff811115612ac157612ac06122b4565b5b612acd89828a016129df565b92509250509295509295509295565b6000606082019050612af1600083018661288e565b612afe60208301856123dd565b8181036040830152612b108184612713565b9050949350505050565b6000612b2582612507565b9050919050565b6000612b3782612b1a565b9050919050565b612b4781612b2c565b8114612b5257600080fd5b50565b600081519050612b6481612b3e565b92915050565b600060208284031215612b8057612b7f6122af565b5b6000612b8e84828501612b55565b91505092915050565b612ba0816123c1565b82525050565b6000819050919050565b6000612bcb612bc6612bc184612ba6565b612445565b6122b9565b9050919050565b612bdb81612bb0565b82525050565b6000608082019050612bf66000830187612407565b612c036020830186612b97565b612c106040830185612bd2565b612c1d6060830184612407565b95945050505050565b612c2f816123c1565b8114612c3a57600080fd5b50565b600081519050612c4c81612c26565b92915050565b600060208284031215612c6857612c676122af565b5b6000612c7684828501612c3d565b91505092915050565b6000819050919050565b6000612ca4612c9f612c9a84612c7f565b612445565b6122b9565b9050919050565b612cb481612c89565b82525050565b6000608082019050612ccf6000830187612407565b612cdc6020830186612b97565b612ce96040830185612cab565b612cf66060830184612407565b95945050505050565b7f4e487b7100000000000000000000000000000000000000000000000000000000600052601160045260246000fd5b6000612d39826122b9565b9150612d44836122b9565b925082821015612d5757612d56612cff565b5b828203905092915050565b7f4e487b7100000000000000000000000000000000000000000000000000000000600052603260045260246000fd5b6000612d9c826122b9565b9150612da7836122b9565b9250827fffffffffffffffffffffffffffffffffffffffffffffffffffffffffffffffff03821115612ddc57612ddb612cff565b5b828201905092915050565b7f4e487b7100000000000000000000000000000000000000000000000000000000600052601260045260246000fd5b6000612e2182612431565b9150612e2c83612431565b925082612e3c57612e3b612de7565b5b828206905092915050565b600081905092915050565b6000612e5d82612597565b612e678185612e47565b9350612e778185602086016125b3565b80840191505092915050565b7f2e00000000000000000000000000000000000000000000000000000000000000600082015250565b6000612eb9600183612e47565b9150612ec482612e83565b600182019050919050565b6000612edb8286612e52565b9150612ee682612eac565b9150612ef28285612e52565b9150612efd82612eac565b9150612f098284612e52565b9150819050949350505050565b6000612f2182612652565b9150612f2c83612652565b925082821015612f3f57612f3e612cff565b5b828203905092915050565b6000612f5582612652565b9150612f6083612652565b9250826fffffffffffffffffffffffffffffffff03821115612f8557612f84612cff565b5b828201905092915050565b600081905092915050565b82818337600083830152505050565b6000612fb68385612f90565b9350612fc3838584612f9b565b82840190509392505050565b6000612fdc828486612faa565b91508190509392505050565b6000612ff48385612702565b9350613001838584612f9b565b61300a836125e6565b840190509392505050565b60006040820190508181036000830152613030818688612fe8565b90508181036020830152613045818486612fe8565b905095945050505050565b600061305b82612431565b915061306683612431565b92508282101561307957613078612cff565b5b828203905092915050565b600061308f826122b9565b91507fffffffffffffffffffffffffffffffffffffffffffffffffffffffffffffffff82036130c1576130c0612cff565b5b600182019050919050565b60006130d7826122b9565b91506130e2836122b9565b9250826130f2576130f1612de7565b5b828204905092915050565b7f4e487b7100000000000000000000000000000000000000000000000000000000600052604160045260246000fd5b6000613137826122b9565b9150613142836122b9565b92508261315257613151612de7565b5b82820690509291505056fea26469706673582212200c6d848c0c5c15fae32cc44e10b57f76f92a6863450ab8f1ebfbb27eeff7c24b64736f6c634300080f0033",
  "immutableReferences": {
    "3602": [
      {
        "length": 32,
        "start": 3756
      }
    ],
    "3605": [
      {
        "length": 32,
        "start": 3797
      }
    ],
    "3608": [
      {
        "length": 32,
        "start": 3838
      }
    ],
    "7334": [
      {
        "length": 32,
        "start": 2557
      },
      {
        "length": 32,
        "start": 7069
      }
    ],
    "7337": [
      {
        "length": 32,
        "start": 2851
      },
      {
        "length": 32,
        "start": 3715
      },
      {
        "length": 32,
        "start": 4844
      },
      {
        "length": 32,
        "start": 6881
      }
    ],
    "7341": [
      {
        "length": 32,
        "start": 3171
      },
      {
        "length": 32,
        "start": 5179
      },
      {
        "length": 32,
        "start": 6418
      }
    ],
    "7345": [
      {
        "length": 32,
        "start": 1577
      },
      {
        "length": 32,
        "start": 6360
      },
      {
        "length": 32,
        "start": 7317
      }
    ]
  },
  "source": "//SPDX-License-Identifier: MIT\npragma solidity ^0.8.15;\n\nimport { IDisputeGame } from \"@eth-optimism/contracts-bedrock/src/dispute/interfaces/IDisputeGame.sol\";\nimport { IFaultDisputeGame } from \"@eth-optimism/contracts-bedrock/src/dispute/interfaces/IFaultDisputeGame.sol\";\nimport { IInitializable } from \"@eth-optimism/contracts-bedrock/src/dispute/interfaces/IInitializable.sol\";\nimport { IBondManager } from \"@eth-optimism/contracts-bedrock/src/dispute/interfaces/IBondManager.sol\";\nimport { IBigStepper, IPreimageOracle } from \"@eth-optimism/contracts-bedrock/src/dispute/interfaces/IBigStepper.sol\";\n\nimport { Clone } from \"@eth-optimism/contracts-bedrock/src/libraries/Clone.sol\";\nimport { Types } from \"@eth-optimism/contracts-bedrock/src/libraries/Types.sol\";\nimport { Semver } from \"@eth-optimism/contracts-bedrock/src/universal/Semver.sol\";\nimport { LibHashing } from \"@eth-optimism/contracts-bedrock/src/dispute/lib/LibHashing.sol\";\nimport { LibPosition } from \"@eth-optimism/contracts-bedrock/src/dispute/lib/LibPosition.sol\";\nimport { LibClock } from \"@eth-optimism/contracts-bedrock/src/dispute/lib/LibClock.sol\";\n\nimport \"@eth-optimism/contracts-bedrock/src/libraries/DisputeTypes.sol\";\nimport \"@eth-optimism/contracts-bedrock/src/libraries/DisputeErrors.sol\";\n\n/// @title FaultDisputeGame\n/// @notice An implementation of the `IFaultDisputeGame` interface.\ncontract FaultDisputeGame is IFaultDisputeGame, Clone, Semver {\n    ////////////////////////////////////////////////////////////////\n    //                         State Vars                         //\n    ////////////////////////////////////////////////////////////////\n\n    /// @notice The absolute prestate of the instruction trace. This is a constant that is defined\n    ///         by the program that is being used to execute the trace.\n    Claim public immutable ABSOLUTE_PRESTATE;\n\n    /// @notice The max depth of the game.\n    uint256 public immutable MAX_GAME_DEPTH;\n\n    /// @notice The duration of the game.\n    Duration public immutable GAME_DURATION;\n\n    /// @notice An onchain VM that performs single instruction steps on a fault proof program trace.\n    IBigStepper public immutable VM;\n\n    /// @notice The root claim's position is always at gindex 1.\n    Position internal constant ROOT_POSITION = Position.wrap(1);\n\n    /// @notice The starting timestamp of the game\n    Timestamp public gameStart;\n\n    /// @inheritdoc IDisputeGame\n    GameStatus public status;\n\n    /// @inheritdoc IDisputeGame\n    IBondManager public bondManager;\n\n    /// @inheritdoc IFaultDisputeGame\n    Hash public l1Head;\n\n    /// @notice An append-only array of all claims made during the dispute game.\n    ClaimData[] public claimData;\n\n    /// @notice The starting and disputed output proposal for the game. Includes information about\n    ///         the output indexes in the `L2OutputOracle` and the output roots at the time of\n    ///         game creation.\n    OutputProposals public proposals;\n\n    /// @notice An internal mapping to allow for constant-time lookups of existing claims.\n    mapping(ClaimHash => bool) internal claims;\n\n    /// @param _absolutePrestate The absolute prestate of the instruction trace.\n    /// @param _maxGameDepth The maximum depth of bisection.\n    /// @param _gameDuration The duration of the game.\n    /// @param _vm An onchain VM that performs single instruction steps on a fault proof program\n    ///            trace.\n    /// @custom:semver 0.0.6\n    constructor(\n        Claim _absolutePrestate,\n        uint256 _maxGameDepth,\n        Duration _gameDuration,\n        IBigStepper _vm\n    ) Semver(0, 0, 6) {\n        ABSOLUTE_PRESTATE = _absolutePrestate;\n        MAX_GAME_DEPTH = _maxGameDepth;\n        GAME_DURATION = _gameDuration;\n        VM = _vm;\n    }\n\n    ////////////////////////////////////////////////////////////////\n    //                  `IFaultDisputeGame` impl                  //\n    ////////////////////////////////////////////////////////////////\n\n    /// @inheritdoc IFaultDisputeGame\n    function step(\n        uint256 _claimIndex,\n        bool _isAttack,\n        bytes calldata _stateData,\n        bytes calldata _proof\n    ) external {\n        // INVARIANT: Steps cannot be made unless the game is currently in progress.\n        if (status != GameStatus.IN_PROGRESS) revert GameNotInProgress();\n\n        // Get the parent. If it does not exist, the call will revert with OOB.\n        ClaimData storage parent = claimData[_claimIndex];\n\n        // Pull the parent position out of storage.\n        Position parentPos = parent.position;\n        // Determine the position of the step.\n        Position stepPos = parentPos.move(_isAttack);\n\n        // INVARIANT: A step cannot be made unless the move position is 1 below the `MAX_GAME_DEPTH`\n        if (stepPos.depth() != MAX_GAME_DEPTH + 1) revert InvalidParent();\n\n        // Determine the expected pre & post states of the step.\n        Claim preStateClaim;\n        ClaimData storage postState;\n        if (_isAttack) {\n            if (stepPos.indexAtDepth() == 0) {\n                // If the step position's index at depth is 0, the prestate is the absolute\n                // prestate.\n                preStateClaim = ABSOLUTE_PRESTATE;\n            } else {\n                // If the step is an attack at a trace index > 0, the prestate exists elsewhere in\n                // the game state.\n                preStateClaim = findTraceAncestor(\n                    Position.wrap(Position.unwrap(parentPos) - 1),\n                    parent.parentIndex\n                ).claim;\n            }\n\n            // For all attacks, the poststate is the parent claim.\n            postState = parent;\n        } else {\n            // If the step is a defense, the poststate exists elsewhere in the game state,\n            // and the parent claim is the expected pre-state.\n            preStateClaim = parent.claim;\n            postState = findTraceAncestor(\n                Position.wrap(Position.unwrap(parentPos) + 1),\n                parent.parentIndex\n            );\n        }\n\n        // INVARIANT: The prestate is always invalid if the passed `_stateData` is not the\n        //            preimage of the prestate claim hash.\n        if (keccak256(_stateData) != Claim.unwrap(preStateClaim)) revert InvalidPrestate();\n\n        // INVARIANT: If a step is an attack, the poststate is valid if the step produces\n        //            the same poststate hash as the parent claim's value.\n        //            If a step is a defense:\n        //              1. If the parent claim and the found post state agree with each other\n        //                 (depth diff % 2 == 0), the step is valid if it produces the same\n        //                 state hash as the post state's claim.\n        //              2. If the parent claim and the found post state disagree with each other\n        //                 (depth diff % 2 != 0), the parent cannot be countered unless the step\n        //                 produces the same state hash as `postState.claim`.\n        // SAFETY:    While the `attack` path does not need an extra check for the post\n        //            state's depth in relation to the parent, we don't need another\n        //            branch because (n - n) % 2 == 0.\n        bool validStep = VM.step(_stateData, _proof) == Claim.unwrap(postState.claim);\n        bool parentPostAgree = (parentPos.depth() - postState.position.depth()) % 2 == 0;\n        if (parentPostAgree == validStep) revert ValidStep();\n\n        // Set the parent claim as countered. We do not need to append a new claim to the game;\n        // instead, we can just set the existing parent as countered.\n        parent.countered = true;\n    }\n\n    /// @notice Internal move function, used by both `attack` and `defend`.\n    /// @param _challengeIndex The index of the claim being moved against.\n    /// @param _claim The claim at the next logical position in the game.\n    /// @param _isAttack Whether or not the move is an attack or defense.\n    function move(\n        uint256 _challengeIndex,\n        Claim _claim,\n        bool _isAttack\n    ) public payable {\n        // INVARIANT: Moves cannot be made unless the game is currently in progress.\n        if (status != GameStatus.IN_PROGRESS) revert GameNotInProgress();\n\n        // INVARIANT: A defense can never be made against the root claim. This is because the root\n        //            claim commits to the entire state. Therefore, the only valid defense is to\n        //            do nothing if it is agreed with.\n        if (_challengeIndex == 0 && !_isAttack) revert CannotDefendRootClaim();\n\n        // Get the parent. If it does not exist, the call will revert with OOB.\n        ClaimData memory parent = claimData[_challengeIndex];\n\n        // Set the parent claim as countered.\n        claimData[_challengeIndex].countered = true;\n\n        // Compute the position that the claim commits to. Because the parent's position is already\n        // known, we can compute the next position by moving left or right depending on whether\n        // or not the move is an attack or defense.\n        Position nextPosition = parent.position.move(_isAttack);\n\n        // INVARIANT: A move can never surpass the `MAX_GAME_DEPTH`. The only option to counter a\n        //            claim at this depth is to perform a single instruction step on-chain via\n        //            the `step` function to prove that the state transition produces an unexpected\n        //            post-state.\n        if (nextPosition.depth() > MAX_GAME_DEPTH) revert GameDepthExceeded();\n\n        // Fetch the grandparent clock, if it exists.\n        // The grandparent clock should always exist unless the parent is the root claim.\n        Clock grandparentClock;\n        if (parent.parentIndex != type(uint32).max) {\n            grandparentClock = claimData[parent.parentIndex].clock;\n        }\n\n        // Compute the duration of the next clock. This is done by adding the duration of the\n        // grandparent claim to the difference between the current block timestamp and the\n        // parent's clock timestamp.\n        Duration nextDuration = Duration.wrap(\n            uint64(\n                // First, fetch the duration of the grandparent claim.\n                Duration.unwrap(grandparentClock.duration()) +\n                    // Second, add the difference between the current block timestamp and the\n                    // parent's clock timestamp.\n                    block.timestamp -\n                    Timestamp.unwrap(parent.clock.timestamp())\n            )\n        );\n\n        // INVARIANT: A move can never be made once its clock has exceeded `GAME_DURATION / 2`\n        //            seconds of time.\n        if (Duration.unwrap(nextDuration) > Duration.unwrap(GAME_DURATION) >> 1) {\n            revert ClockTimeExceeded();\n        }\n\n        // Construct the next clock with the new duration and the current block timestamp.\n        Clock nextClock = LibClock.wrap(nextDuration, Timestamp.wrap(uint64(block.timestamp)));\n\n        // INVARIANT: A claim may only exist at a given position once. Multiple claims may exist\n        //            at the same position, however they must have different values.\n        ClaimHash claimHash = _claim.hashClaimPos(nextPosition);\n        if (claims[claimHash]) revert ClaimAlreadyExists();\n        claims[claimHash] = true;\n\n        // Create the new claim.\n        claimData.push(\n            ClaimData({\n                parentIndex: uint32(_challengeIndex),\n                claim: _claim,\n                position: nextPosition,\n                clock: nextClock,\n                countered: false\n            })\n        );\n\n        // Emit the appropriate event for the attack or defense.\n        emit Move(_challengeIndex, _claim, msg.sender);\n    }\n\n    /// @inheritdoc IFaultDisputeGame\n    function attack(uint256 _parentIndex, Claim _claim) external payable {\n        move(_parentIndex, _claim, true);\n    }\n\n    /// @inheritdoc IFaultDisputeGame\n    function defend(uint256 _parentIndex, Claim _claim) external payable {\n        move(_parentIndex, _claim, false);\n    }\n\n    /// @inheritdoc IFaultDisputeGame\n    function addLocalData(uint256 _ident, uint256 _partOffset) external {\n        // INVARIANT: Local data can only be added if the game is currently in progress.\n        if (status != GameStatus.IN_PROGRESS) revert GameNotInProgress();\n\n        IPreimageOracle oracle = VM.oracle();\n        if (_ident == 1) {\n            // Load the L1 head hash into the game's local context in the preimage oracle.\n            oracle.loadLocalData(_ident, Hash.unwrap(l1Head), 32, _partOffset);\n        } else if (_ident == 2) {\n            // Load the starting or disputed output root into the game's local context in the\n            // preimage oracle.\n            oracle.loadLocalData(\n                _ident,\n                Hash.unwrap(proposals.starting.outputRoot),\n                32,\n                _partOffset\n            );\n        } else if (_ident == 3) {\n            // Load the starting or disputed output root into the game's local context in the\n            // preimage oracle.\n            oracle.loadLocalData(\n                _ident,\n                Hash.unwrap(proposals.disputed.outputRoot),\n                32,\n                _partOffset\n            );\n        } else if (_ident == 4) {\n            // Load the starting l2 block number into the game's local context in the preimage\n            // oracle. The L2 block number is stored as a big-endian uint64 in the upper 8 bytes\n            // of the passed word.\n            oracle.loadLocalData(\n                _ident,\n                bytes32(uint256(proposals.starting.l2BlockNumber) << 192),\n                8,\n                _partOffset\n            );\n        } else if (_ident == 5) {\n            // Load the chain ID into the game's local context in the preimage oracle.\n            // The chain ID is stored as a big-endian uint64 in the upper 8 bytes of the\n            // passed word.\n            oracle.loadLocalData(_ident, bytes32(block.chainid << 192), 8, _partOffset);\n        }\n    }\n\n    /// @inheritdoc IFaultDisputeGame\n    function l2BlockNumber() public pure returns (uint256 l2BlockNumber_) {\n        l2BlockNumber_ = _getArgUint256(0x20);\n    }\n\n    /// @inheritdoc IFaultDisputeGame\n    function l1BlockNumber() public pure returns (uint256 l1BlockNumber_) {\n        l1BlockNumber_ = _getArgUint256(0x40);\n    }\n\n    ////////////////////////////////////////////////////////////////\n    //                    `IDisputeGame` impl                     //\n    ////////////////////////////////////////////////////////////////\n\n    /// @inheritdoc IDisputeGame\n    function gameType() public pure override returns (GameType gameType_) {\n        gameType_ = GameTypes.FAULT;\n    }\n\n    /// @inheritdoc IDisputeGame\n    function createdAt() external view returns (Timestamp createdAt_) {\n        createdAt_ = gameStart;\n    }\n\n    /// @inheritdoc IDisputeGame\n    function resolve() external returns (GameStatus status_) {\n        // INVARIANT: Resolution cannot occur unless the game is currently in progress.\n        if (status != GameStatus.IN_PROGRESS) revert GameNotInProgress();\n\n        // Search for the left-most dangling non-bottom node\n        // The most recent claim is always a dangling, non-bottom node so we start with that\n        uint256 leftMostIndex = claimData.length - 1;\n        uint256 leftMostTraceIndex = type(uint128).max;\n        for (uint256 i = leftMostIndex; i < type(uint64).max; ) {\n            // Fetch the claim at the current index.\n            ClaimData storage claim = claimData[i];\n\n            // Decrement the loop counter; If it underflows, we've reached the root\n            // claim and can stop searching.\n            unchecked {\n                --i;\n            }\n\n            // INVARIANT: A claim can never be considered as the leftMostIndex or leftMostTraceIndex\n            //            if it has been countered.\n            if (claim.countered) continue;\n\n            // If the claim is a dangling node, we can check if it is the left-most\n            // dangling node we've come across so far. If it is, we can update the\n            // left-most trace index.\n            uint256 traceIndex = claim.position.traceIndex(MAX_GAME_DEPTH);\n            if (traceIndex < leftMostTraceIndex) {\n                leftMostTraceIndex = traceIndex;\n                unchecked {\n                    leftMostIndex = i + 1;\n                }\n            }\n        }\n\n        // Create a reference to the left most uncontested claim and its parent.\n        ClaimData storage leftMostUncontested = claimData[leftMostIndex];\n\n        // INVARIANT: The game may never be resolved unless the clock of the left-most uncontested\n        //            claim's parent has expired. If the left-most uncontested claim is the root\n        //            claim, it is uncountered, and we check if 3.5 days has passed since its\n        //            creation.\n        uint256 parentIndex = leftMostUncontested.parentIndex;\n        Clock opposingClock = parentIndex == type(uint32).max\n            ? leftMostUncontested.clock\n            : claimData[parentIndex].clock;\n        if (\n            Duration.unwrap(opposingClock.duration()) +\n                (block.timestamp - Timestamp.unwrap(opposingClock.timestamp())) <=\n            Duration.unwrap(GAME_DURATION) >> 1\n        ) {\n            revert ClockNotExpired();\n        }\n\n        // If the left-most dangling node is at an even depth, the defender wins.\n        // Otherwise, the challenger wins and the root claim is deemed invalid.\n        if (\n            // slither-disable-next-line weak-prng\n            leftMostUncontested.position.depth() % 2 == 0 && leftMostTraceIndex != type(uint128).max\n        ) {\n            status_ = GameStatus.DEFENDER_WINS;\n        } else {\n            status_ = GameStatus.CHALLENGER_WINS;\n        }\n\n        // Update the game status\n        emit Resolved(status = status_);\n    }\n\n    /// @inheritdoc IDisputeGame\n    function rootClaim() public pure returns (Claim rootClaim_) {\n        rootClaim_ = Claim.wrap(_getArgFixedBytes(0x00));\n    }\n\n    /// @inheritdoc IDisputeGame\n    function extraData() public pure returns (bytes memory extraData_) {\n        // The extra data starts at the second word within the cwia calldata and\n        // is 64 bytes long.\n        extraData_ = _getArgDynBytes(0x20, 0x40);\n    }\n\n    /// @inheritdoc IDisputeGame\n    function gameData()\n        external\n        pure\n        returns (\n            GameType gameType_,\n            Claim rootClaim_,\n            bytes memory extraData_\n        )\n    {\n        gameType_ = gameType();\n        rootClaim_ = rootClaim();\n        extraData_ = extraData();\n    }\n\n    ////////////////////////////////////////////////////////////////\n    //                       MISC EXTERNAL                        //\n    ////////////////////////////////////////////////////////////////\n\n    /// @inheritdoc IInitializable\n    function initialize() external {\n        // SAFETY: Any revert in this function will bubble up to the DisputeGameFactory and\n        // prevent the game from being created.\n\n        // Set the game start\n        gameStart = Timestamp.wrap(uint64(block.timestamp));\n        // Set the game status\n        status = GameStatus.IN_PROGRESS;\n\n        // Set the root claim\n        claimData.push(\n            ClaimData({\n                parentIndex: type(uint32).max,\n                claim: rootClaim(),\n                position: ROOT_POSITION,\n                clock: LibClock.wrap(Duration.wrap(0), Timestamp.wrap(uint64(block.timestamp))),\n                countered: false\n            })\n        );\n    }\n\n    /// @notice Returns the length of the `claimData` array.\n    function claimDataLen() external view returns (uint256 len_) {\n        len_ = claimData.length;\n    }\n\n    ////////////////////////////////////////////////////////////////\n    //                          HELPERS                           //\n    ////////////////////////////////////////////////////////////////\n\n    /// @notice Finds the trace ancestor of a given position within the DAG.\n    /// @param _pos The position to find the trace ancestor claim of.\n    /// @param _start The index to start searching from.\n    /// @return ancestor_ The ancestor claim that commits to the same trace index as `_pos`.\n    // TODO: Can we form a relationship between the trace path and the position to avoid looping?\n    function findTraceAncestor(Position _pos, uint256 _start)\n        internal\n        view\n        returns (ClaimData storage ancestor_)\n    {\n        // Grab the trace ancestor's expected position.\n        Position preStateTraceAncestor = _pos.traceAncestor();\n\n        // Walk up the DAG to find a claim that commits to the same trace index as `_pos`. It is\n        // guaranteed that such a claim exists.\n        ancestor_ = claimData[_start];\n        while (Position.unwrap(ancestor_.position) != Position.unwrap(preStateTraceAncestor)) {\n            ancestor_ = claimData[ancestor_.parentIndex];\n        }\n    }\n}\n",
  "sourcePath": "/Users/willem/repos/ProofBoy/contracts/FaultDisputeGame.sol",
  "compiler": {
    "name": "solc",
    "version": "0.8.15+commit.e14f2714.Emscripten.clang"
  },
  "schemaVersion": "3.4.14",
  "updatedAt": "2023-08-18T23:48:55.967Z",
  "devdoc": {
    "kind": "dev",
    "methods": {
      "addLocalData(uint256,uint256)": {
        "params": {
          "_ident": "The local identifier of the data to post.",
          "_partOffset": "The offset of the data to post."
        }
      },
      "attack(uint256,bytes32)": {
        "params": {
          "_claim": "The `Claim` at the relative attack position.",
          "_parentIndex": "Index of the `Claim` to attack in `claimData`."
        }
      },
      "constructor": {
        "custom:semver": "0.0.6",
        "params": {
          "_absolutePrestate": "The absolute prestate of the instruction trace.",
          "_gameDuration": "The duration of the game.",
          "_maxGameDepth": "The maximum depth of bisection.",
          "_vm": "An onchain VM that performs single instruction steps on a fault proof program            trace."
        }
      },
      "createdAt()": {
        "returns": {
          "createdAt_": "The timestamp that the DisputeGame contract was created at."
        }
      },
      "defend(uint256,bytes32)": {
        "params": {
          "_claim": "The `Claim` at the relative defense position.",
          "_parentIndex": "Index of the claim to defend in `claimData`."
        }
      },
      "extraData()": {
        "details": "`clones-with-immutable-args` argument #2",
        "returns": {
          "extraData_": "Any extra data supplied to the dispute game contract by the creator."
        }
      },
      "gameData()": {
        "returns": {
          "extraData_": "Any extra data supplied to the dispute game contract by the creator.",
          "gameType_": "The type of proof system being used.",
          "rootClaim_": "The root claim of the DisputeGame."
        }
      },
      "gameType()": {
        "details": "The reference impl should be entirely different depending on the type (fault, validity)      i.e. The game type should indicate the security model.",
        "returns": {
          "gameType_": "The type of proof system being used."
        }
      },
      "initialize()": {
        "details": "This function may only be called once."
      },
      "move(uint256,bytes32,bool)": {
        "params": {
          "_challengeIndex": "The index of the claim being moved against.",
          "_claim": "The claim at the next logical position in the game.",
          "_isAttack": "Whether or not the move is an attack or defense."
        }
      },
      "resolve()": {
        "details": "May only be called if the `status` is `IN_PROGRESS`.",
        "returns": {
          "status_": "The status of the game after resolution."
        }
      },
      "rootClaim()": {
        "details": "`clones-with-immutable-args` argument #1",
        "returns": {
          "rootClaim_": "The root claim of the DisputeGame."
        }
      },
      "step(uint256,bool,bytes,bytes)": {
        "details": "This function should point to a fault proof processor in order to execute      a step in the fault proof program on-chain. The interface of the fault proof      processor contract should be generic enough such that we can use different      fault proof VMs (MIPS, RiscV5, etc.)",
        "params": {
          "_claimIndex": "The index of the challenged claim within `claimData`.",
          "_isAttack": "Whether or not the step is an attack or a defense.",
          "_proof": "Proof to access memory leaf nodes in the VM.",
          "_stateData": "The stateData of the step is the preimage of the claim at the given        prestate, which is at `_stateIndex` if the move is an attack and `_claimIndex` if        the move is a defense. If the step is an attack on the first instruction, it is        the absolute prestate of the fault proof VM."
        }
      },
      "version()": {
        "returns": {
          "_0": "Semver contract version as a string."
        }
      }
    },
    "stateVariables": {
      "bondManager": {
        "return": "The address of the `BondManager` used.",
        "returns": {
          "_0": "The address of the `BondManager` used."
        }
      },
      "status": {
        "return": "The current status of the game.",
        "returns": {
          "_0": "The current status of the game."
        }
      }
    },
    "title": "FaultDisputeGame",
    "version": 1
  },
  "userdoc": {
    "errors": {
      "CannotDefendRootClaim()": [
        {
          "notice": "Thrown when a defense against the root claim is attempted."
        }
      ],
      "ClaimAlreadyExists()": [
        {
          "notice": "Thrown when a claim is attempting to be made that already exists."
        }
      ],
      "ClockNotExpired()": [
        {
          "notice": "Thrown when the game is attempted to be resolved too early."
        }
      ],
      "ClockTimeExceeded()": [
        {
          "notice": "Thrown when a move is attempted to be made after the clock has timed out."
        }
      ],
      "GameDepthExceeded()": [
        {
          "notice": "Thrown when a move is attempted to be made at or greater than the max depth of the game."
        }
      ],
      "GameNotInProgress()": [
        {
          "notice": "Thrown when an action that requires the game to be `IN_PROGRESS` is invoked when         the game is not in progress."
        }
      ],
      "InvalidParent()": [
        {
          "notice": "Thrown when a step is attempted above the maximum game depth."
        }
      ],
      "InvalidPrestate()": [
        {
          "notice": "Thrown when an invalid prestate is supplied to `step`."
        }
      ],
      "ValidStep()": [
        {
          "notice": "Thrown when a step is made that computes the expected post state correctly."
        }
      ]
    },
    "events": {
      "Move(uint256,bytes32,address)": {
        "notice": "Emitted when a new claim is added to the DAG by `claimant`"
      },
      "Resolved(uint8)": {
        "notice": "Emitted when the game is resolved."
      }
    },
    "kind": "user",
    "methods": {
      "ABSOLUTE_PRESTATE()": {
        "notice": "The absolute prestate of the instruction trace. This is a constant that is defined         by the program that is being used to execute the trace."
      },
      "GAME_DURATION()": {
        "notice": "The duration of the game."
      },
      "MAX_GAME_DEPTH()": {
        "notice": "The max depth of the game."
      },
      "VM()": {
        "notice": "An onchain VM that performs single instruction steps on a fault proof program trace."
      },
      "addLocalData(uint256,uint256)": {
        "notice": "Posts the requested local data to the VM's `PreimageOralce`."
      },
      "attack(uint256,bytes32)": {
        "notice": "Attack a disagreed upon `Claim`."
      },
      "bondManager()": {
        "notice": "Returns the address of the `BondManager` used."
      },
      "claimData(uint256)": {
        "notice": "An append-only array of all claims made during the dispute game."
      },
      "claimDataLen()": {
        "notice": "Returns the length of the `claimData` array."
      },
      "createdAt()": {
        "notice": "Returns the timestamp that the DisputeGame contract was created at."
      },
      "defend(uint256,bytes32)": {
        "notice": "Defend an agreed upon `Claim`."
      },
      "extraData()": {
        "notice": "Getter for the extra data."
      },
      "gameData()": {
        "notice": "A compliant implementation of this interface should return the components of the         game UUID's preimage provided in the cwia payload. The preimage of the UUID is         constructed as `keccak256(gameType . rootClaim . extraData)` where `.` denotes         concatenation."
      },
      "gameStart()": {
        "notice": "The starting timestamp of the game"
      },
      "gameType()": {
        "notice": "Getter for the game type."
      },
      "initialize()": {
        "notice": "Initializes the contract."
      },
      "l1BlockNumber()": {
        "notice": "The l1BlockNumber that Cannon was ran from to generate the root claim."
      },
      "l1Head()": {
        "notice": "Returns the L1 block hash at the time of the game's creation."
      },
      "l2BlockNumber()": {
        "notice": "The l2BlockNumber that the `rootClaim` commits to. The trace being bisected within         the game is from `l2BlockNumber - 1` -> `l2BlockNumber`."
      },
      "move(uint256,bytes32,bool)": {
        "notice": "Internal move function, used by both `attack` and `defend`."
      },
      "proposals()": {
        "notice": "The starting and disputed output proposal for the game. Includes information about         the output indexes in the `L2OutputOracle` and the output roots at the time of         game creation."
      },
      "resolve()": {
        "notice": "If all necessary information has been gathered, this function should mark the game         status as either `CHALLENGER_WINS` or `DEFENDER_WINS` and return the status of         the resolved game. It is at this stage that the bonds should be awarded to the         necessary parties."
      },
      "rootClaim()": {
        "notice": "Getter for the root claim."
      },
      "status()": {
        "notice": "Returns the current status of the game."
      },
      "step(uint256,bool,bytes,bytes)": {
        "notice": "Perform the final step via an on-chain fault proof processor"
      },
      "version()": {
        "notice": "Returns the full semver contract version."
      }
    },
    "notice": "An implementation of the `IFaultDisputeGame` interface.",
    "version": 1
  }
}