{
  "contractName": "L2OutputOracle",
  "abi": [
    {
      "inputs": [
        {
          "internalType": "uint256",
          "name": "_submissionInterval",
          "type": "uint256"
        },
        {
          "internalType": "uint256",
          "name": "_l2BlockTime",
          "type": "uint256"
        },
        {
          "internalType": "uint256",
          "name": "_startingBlockNumber",
          "type": "uint256"
        },
        {
          "internalType": "uint256",
          "name": "_startingTimestamp",
          "type": "uint256"
        },
        {
          "internalType": "address",
          "name": "_proposer",
          "type": "address"
        },
        {
          "internalType": "address",
          "name": "_challenger",
          "type": "address"
        },
        {
          "internalType": "uint256",
          "name": "_finalizationPeriodSeconds",
          "type": "uint256"
        }
      ],
      "stateMutability": "nonpayable",
      "type": "constructor"
    },
    {
      "anonymous": false,
      "inputs": [
        {
          "indexed": false,
          "internalType": "uint8",
          "name": "version",
          "type": "uint8"
        }
      ],
      "name": "Initialized",
      "type": "event"
    },
    {
      "anonymous": false,
      "inputs": [
        {
          "indexed": true,
          "internalType": "bytes32",
          "name": "outputRoot",
          "type": "bytes32"
        },
        {
          "indexed": true,
          "internalType": "uint256",
          "name": "l2OutputIndex",
          "type": "uint256"
        },
        {
          "indexed": true,
          "internalType": "uint256",
          "name": "l2BlockNumber",
          "type": "uint256"
        },
        {
          "indexed": false,
          "internalType": "uint256",
          "name": "l1Timestamp",
          "type": "uint256"
        }
      ],
      "name": "OutputProposed",
      "type": "event"
    },
    {
      "anonymous": false,
      "inputs": [
        {
          "indexed": true,
          "internalType": "uint256",
          "name": "prevNextOutputIndex",
          "type": "uint256"
        },
        {
          "indexed": true,
          "internalType": "uint256",
          "name": "newNextOutputIndex",
          "type": "uint256"
        }
      ],
      "name": "OutputsDeleted",
      "type": "event"
    },
    {
      "inputs": [],
      "name": "CHALLENGER",
      "outputs": [
        {
          "internalType": "address",
          "name": "",
          "type": "address"
        }
      ],
      "stateMutability": "view",
      "type": "function"
    },
    {
      "inputs": [],
      "name": "FINALIZATION_PERIOD_SECONDS",
      "outputs": [
        {
          "internalType": "uint256",
          "name": "",
          "type": "uint256"
        }
      ],
      "stateMutability": "view",
      "type": "function"
    },
    {
      "inputs": [],
      "name": "L2_BLOCK_TIME",
      "outputs": [
        {
          "internalType": "uint256",
          "name": "",
          "type": "uint256"
        }
      ],
      "stateMutability": "view",
      "type": "function"
    },
    {
      "inputs": [],
      "name": "PROPOSER",
      "outputs": [
        {
          "internalType": "address",
          "name": "",
          "type": "address"
        }
      ],
      "stateMutability": "view",
      "type": "function"
    },
    {
      "inputs": [],
      "name": "SUBMISSION_INTERVAL",
      "outputs": [
        {
          "internalType": "uint256",
          "name": "",
          "type": "uint256"
        }
      ],
      "stateMutability": "view",
      "type": "function"
    },
    {
      "inputs": [],
      "name": "startingBlockNumber",
      "outputs": [
        {
          "internalType": "uint256",
          "name": "",
          "type": "uint256"
        }
      ],
      "stateMutability": "view",
      "type": "function"
    },
    {
      "inputs": [],
      "name": "startingTimestamp",
      "outputs": [
        {
          "internalType": "uint256",
          "name": "",
          "type": "uint256"
        }
      ],
      "stateMutability": "view",
      "type": "function"
    },
    {
      "inputs": [],
      "name": "version",
      "outputs": [
        {
          "internalType": "string",
          "name": "",
          "type": "string"
        }
      ],
      "stateMutability": "view",
      "type": "function"
    },
    {
      "inputs": [
        {
          "internalType": "uint256",
          "name": "_startingBlockNumber",
          "type": "uint256"
        },
        {
          "internalType": "uint256",
          "name": "_startingTimestamp",
          "type": "uint256"
        }
      ],
      "name": "initialize",
      "outputs": [],
      "stateMutability": "nonpayable",
      "type": "function"
    },
    {
      "inputs": [
        {
          "internalType": "uint256",
          "name": "_l2OutputIndex",
          "type": "uint256"
        }
      ],
      "name": "deleteL2Outputs",
      "outputs": [],
      "stateMutability": "nonpayable",
      "type": "function"
    },
    {
      "inputs": [
        {
          "internalType": "bytes32",
          "name": "_outputRoot",
          "type": "bytes32"
        },
        {
          "internalType": "uint256",
          "name": "_l2BlockNumber",
          "type": "uint256"
        },
        {
          "internalType": "bytes32",
          "name": "_l1BlockHash",
          "type": "bytes32"
        },
        {
          "internalType": "uint256",
          "name": "_l1BlockNumber",
          "type": "uint256"
        }
      ],
      "name": "proposeL2Output",
      "outputs": [],
      "stateMutability": "payable",
      "type": "function"
    },
    {
      "inputs": [
        {
          "internalType": "uint256",
          "name": "_l2OutputIndex",
          "type": "uint256"
        }
      ],
      "name": "getL2Output",
      "outputs": [
        {
          "components": [
            {
              "internalType": "bytes32",
              "name": "outputRoot",
              "type": "bytes32"
            },
            {
              "internalType": "uint128",
              "name": "timestamp",
              "type": "uint128"
            },
            {
              "internalType": "uint128",
              "name": "l2BlockNumber",
              "type": "uint128"
            }
          ],
          "internalType": "struct Types.OutputProposal",
          "name": "",
          "type": "tuple"
        }
      ],
      "stateMutability": "view",
      "type": "function"
    },
    {
      "inputs": [
        {
          "internalType": "uint256",
          "name": "_l2BlockNumber",
          "type": "uint256"
        }
      ],
      "name": "getL2OutputIndexAfter",
      "outputs": [
        {
          "internalType": "uint256",
          "name": "",
          "type": "uint256"
        }
      ],
      "stateMutability": "view",
      "type": "function"
    },
    {
      "inputs": [
        {
          "internalType": "uint256",
          "name": "_l2BlockNumber",
          "type": "uint256"
        }
      ],
      "name": "getL2OutputAfter",
      "outputs": [
        {
          "components": [
            {
              "internalType": "bytes32",
              "name": "outputRoot",
              "type": "bytes32"
            },
            {
              "internalType": "uint128",
              "name": "timestamp",
              "type": "uint128"
            },
            {
              "internalType": "uint128",
              "name": "l2BlockNumber",
              "type": "uint128"
            }
          ],
          "internalType": "struct Types.OutputProposal",
          "name": "",
          "type": "tuple"
        }
      ],
      "stateMutability": "view",
      "type": "function"
    },
    {
      "inputs": [],
      "name": "latestOutputIndex",
      "outputs": [
        {
          "internalType": "uint256",
          "name": "",
          "type": "uint256"
        }
      ],
      "stateMutability": "view",
      "type": "function"
    },
    {
      "inputs": [],
      "name": "nextOutputIndex",
      "outputs": [
        {
          "internalType": "uint256",
          "name": "",
          "type": "uint256"
        }
      ],
      "stateMutability": "view",
      "type": "function"
    },
    {
      "inputs": [],
      "name": "latestBlockNumber",
      "outputs": [
        {
          "internalType": "uint256",
          "name": "",
          "type": "uint256"
        }
      ],
      "stateMutability": "view",
      "type": "function"
    },
    {
      "inputs": [],
      "name": "nextBlockNumber",
      "outputs": [
        {
          "internalType": "uint256",
          "name": "",
          "type": "uint256"
        }
      ],
      "stateMutability": "view",
      "type": "function"
    },
    {
      "inputs": [
        {
          "internalType": "uint256",
          "name": "_l2BlockNumber",
          "type": "uint256"
        }
      ],
      "name": "computeL2Timestamp",
      "outputs": [
        {
          "internalType": "uint256",
          "name": "",
          "type": "uint256"
        }
      ],
      "stateMutability": "view",
      "type": "function"
    }
  ],
  "bytecode": "0x6101806040523480156200001257600080fd5b50604051620029e3380380620029e3833981810160405281019062000038919062000444565b60016003600182608081815250508160a081815250508060c08181525050505050600086116200009f576040517f08c379a000000000000000000000000000000000000000000000000000000000815260040162000096906200057e565b60405180910390fd5b60008711620000e5576040517f08c379a0000000000000000000000000000000000000000000000000000000008152600401620000dc9062000616565b60405180910390fd5b8660e081815250508561010081815250508273ffffffffffffffffffffffffffffffffffffffff166101408173ffffffffffffffffffffffffffffffffffffffff16815250508173ffffffffffffffffffffffffffffffffffffffff166101208173ffffffffffffffffffffffffffffffffffffffff16815250508061016081815250506200017b85856200018860201b60201c565b5050505050505062000805565b60006200019c60016200027660201b60201c565b90508015620001c1576001600060016101000a81548160ff0219169083151502179055505b4282111562000207576040517f08c379a0000000000000000000000000000000000000000000000000000000008152600401620001fe90620006d4565b60405180910390fd5b81600281905550826001819055508015620002715760008060016101000a81548160ff0219169083151502179055507f7f26b83ff96e1f2b6a682f133852f6798a09c465da95921460cefb3847402498600160405162000268919062000750565b60405180910390a15b505050565b60008060019054906101000a900460ff1615620003005760018260ff16148015620002b45750620002b2306200037c60201b62000fb91760201c565b155b620002f6576040517f08c379a0000000000000000000000000000000000000000000000000000000008152600401620002ed90620007e3565b60405180910390fd5b6000905062000377565b8160ff1660008054906101000a900460ff1660ff161062000358576040517f08c379a00000000000000000000000000000000000000000000000000000000081526004016200034f90620007e3565b60405180910390fd5b816000806101000a81548160ff021916908360ff160217905550600190505b919050565b6000808273ffffffffffffffffffffffffffffffffffffffff163b119050919050565b600080fd5b6000819050919050565b620003b981620003a4565b8114620003c557600080fd5b50565b600081519050620003d981620003ae565b92915050565b600073ffffffffffffffffffffffffffffffffffffffff82169050919050565b60006200040c82620003df565b9050919050565b6200041e81620003ff565b81146200042a57600080fd5b50565b6000815190506200043e8162000413565b92915050565b600080600080600080600060e0888a0312156200046657620004656200039f565b5b6000620004768a828b01620003c8565b9750506020620004898a828b01620003c8565b96505060406200049c8a828b01620003c8565b9550506060620004af8a828b01620003c8565b9450506080620004c28a828b016200042d565b93505060a0620004d58a828b016200042d565b92505060c0620004e88a828b01620003c8565b91505092959891949750929550565b600082825260208201905092915050565b7f4c324f75747075744f7261636c653a204c3220626c6f636b2074696d65206d7560008201527f73742062652067726561746572207468616e2030000000000000000000000000602082015250565b600062000566603483620004f7565b9150620005738262000508565b604082019050919050565b60006020820190508181036000830152620005998162000557565b9050919050565b7f4c324f75747075744f7261636c653a207375626d697373696f6e20696e74657260008201527f76616c206d7573742062652067726561746572207468616e2030000000000000602082015250565b6000620005fe603a83620004f7565b91506200060b82620005a0565b604082019050919050565b600060208201905081810360008301526200063181620005ef565b9050919050565b7f4c324f75747075744f7261636c653a207374617274696e67204c322074696d6560008201527f7374616d70206d757374206265206c657373207468616e2063757272656e742060208201527f74696d6500000000000000000000000000000000000000000000000000000000604082015250565b6000620006bc604483620004f7565b9150620006c98262000638565b606082019050919050565b60006020820190508181036000830152620006ef81620006ad565b9050919050565b6000819050919050565b600060ff82169050919050565b6000819050919050565b600062000738620007326200072c84620006f6565b6200070d565b62000700565b9050919050565b6200074a8162000717565b82525050565b60006020820190506200076760008301846200073f565b92915050565b7f496e697469616c697a61626c653a20636f6e747261637420697320616c72656160008201527f647920696e697469616c697a6564000000000000000000000000000000000000602082015250565b6000620007cb602e83620004f7565b9150620007d8826200076d565b604082019050919050565b60006020820190508181036000830152620007fe81620007bc565b9050919050565b60805160a05160c05160e051610100516101205161014051610160516121556200088e6000396000818161085e0152610f970152600081816109600152610d2901526000818161061201526107890152600081816104800152610e310152600081816105250152610e80015260006105a0015260006105770152600061054e01526121556000f3fe6080604052600436106101135760003560e01c806388786272116100a0578063cf8e5cf011610064578063cf8e5cf014610385578063d1de856c146103c2578063dcec3348146103ff578063e4a301161461042a578063f4daa2911461045357610113565b806388786272146102ad57806389c44cbb146102d85780639aaab64814610301578063a25ae5571461031d578063bffa7f0f1461035a57610113565b806369f16eec116100e757806369f16eec146101c45780636abcf563146101ef5780636b4d98dd1461021a57806370872aa5146102455780637f0064201461027057610113565b80622134cc146101185780634599c78814610143578063529933df1461016e57806354fd4d5014610199575b600080fd5b34801561012457600080fd5b5061012d61047e565b60405161013a919061128d565b60405180910390f35b34801561014f57600080fd5b506101586104a2565b604051610165919061128d565b60405180910390f35b34801561017a57600080fd5b50610183610523565b604051610190919061128d565b60405180910390f35b3480156101a557600080fd5b506101ae610547565b6040516101bb9190611341565b60405180910390f35b3480156101d057600080fd5b506101d96105ea565b6040516101e6919061128d565b60405180910390f35b3480156101fb57600080fd5b50610204610603565b604051610211919061128d565b60405180910390f35b34801561022657600080fd5b5061022f610610565b60405161023c91906113a4565b60405180910390f35b34801561025157600080fd5b5061025a610634565b604051610267919061128d565b60405180910390f35b34801561027c57600080fd5b50610297600480360381019061029291906113f0565b61063a565b6040516102a4919061128d565b60405180910390f35b3480156102b957600080fd5b506102c2610781565b6040516102cf919061128d565b60405180910390f35b3480156102e457600080fd5b506102ff60048036038101906102fa91906113f0565b610787565b005b61031b60048036038101906103169190611453565b61095e565b005b34801561032957600080fd5b50610344600480360381019061033f91906113f0565b610c4d565b6040516103519190611536565b60405180910390f35b34801561036657600080fd5b5061036f610d27565b60405161037c91906113a4565b60405180910390f35b34801561039157600080fd5b506103ac60048036038101906103a791906113f0565b610d4b565b6040516103b99190611536565b60405180910390f35b3480156103ce57600080fd5b506103e960048036038101906103e491906113f0565b610e2d565b6040516103f6919061128d565b60405180910390f35b34801561040b57600080fd5b50610414610e7c565b604051610421919061128d565b60405180910390f35b34801561043657600080fd5b50610451600480360381019061044c9190611551565b610eb6565b005b34801561045f57600080fd5b50610468610f95565b604051610475919061128d565b60405180910390f35b7f000000000000000000000000000000000000000000000000000000000000000081565b6000806003805490501461051a57600360016003805490506104c491906115c0565b815481106104d5576104d46115f4565b5b906000526020600020906002020160010160109054906101000a90046fffffffffffffffffffffffffffffffff166fffffffffffffffffffffffffffffffff1661051e565b6001545b905090565b7f000000000000000000000000000000000000000000000000000000000000000081565b60606105727f0000000000000000000000000000000000000000000000000000000000000000610fdc565b61059b7f0000000000000000000000000000000000000000000000000000000000000000610fdc565b6105c47f0000000000000000000000000000000000000000000000000000000000000000610fdc565b6040516020016105d6939291906116ab565b604051602081830303815290604052905090565b600060016003805490506105fe91906115c0565b905090565b6000600380549050905090565b7f000000000000000000000000000000000000000000000000000000000000000081565b60015481565b60006106446104a2565b821115610686576040517f08c379a000000000000000000000000000000000000000000000000000000000815260040161067d9061178a565b60405180910390fd5b6000600380549050116106ce576040517f08c379a00000000000000000000000000000000000000000000000000000000081526004016106c590611842565b60405180910390fd5b60008060038054905090505b80821015610777576000600282846106f29190611862565b6106fc91906118e7565b90508460038281548110610713576107126115f4565b5b906000526020600020906002020160010160109054906101000a90046fffffffffffffffffffffffffffffffff166fffffffffffffffffffffffffffffffff16101561076d576001816107669190611862565b9250610771565b8091505b506106da565b8192505050919050565b60025481565b7f000000000000000000000000000000000000000000000000000000000000000073ffffffffffffffffffffffffffffffffffffffff163373ffffffffffffffffffffffffffffffffffffffff1614610815576040517f08c379a000000000000000000000000000000000000000000000000000000000815260040161080c9061198a565b60405180910390fd5b600380549050811061085c576040517f08c379a000000000000000000000000000000000000000000000000000000000815260040161085390611a42565b60405180910390fd5b7f000000000000000000000000000000000000000000000000000000000000000060038281548110610891576108906115f4565b5b906000526020600020906002020160010160009054906101000a90046fffffffffffffffffffffffffffffffff166fffffffffffffffffffffffffffffffff16426108dc91906115c0565b1061091c576040517f08c379a000000000000000000000000000000000000000000000000000000000815260040161091390611afa565b60405180910390fd5b6000610926610603565b90508160035581817f4ee37ac2c786ec85e87592d3c5c8a1dd66f8496dda3f125d9ea8ca5f657629b660405160405180910390a35050565b7f000000000000000000000000000000000000000000000000000000000000000073ffffffffffffffffffffffffffffffffffffffff163373ffffffffffffffffffffffffffffffffffffffff16146109ec576040517f08c379a00000000000000000000000000000000000000000000000000000000081526004016109e390611bb2565b60405180910390fd5b6109f4610e7c565b8314610a35576040517f08c379a0000000000000000000000000000000000000000000000000000000008152600401610a2c90611c6a565b60405180910390fd5b42610a3f84610e2d565b10610a7f576040517f08c379a0000000000000000000000000000000000000000000000000000000008152600401610a7690611cfc565b60405180910390fd5b6000801b8403610ac4576040517f08c379a0000000000000000000000000000000000000000000000000000000008152600401610abb90611d8e565b60405180910390fd5b6000801b8214610b125781814014610b11576040517f08c379a0000000000000000000000000000000000000000000000000000000008152600401610b0890611e46565b60405180910390fd5b5b82610b1b610603565b857fa7aaf2512769da4e444e3de247be2564225c2e7a8f74cfe528e46e17d24868e242604051610b4b919061128d565b60405180910390a460036040518060600160405280868152602001426fffffffffffffffffffffffffffffffff168152602001856fffffffffffffffffffffffffffffffff1681525090806001815401808255809150506001900390600052602060002090600202016000909190919091506000820151816000015560208201518160010160006101000a8154816fffffffffffffffffffffffffffffffff02191690836fffffffffffffffffffffffffffffffff16021790555060408201518160010160106101000a8154816fffffffffffffffffffffffffffffffff02191690836fffffffffffffffffffffffffffffffff160217905550505050505050565b610c5561122c565b60038281548110610c6957610c686115f4565b5b9060005260206000209060020201604051806060016040529081600082015481526020016001820160009054906101000a90046fffffffffffffffffffffffffffffffff166fffffffffffffffffffffffffffffffff166fffffffffffffffffffffffffffffffff1681526020016001820160109054906101000a90046fffffffffffffffffffffffffffffffff166fffffffffffffffffffffffffffffffff166fffffffffffffffffffffffffffffffff16815250509050919050565b7f000000000000000000000000000000000000000000000000000000000000000081565b610d5361122c565b6003610d5e8361063a565b81548110610d6f57610d6e6115f4565b5b9060005260206000209060020201604051806060016040529081600082015481526020016001820160009054906101000a90046fffffffffffffffffffffffffffffffff166fffffffffffffffffffffffffffffffff166fffffffffffffffffffffffffffffffff1681526020016001820160109054906101000a90046fffffffffffffffffffffffffffffffff166fffffffffffffffffffffffffffffffff166fffffffffffffffffffffffffffffffff16815250509050919050565b60007f000000000000000000000000000000000000000000000000000000000000000060015483610e5e91906115c0565b610e689190611e66565b600254610e759190611862565b9050919050565b60007f0000000000000000000000000000000000000000000000000000000000000000610ea76104a2565b610eb19190611862565b905090565b6000610ec2600161113c565b90508015610ee6576001600060016101000a81548160ff0219169083151502179055505b42821115610f29576040517f08c379a0000000000000000000000000000000000000000000000000000000008152600401610f2090611f58565b60405180910390fd5b81600281905550826001819055508015610f905760008060016101000a81548160ff0219169083151502179055507f7f26b83ff96e1f2b6a682f133852f6798a09c465da95921460cefb38474024986001604051610f879190611fca565b60405180910390a15b505050565b7f000000000000000000000000000000000000000000000000000000000000000081565b6000808273ffffffffffffffffffffffffffffffffffffffff163b119050919050565b606060008203611023576040518060400160405280600181526020017f30000000000000000000000000000000000000000000000000000000000000008152509050611137565b600082905060005b6000821461105557808061103e90611fe5565b915050600a8261104e91906118e7565b915061102b565b60008167ffffffffffffffff8111156110715761107061202d565b5b6040519080825280601f01601f1916602001820160405280156110a35781602001600182028036833780820191505090505b5090505b60008514611130576001826110bc91906115c0565b9150600a856110cb919061205c565b60306110d79190611862565b60f81b8183815181106110ed576110ec6115f4565b5b60200101907effffffffffffffffffffffffffffffffffffffffffffffffffffffffffffff1916908160001a905350600a8561112991906118e7565b94506110a7565b8093505050505b919050565b60008060019054906101000a900460ff16156111b35760018260ff1614801561116b575061116930610fb9565b155b6111aa576040517f08c379a00000000000000000000000000000000000000000000000000000000081526004016111a1906120ff565b60405180910390fd5b60009050611227565b8160ff1660008054906101000a900460ff1660ff1610611208576040517f08c379a00000000000000000000000000000000000000000000000000000000081526004016111ff906120ff565b60405180910390fd5b816000806101000a81548160ff021916908360ff160217905550600190505b919050565b60405180606001604052806000801916815260200160006fffffffffffffffffffffffffffffffff16815260200160006fffffffffffffffffffffffffffffffff1681525090565b6000819050919050565b61128781611274565b82525050565b60006020820190506112a2600083018461127e565b92915050565b600081519050919050565b600082825260208201905092915050565b60005b838110156112e25780820151818401526020810190506112c7565b838111156112f1576000848401525b50505050565b6000601f19601f8301169050919050565b6000611313826112a8565b61131d81856112b3565b935061132d8185602086016112c4565b611336816112f7565b840191505092915050565b6000602082019050818103600083015261135b8184611308565b905092915050565b600073ffffffffffffffffffffffffffffffffffffffff82169050919050565b600061138e82611363565b9050919050565b61139e81611383565b82525050565b60006020820190506113b96000830184611395565b92915050565b600080fd5b6113cd81611274565b81146113d857600080fd5b50565b6000813590506113ea816113c4565b92915050565b600060208284031215611406576114056113bf565b5b6000611414848285016113db565b91505092915050565b6000819050919050565b6114308161141d565b811461143b57600080fd5b50565b60008135905061144d81611427565b92915050565b6000806000806080858703121561146d5761146c6113bf565b5b600061147b8782880161143e565b945050602061148c878288016113db565b935050604061149d8782880161143e565b92505060606114ae878288016113db565b91505092959194509250565b6114c38161141d565b82525050565b60006fffffffffffffffffffffffffffffffff82169050919050565b6114ee816114c9565b82525050565b60608201600082015161150a60008501826114ba565b50602082015161151d60208501826114e5565b50604082015161153060408501826114e5565b50505050565b600060608201905061154b60008301846114f4565b92915050565b60008060408385031215611568576115676113bf565b5b6000611576858286016113db565b9250506020611587858286016113db565b9150509250929050565b7f4e487b7100000000000000000000000000000000000000000000000000000000600052601160045260246000fd5b60006115cb82611274565b91506115d683611274565b9250828210156115e9576115e8611591565b5b828203905092915050565b7f4e487b7100000000000000000000000000000000000000000000000000000000600052603260045260246000fd5b600081905092915050565b6000611639826112a8565b6116438185611623565b93506116538185602086016112c4565b80840191505092915050565b7f2e00000000000000000000000000000000000000000000000000000000000000600082015250565b6000611695600183611623565b91506116a08261165f565b600182019050919050565b60006116b7828661162e565b91506116c282611688565b91506116ce828561162e565b91506116d982611688565b91506116e5828461162e565b9150819050949350505050565b7f4c324f75747075744f7261636c653a2063616e6e6f7420676574206f7574707560008201527f7420666f72206120626c6f636b207468617420686173206e6f74206265656e2060208201527f70726f706f736564000000000000000000000000000000000000000000000000604082015250565b60006117746048836112b3565b915061177f826116f2565b606082019050919050565b600060208201905081810360008301526117a381611767565b9050919050565b7f4c324f75747075744f7261636c653a2063616e6e6f7420676574206f7574707560008201527f74206173206e6f206f7574707574732068617665206265656e2070726f706f7360208201527f6564207965740000000000000000000000000000000000000000000000000000604082015250565b600061182c6046836112b3565b9150611837826117aa565b606082019050919050565b6000602082019050818103600083015261185b8161181f565b9050919050565b600061186d82611274565b915061187883611274565b9250827fffffffffffffffffffffffffffffffffffffffffffffffffffffffffffffffff038211156118ad576118ac611591565b5b828201905092915050565b7f4e487b7100000000000000000000000000000000000000000000000000000000600052601260045260246000fd5b60006118f282611274565b91506118fd83611274565b92508261190d5761190c6118b8565b5b828204905092915050565b7f4c324f75747075744f7261636c653a206f6e6c7920746865206368616c6c656e60008201527f67657220616464726573732063616e2064656c657465206f7574707574730000602082015250565b6000611974603e836112b3565b915061197f82611918565b604082019050919050565b600060208201905081810360008301526119a381611967565b9050919050565b7f4c324f75747075744f7261636c653a2063616e6e6f742064656c657465206f7560008201527f747075747320616674657220746865206c6174657374206f757470757420696e60208201527f6465780000000000000000000000000000000000000000000000000000000000604082015250565b6000611a2c6043836112b3565b9150611a37826119aa565b606082019050919050565b60006020820190508181036000830152611a5b81611a1f565b9050919050565b7f4c324f75747075744f7261636c653a2063616e6e6f742064656c657465206f7560008201527f74707574732074686174206861766520616c7265616479206265656e2066696e60208201527f616c697a65640000000000000000000000000000000000000000000000000000604082015250565b6000611ae46046836112b3565b9150611aef82611a62565b606082019050919050565b60006020820190508181036000830152611b1381611ad7565b9050919050565b7f4c324f75747075744f7261636c653a206f6e6c79207468652070726f706f736560008201527f7220616464726573732063616e2070726f706f7365206e6577206f757470757460208201527f7300000000000000000000000000000000000000000000000000000000000000604082015250565b6000611b9c6041836112b3565b9150611ba782611b1a565b606082019050919050565b60006020820190508181036000830152611bcb81611b8f565b9050919050565b7f4c324f75747075744f7261636c653a20626c6f636b206e756d626572206d757360008201527f7420626520657175616c20746f206e65787420657870656374656420626c6f6360208201527f6b206e756d626572000000000000000000000000000000000000000000000000604082015250565b6000611c546048836112b3565b9150611c5f82611bd2565b606082019050919050565b60006020820190508181036000830152611c8381611c47565b9050919050565b7f4c324f75747075744f7261636c653a2063616e6e6f742070726f706f7365204c60008201527f32206f757470757420696e207468652066757475726500000000000000000000602082015250565b6000611ce66036836112b3565b9150611cf182611c8a565b604082019050919050565b60006020820190508181036000830152611d1581611cd9565b9050919050565b7f4c324f75747075744f7261636c653a204c32206f75747075742070726f706f7360008201527f616c2063616e6e6f7420626520746865207a65726f2068617368000000000000602082015250565b6000611d78603a836112b3565b9150611d8382611d1c565b604082019050919050565b60006020820190508181036000830152611da781611d6b565b9050919050565b7f4c324f75747075744f7261636c653a20626c6f636b206861736820646f65732060008201527f6e6f74206d61746368207468652068617368206174207468652065787065637460208201527f6564206865696768740000000000000000000000000000000000000000000000604082015250565b6000611e306049836112b3565b9150611e3b82611dae565b606082019050919050565b60006020820190508181036000830152611e5f81611e23565b9050919050565b6000611e7182611274565b9150611e7c83611274565b9250817fffffffffffffffffffffffffffffffffffffffffffffffffffffffffffffffff0483118215151615611eb557611eb4611591565b5b828202905092915050565b7f4c324f75747075744f7261636c653a207374617274696e67204c322074696d6560008201527f7374616d70206d757374206265206c657373207468616e2063757272656e742060208201527f74696d6500000000000000000000000000000000000000000000000000000000604082015250565b6000611f426044836112b3565b9150611f4d82611ec0565b606082019050919050565b60006020820190508181036000830152611f7181611f35565b9050919050565b6000819050919050565b600060ff82169050919050565b6000819050919050565b6000611fb4611faf611faa84611f78565b611f8f565b611f82565b9050919050565b611fc481611f99565b82525050565b6000602082019050611fdf6000830184611fbb565b92915050565b6000611ff082611274565b91507fffffffffffffffffffffffffffffffffffffffffffffffffffffffffffffffff820361202257612021611591565b5b600182019050919050565b7f4e487b7100000000000000000000000000000000000000000000000000000000600052604160045260246000fd5b600061206782611274565b915061207283611274565b925082612082576120816118b8565b5b828206905092915050565b7f496e697469616c697a61626c653a20636f6e747261637420697320616c72656160008201527f647920696e697469616c697a6564000000000000000000000000000000000000602082015250565b60006120e9602e836112b3565b91506120f48261208d565b604082019050919050565b60006020820190508181036000830152612118816120dc565b905091905056fea26469706673582212205243b38f718026872d78704e3d7e0c0e21e9c34895fe370376c4b0988414002964736f6c634300080f0033",
  "immutableReferences": {
    "15": [
      {
        "length": 32,
        "start": 1317
      },
      {
        "length": 32,
        "start": 3712
      }
    ],
    "18": [
      {
        "length": 32,
        "start": 1152
      },
      {
        "length": 32,
        "start": 3633
      }
    ],
    "21": [
      {
        "length": 32,
        "start": 1554
      },
      {
        "length": 32,
        "start": 1929
      }
    ],
    "24": [
      {
        "length": 32,
        "start": 2400
      },
      {
        "length": 32,
        "start": 3369
      }
    ],
    "27": [
      {
        "length": 32,
        "start": 2142
      },
      {
        "length": 32,
        "start": 3991
      }
    ],
    "2712": [
      {
        "length": 32,
        "start": 1358
      }
    ],
    "2715": [
      {
        "length": 32,
        "start": 1399
      }
    ],
    "2718": [
      {
        "length": 32,
        "start": 1440
      }
    ]
  },
  "source": "// SPDX-License-Identifier: MIT\npragma solidity 0.8.15;\n\nimport { Initializable } from \"@openzeppelin/contracts/proxy/utils/Initializable.sol\";\nimport { Semver } from \"../universal/Semver.sol\";\nimport { Types } from \"../libraries/Types.sol\";\n\n/// @custom:proxied\n/// @title L2OutputOracle\n/// @notice The L2OutputOracle contains an array of L2 state outputs, where each output is a\n///         commitment to the state of the L2 chain. Other contracts like the OptimismPortal use\n///         these outputs to verify information about the state of L2.\ncontract L2OutputOracle is Initializable, Semver {\n    /// @notice The interval in L2 blocks at which checkpoints must be submitted.\n    ///         Although this is immutable, it can safely be modified by upgrading the\n    ///         implementation contract.\n    uint256 public immutable SUBMISSION_INTERVAL;\n\n    /// @notice The time between L2 blocks in seconds. Once set, this value MUST NOT be modified.\n    uint256 public immutable L2_BLOCK_TIME;\n\n    /// @notice The address of the challenger. Can be updated via upgrade.\n    address public immutable CHALLENGER;\n\n    /// @notice The address of the proposer. Can be updated via upgrade.\n    address public immutable PROPOSER;\n\n    /// @notice The minimum time (in seconds) that must elapse before a withdrawal can be finalized.\n    uint256 public immutable FINALIZATION_PERIOD_SECONDS;\n\n    /// @notice The number of the first L2 block recorded in this contract.\n    uint256 public startingBlockNumber;\n\n    /// @notice The timestamp of the first L2 block recorded in this contract.\n    uint256 public startingTimestamp;\n\n    /// @notice An array of L2 output proposals.\n    Types.OutputProposal[] internal l2Outputs;\n\n    /// @notice Emitted when an output is proposed.\n    /// @param outputRoot    The output root.\n    /// @param l2OutputIndex The index of the output in the l2Outputs array.\n    /// @param l2BlockNumber The L2 block number of the output root.\n    /// @param l1Timestamp   The L1 timestamp when proposed.\n    event OutputProposed(\n        bytes32 indexed outputRoot,\n        uint256 indexed l2OutputIndex,\n        uint256 indexed l2BlockNumber,\n        uint256 l1Timestamp\n    );\n\n    /// @notice Emitted when outputs are deleted.\n    /// @param prevNextOutputIndex Next L2 output index before the deletion.\n    /// @param newNextOutputIndex  Next L2 output index after the deletion.\n    event OutputsDeleted(uint256 indexed prevNextOutputIndex, uint256 indexed newNextOutputIndex);\n\n    /// @custom:semver 1.3.1\n    /// @notice Constructs the L2OutputOracle contract.\n    /// @param _submissionInterval  Interval in blocks at which checkpoints must be submitted.\n    /// @param _l2BlockTime         The time per L2 block, in seconds.\n    /// @param _startingBlockNumber The number of the first L2 block.\n    /// @param _startingTimestamp   The timestamp of the first L2 block.\n    /// @param _proposer            The address of the proposer.\n    /// @param _challenger          The address of the challenger.\n    constructor(\n        uint256 _submissionInterval,\n        uint256 _l2BlockTime,\n        uint256 _startingBlockNumber,\n        uint256 _startingTimestamp,\n        address _proposer,\n        address _challenger,\n        uint256 _finalizationPeriodSeconds\n    ) Semver(1, 3, 1) {\n        require(_l2BlockTime > 0, \"L2OutputOracle: L2 block time must be greater than 0\");\n        require(\n            _submissionInterval > 0,\n            \"L2OutputOracle: submission interval must be greater than 0\"\n        );\n\n        SUBMISSION_INTERVAL = _submissionInterval;\n        L2_BLOCK_TIME = _l2BlockTime;\n        PROPOSER = _proposer;\n        CHALLENGER = _challenger;\n        FINALIZATION_PERIOD_SECONDS = _finalizationPeriodSeconds;\n\n        initialize(_startingBlockNumber, _startingTimestamp);\n    }\n\n    /// @notice Initializer.\n    /// @param _startingBlockNumber Block number for the first recoded L2 block.\n    /// @param _startingTimestamp   Timestamp for the first recoded L2 block.\n    function initialize(uint256 _startingBlockNumber, uint256 _startingTimestamp)\n        public\n        initializer\n    {\n        require(\n            _startingTimestamp <= block.timestamp,\n            \"L2OutputOracle: starting L2 timestamp must be less than current time\"\n        );\n\n        startingTimestamp = _startingTimestamp;\n        startingBlockNumber = _startingBlockNumber;\n    }\n\n    /// @notice Deletes all output proposals after and including the proposal that corresponds to\n    ///         the given output index. Only the challenger address can delete outputs.\n    /// @param _l2OutputIndex Index of the first L2 output to be deleted.\n    ///                       All outputs after this output will also be deleted.\n    // solhint-disable-next-line ordering\n    function deleteL2Outputs(uint256 _l2OutputIndex) external {\n        require(\n            msg.sender == CHALLENGER,\n            \"L2OutputOracle: only the challenger address can delete outputs\"\n        );\n\n        // Make sure we're not *increasing* the length of the array.\n        require(\n            _l2OutputIndex < l2Outputs.length,\n            \"L2OutputOracle: cannot delete outputs after the latest output index\"\n        );\n\n        // Do not allow deleting any outputs that have already been finalized.\n        require(\n            block.timestamp - l2Outputs[_l2OutputIndex].timestamp < FINALIZATION_PERIOD_SECONDS,\n            \"L2OutputOracle: cannot delete outputs that have already been finalized\"\n        );\n\n        uint256 prevNextL2OutputIndex = nextOutputIndex();\n\n        // Use assembly to delete the array elements because Solidity doesn't allow it.\n        assembly {\n            sstore(l2Outputs.slot, _l2OutputIndex)\n        }\n\n        emit OutputsDeleted(prevNextL2OutputIndex, _l2OutputIndex);\n    }\n\n    /// @notice Accepts an outputRoot and the timestamp of the corresponding L2 block.\n    ///         The timestamp must be equal to the current value returned by `nextTimestamp()` in\n    ///         order to be accepted. This function may only be called by the Proposer.\n    /// @param _outputRoot    The L2 output of the checkpoint block.\n    /// @param _l2BlockNumber The L2 block number that resulted in _outputRoot.\n    /// @param _l1BlockHash   A block hash which must be included in the current chain.\n    /// @param _l1BlockNumber The block number with the specified block hash.\n    function proposeL2Output(\n        bytes32 _outputRoot,\n        uint256 _l2BlockNumber,\n        bytes32 _l1BlockHash,\n        uint256 _l1BlockNumber\n    ) external payable {\n        require(\n            msg.sender == PROPOSER,\n            \"L2OutputOracle: only the proposer address can propose new outputs\"\n        );\n\n        require(\n            _l2BlockNumber == nextBlockNumber(),\n            \"L2OutputOracle: block number must be equal to next expected block number\"\n        );\n\n        require(\n            computeL2Timestamp(_l2BlockNumber) < block.timestamp,\n            \"L2OutputOracle: cannot propose L2 output in the future\"\n        );\n\n        require(\n            _outputRoot != bytes32(0),\n            \"L2OutputOracle: L2 output proposal cannot be the zero hash\"\n        );\n\n        if (_l1BlockHash != bytes32(0)) {\n            // This check allows the proposer to propose an output based on a given L1 block,\n            // without fear that it will be reorged out.\n            // It will also revert if the blockheight provided is more than 256 blocks behind the\n            // chain tip (as the hash will return as zero). This does open the door to a griefing\n            // attack in which the proposer's submission is censored until the block is no longer\n            // retrievable, if the proposer is experiencing this attack it can simply leave out the\n            // blockhash value, and delay submission until it is confident that the L1 block is\n            // finalized.\n            require(\n                blockhash(_l1BlockNumber) == _l1BlockHash,\n                \"L2OutputOracle: block hash does not match the hash at the expected height\"\n            );\n        }\n\n        emit OutputProposed(_outputRoot, nextOutputIndex(), _l2BlockNumber, block.timestamp);\n\n        l2Outputs.push(\n            Types.OutputProposal({\n                outputRoot: _outputRoot,\n                timestamp: uint128(block.timestamp),\n                l2BlockNumber: uint128(_l2BlockNumber)\n            })\n        );\n    }\n\n    /// @notice Returns an output by index. Needed to return a struct instead of a tuple.\n    /// @param _l2OutputIndex Index of the output to return.\n    /// @return The output at the given index.\n    function getL2Output(uint256 _l2OutputIndex)\n        external\n        view\n        returns (Types.OutputProposal memory)\n    {\n        return l2Outputs[_l2OutputIndex];\n    }\n\n    /// @notice Returns the index of the L2 output that checkpoints a given L2 block number.\n    ///         Uses a binary search to find the first output greater than or equal to the given\n    ///         block.\n    /// @param _l2BlockNumber L2 block number to find a checkpoint for.\n    /// @return Index of the first checkpoint that commits to the given L2 block number.\n    function getL2OutputIndexAfter(uint256 _l2BlockNumber) public view returns (uint256) {\n        // Make sure an output for this block number has actually been proposed.\n        require(\n            _l2BlockNumber <= latestBlockNumber(),\n            \"L2OutputOracle: cannot get output for a block that has not been proposed\"\n        );\n\n        // Make sure there's at least one output proposed.\n        require(\n            l2Outputs.length > 0,\n            \"L2OutputOracle: cannot get output as no outputs have been proposed yet\"\n        );\n\n        // Find the output via binary search, guaranteed to exist.\n        uint256 lo = 0;\n        uint256 hi = l2Outputs.length;\n        while (lo < hi) {\n            uint256 mid = (lo + hi) / 2;\n            if (l2Outputs[mid].l2BlockNumber < _l2BlockNumber) {\n                lo = mid + 1;\n            } else {\n                hi = mid;\n            }\n        }\n\n        return lo;\n    }\n\n    /// @notice Returns the L2 output proposal that checkpoints a given L2 block number.\n    ///         Uses a binary search to find the first output greater than or equal to the given\n    ///         block.\n    /// @param _l2BlockNumber L2 block number to find a checkpoint for.\n    /// @return First checkpoint that commits to the given L2 block number.\n    function getL2OutputAfter(uint256 _l2BlockNumber)\n        external\n        view\n        returns (Types.OutputProposal memory)\n    {\n        return l2Outputs[getL2OutputIndexAfter(_l2BlockNumber)];\n    }\n\n    /// @notice Returns the number of outputs that have been proposed.\n    ///         Will revert if no outputs have been proposed yet.\n    /// @return The number of outputs that have been proposed.\n    function latestOutputIndex() external view returns (uint256) {\n        return l2Outputs.length - 1;\n    }\n\n    /// @notice Returns the index of the next output to be proposed.\n    /// @return The index of the next output to be proposed.\n    function nextOutputIndex() public view returns (uint256) {\n        return l2Outputs.length;\n    }\n\n    /// @notice Returns the block number of the latest submitted L2 output proposal.\n    ///         If no proposals been submitted yet then this function will return the starting\n    ///         block number.\n    /// @return Latest submitted L2 block number.\n    function latestBlockNumber() public view returns (uint256) {\n        return\n            l2Outputs.length == 0\n                ? startingBlockNumber\n                : l2Outputs[l2Outputs.length - 1].l2BlockNumber;\n    }\n\n    /// @notice Computes the block number of the next L2 block that needs to be checkpointed.\n    /// @return Next L2 block number.\n    function nextBlockNumber() public view returns (uint256) {\n        return latestBlockNumber() + SUBMISSION_INTERVAL;\n    }\n\n    /// @notice Returns the L2 timestamp corresponding to a given L2 block number.\n    /// @param _l2BlockNumber The L2 block number of the target block.\n    /// @return L2 timestamp of the given block.\n    function computeL2Timestamp(uint256 _l2BlockNumber) public view returns (uint256) {\n        return startingTimestamp + ((_l2BlockNumber - startingBlockNumber) * L2_BLOCK_TIME);\n    }\n}\n",
  "sourcePath": "@eth-optimism/contracts-bedrock/src/L1/L2OutputOracle.sol",
  "compiler": {
    "name": "solc",
    "version": "0.8.15+commit.e14f2714.Emscripten.clang"
  },
  "schemaVersion": "3.4.14",
  "updatedAt": "2023-08-04T03:28:37.483Z",
  "devdoc": {
    "custom:proxied": "@title L2OutputOracle",
    "events": {
      "OutputProposed(bytes32,uint256,uint256,uint256)": {
        "params": {
          "l1Timestamp": "The L1 timestamp when proposed.",
          "l2BlockNumber": "The L2 block number of the output root.",
          "l2OutputIndex": "The index of the output in the l2Outputs array.",
          "outputRoot": "The output root."
        }
      },
      "OutputsDeleted(uint256,uint256)": {
        "params": {
          "newNextOutputIndex": "Next L2 output index after the deletion.",
          "prevNextOutputIndex": "Next L2 output index before the deletion."
        }
      }
    },
    "kind": "dev",
    "methods": {
      "computeL2Timestamp(uint256)": {
        "params": {
          "_l2BlockNumber": "The L2 block number of the target block."
        },
        "returns": {
          "_0": "L2 timestamp of the given block."
        }
      },
      "constructor": {
        "custom:semver": "1.3.1",
        "params": {
          "_challenger": "The address of the challenger.",
          "_l2BlockTime": "The time per L2 block, in seconds.",
          "_proposer": "The address of the proposer.",
          "_startingBlockNumber": "The number of the first L2 block.",
          "_startingTimestamp": "The timestamp of the first L2 block.",
          "_submissionInterval": "Interval in blocks at which checkpoints must be submitted."
        }
      },
      "deleteL2Outputs(uint256)": {
        "params": {
          "_l2OutputIndex": "Index of the first L2 output to be deleted.                       All outputs after this output will also be deleted."
        }
      },
      "getL2Output(uint256)": {
        "params": {
          "_l2OutputIndex": "Index of the output to return."
        },
        "returns": {
          "_0": "The output at the given index."
        }
      },
      "getL2OutputAfter(uint256)": {
        "params": {
          "_l2BlockNumber": "L2 block number to find a checkpoint for."
        },
        "returns": {
          "_0": "First checkpoint that commits to the given L2 block number."
        }
      },
      "getL2OutputIndexAfter(uint256)": {
        "params": {
          "_l2BlockNumber": "L2 block number to find a checkpoint for."
        },
        "returns": {
          "_0": "Index of the first checkpoint that commits to the given L2 block number."
        }
      },
      "initialize(uint256,uint256)": {
        "params": {
          "_startingBlockNumber": "Block number for the first recoded L2 block.",
          "_startingTimestamp": "Timestamp for the first recoded L2 block."
        }
      },
      "latestBlockNumber()": {
        "returns": {
          "_0": "Latest submitted L2 block number."
        }
      },
      "latestOutputIndex()": {
        "returns": {
          "_0": "The number of outputs that have been proposed."
        }
      },
      "nextBlockNumber()": {
        "returns": {
          "_0": "Next L2 block number."
        }
      },
      "nextOutputIndex()": {
        "returns": {
          "_0": "The index of the next output to be proposed."
        }
      },
      "proposeL2Output(bytes32,uint256,bytes32,uint256)": {
        "params": {
          "_l1BlockHash": "A block hash which must be included in the current chain.",
          "_l1BlockNumber": "The block number with the specified block hash.",
          "_l2BlockNumber": "The L2 block number that resulted in _outputRoot.",
          "_outputRoot": "The L2 output of the checkpoint block."
        }
      },
      "version()": {
        "returns": {
          "_0": "Semver contract version as a string."
        }
      }
    },
    "version": 1
  },
  "userdoc": {
    "events": {
      "OutputProposed(bytes32,uint256,uint256,uint256)": {
        "notice": "Emitted when an output is proposed."
      },
      "OutputsDeleted(uint256,uint256)": {
        "notice": "Emitted when outputs are deleted."
      }
    },
    "kind": "user",
    "methods": {
      "CHALLENGER()": {
        "notice": "The address of the challenger. Can be updated via upgrade."
      },
      "FINALIZATION_PERIOD_SECONDS()": {
        "notice": "The minimum time (in seconds) that must elapse before a withdrawal can be finalized."
      },
      "L2_BLOCK_TIME()": {
        "notice": "The time between L2 blocks in seconds. Once set, this value MUST NOT be modified."
      },
      "PROPOSER()": {
        "notice": "The address of the proposer. Can be updated via upgrade."
      },
      "SUBMISSION_INTERVAL()": {
        "notice": "The interval in L2 blocks at which checkpoints must be submitted.         Although this is immutable, it can safely be modified by upgrading the         implementation contract."
      },
      "computeL2Timestamp(uint256)": {
        "notice": "Returns the L2 timestamp corresponding to a given L2 block number."
      },
      "constructor": {
        "notice": "Constructs the L2OutputOracle contract."
      },
      "deleteL2Outputs(uint256)": {
        "notice": "Deletes all output proposals after and including the proposal that corresponds to         the given output index. Only the challenger address can delete outputs."
      },
      "getL2Output(uint256)": {
        "notice": "Returns an output by index. Needed to return a struct instead of a tuple."
      },
      "getL2OutputAfter(uint256)": {
        "notice": "Returns the L2 output proposal that checkpoints a given L2 block number.         Uses a binary search to find the first output greater than or equal to the given         block."
      },
      "getL2OutputIndexAfter(uint256)": {
        "notice": "Returns the index of the L2 output that checkpoints a given L2 block number.         Uses a binary search to find the first output greater than or equal to the given         block."
      },
      "initialize(uint256,uint256)": {
        "notice": "Initializer."
      },
      "latestBlockNumber()": {
        "notice": "Returns the block number of the latest submitted L2 output proposal.         If no proposals been submitted yet then this function will return the starting         block number."
      },
      "latestOutputIndex()": {
        "notice": "Returns the number of outputs that have been proposed.         Will revert if no outputs have been proposed yet."
      },
      "nextBlockNumber()": {
        "notice": "Computes the block number of the next L2 block that needs to be checkpointed."
      },
      "nextOutputIndex()": {
        "notice": "Returns the index of the next output to be proposed."
      },
      "proposeL2Output(bytes32,uint256,bytes32,uint256)": {
        "notice": "Accepts an outputRoot and the timestamp of the corresponding L2 block.         The timestamp must be equal to the current value returned by `nextTimestamp()` in         order to be accepted. This function may only be called by the Proposer."
      },
      "startingBlockNumber()": {
        "notice": "The number of the first L2 block recorded in this contract."
      },
      "startingTimestamp()": {
        "notice": "The timestamp of the first L2 block recorded in this contract."
      },
      "version()": {
        "notice": "Returns the full semver contract version."
      }
    },
    "notice": "The L2OutputOracle contains an array of L2 state outputs, where each output is a         commitment to the state of the L2 chain. Other contracts like the OptimismPortal use         these outputs to verify information about the state of L2.",
    "version": 1
  }
}