{
  "contractName": "MIPS",
  "abi": [
    {
      "inputs": [],
      "name": "BRK_START",
      "outputs": [
        {
          "internalType": "uint32",
          "name": "",
          "type": "uint32"
        }
      ],
      "stateMutability": "view",
      "type": "function"
    },
    {
      "inputs": [],
      "name": "oracle",
      "outputs": [
        {
          "internalType": "contract IPreimageOracle",
          "name": "",
          "type": "address"
        }
      ],
      "stateMutability": "view",
      "type": "function"
    },
    {
      "inputs": [
        {
          "internalType": "bytes",
          "name": "stateData",
          "type": "bytes"
        },
        {
          "internalType": "bytes",
          "name": "proof",
          "type": "bytes"
        }
      ],
      "name": "step",
      "outputs": [
        {
          "internalType": "bytes32",
          "name": "",
          "type": "bytes32"
        }
      ],
      "stateMutability": "nonpayable",
      "type": "function"
    }
  ],
  "bytecode": "0x608060405234801561001057600080fd5b506126aa806100206000396000f3fe608060405234801561001057600080fd5b50600436106100415760003560e01c8063155633fe146100465780637dc0d1d014610064578063f8e0cb9614610082575b600080fd5b61004e6100b2565b60405161005b91906120ee565b60405180910390f35b61006c6100ba565b6040516100799190612188565b60405180910390f35b61009c60048036038101906100979190612212565b6100de565b6040516100a991906122ac565b60405180910390f35b634000000081565b60008054906101000a900473ffffffffffffffffffffffffffffffffffffffff1681565b60006100e861200c565b608081146100f557600080fd5b60306020026040511461010757600080fd5b6064861461011457600080fd5b610166841461012257600080fd5b61014b565b60008082358560200360031b1c808552858401925060208501915050935093915050565b85608061015a60208284610127565b9150915061016a60208284610127565b9150915061017a60048284610127565b9150915061018a60048284610127565b9150915061019a60048284610127565b915091506101aa60048284610127565b915091506101ba60048284610127565b915091506101ca60048284610127565b915091506101da60018284610127565b915091506101ea60018284610127565b915091506101fa60088284610127565b9150915060208101815260208101905060005b60208110156102315761022260048385610127565b9250925060018101905061020d565b5050508061012001511561024f57610247610735565b91505061072d565b600181610140018181510191509067ffffffffffffffff16908167ffffffffffffffff1681525050600061028882606001516000610855565b90506000601a8263ffffffff16901c905060028163ffffffff1614806102b4575060038163ffffffff16145b15610301576102f760028263ffffffff16146102d157601f6102d4565b60005b60ff1660026102ea6303ffffff8616601a610931565b63ffffffff16901b6109a6565b935050505061072d565b6000806000601f60108663ffffffff16901c169050856101600151601f60158763ffffffff16901c1663ffffffff1660208110610341576103406122c7565b5b60200201519250600081905060008563ffffffff1614806103685750601c8563ffffffff16145b156103a7578661016001518263ffffffff166020811061038b5761038a6122c7565b5b60200201519250601f600b8763ffffffff16901c169050610467565b60208563ffffffff16101561040a57600c8563ffffffff1614806103d15750600d8563ffffffff16145b806103e25750600e8563ffffffff16145b156103f35761ffff86169250610405565b61040261ffff87166010610931565b92505b610466565b60288563ffffffff16101580610426575060228563ffffffff16145b80610437575060268563ffffffff16145b15610465578661016001518263ffffffff166020811061045a576104596122c7565b5b602002015192508190505b5b5b60048563ffffffff1610158015610484575060088563ffffffff16105b80610495575060018563ffffffff16145b156104b4576104a685878487610aa4565b97505050505050505061072d565b600063ffffffff9050600060208763ffffffff1610610525576104dc61ffff89166010610931565b86019550600063fffffffc871690506104f6816001610855565b915060288863ffffffff1610158015610516575060308863ffffffff1614155b1561052357809250600093505b505b600063ffffffff6105388a898986610ccf565b1690506000603f8a16905060008963ffffffff16148015610560575060088163ffffffff1610155b80156105725750601c8163ffffffff16105b1561069b5760088163ffffffff161480610592575060098163ffffffff16145b156105c9576105b760088263ffffffff16146105ae57856105b1565b60005b896109a6565b9b50505050505050505050505061072d565b600a8163ffffffff16036105fd576105eb858960008a63ffffffff16146114bb565b9b50505050505050505050505061072d565b600b8163ffffffff160361063257610620858960008a63ffffffff1614156114bb565b9b50505050505050505050505061072d565b600c8163ffffffff160361065a576106486115af565b9b50505050505050505050505061072d565b60108163ffffffff16101580156106775750601c8163ffffffff16105b1561069a5761068881898988611bde565b9b50505050505050505050505061072d565b5b60388963ffffffff161480156106b8575060008663ffffffff1614155b156106f55760018b61016001518763ffffffff16602081106106dd576106dc6122c7565b5b602002019063ffffffff16908163ffffffff16815250505b63ffffffff8463ffffffff16146107135761071284600184611ebd565b5b61071f858360016114bb565b9b5050505050505050505050505b949350505050565b600061075b565b6000808460200383015184526020830191508484019050935093915050565b60806040518061076d6020828561073c565b9150925061077d6020828561073c565b9150925061078d6004828561073c565b9150925061079d6004828561073c565b915092506107ad6004828561073c565b915092506107bd6004828561073c565b915092506107cd6004828561073c565b915092506107dd6004828561073c565b915092506107ed6001828561073c565b915092506107fd6001828561073c565b9150925061080d6008828561073c565b9150925060208301925060005b602081101561083e5761082f6004838661073c565b9250935060018101905061081a565b506000815281810382a08181038220935050505090565b60008061086183611f87565b9050600384161561087157600080fd5b8035602082019150610895565b600081600052826020526040600020905092915050565b8460051c8160005b601b8110156108f4578435602086019550600184831c16600081146108c957600181146108da576108e7565b6108d3828561087e565b93506108e7565b6108e4848361087e565b93505b505060018101905061089d565b5060805180821461090d57630badf00d60005260206000fd5b601f881660046020030360031b63ffffffff85821c16965050505050505092915050565b60008060006001840363ffffffff168563ffffffff16901c63ffffffff161415905060008363ffffffff1660018560200363ffffffff166001901b03901b9050600060018563ffffffff166001901b0390508261098f576000610991565b815b818763ffffffff161617935050505092915050565b60006109b061200c565b60809050600481606001510163ffffffff16816080015163ffffffff1614610a0d576040517f08c379a0000000000000000000000000000000000000000000000000000000008152600401610a0490612353565b60405180910390fd5b6000816060015190508160800151826060019063ffffffff16908163ffffffff168152505083826080019063ffffffff16908163ffffffff168152505060008563ffffffff1614610a9257600881018261016001518663ffffffff1660208110610a7a57610a796122c7565b5b602002019063ffffffff16908163ffffffff16815250505b610a9a610735565b9250505092915050565b6000610aae61200c565b608090506000600482606001510163ffffffff16826080015163ffffffff1614610b0d576040517f08c379a0000000000000000000000000000000000000000000000000000000008152600401610b04906123bf565b60405180910390fd5b60048763ffffffff161480610b28575060058763ffffffff16145b15610ba65760008261016001518663ffffffff1660208110610b4d57610b4c6122c7565b5b602002015190508063ffffffff168563ffffffff16148015610b75575060048863ffffffff16145b80610b9e57508063ffffffff168563ffffffff1614158015610b9d575060058863ffffffff16145b5b915050610c35565b60068763ffffffff1603610bc35760008460030b13159050610c34565b60078763ffffffff1603610bdf5760008460030b139050610c33565b60018763ffffffff1603610c32576000601f60108863ffffffff16901c16905060008163ffffffff1603610c175760008560030b1291505b60018163ffffffff1603610c305760008560030b121591505b505b5b5b5b6000826060015190508260800151836060019063ffffffff16908163ffffffff16815250508115610c9a576002610c7161ffff89166010610931565b63ffffffff16901b6004820101836080019063ffffffff16908163ffffffff1681525050610cba565b6004836080015101836080019063ffffffff16908163ffffffff16815250505b610cc2610735565b9350505050949350505050565b600080601a8663ffffffff16901c90506000603f8716905060208263ffffffff16101561110e5760088263ffffffff1610158015610d135750600f8263ffffffff16105b15610dc05760088263ffffffff1603610d2f5760209050610dbb565b60098263ffffffff1603610d465760219050610dba565b600a8263ffffffff1603610d5d57602a9050610db9565b600b8263ffffffff1603610d7457602b9050610db8565b600c8263ffffffff1603610d8b5760249050610db7565b600d8263ffffffff1603610da25760259050610db6565b600e8263ffffffff1603610db557602690505b5b5b5b5b5b5b600091505b60008263ffffffff160361104e576000601f60068963ffffffff16901c16905060208263ffffffff161015610f175760088263ffffffff1610610e08578693505050506114b3565b60008263ffffffff1603610e30578063ffffffff168663ffffffff16901b93505050506114b3565b60028263ffffffff1603610e58578063ffffffff168663ffffffff16901c93505050506114b3565b60038263ffffffff1603610e8c57610e828163ffffffff168763ffffffff16901c82602003610931565b93505050506114b3565b60048263ffffffff1603610eb757601f871663ffffffff168663ffffffff16901b93505050506114b3565b60068263ffffffff1603610ee257601f871663ffffffff168663ffffffff16901c93505050506114b3565b60078263ffffffff1603610f1657610f0c8763ffffffff168763ffffffff16901c88602003610931565b93505050506114b3565b5b60208263ffffffff161480610f32575060218263ffffffff16145b15610f445785870193505050506114b3565b60228263ffffffff161480610f5f575060238263ffffffff16145b15610f715785870393505050506114b3565b60248263ffffffff1603610f8c5785871693505050506114b3565b60258263ffffffff1603610fa75785871793505050506114b3565b60268263ffffffff1603610fc25785871893505050506114b3565b60278263ffffffff1603610fde578587171993505050506114b3565b602a8263ffffffff1603611010578560030b8760030b12611000576000611003565b60015b60ff1693505050506114b3565b602b8263ffffffff1603611048578563ffffffff168763ffffffff161061103857600061103b565b60015b60ff1693505050506114b3565b50611109565b600f8263ffffffff16036110705760108563ffffffff16901b925050506114b3565b601c8263ffffffff16036111085760028163ffffffff160361109857848602925050506114b3565b60208163ffffffff1614806110b3575060218163ffffffff16145b156111075760208163ffffffff16036110cb57851995505b60005b60006380000000881663ffffffff16146110fc57808060010191505060018763ffffffff16901b96506110ce565b8093505050506114b3565b5b5b611478565b60288263ffffffff1610156112c85760208263ffffffff160361115a5761115160ff6008600389160260180363ffffffff168663ffffffff16901c166008610931565b925050506114b3565b60218263ffffffff16036111985761118f61ffff6008600289160260100363ffffffff168663ffffffff16901c166010610931565b925050506114b3565b60228263ffffffff16036111eb5760006008600388160263ffffffff168563ffffffff16901b905060006008600389160263ffffffff1663ffffffff8016901b90508181198816179450505050506114b3565b60238263ffffffff16036112035783925050506114b3565b60248263ffffffff16036112365760ff6008600388160260180363ffffffff168563ffffffff16901c16925050506114b3565b60258263ffffffff160361126a5761ffff6008600288160260100363ffffffff168563ffffffff16901c16925050506114b3565b60268263ffffffff16036112c35760006008600388160260180363ffffffff168563ffffffff16901c905060006008600389160260180363ffffffff1663ffffffff8016901c90508181198816179450505050506114b3565b611477565b60288263ffffffff16036113245760006008600388160260180363ffffffff1660ff871663ffffffff16901b905060006008600389160260180363ffffffff1660ff901b63ffffffff18905081818716179450505050506114b3565b60298263ffffffff16036113825760006008600288160260100363ffffffff1661ffff871663ffffffff16901b905060006008600289160260100363ffffffff1661ffff901b63ffffffff18905081818716179450505050506114b3565b602a8263ffffffff16036113d55760006008600388160263ffffffff168663ffffffff16901c905060006008600389160263ffffffff1663ffffffff8016901c90508181198716179450505050506114b3565b602b8263ffffffff16036113ed5784925050506114b3565b602e8263ffffffff16036114465760006008600388160260180363ffffffff168663ffffffff16901b905060006008600389160260180363ffffffff1663ffffffff8016901b90508181198716179450505050506114b3565b60308263ffffffff160361145e5783925050506114b3565b60388263ffffffff16036114765784925050506114b3565b5b5b6040517f08c379a00000000000000000000000000000000000000000000000000000000081526004016114aa9061242b565b60405180910390fd5b949350505050565b60006114c561200c565b6080905060208563ffffffff1610611512576040517f08c379a000000000000000000000000000000000000000000000000000000000815260040161150990612497565b60405180910390fd5b60008563ffffffff16141580156115265750825b1561156257838161016001518663ffffffff166020811061154a576115496122c7565b5b602002019063ffffffff16908163ffffffff16815250505b8060800151816060019063ffffffff16908163ffffffff16815250506004816080015101816080019063ffffffff16908163ffffffff16815250506115a5610735565b9150509392505050565b60006115b961200c565b6080905060008161016001516002602081106115d8576115d76122c7565b5b6020020151905060008060008461016001516004602081106115fd576115fc6122c7565b5b60200201519050600085610160015160056020811061161f5761161e6122c7565b5b602002015190506000866101600151600660208110611641576116406122c7565b5b60200201519050610ffa8663ffffffff16036116be5760008290506000610fff821663ffffffff161461167c57610fff811661100003810190505b60008463ffffffff16036116b4578760e001519550808860e0018181510191509063ffffffff16908163ffffffff16815250506116b8565b8395505b50611b2c565b610fcd8663ffffffff16036116d95763400000009450611b2b565b6110188663ffffffff16036116f15760019450611b2a565b6110968663ffffffff160361173b576001876101200190151590811515815250508287610100019060ff16908160ff168152505061172d610735565b975050505050505050611bdb565b610fa38663ffffffff160361193857600063ffffffff168363ffffffff16031561193357600563ffffffff168363ffffffff160361190957600061178663fffffffc84166001610855565b90506000886020015190506001816000602081106117a7576117a66122c7565b5b1a60f81b60f81c60ff16036117c2576117bf81611fe9565b90505b60008060008054906101000a900473ffffffffffffffffffffffffffffffffffffffff1673ffffffffffffffffffffffffffffffffffffffff1663e03110e1848d604001516040518363ffffffff1660e01b81526004016118249291906124f2565b6040805180830381865afa158015611840573d6000803e3d6000fd5b505050506040513d601f19601f820116820180604052508101906118649190612573565b9150915060038616806004038281101561187c578092505b82871015611888578692505b8360088402610100031c9350836008838560040303021b9350600180600884600403021b036001806008868660040303021b038019821691508582198916179750505050506118df63fffffffc8716600186611ebd565b808b6040018181510191509063ffffffff16908163ffffffff168152505080985050505050611932565b600363ffffffff168363ffffffff160361192557809450611931565b63ffffffff9450600993505b5b5b611b29565b610fa48663ffffffff1603611a3c57600163ffffffff168363ffffffff16148061196e5750600263ffffffff168363ffffffff16145b806119855750600463ffffffff168363ffffffff16145b1561199257809450611a37565b600663ffffffff168363ffffffff1603611a2a5760006119b963fffffffc84166001610855565b90506000886020015190506003841680600403848110156119d8578094505b82600886021b9250600180600887021b0380856008888503021c1694508484179350505050808960200181815250506000896040019063ffffffff16908163ffffffff16815250508296505050611a36565b63ffffffff9450600993505b5b611b28565b610fd78663ffffffff1603611b275760038263ffffffff1603611b1a57600063ffffffff168363ffffffff161480611a805750600563ffffffff168363ffffffff16145b80611a975750600363ffffffff168363ffffffff16145b15611aa55760009450611b15565b600163ffffffff168363ffffffff161480611acc5750600263ffffffff168363ffffffff16145b80611ae35750600663ffffffff168363ffffffff16145b80611afa5750600463ffffffff168363ffffffff16145b15611b085760019450611b14565b63ffffffff9450600993505b5b611b26565b63ffffffff9450601693505b5b5b5b5b5b5b84876101600151600260208110611b4657611b456122c7565b5b602002019063ffffffff16908163ffffffff168152505083876101600151600760208110611b7757611b766122c7565b5b602002019063ffffffff16908163ffffffff16815250508660800151876060019063ffffffff16908163ffffffff16815250506004876080015101876080019063ffffffff16908163ffffffff1681525050611bd1610735565b9750505050505050505b90565b6000611be861200c565b60809050600060108763ffffffff1603611c08578160c001519050611e29565b60118763ffffffff1603611c3357858260c0019063ffffffff16908163ffffffff1681525050611e28565b60128763ffffffff1603611c4d578160a001519050611e27565b60138763ffffffff1603611c7857858260a0019063ffffffff16908163ffffffff1681525050611e26565b60188763ffffffff1603611cd75760008560030b8760030b02905060208167ffffffffffffffff16901c8360c0019063ffffffff16908163ffffffff1681525050808360a0019063ffffffff16908163ffffffff168152505050611e25565b60198763ffffffff1603611d3c5760008563ffffffff168763ffffffff1602905060208167ffffffffffffffff16901c8360c0019063ffffffff16908163ffffffff1681525050808360a0019063ffffffff16908163ffffffff168152505050611e24565b601a8763ffffffff1603611dab578460030b8660030b81611d6057611d5f6125b3565b5b078260c0019063ffffffff16908163ffffffff16815250508460030b8660030b81611d8e57611d8d6125b3565b5b058260a0019063ffffffff16908163ffffffff1681525050611e23565b601b8763ffffffff1603611e22578463ffffffff168663ffffffff1681611dd557611dd46125b3565b5b068260c0019063ffffffff16908163ffffffff16815250508463ffffffff168663ffffffff1681611e0957611e086125b3565b5b048260a0019063ffffffff16908163ffffffff16815250505b5b5b5b5b5b5b5b60008463ffffffff1614611e6e57808261016001518563ffffffff1660208110611e5657611e556122c7565b5b602002019063ffffffff16908163ffffffff16815250505b8160800151826060019063ffffffff16908163ffffffff16815250506004826080015101826080019063ffffffff16908163ffffffff1681525050611eb1610735565b92505050949350505050565b6000611ec883611f87565b90506003841615611ed857600080fd5b8035601f851660046020030360031b83811b63ffffffff821b198316179150602083019250611f19565b600081600052826020526040600020905092915050565b8560051c8260005b601b811015611f78578535602087019650600184831c1660008114611f4d5760018114611f5e57611f6b565b611f578285611f02565b9350611f6b565b611f688483611f02565b93505b5050600181019050611f21565b50806080525050505050505050565b60006103808260ff160261016601905060003690506103808201811015611fe3576040517f08c379a0000000000000000000000000000000000000000000000000000000008152600401611fda90612654565b60405180910390fd5b50919050565b60008160005233602052600160f81b60ff60f81b19604060002016179050919050565b6040518061018001604052806000801916815260200160008019168152602001600063ffffffff168152602001600063ffffffff168152602001600063ffffffff168152602001600063ffffffff168152602001600063ffffffff168152602001600063ffffffff168152602001600060ff168152602001600015158152602001600067ffffffffffffffff1681526020016120a66120ac565b81525090565b604051806104000160405280602090602082028036833780820191505090505090565b600063ffffffff82169050919050565b6120e8816120cf565b82525050565b600060208201905061210360008301846120df565b92915050565b600073ffffffffffffffffffffffffffffffffffffffff82169050919050565b6000819050919050565b600061214e61214961214484612109565b612129565b612109565b9050919050565b600061216082612133565b9050919050565b600061217282612155565b9050919050565b61218281612167565b82525050565b600060208201905061219d6000830184612179565b92915050565b600080fd5b600080fd5b600080fd5b600080fd5b600080fd5b60008083601f8401126121d2576121d16121ad565b5b8235905067ffffffffffffffff8111156121ef576121ee6121b2565b5b60208301915083600182028301111561220b5761220a6121b7565b5b9250929050565b6000806000806040858703121561222c5761222b6121a3565b5b600085013567ffffffffffffffff81111561224a576122496121a8565b5b612256878288016121bc565b9450945050602085013567ffffffffffffffff811115612279576122786121a8565b5b612285878288016121bc565b925092505092959194509250565b6000819050919050565b6122a681612293565b82525050565b60006020820190506122c1600083018461229d565b92915050565b7f4e487b7100000000000000000000000000000000000000000000000000000000600052603260045260246000fd5b600082825260208201905092915050565b7f6a756d7020696e2064656c617920736c6f740000000000000000000000000000600082015250565b600061233d6012836122f6565b915061234882612307565b602082019050919050565b6000602082019050818103600083015261236c81612330565b9050919050565b7f6272616e636820696e2064656c617920736c6f74000000000000000000000000600082015250565b60006123a96014836122f6565b91506123b482612373565b602082019050919050565b600060208201905081810360008301526123d88161239c565b9050919050565b7f696e76616c696420696e737472756374696f6e00000000000000000000000000600082015250565b60006124156013836122f6565b9150612420826123df565b602082019050919050565b6000602082019050818103600083015261244481612408565b9050919050565b7f76616c6964207265676973746572000000000000000000000000000000000000600082015250565b6000612481600e836122f6565b915061248c8261244b565b602082019050919050565b600060208201905081810360008301526124b081612474565b9050919050565b6000819050919050565b60006124dc6124d76124d2846120cf565b612129565b6124b7565b9050919050565b6124ec816124c1565b82525050565b6000604082019050612507600083018561229d565b61251460208301846124e3565b9392505050565b61252481612293565b811461252f57600080fd5b50565b6000815190506125418161251b565b92915050565b612550816124b7565b811461255b57600080fd5b50565b60008151905061256d81612547565b92915050565b6000806040838503121561258a576125896121a3565b5b600061259885828601612532565b92505060206125a98582860161255e565b9150509250929050565b7f4e487b7100000000000000000000000000000000000000000000000000000000600052601260045260246000fd5b7f636865636b207468617420746865726520697320656e6f7567682063616c6c6460008201527f6174610000000000000000000000000000000000000000000000000000000000602082015250565b600061263e6023836122f6565b9150612649826125e2565b604082019050919050565b6000602082019050818103600083015261266d81612631565b905091905056fea2646970667358221220e9c4845c659ceb96a5cd2a1088b19bf710589850fe7ffc6dbd4be12617feb19664736f6c634300080f0033",
  "immutableReferences": {},
  "source": "// SPDX-License-Identifier: MIT\npragma solidity 0.8.15;\n\nimport { IPreimageOracle } from \"./interfaces/IPreimageOracle.sol\";\nimport { PreimageKeyLib } from \"./PreimageKeyLib.sol\";\n\n/// @title MIPS\n/// @notice The MIPS contract emulates a single MIPS instruction.\n///         Note that delay slots are isolated instructions:\n///         the nextPC in the state pre-schedules where the VM jumps next.\n///         The Step input is a packed VM state, with binary-merkle-tree\n///         witness data for memory reads/writes.\n///         The Step outputs a keccak256 hash of the packed VM State,\n///         and logs the resulting state for offchain usage.\n/// @dev https://inst.eecs.berkeley.edu/~cs61c/resources/MIPS_Green_Sheet.pdf\n/// @dev https://www.cs.cmu.edu/afs/cs/academic/class/15740-f97/public/doc/mips-isa.pdf\n///      (page A-177)\n/// @dev https://uweb.engr.arizona.edu/~ece369/Resources/spim/MIPSReference.pdf\n/// @dev https://en.wikibooks.org/wiki/MIPS_Assembly/Instruction_Formats\n/// @dev https://github.com/golang/go/blob/master/src/syscall/zerrors_linux_mips.go\n///      MIPS linux kernel errors used by Go runtime\ncontract MIPS {\n\n    /// @notice Stores the VM state.\n    ///         Total state size: 32 + 32 + 6 * 4 + 1 + 1 + 8 + 32 * 4 = 226 bytes\n    ///         If nextPC != pc + 4, then the VM is executing a branch/jump delay slot.\n    struct State {\n        bytes32 memRoot;\n        bytes32 preimageKey;\n        uint32 preimageOffset;\n        uint32 pc;\n        uint32 nextPC;\n        uint32 lo;\n        uint32 hi;\n        uint32 heap;\n        uint8 exitCode;\n        bool exited;\n        uint64 step;\n        uint32[32] registers;\n    }\n\n    /// @notice Start of the data segment.\n    uint32 constant public BRK_START = 0x40000000;\n\n    uint32 constant FD_STDIN = 0;\n    uint32 constant FD_STDOUT = 1;\n    uint32 constant FD_STDERR = 2;\n    uint32 constant FD_HINT_READ = 3;\n    uint32 constant FD_HINT_WRITE = 4;\n    uint32 constant FD_PREIMAGE_READ = 5;\n    uint32 constant FD_PREIMAGE_WRITE = 6;\n\n    uint32 constant EBADF = 0x9;\n    uint32 constant EINVAL = 0x16;\n\n    /// @notice The pre-image oracle.\n    IPreimageOracle public oracle;\n\n    /// @notice Extends the value leftwards with its most significant bit (sign extension).\n    function SE(uint32 _dat, uint32 _idx) internal pure returns (uint32) {\n        unchecked {\n            bool isSigned = (_dat >> (_idx - 1)) != 0;\n            uint256 signed = ((1 << (32 - _idx)) - 1) << _idx;\n            uint256 mask = (1 << _idx) - 1;\n            return uint32(_dat & mask | (isSigned ? signed : 0));\n        }\n    }\n\n    /// @notice Computes the hash of the MIPS state.\n    /// @return out_ The hash of the MIPS state.\n    function outputState() internal returns (bytes32 out_) {\n        assembly {\n            // copies 'size' bytes, right-aligned in word at 'from', to 'to', incl. trailing data\n            function copyMem(from, to, size) -> fromOut, toOut {\n                mstore(to, mload(add(from, sub(32, size))))\n                fromOut := add(from, 32)\n                toOut := add(to, size)\n            }\n\n            // From points to the MIPS State\n            let from := 0x80\n\n            // Copy to the free memory pointer\n            let start := mload(0x40)\n            let to := start\n\n            // Copy state to free memory\n            from, to := copyMem(from, to, 32)  // memRoot\n            from, to := copyMem(from, to, 32)  // preimageKey\n            from, to := copyMem(from, to, 4)   // preimageOffset\n            from, to := copyMem(from, to, 4)   // pc\n            from, to := copyMem(from, to, 4)   // nextPC\n            from, to := copyMem(from, to, 4)   // lo\n            from, to := copyMem(from, to, 4)   // hi\n            from, to := copyMem(from, to, 4)   // heap\n            from, to := copyMem(from, to, 1)   // exitCode\n            from, to := copyMem(from, to, 1)   // exited\n            from, to := copyMem(from, to, 8)   // step\n            from := add(from, 32)              // offset to registers\n\n            // Copy registers\n            for { let i := 0 } lt(i, 32) { i := add(i, 1) } {\n                from, to := copyMem(from, to, 4)\n            }\n\n            // Clean up end of memory\n            mstore(to, 0)\n\n            // Log the resulting MIPS state, for debugging\n            log0(start, sub(to, start))\n\n            // Compute the hash of the resulting MIPS state\n            out_ := keccak256(start, sub(to, start))\n        }\n    }\n\n    /// @notice Handles a syscall.\n    function handleSyscall() internal returns (bytes32 out_) {\n        unchecked {\n            // Load state from memory\n            State memory state;\n            assembly {\n                state := 0x80\n            }\n\n            // Load the syscall number from the registers\n            uint32 syscall_no = state.registers[2];\n            uint32 v0 = 0;\n            uint32 v1 = 0;\n\n            // Load the syscall arguments from the registers\n            uint32 a0 = state.registers[4];\n            uint32 a1 = state.registers[5];\n            uint32 a2 = state.registers[6];\n\n            // mmap: Allocates a page from the heap.\n            if (syscall_no == 4090) {\n                uint32 sz = a1;\n                if (sz&4095 != 0) { // adjust size to align with page size\n                    sz += 4096 - (sz&4095);\n                }\n                if (a0 == 0) {\n                    v0 = state.heap;\n                    state.heap += sz;\n                } else {\n                    v0 = a0;\n                }\n            }\n            // brk: Returns a fixed address for the program break at 0x40000000\n            else if (syscall_no == 4045) {\n                v0 = BRK_START;\n            }\n            // clone (not supported) returns 1\n            else if (syscall_no == 4120) {\n                v0 = 1;\n            }\n            // exit group: Sets the Exited and ExitCode states to true and argument 0.\n            else if (syscall_no == 4246) {\n                state.exited = true;\n                state.exitCode = uint8(a0);\n                return outputState();\n            }\n            // read: Like Linux read syscall. Splits unaligned reads into aligned reads.\n            else if (syscall_no == 4003) {\n                // args: a0 = fd, a1 = addr, a2 = count\n                // returns: v0 = read, v1 = err code\n                if (a0 == FD_STDIN) {\n                    // Leave v0 and v1 zero: read nothing, no error\n                }\n                // pre-image oracle read\n                else if (a0 == FD_PREIMAGE_READ) {\n                    // verify proof 1 is correct, and get the existing memory.\n                    uint32 mem = readMem(a1 & 0xFFffFFfc, 1); // mask the addr to align it to 4 bytes\n                    bytes32 preimageKey = state.preimageKey;\n                    // If the preimage key is a local key, localize it in the context of the caller.\n                    if (uint8(preimageKey[0]) == 1) {\n                        preimageKey = PreimageKeyLib.localize(preimageKey);\n                    }\n                    (bytes32 dat, uint256 datLen) = oracle.readPreimage(preimageKey, state.preimageOffset);\n\n                    // Transform data for writing to memory\n                    // We use assembly for more precise ops, and no var count limit\n                    assembly {\n                        let alignment := and(a1, 3) // the read might not start at an aligned address\n                        let space := sub(4, alignment) // remaining space in memory word\n                        if lt(space, datLen) { datLen := space } // if less space than data, shorten data\n                        if lt(a2, datLen) { datLen := a2 } // if requested to read less, read less\n                        dat := shr(sub(256, mul(datLen, 8)), dat) // right-align data\n                        dat := shl(mul(sub(sub(4, datLen), alignment), 8), dat) // position data to insert into memory word\n                        let mask := sub(shl(mul(sub(4, alignment), 8), 1), 1) // mask all bytes after start\n                        let suffixMask := sub(shl(mul(sub(sub(4, alignment), datLen), 8), 1), 1) // mask of all bytes starting from end, maybe none\n                        mask := and(mask, not(suffixMask)) // reduce mask to just cover the data we insert\n                        mem := or(and(mem, not(mask)), dat) // clear masked part of original memory, and insert data\n                    }\n\n                    // Write memory back\n                    writeMem(a1 & 0xFFffFFfc, 1, mem);\n                    state.preimageOffset += uint32(datLen);\n                    v0 = uint32(datLen);\n                }\n                // hint response\n                else if (a0 == FD_HINT_READ) {\n                    // Don't read into memory, just say we read it all\n                    // The result is ignored anyway\n                    v0 = a2;\n                }\n                else {\n                    v0 = 0xFFffFFff;\n                    v1 = EBADF;\n                }\n            }\n            // write: like Linux write syscall. Splits unaligned writes into aligned writes.\n            else if (syscall_no == 4004) {\n                // args: a0 = fd, a1 = addr, a2 = count\n                // returns: v0 = written, v1 = err code\n                if (a0 == FD_STDOUT || a0 == FD_STDERR || a0 == FD_HINT_WRITE) {\n                    v0 = a2; // tell program we have written everything\n                }\n                // pre-image oracle\n                else if (a0 == FD_PREIMAGE_WRITE) {\n                    uint32 mem = readMem(a1 & 0xFFffFFfc, 1); // mask the addr to align it to 4 bytes\n                    bytes32 key = state.preimageKey;\n\n                    // Construct pre-image key from memory\n                    // We use assembly for more precise ops, and no var count limit\n                    assembly {\n                        let alignment := and(a1, 3) // the read might not start at an aligned address\n                        let space := sub(4, alignment) // remaining space in memory word\n                        if lt(space, a2) { a2 := space } // if less space than data, shorten data\n                        key := shl(mul(a2, 8), key) // shift key, make space for new info\n                        let mask := sub(shl(mul(a2, 8), 1), 1) // mask for extracting value from memory\n                        mem := and(shr(mul(sub(space, a2), 8), mem), mask) // align value to right, mask it\n                        key := or(key, mem) // insert into key\n                    }\n\n                    // Write pre-image key to oracle\n                    state.preimageKey = key;\n                    state.preimageOffset = 0; // reset offset, to read new pre-image data from the start\n                    v0 = a2;\n                }\n                else {\n                    v0 = 0xFFffFFff;\n                    v1 = EBADF;\n                }\n            }\n            // fcntl: Like linux fcntl syscall, but only supports minimal file-descriptor control commands,\n            // to retrieve the file-descriptor R/W flags.\n            else if (syscall_no == 4055) { // fcntl\n                // args: a0 = fd, a1 = cmd\n                if (a1 == 3) { // F_GETFL: get file descriptor flags\n                    if (a0 == FD_STDIN || a0 == FD_PREIMAGE_READ || a0 == FD_HINT_READ) {\n                        v0 = 0; // O_RDONLY\n                    } else if (a0 == FD_STDOUT || a0 == FD_STDERR || a0 == FD_PREIMAGE_WRITE || a0 == FD_HINT_WRITE) {\n                        v0 = 1; // O_WRONLY\n                    } else {\n                        v0 = 0xFFffFFff;\n                        v1 = EBADF;\n                    }\n                } else {\n                    v0 = 0xFFffFFff;\n                    v1 = EINVAL; // cmd not recognized by this kernel\n                }\n            }\n\n            // Write the results back to the state registers\n            state.registers[2] = v0;\n            state.registers[7] = v1;\n\n            // Update the PC and nextPC\n            state.pc = state.nextPC;\n            state.nextPC = state.nextPC + 4;\n\n            out_ = outputState();\n        }\n    }\n\n    /// @notice Handles a branch instruction, updating the MIPS state PC where needed.\n    /// @param _opcode The opcode of the branch instruction.\n    /// @param _insn The instruction to be executed.\n    /// @param _rtReg The register to be used for the branch.\n    /// @param _rs The register to be compared with the branch register.\n    /// @return out_ The hashed MIPS state.\n    function handleBranch(uint32 _opcode, uint32 _insn, uint32 _rtReg, uint32 _rs) internal returns (bytes32 out_) {\n        unchecked {\n            // Load state from memory\n            State memory state;\n            assembly {\n                state := 0x80\n            }\n\n            bool shouldBranch = false;\n\n            if (state.nextPC != state.pc+4) {\n                revert(\"branch in delay slot\");\n            }\n\n            // beq/bne: Branch on equal / not equal\n            if (_opcode == 4 || _opcode == 5) {\n                uint32 rt = state.registers[_rtReg];\n                shouldBranch = (_rs == rt && _opcode == 4) || (_rs != rt && _opcode == 5);\n            }\n            // blez: Branches if instruction is less than or equal to zero\n            else if (_opcode == 6) {\n                shouldBranch = int32(_rs) <= 0;\n            }\n            // bgtz: Branches if instruction is greater than zero\n            else if (_opcode == 7) {\n                shouldBranch = int32(_rs) > 0;\n            }\n            // bltz/bgez: Branch on less than zero / greater than or equal to zero\n            else if (_opcode == 1) {\n                // regimm\n                uint32 rtv = ((_insn >> 16) & 0x1F);\n                if (rtv == 0) {\n                    shouldBranch = int32(_rs) < 0;\n                }\n                if (rtv == 1) {\n                    shouldBranch = int32(_rs) >= 0;\n                }\n            }\n\n            // Update the state's previous PC\n            uint32 prevPC = state.pc;\n\n            // Execute the delay slot first\n            state.pc = state.nextPC;\n\n            // If we should branch, update the PC to the branch target\n            // Otherwise, proceed to the next instruction\n            if (shouldBranch) {\n                state.nextPC = prevPC + 4 + (SE(_insn & 0xFFFF, 16) << 2);\n            } else {\n                state.nextPC = state.nextPC + 4;\n            }\n\n            // Return the hash of the resulting state\n            out_ = outputState();\n        }\n    }\n\n    /// @notice Handles HI and LO register instructions.\n    /// @param _func The function code of the instruction.\n    /// @param _rs The value of the RS register.\n    /// @param _rt The value of the RT register.\n    /// @param _storeReg The register to store the result in.\n    /// @return out_ The hash of the resulting MIPS state.\n    function handleHiLo(uint32 _func, uint32 _rs, uint32 _rt, uint32 _storeReg) internal returns (bytes32 out_) {\n        unchecked {\n            // Load state from memory\n            State memory state;\n            assembly {\n                state := 0x80\n            }\n\n            uint32 val;\n\n            // mfhi: Move the contents of the HI register into the destination\n            if (_func == 0x10) {\n                val = state.hi;\n            }\n            // mthi: Move the contents of the source into the HI register\n            else if (_func == 0x11) {\n                state.hi = _rs;\n            }\n            // mflo: Move the contents of the LO register into the destination\n            else if (_func == 0x12) {\n                val = state.lo;\n            }\n            // mtlo: Move the contents of the source into the LO register\n            else if (_func == 0x13) {\n                state.lo = _rs;\n            }\n            // mult: Multiplies `rs` by `rt` and stores the result in HI and LO registers\n            else if (_func == 0x18) {\n                uint64 acc = uint64(int64(int32(_rs)) * int64(int32(_rt)));\n                state.hi = uint32(acc >> 32);\n                state.lo = uint32(acc);\n            }\n            // multu: Unsigned multiplies `rs` by `rt` and stores the result in HI and LO registers\n            else if (_func == 0x19) {\n                uint64 acc = uint64(uint64(_rs) * uint64(_rt));\n                state.hi = uint32(acc >> 32);\n                state.lo = uint32(acc);\n            }\n            // div: Divides `rs` by `rt`.\n            // Stores the quotient in LO\n            // And the remainder in HI\n            else if (_func == 0x1a) {\n                state.hi = uint32(int32(_rs) % int32(_rt));\n                state.lo = uint32(int32(_rs) / int32(_rt));\n            }\n            // divu: Unsigned divides `rs` by `rt`.\n            // Stores the quotient in LO\n            // And the remainder in HI\n            else if (_func == 0x1b) {\n                state.hi = _rs % _rt;\n                state.lo = _rs / _rt;\n            }\n\n            // Store the result in the destination register, if applicable\n            if (_storeReg != 0) {\n                state.registers[_storeReg] = val;\n            }\n\n            // Update the PC\n            state.pc = state.nextPC;\n            state.nextPC = state.nextPC + 4;\n\n            // Return the hash of the resulting state\n            out_ = outputState();\n        }\n    }\n\n    /// @notice Handles a jump instruction, updating the MIPS state PC where needed.\n    /// @param _linkReg The register to store the link to the instruction after the delay slot instruction.\n    /// @param _dest The destination to jump to.\n    /// @return out_ The hashed MIPS state.\n    function handleJump(uint32 _linkReg, uint32 _dest) internal returns (bytes32 out_) {\n        unchecked {\n            // Load state from memory.\n            State memory state;\n            assembly {\n                state := 0x80\n            }\n\n            if (state.nextPC != state.pc+4) {\n                revert(\"jump in delay slot\");\n            }\n\n            // Update the next PC to the jump destination.\n            uint32 prevPC = state.pc;\n            state.pc = state.nextPC;\n            state.nextPC = _dest;\n\n            // Update the link-register to the instruction after the delay slot instruction.\n            if (_linkReg != 0) {\n                state.registers[_linkReg] = prevPC + 8;\n            }\n\n            // Return the hash of the resulting state.\n            out_ = outputState();\n        }\n    }\n\n    /// @notice Handles a storing a value into a register.\n    /// @param _storeReg The register to store the value into.\n    /// @param _val The value to store.\n    /// @param _conditional Whether or not the store is conditional.\n    /// @return out_ The hashed MIPS state.\n    function handleRd(uint32 _storeReg, uint32 _val, bool _conditional) internal returns (bytes32 out_) {\n        unchecked {\n            // Load state from memory.\n            State memory state;\n            assembly {\n                state := 0x80\n            }\n\n            // The destination register must be valid.\n            require(_storeReg < 32, \"valid register\");\n\n            // Never write to reg 0, and it can be conditional (movz, movn).\n            if (_storeReg != 0 && _conditional) {\n                state.registers[_storeReg] = _val;\n            }\n\n            // Update the PC.\n            state.pc = state.nextPC;\n            state.nextPC = state.nextPC + 4;\n\n            // Return the hash of the resulting state.\n            out_ = outputState();\n        }\n    }\n\n    /// @notice Computes the offset of the proof in the calldata.\n    /// @param _proofIndex The index of the proof in the calldata.\n    /// @return offset_ The offset of the proof in the calldata.\n    function proofOffset(uint8 _proofIndex) internal pure returns (uint256 offset_) {\n        unchecked {\n            // A proof of 32 bit memory, with 32-byte leaf values, is (32-5)=27 bytes32 entries.\n            // And the leaf value itself needs to be encoded as well. And proof.offset == 358\n            offset_ = 358 + (uint256(_proofIndex) * (28 * 32));\n            uint256 s = 0;\n            assembly { s := calldatasize() }\n            require(s >= (offset_ + 28 * 32), \"check that there is enough calldata\");\n            return offset_;\n        }\n    }\n\n    /// @notice Reads a 32-bit value from memory.\n    /// @param _addr The address to read from.\n    /// @param _proofIndex The index of the proof in the calldata.\n    /// @return out_ The hashed MIPS state.\n    function readMem(uint32 _addr, uint8 _proofIndex) internal pure returns (uint32 out_) {\n        unchecked {\n            // Compute the offset of the proof in the calldata.\n            uint256 offset = proofOffset(_proofIndex);\n\n            assembly {\n                // Validate the address alignement.\n                if and(_addr, 3) {\n                    revert(0, 0)\n                }\n\n                // Load the leaf value.\n                let leaf := calldataload(offset)\n                offset := add(offset, 32)\n\n                // Convenience function to hash two nodes together in scratch space.\n                function hashPair(a, b) -> h {\n                    mstore(0, a)\n                    mstore(32, b)\n                    h := keccak256(0, 64)\n                }\n\n                // Start with the leaf node.\n                // Work back up by combining with siblings, to reconstruct the root.\n                let path := shr(5, _addr)\n                let node := leaf\n                for { let i := 0 } lt(i, 27) { i := add(i, 1) } {\n                    let sibling := calldataload(offset)\n                    offset := add(offset, 32)\n                    switch and(shr(i, path), 1)\n                    case 0 {\n                        node := hashPair(node, sibling)\n                    } case 1 {\n                        node := hashPair(sibling, node)\n                    }\n                }\n\n                // Load the memory root from the first field of state.\n                let memRoot := mload(0x80)\n\n                // Verify the root matches.\n                if iszero(eq(node, memRoot)) {\n                    mstore(0, 0x0badf00d)\n                    revert(0, 32)\n                }\n\n                // Bits to shift = (32 - 4 - (addr % 32)) * 8\n                let shamt := shl(3, sub(sub(32, 4), and(_addr, 31)))\n                out_ := and(shr(shamt, leaf), 0xFFffFFff)\n            }\n        }\n    }\n\n    /// @notice Writes a 32-bit value to memory.\n    ///         This function first overwrites the part of the leaf.\n    ///         Then it recomputes the memory merkle root.\n    /// @param _addr The address to write to.\n    /// @param _proofIndex The index of the proof in the calldata.\n    /// @param _val The value to write.\n    function writeMem(uint32 _addr, uint8 _proofIndex, uint32 _val) internal pure {\n        unchecked {\n            // Compute the offset of the proof in the calldata.\n            uint256 offset = proofOffset(_proofIndex);\n\n            assembly {\n                // Validate the address alignement.\n                if and(_addr, 3) {\n                    revert(0, 0)\n                }\n\n                // Load the leaf value.\n                let leaf := calldataload(offset)\n                let shamt := shl(3, sub(sub(32, 4), and(_addr, 31)))\n\n                // Mask out 4 bytes, and OR in the value\n                leaf := or(and(leaf, not(shl(shamt, 0xFFffFFff))), shl(shamt, _val))\n                offset := add(offset, 32)\n\n                // Convenience function to hash two nodes together in scratch space.\n                function hashPair(a, b) -> h {\n                    mstore(0, a)\n                    mstore(32, b)\n                    h := keccak256(0, 64)\n                }\n\n                // Start with the leaf node.\n                // Work back up by combining with siblings, to reconstruct the root.\n                let path := shr(5, _addr)\n                let node := leaf\n                for { let i := 0 } lt(i, 27) { i := add(i, 1) } {\n                    let sibling := calldataload(offset)\n                    offset := add(offset, 32)\n                    switch and(shr(i, path), 1)\n                    case 0 {\n                        node := hashPair(node, sibling)\n                    } case 1 {\n                        node := hashPair(sibling, node)\n                    }\n                }\n\n                // Store the new memory root in the first field of state.\n                mstore(0x80, node)\n            }\n        }\n    }\n\n    /// @notice Executes a single step of the vm.\n    ///         Will revert if any required input state is missing.\n    function step(bytes calldata stateData, bytes calldata proof) public returns (bytes32) {\n        unchecked {\n            State memory state;\n\n            // Packed calldata is ~6 times smaller than state size\n            assembly {\n                if iszero(eq(state, 0x80)) { // expected state mem offset check\n                    revert(0,0)\n                }\n                if iszero(eq(mload(0x40), mul(32, 48))) { // expected memory check\n                    revert(0,0)\n                }\n                if iszero(eq(stateData.offset, 100)) { // 32*3+4=100 expected state data offset\n                    revert(0,0)\n                }\n                if iszero(eq(proof.offset, 358)) { // 100+32+226=358 expected proof offset\n                    revert(0,0)\n                }\n\n                function putField(callOffset, memOffset, size) -> callOffsetOut, memOffsetOut {\n                    // calldata is packed, thus starting left-aligned, shift-right to pad and right-align\n                    let w := shr(shl(3, sub(32, size)), calldataload(callOffset))\n                    mstore(memOffset, w)\n                    callOffsetOut := add(callOffset, size)\n                    memOffsetOut := add(memOffset, 32)\n                }\n\n                // Unpack state from calldata into memory\n                let c := stateData.offset  // calldata offset\n                let m := 0x80              // mem offset\n                c, m := putField(c, m, 32) // memRoot\n                c, m := putField(c, m, 32) // preimageKey\n                c, m := putField(c, m, 4)  // preimageOffset\n                c, m := putField(c, m, 4)  // pc\n                c, m := putField(c, m, 4)  // nextPC\n                c, m := putField(c, m, 4)  // lo\n                c, m := putField(c, m, 4)  // hi\n                c, m := putField(c, m, 4)  // heap\n                c, m := putField(c, m, 1)  // exitCode\n                c, m := putField(c, m, 1)  // exited\n                c, m := putField(c, m, 8)  // step\n\n                // Unpack register calldata into memory\n                mstore(m, add(m, 32))      // offset to registers\n                m := add(m, 32)\n                for { let i := 0 } lt(i, 32) { i := add(i, 1) } {\n                    c, m := putField(c, m, 4)\n                }\n            }\n\n            // Don't change state once exited\n            if (state.exited) {\n                return outputState();\n            }\n\n            state.step += 1;\n\n            // instruction fetch\n            uint32 insn = readMem(state.pc, 0);\n            uint32 opcode = insn >> 26; // 6-bits\n\n            // j-type j/jal\n            if (opcode == 2 || opcode == 3) {\n                // TODO(CLI-4136): likely bug in original code: MIPS spec says this should be in the \"current\" region;\n                // a 256 MB aligned region (i.e. use top 4 bits of branch delay slot (pc+4))\n                return handleJump(opcode == 2 ? 0 : 31, SE(insn & 0x03FFFFFF, 26) << 2);\n            }\n\n            // register fetch\n            uint32 rs; // source register 1 value\n            uint32 rt; // source register 2 / temp value\n            uint32 rtReg = (insn >> 16) & 0x1F;\n\n            // R-type or I-type (stores rt)\n            rs = state.registers[(insn >> 21) & 0x1F];\n            uint32 rdReg = rtReg;\n\n            if (opcode == 0 || opcode == 0x1c) {\n                // R-type (stores rd)\n                rt = state.registers[rtReg];\n                rdReg = (insn >> 11) & 0x1F;\n            } else if (opcode < 0x20) {\n                // rt is SignExtImm\n                // don't sign extend for andi, ori, xori\n                if (opcode == 0xC || opcode == 0xD || opcode == 0xe) {\n                    // ZeroExtImm\n                    rt = insn & 0xFFFF;\n                } else {\n                    // SignExtImm\n                    rt = SE(insn & 0xFFFF, 16);\n                }\n            } else if (opcode >= 0x28 || opcode == 0x22 || opcode == 0x26) {\n                // store rt value with store\n                rt = state.registers[rtReg];\n\n                // store actual rt with lwl and lwr\n                rdReg = rtReg;\n            }\n\n            if ((opcode >= 4 && opcode < 8) || opcode == 1) {\n                return handleBranch(opcode, insn, rtReg, rs);\n            }\n\n            uint32 storeAddr = 0xFF_FF_FF_FF;\n            // memory fetch (all I-type)\n            // we do the load for stores also\n            uint32 mem;\n            if (opcode >= 0x20) {\n                // M[R[rs]+SignExtImm]\n                rs += SE(insn&0xFFFF, 16);\n                uint32 addr = rs & 0xFFFFFFFC;\n                mem = readMem(addr, 1);\n                if (opcode >= 0x28 && opcode != 0x30) {\n                    // store\n                    storeAddr = addr;\n                    // store opcodes don't write back to a register\n                    rdReg = 0;\n                }\n            }\n\n            // ALU\n            uint32 val = execute(insn, rs, rt, mem) & 0xffFFffFF; // swr outputs more than 4 bytes without the mask\n\n            uint32 func = insn & 0x3f; // 6-bits\n            if (opcode == 0 && func >= 8 && func < 0x1c) {\n                if (func == 8 || func == 9) { // jr/jalr\n                    return handleJump(func == 8 ? 0 : rdReg, rs);\n                }\n\n                if (func == 0xa) { // movz\n                    return handleRd(rdReg, rs, rt == 0);\n                }\n                if (func == 0xb) { // movn\n                    return handleRd(rdReg, rs, rt != 0);\n                }\n\n                // syscall (can read and write)\n                if (func == 0xC) {\n                    return handleSyscall();\n                }\n\n                // lo and hi registers\n                // can write back\n                if (func >= 0x10 && func < 0x1c) {\n                    return handleHiLo(func, rs, rt, rdReg);\n                }\n            }\n\n            // stupid sc, write a 1 to rt\n            if (opcode == 0x38 && rtReg != 0) {\n                state.registers[rtReg] = 1;\n            }\n\n            // write memory\n            if (storeAddr != 0xFF_FF_FF_FF) {\n                writeMem(storeAddr, 1, val);\n            }\n\n            // write back the value to destination register\n            return handleRd(rdReg, val, true);\n        }\n    }\n\n    /// @notice Execute an instruction.\n    function execute(uint32 insn, uint32 rs, uint32 rt, uint32 mem) internal pure returns (uint32) {\n        unchecked {\n            uint32 opcode = insn >> 26;    // 6-bits\n            uint32 func = insn & 0x3f; // 6-bits\n            // TODO(CLI-4136): deref the immed into a register\n\n            if (opcode < 0x20) {\n                // transform ArithLogI\n                // TODO(CLI-4136): replace with table\n                if (opcode >= 8 && opcode < 0xF) {\n                    if (opcode == 8) { func = 0x20; }        // addi\n                    else if (opcode == 9) { func = 0x21; }   // addiu\n                    else if (opcode == 0xa) { func = 0x2a; } // slti\n                    else if (opcode == 0xb) { func = 0x2B; } // sltiu\n                    else if (opcode == 0xc) { func = 0x24; } // andi\n                    else if (opcode == 0xd) { func = 0x25; } // ori\n                    else if (opcode == 0xe) { func = 0x26; } // xori\n                    opcode = 0;\n                }\n\n                // 0 is opcode SPECIAL\n                if (opcode == 0) {\n                    uint32 shamt = (insn >> 6) & 0x1f;\n                    if (func < 0x20) {\n                        // jr/jalr/div + others\n                        if (func >= 0x08) {\n                            return rs;\n                        }\n                        // sll: Logical Shift Left\n                        else if (func == 0x00) {\n                            return rt << shamt;\n                        }\n                        // srl: Logical Shift Right\n                        else if (func == 0x02) {\n                            return rt >> shamt;\n                        }\n                        // sra: Arithmetic Shift Right\n                        else if (func == 0x03) {\n                            return SE(rt >> shamt, 32 - shamt);\n                        }\n                        // sllv: Variable Logical Shift Left\n                        else if (func == 0x04) {\n                            return rt << (rs & 0x1F);\n                        }\n                        // srlv: Variable Logical Shift Right\n                        else if (func == 0x06) {\n                            return rt >> (rs & 0x1F);\n                        }\n                        // srav: Variable Arithmetic Shift Right\n                        else if (func == 0x07) {\n                            return SE(rt >> rs, 32 - rs);\n                        }\n                    }\n\n                    // R-type (ArithLog)\n                    // 0x10-0x13 = mfhi, mthi, mflo, mtlo\n                    // add or addu\n                    if (func == 0x20 || func == 0x21) {\n                        return rs + rt;\n                    }\n                    // sub or subu\n                    else if (func == 0x22 || func == 0x23) {\n                        return rs - rt;\n                    }\n                    // and\n                    else if (func == 0x24) {\n                        return rs & rt;\n                    }\n                    // or\n                    else if (func == 0x25) {\n                        return (rs | rt);\n                    }\n                    // xor\n                    else if (func == 0x26) {\n                        return (rs ^ rt);\n                    }\n                    // nor\n                    else if (func == 0x27) {\n                        return ~(rs | rt);\n                    }\n                    // slt: Set to 1 if less than\n                    else if (func == 0x2a) {\n                        return int32(rs) < int32(rt) ? 1 : 0;\n                    }\n                    // sltu: Set to 1 if less than unsigned\n                    else if (func == 0x2B) {\n                        return rs<rt ? 1 : 0;\n                    }\n                }\n                // lui: Load Upper Immediate\n                else if (opcode == 0xf) {\n                    return rt << 16;\n                }\n                // SPECIAL2\n                else if (opcode == 0x1c) {\n                    // mul\n                    if (func == 2) {\n                        return uint32(int32(rs) * int32(rt));\n                    }\n                    // clo\n                    if (func == 0x20 || func == 0x21) {\n                        if (func == 0x20) {\n                            rs = ~rs;\n                        }\n                        uint32 i = 0;\n                        while (rs&0x80000000 != 0) {\n                            i++;\n                            rs <<= 1;\n                        }\n                        return i;\n                    }\n                }\n            }\n            else if (opcode < 0x28) {\n                // lb\n                if (opcode == 0x20) {\n                    return SE((mem >> (24 - (rs & 3) * 8)) & 0xFF, 8);\n                }\n                // lh\n                else if (opcode == 0x21) {\n                    return SE((mem >> (16 - (rs & 2) * 8)) & 0xFFFF, 16);\n                }\n                // lwl\n                else if (opcode == 0x22) {\n                    uint32 val = mem << ((rs & 3) * 8);\n                    uint32 mask = uint32(0xFFFFFFFF) << ((rs & 3) * 8);\n                    return (rt & ~mask) | val;\n                }\n                // lw\n                else if (opcode == 0x23) {\n                    return mem;\n                }\n                // lbu\n                else if (opcode == 0x24) {\n                    return (mem >> (24 - (rs & 3) * 8)) & 0xFF;\n                }\n                // lhu\n                else if (opcode == 0x25) {\n                    return (mem >> (16 - (rs & 2) * 8)) & 0xFFFF;\n                }\n                // lwr\n                else if (opcode == 0x26) {\n                    uint32 val = mem >> (24 - (rs & 3) * 8);\n                    uint32 mask = uint32(0xFFFFFFFF) >> (24 - (rs & 3) * 8);\n                    return (rt & ~mask) | val;\n                }\n            }\n            // sb\n            else if (opcode == 0x28) {\n                uint32 val = (rt & 0xFF) << (24 - (rs & 3) * 8);\n                uint32 mask = 0xFFFFFFFF ^ uint32(0xFF << (24 - (rs & 3) * 8));\n                return (mem & mask) | val;\n            }\n            // sh\n            else if (opcode == 0x29) {\n                uint32 val = (rt & 0xFFFF) << (16 - (rs & 2) * 8);\n                uint32 mask = 0xFFFFFFFF ^ uint32(0xFFFF << (16 - (rs & 2) * 8));\n                return (mem & mask) | val;\n            }\n            // swl\n            else if (opcode == 0x2a) {\n                uint32 val = rt >> ((rs & 3) * 8);\n                uint32 mask = uint32(0xFFFFFFFF) >> ((rs & 3) * 8);\n                return (mem & ~mask) | val;\n            }\n            // sw\n            else if (opcode == 0x2b) {\n                return rt;\n            }\n            // swr\n            else if (opcode == 0x2e) {\n                uint32 val = rt << (24 - (rs & 3) * 8);\n                uint32 mask = uint32(0xFFFFFFFF) << (24 - (rs & 3) * 8);\n                return (mem & ~mask) | val;\n            }\n            // ll\n            else if (opcode == 0x30) {\n                return mem;\n            }\n            // sc\n            else if (opcode == 0x38) {\n                return rt;\n            }\n\n            revert(\"invalid instruction\");\n        }\n    }\n}\n",
  "sourcePath": "@eth-optimism/contracts-bedrock/src/cannon/MIPS.sol",
  "compiler": {
    "name": "solc",
    "version": "0.8.15+commit.e14f2714.Emscripten.clang"
  },
  "schemaVersion": "3.4.14",
  "updatedAt": "2023-08-12T03:58:53.011Z",
  "devdoc": {
    "details": "https://inst.eecs.berkeley.edu/~cs61c/resources/MIPS_Green_Sheet.pdfhttps://www.cs.cmu.edu/afs/cs/academic/class/15740-f97/public/doc/mips-isa.pdf      (page A-177)https://uweb.engr.arizona.edu/~ece369/Resources/spim/MIPSReference.pdfhttps://en.wikibooks.org/wiki/MIPS_Assembly/Instruction_Formatshttps://github.com/golang/go/blob/master/src/syscall/zerrors_linux_mips.go      MIPS linux kernel errors used by Go runtime",
    "kind": "dev",
    "methods": {},
    "title": "MIPS",
    "version": 1
  },
  "userdoc": {
    "kind": "user",
    "methods": {
      "BRK_START()": {
        "notice": "Start of the data segment."
      },
      "oracle()": {
        "notice": "The pre-image oracle."
      },
      "step(bytes,bytes)": {
        "notice": "Executes a single step of the vm.         Will revert if any required input state is missing."
      }
    },
    "notice": "The MIPS contract emulates a single MIPS instruction.         Note that delay slots are isolated instructions:         the nextPC in the state pre-schedules where the VM jumps next.         The Step input is a packed VM state, with binary-merkle-tree         witness data for memory reads/writes.         The Step outputs a keccak256 hash of the packed VM State,         and logs the resulting state for offchain usage.",
    "version": 1
  }
}