{
  "contractName": "NFTCollection",
  "abi": [
    {
      "inputs": [],
      "stateMutability": "nonpayable",
      "type": "constructor"
    },
    {
      "anonymous": false,
      "inputs": [
        {
          "indexed": true,
          "internalType": "address",
          "name": "account",
          "type": "address"
        },
        {
          "indexed": true,
          "internalType": "address",
          "name": "operator",
          "type": "address"
        },
        {
          "indexed": false,
          "internalType": "bool",
          "name": "approved",
          "type": "bool"
        }
      ],
      "name": "ApprovalForAll",
      "type": "event"
    },
    {
      "anonymous": false,
      "inputs": [
        {
          "indexed": true,
          "internalType": "address",
          "name": "to",
          "type": "address"
        },
        {
          "indexed": true,
          "internalType": "uint256",
          "name": "id",
          "type": "uint256"
        }
      ],
      "name": "Minted",
      "type": "event"
    },
    {
      "anonymous": false,
      "inputs": [
        {
          "indexed": true,
          "internalType": "address",
          "name": "operator",
          "type": "address"
        },
        {
          "indexed": true,
          "internalType": "address",
          "name": "from",
          "type": "address"
        },
        {
          "indexed": true,
          "internalType": "address",
          "name": "to",
          "type": "address"
        },
        {
          "indexed": false,
          "internalType": "uint256[]",
          "name": "ids",
          "type": "uint256[]"
        },
        {
          "indexed": false,
          "internalType": "uint256[]",
          "name": "values",
          "type": "uint256[]"
        }
      ],
      "name": "TransferBatch",
      "type": "event"
    },
    {
      "anonymous": false,
      "inputs": [
        {
          "indexed": true,
          "internalType": "address",
          "name": "operator",
          "type": "address"
        },
        {
          "indexed": true,
          "internalType": "address",
          "name": "from",
          "type": "address"
        },
        {
          "indexed": true,
          "internalType": "address",
          "name": "to",
          "type": "address"
        },
        {
          "indexed": false,
          "internalType": "uint256",
          "name": "id",
          "type": "uint256"
        },
        {
          "indexed": false,
          "internalType": "uint256",
          "name": "value",
          "type": "uint256"
        }
      ],
      "name": "TransferSingle",
      "type": "event"
    },
    {
      "anonymous": false,
      "inputs": [
        {
          "indexed": false,
          "internalType": "string",
          "name": "value",
          "type": "string"
        },
        {
          "indexed": true,
          "internalType": "uint256",
          "name": "id",
          "type": "uint256"
        }
      ],
      "name": "URI",
      "type": "event"
    },
    {
      "inputs": [
        {
          "internalType": "address",
          "name": "account",
          "type": "address"
        },
        {
          "internalType": "uint256",
          "name": "id",
          "type": "uint256"
        }
      ],
      "name": "balanceOf",
      "outputs": [
        {
          "internalType": "uint256",
          "name": "",
          "type": "uint256"
        }
      ],
      "stateMutability": "view",
      "type": "function"
    },
    {
      "inputs": [
        {
          "internalType": "address[]",
          "name": "accounts",
          "type": "address[]"
        },
        {
          "internalType": "uint256[]",
          "name": "ids",
          "type": "uint256[]"
        }
      ],
      "name": "balanceOfBatch",
      "outputs": [
        {
          "internalType": "uint256[]",
          "name": "",
          "type": "uint256[]"
        }
      ],
      "stateMutability": "view",
      "type": "function"
    },
    {
      "inputs": [
        {
          "internalType": "address",
          "name": "account",
          "type": "address"
        },
        {
          "internalType": "address",
          "name": "operator",
          "type": "address"
        }
      ],
      "name": "isApprovedForAll",
      "outputs": [
        {
          "internalType": "bool",
          "name": "",
          "type": "bool"
        }
      ],
      "stateMutability": "view",
      "type": "function"
    },
    {
      "inputs": [
        {
          "internalType": "address",
          "name": "from",
          "type": "address"
        },
        {
          "internalType": "address",
          "name": "to",
          "type": "address"
        },
        {
          "internalType": "uint256[]",
          "name": "ids",
          "type": "uint256[]"
        },
        {
          "internalType": "uint256[]",
          "name": "amounts",
          "type": "uint256[]"
        },
        {
          "internalType": "bytes",
          "name": "data",
          "type": "bytes"
        }
      ],
      "name": "safeBatchTransferFrom",
      "outputs": [],
      "stateMutability": "nonpayable",
      "type": "function"
    },
    {
      "inputs": [
        {
          "internalType": "address",
          "name": "from",
          "type": "address"
        },
        {
          "internalType": "address",
          "name": "to",
          "type": "address"
        },
        {
          "internalType": "uint256",
          "name": "id",
          "type": "uint256"
        },
        {
          "internalType": "uint256",
          "name": "amount",
          "type": "uint256"
        },
        {
          "internalType": "bytes",
          "name": "data",
          "type": "bytes"
        }
      ],
      "name": "safeTransferFrom",
      "outputs": [],
      "stateMutability": "nonpayable",
      "type": "function"
    },
    {
      "inputs": [
        {
          "internalType": "address",
          "name": "operator",
          "type": "address"
        },
        {
          "internalType": "bool",
          "name": "approved",
          "type": "bool"
        }
      ],
      "name": "setApprovalForAll",
      "outputs": [],
      "stateMutability": "nonpayable",
      "type": "function"
    },
    {
      "inputs": [
        {
          "internalType": "bytes4",
          "name": "interfaceId",
          "type": "bytes4"
        }
      ],
      "name": "supportsInterface",
      "outputs": [
        {
          "internalType": "bool",
          "name": "",
          "type": "bool"
        }
      ],
      "stateMutability": "view",
      "type": "function"
    },
    {
      "inputs": [
        {
          "internalType": "uint256",
          "name": "tokenId",
          "type": "uint256"
        }
      ],
      "name": "uri",
      "outputs": [
        {
          "internalType": "string",
          "name": "",
          "type": "string"
        }
      ],
      "stateMutability": "view",
      "type": "function"
    },
    {
      "inputs": [
        {
          "internalType": "address",
          "name": "to",
          "type": "address"
        },
        {
          "internalType": "string",
          "name": "metadataJson",
          "type": "string"
        }
      ],
      "name": "mint",
      "outputs": [],
      "stateMutability": "nonpayable",
      "type": "function"
    }
  ],
  "bytecode": "0x608060405260405180602001604052806000815250600390805190602001906200002b929190620000e0565b503480156200003957600080fd5b50604051806020016040528060008152506200005b81620000a860201b60201c565b50620000a26040518060400160405280601d81526020017f646174613a6170706c69636174696f6e2f6a736f6e3b6261736536342c000000815250620000c460201b60201c565b620001f4565b8060029080519060200190620000c0929190620000e0565b5050565b8060039080519060200190620000dc929190620000e0565b5050565b828054620000ee90620001bf565b90600052602060002090601f0160209004810192826200011257600085556200015e565b82601f106200012d57805160ff19168380011785556200015e565b828001600101855582156200015e579182015b828111156200015d57825182559160200191906001019062000140565b5b5090506200016d919062000171565b5090565b5b808211156200018c57600081600090555060010162000172565b5090565b7f4e487b7100000000000000000000000000000000000000000000000000000000600052602260045260246000fd5b60006002820490506001821680620001d857607f821691505b602082108103620001ee57620001ed62000190565b5b50919050565b612ef180620002046000396000f3fe608060405234801561001057600080fd5b50600436106100925760003560e01c80634e1273f4116100665780634e1273f414610143578063a22cb46514610173578063d0def5211461018f578063e985e9c5146101ab578063f242432a146101db57610092565b8062fdd58e1461009757806301ffc9a7146100c75780630e89341c146100f75780632eb2c2d614610127575b600080fd5b6100b160048036038101906100ac9190611970565b6101f7565b6040516100be91906119bf565b60405180910390f35b6100e160048036038101906100dc9190611a32565b6102bf565b6040516100ee9190611a7a565b60405180910390f35b610111600480360381019061010c9190611a95565b6103a1565b60405161011e9190611b5b565b60405180910390f35b610141600480360381019061013c9190611d7a565b610486565b005b61015d60048036038101906101589190611f0c565b610527565b60405161016a9190612042565b60405180910390f35b61018d60048036038101906101889190612090565b610640565b005b6101a960048036038101906101a49190612171565b610656565b005b6101c560048036038101906101c091906121cd565b6106e8565b6040516101d29190611a7a565b60405180910390f35b6101f560048036038101906101f0919061220d565b61077c565b005b60008073ffffffffffffffffffffffffffffffffffffffff168373ffffffffffffffffffffffffffffffffffffffff1603610267576040517f08c379a000000000000000000000000000000000000000000000000000000000815260040161025e90612316565b60405180910390fd5b60008083815260200190815260200160002060008473ffffffffffffffffffffffffffffffffffffffff1673ffffffffffffffffffffffffffffffffffffffff16815260200190815260200160002054905092915050565b60007fd9b67a26000000000000000000000000000000000000000000000000000000007bffffffffffffffffffffffffffffffffffffffffffffffffffffffff1916827bffffffffffffffffffffffffffffffffffffffffffffffffffffffff1916148061038a57507f0e89341c000000000000000000000000000000000000000000000000000000007bffffffffffffffffffffffffffffffffffffffffffffffffffffffff1916827bffffffffffffffffffffffffffffffffffffffffffffffffffffffff1916145b8061039a57506103998261081d565b5b9050919050565b606060006004600084815260200190815260200160002080546103c390612365565b80601f01602080910402602001604051908101604052809291908181526020018280546103ef90612365565b801561043c5780601f106104115761010080835404028352916020019161043c565b820191906000526020600020905b81548152906001019060200180831161041f57829003601f168201915b50505050509050600081511161045a5761045583610887565b61047e565b60038160405160200161046e929190612466565b6040516020818303038152906040525b915050919050565b61048e61091b565b73ffffffffffffffffffffffffffffffffffffffff168573ffffffffffffffffffffffffffffffffffffffff1614806104d457506104d3856104ce61091b565b6106e8565b5b610513576040517f08c379a000000000000000000000000000000000000000000000000000000000815260040161050a906124fc565b60405180910390fd5b6105208585858585610923565b5050505050565b6060815183511461056d576040517f08c379a00000000000000000000000000000000000000000000000000000000081526004016105649061258e565b60405180910390fd5b6000835167ffffffffffffffff81111561058a57610589611b82565b5b6040519080825280602002602001820160405280156105b85781602001602082028036833780820191505090505b50905060005b8451811015610635576106058582815181106105dd576105dc6125ae565b5b60200260200101518583815181106105f8576105f76125ae565b5b60200260200101516101f7565b828281518110610618576106176125ae565b5b6020026020010181815250508061062e9061260c565b90506105be565b508091505092915050565b61065261064b61091b565b8383610c44565b5050565b60006005600081548092919061066b9061260c565b91905055905061068d8382600160405180602001604052806000815250610db0565b61069f8161069a84610f60565b6110c3565b808373ffffffffffffffffffffffffffffffffffffffff167f30385c845b448a36257a6a1716e6ad2e1bc2cbe333cde1e69fe849ad6511adfe60405160405180910390a3505050565b6000600160008473ffffffffffffffffffffffffffffffffffffffff1673ffffffffffffffffffffffffffffffffffffffff16815260200190815260200160002060008373ffffffffffffffffffffffffffffffffffffffff1673ffffffffffffffffffffffffffffffffffffffff16815260200190815260200160002060009054906101000a900460ff16905092915050565b61078461091b565b73ffffffffffffffffffffffffffffffffffffffff168573ffffffffffffffffffffffffffffffffffffffff1614806107ca57506107c9856107c461091b565b6106e8565b5b610809576040517f08c379a0000000000000000000000000000000000000000000000000000000008152600401610800906126c6565b60405180910390fd5b610816858585858561112f565b5050505050565b60007f01ffc9a7000000000000000000000000000000000000000000000000000000007bffffffffffffffffffffffffffffffffffffffffffffffffffffffff1916827bffffffffffffffffffffffffffffffffffffffffffffffffffffffff1916149050919050565b60606002805461089690612365565b80601f01602080910402602001604051908101604052809291908181526020018280546108c290612365565b801561090f5780601f106108e45761010080835404028352916020019161090f565b820191906000526020600020905b8154815290600101906020018083116108f257829003601f168201915b50505050509050919050565b600033905090565b8151835114610967576040517f08c379a000000000000000000000000000000000000000000000000000000000815260040161095e90612758565b60405180910390fd5b600073ffffffffffffffffffffffffffffffffffffffff168473ffffffffffffffffffffffffffffffffffffffff16036109d6576040517f08c379a00000000000000000000000000000000000000000000000000000000081526004016109cd906127ea565b60405180910390fd5b60006109e061091b565b90506109f08187878787876113ca565b60005b8451811015610ba1576000858281518110610a1157610a106125ae565b5b602002602001015190506000858381518110610a3057610a2f6125ae565b5b60200260200101519050600080600084815260200190815260200160002060008b73ffffffffffffffffffffffffffffffffffffffff1673ffffffffffffffffffffffffffffffffffffffff16815260200190815260200160002054905081811015610ad1576040517f08c379a0000000000000000000000000000000000000000000000000000000008152600401610ac89061287c565b60405180910390fd5b81810360008085815260200190815260200160002060008c73ffffffffffffffffffffffffffffffffffffffff1673ffffffffffffffffffffffffffffffffffffffff168152602001908152602001600020819055508160008085815260200190815260200160002060008b73ffffffffffffffffffffffffffffffffffffffff1673ffffffffffffffffffffffffffffffffffffffff1681526020019081526020016000206000828254610b86919061289c565b9250508190555050505080610b9a9061260c565b90506109f3565b508473ffffffffffffffffffffffffffffffffffffffff168673ffffffffffffffffffffffffffffffffffffffff168273ffffffffffffffffffffffffffffffffffffffff167f4a39dc06d4c0dbc64b70af90fd698a233a518aa5d07e595d983b8c0526c8f7fb8787604051610c189291906128f2565b60405180910390a4610c2e8187878787876113d2565b610c3c8187878787876113da565b505050505050565b8173ffffffffffffffffffffffffffffffffffffffff168373ffffffffffffffffffffffffffffffffffffffff1603610cb2576040517f08c379a0000000000000000000000000000000000000000000000000000000008152600401610ca99061299b565b60405180910390fd5b80600160008573ffffffffffffffffffffffffffffffffffffffff1673ffffffffffffffffffffffffffffffffffffffff16815260200190815260200160002060008473ffffffffffffffffffffffffffffffffffffffff1673ffffffffffffffffffffffffffffffffffffffff16815260200190815260200160002060006101000a81548160ff0219169083151502179055508173ffffffffffffffffffffffffffffffffffffffff168373ffffffffffffffffffffffffffffffffffffffff167f17307eab39ab6107e8899845ad3d59bd9653f200f220920489ca2b5937696c3183604051610da39190611a7a565b60405180910390a3505050565b600073ffffffffffffffffffffffffffffffffffffffff168473ffffffffffffffffffffffffffffffffffffffff1603610e1f576040517f08c379a0000000000000000000000000000000000000000000000000000000008152600401610e1690612a2d565b60405180910390fd5b6000610e2961091b565b90506000610e36856115b1565b90506000610e43856115b1565b9050610e54836000898585896113ca565b8460008088815260200190815260200160002060008973ffffffffffffffffffffffffffffffffffffffff1673ffffffffffffffffffffffffffffffffffffffff1681526020019081526020016000206000828254610eb3919061289c565b925050819055508673ffffffffffffffffffffffffffffffffffffffff16600073ffffffffffffffffffffffffffffffffffffffff168473ffffffffffffffffffffffffffffffffffffffff167fc3d58168c5ae7397731d063d5bbf3d657854427343f4c083240f7aacaa2d0f628989604051610f31929190612a4d565b60405180910390a4610f48836000898585896113d2565b610f578360008989898961162b565b50505050505050565b60606000825103610f82576040518060200160405280600081525090506110be565b6000604051806060016040528060408152602001612e7c6040913990506000600360028551610fb1919061289c565b610fbb9190612aa5565b6004610fc79190612ad6565b67ffffffffffffffff811115610fe057610fdf611b82565b5b6040519080825280601f01601f1916602001820160405280156110125781602001600182028036833780820191505090505b509050600182016020820185865187015b8082101561107e576003820191508151603f8160121c168501518453600184019350603f81600c1c168501518453600184019350603f8160061c168501518453600184019350603f8116850151845360018401935050611023565b505060038651066001811461109a57600281146110ad576110b5565b603d6001830353603d60028303536110b5565b603d60018303535b50505080925050505b919050565b806004600084815260200190815260200160002090805190602001906110ea929190611825565b50817f6bb7ff708619ba0610cba295a58592e0451dee2622938c8755667688daf3529b611116846103a1565b6040516111239190611b5b565b60405180910390a25050565b600073ffffffffffffffffffffffffffffffffffffffff168473ffffffffffffffffffffffffffffffffffffffff160361119e576040517f08c379a0000000000000000000000000000000000000000000000000000000008152600401611195906127ea565b60405180910390fd5b60006111a861091b565b905060006111b5856115b1565b905060006111c2856115b1565b90506111d28389898585896113ca565b600080600088815260200190815260200160002060008a73ffffffffffffffffffffffffffffffffffffffff1673ffffffffffffffffffffffffffffffffffffffff16815260200190815260200160002054905085811015611269576040517f08c379a00000000000000000000000000000000000000000000000000000000081526004016112609061287c565b60405180910390fd5b85810360008089815260200190815260200160002060008b73ffffffffffffffffffffffffffffffffffffffff1673ffffffffffffffffffffffffffffffffffffffff168152602001908152602001600020819055508560008089815260200190815260200160002060008a73ffffffffffffffffffffffffffffffffffffffff1673ffffffffffffffffffffffffffffffffffffffff168152602001908152602001600020600082825461131e919061289c565b925050819055508773ffffffffffffffffffffffffffffffffffffffff168973ffffffffffffffffffffffffffffffffffffffff168573ffffffffffffffffffffffffffffffffffffffff167fc3d58168c5ae7397731d063d5bbf3d657854427343f4c083240f7aacaa2d0f628a8a60405161139b929190612a4d565b60405180910390a46113b1848a8a86868a6113d2565b6113bf848a8a8a8a8a61162b565b505050505050505050565b505050505050565b505050505050565b6113f98473ffffffffffffffffffffffffffffffffffffffff16611802565b156115a9578373ffffffffffffffffffffffffffffffffffffffff1663bc197c8187878686866040518663ffffffff1660e01b815260040161143f959493929190612b94565b6020604051808303816000875af192505050801561147b57506040513d601f19601f820116820180604052508101906114789190612c11565b60015b61152057611487612c4b565b806308c379a0036114e3575061149b612c6d565b806114a657506114e5565b806040517f08c379a00000000000000000000000000000000000000000000000000000000081526004016114da9190611b5b565b60405180910390fd5b505b6040517f08c379a000000000000000000000000000000000000000000000000000000000815260040161151790612d6f565b60405180910390fd5b63bc197c8160e01b7bffffffffffffffffffffffffffffffffffffffffffffffffffffffff1916817bffffffffffffffffffffffffffffffffffffffffffffffffffffffff1916146115a7576040517f08c379a000000000000000000000000000000000000000000000000000000000815260040161159e90612e01565b60405180910390fd5b505b505050505050565b60606000600167ffffffffffffffff8111156115d0576115cf611b82565b5b6040519080825280602002602001820160405280156115fe5781602001602082028036833780820191505090505b5090508281600081518110611616576116156125ae565b5b60200260200101818152505080915050919050565b61164a8473ffffffffffffffffffffffffffffffffffffffff16611802565b156117fa578373ffffffffffffffffffffffffffffffffffffffff1663f23a6e6187878686866040518663ffffffff1660e01b8152600401611690959493929190612e21565b6020604051808303816000875af19250505080156116cc57506040513d601f19601f820116820180604052508101906116c99190612c11565b60015b611771576116d8612c4b565b806308c379a00361173457506116ec612c6d565b806116f75750611736565b806040517f08c379a000000000000000000000000000000000000000000000000000000000815260040161172b9190611b5b565b60405180910390fd5b505b6040517f08c379a000000000000000000000000000000000000000000000000000000000815260040161176890612d6f565b60405180910390fd5b63f23a6e6160e01b7bffffffffffffffffffffffffffffffffffffffffffffffffffffffff1916817bffffffffffffffffffffffffffffffffffffffffffffffffffffffff1916146117f8576040517f08c379a00000000000000000000000000000000000000000000000000000000081526004016117ef90612e01565b60405180910390fd5b505b505050505050565b6000808273ffffffffffffffffffffffffffffffffffffffff163b119050919050565b82805461183190612365565b90600052602060002090601f016020900481019282611853576000855561189a565b82601f1061186c57805160ff191683800117855561189a565b8280016001018555821561189a579182015b8281111561189957825182559160200191906001019061187e565b5b5090506118a791906118ab565b5090565b5b808211156118c45760008160009055506001016118ac565b5090565b6000604051905090565b600080fd5b600080fd5b600073ffffffffffffffffffffffffffffffffffffffff82169050919050565b6000611907826118dc565b9050919050565b611917816118fc565b811461192257600080fd5b50565b6000813590506119348161190e565b92915050565b6000819050919050565b61194d8161193a565b811461195857600080fd5b50565b60008135905061196a81611944565b92915050565b60008060408385031215611987576119866118d2565b5b600061199585828601611925565b92505060206119a68582860161195b565b9150509250929050565b6119b98161193a565b82525050565b60006020820190506119d460008301846119b0565b92915050565b60007fffffffff0000000000000000000000000000000000000000000000000000000082169050919050565b611a0f816119da565b8114611a1a57600080fd5b50565b600081359050611a2c81611a06565b92915050565b600060208284031215611a4857611a476118d2565b5b6000611a5684828501611a1d565b91505092915050565b60008115159050919050565b611a7481611a5f565b82525050565b6000602082019050611a8f6000830184611a6b565b92915050565b600060208284031215611aab57611aaa6118d2565b5b6000611ab98482850161195b565b91505092915050565b600081519050919050565b600082825260208201905092915050565b60005b83811015611afc578082015181840152602081019050611ae1565b83811115611b0b576000848401525b50505050565b6000601f19601f8301169050919050565b6000611b2d82611ac2565b611b378185611acd565b9350611b47818560208601611ade565b611b5081611b11565b840191505092915050565b60006020820190508181036000830152611b758184611b22565b905092915050565b600080fd5b7f4e487b7100000000000000000000000000000000000000000000000000000000600052604160045260246000fd5b611bba82611b11565b810181811067ffffffffffffffff82111715611bd957611bd8611b82565b5b80604052505050565b6000611bec6118c8565b9050611bf88282611bb1565b919050565b600067ffffffffffffffff821115611c1857611c17611b82565b5b602082029050602081019050919050565b600080fd5b6000611c41611c3c84611bfd565b611be2565b90508083825260208201905060208402830185811115611c6457611c63611c29565b5b835b81811015611c8d5780611c79888261195b565b845260208401935050602081019050611c66565b5050509392505050565b600082601f830112611cac57611cab611b7d565b5b8135611cbc848260208601611c2e565b91505092915050565b600080fd5b600067ffffffffffffffff821115611ce557611ce4611b82565b5b611cee82611b11565b9050602081019050919050565b82818337600083830152505050565b6000611d1d611d1884611cca565b611be2565b905082815260208101848484011115611d3957611d38611cc5565b5b611d44848285611cfb565b509392505050565b600082601f830112611d6157611d60611b7d565b5b8135611d71848260208601611d0a565b91505092915050565b600080600080600060a08688031215611d9657611d956118d2565b5b6000611da488828901611925565b9550506020611db588828901611925565b945050604086013567ffffffffffffffff811115611dd657611dd56118d7565b5b611de288828901611c97565b935050606086013567ffffffffffffffff811115611e0357611e026118d7565b5b611e0f88828901611c97565b925050608086013567ffffffffffffffff811115611e3057611e2f6118d7565b5b611e3c88828901611d4c565b9150509295509295909350565b600067ffffffffffffffff821115611e6457611e63611b82565b5b602082029050602081019050919050565b6000611e88611e8384611e49565b611be2565b90508083825260208201905060208402830185811115611eab57611eaa611c29565b5b835b81811015611ed45780611ec08882611925565b845260208401935050602081019050611ead565b5050509392505050565b600082601f830112611ef357611ef2611b7d565b5b8135611f03848260208601611e75565b91505092915050565b60008060408385031215611f2357611f226118d2565b5b600083013567ffffffffffffffff811115611f4157611f406118d7565b5b611f4d85828601611ede565b925050602083013567ffffffffffffffff811115611f6e57611f6d6118d7565b5b611f7a85828601611c97565b9150509250929050565b600081519050919050565b600082825260208201905092915050565b6000819050602082019050919050565b611fb98161193a565b82525050565b6000611fcb8383611fb0565b60208301905092915050565b6000602082019050919050565b6000611fef82611f84565b611ff98185611f8f565b935061200483611fa0565b8060005b8381101561203557815161201c8882611fbf565b975061202783611fd7565b925050600181019050612008565b5085935050505092915050565b6000602082019050818103600083015261205c8184611fe4565b905092915050565b61206d81611a5f565b811461207857600080fd5b50565b60008135905061208a81612064565b92915050565b600080604083850312156120a7576120a66118d2565b5b60006120b585828601611925565b92505060206120c68582860161207b565b9150509250929050565b600067ffffffffffffffff8211156120eb576120ea611b82565b5b6120f482611b11565b9050602081019050919050565b600061211461210f846120d0565b611be2565b9050828152602081018484840111156121305761212f611cc5565b5b61213b848285611cfb565b509392505050565b600082601f83011261215857612157611b7d565b5b8135612168848260208601612101565b91505092915050565b60008060408385031215612188576121876118d2565b5b600061219685828601611925565b925050602083013567ffffffffffffffff8111156121b7576121b66118d7565b5b6121c385828601612143565b9150509250929050565b600080604083850312156121e4576121e36118d2565b5b60006121f285828601611925565b925050602061220385828601611925565b9150509250929050565b600080600080600060a08688031215612229576122286118d2565b5b600061223788828901611925565b955050602061224888828901611925565b94505060406122598882890161195b565b935050606061226a8882890161195b565b925050608086013567ffffffffffffffff81111561228b5761228a6118d7565b5b61229788828901611d4c565b9150509295509295909350565b7f455243313135353a2062616c616e636520717565727920666f7220746865207a60008201527f65726f2061646472657373000000000000000000000000000000000000000000602082015250565b6000612300602b83611acd565b915061230b826122a4565b604082019050919050565b6000602082019050818103600083015261232f816122f3565b9050919050565b7f4e487b7100000000000000000000000000000000000000000000000000000000600052602260045260246000fd5b6000600282049050600182168061237d57607f821691505b6020821081036123905761238f612336565b5b50919050565b600081905092915050565b60008190508160005260206000209050919050565b600081546123c381612365565b6123cd8186612396565b945060018216600081146123e857600181146123f95761242c565b60ff1983168652818601935061242c565b612402856123a1565b60005b8381101561242457815481890152600182019150602081019050612405565b838801955050505b50505092915050565b600061244082611ac2565b61244a8185612396565b935061245a818560208601611ade565b80840191505092915050565b600061247282856123b6565b915061247e8284612435565b91508190509392505050565b7f455243313135353a207472616e736665722063616c6c6572206973206e6f742060008201527f6f776e6572206e6f7220617070726f7665640000000000000000000000000000602082015250565b60006124e6603283611acd565b91506124f18261248a565b604082019050919050565b60006020820190508181036000830152612515816124d9565b9050919050565b7f455243313135353a206163636f756e747320616e6420696473206c656e67746860008201527f206d69736d617463680000000000000000000000000000000000000000000000602082015250565b6000612578602983611acd565b91506125838261251c565b604082019050919050565b600060208201905081810360008301526125a78161256b565b9050919050565b7f4e487b7100000000000000000000000000000000000000000000000000000000600052603260045260246000fd5b7f4e487b7100000000000000000000000000000000000000000000000000000000600052601160045260246000fd5b60006126178261193a565b91507fffffffffffffffffffffffffffffffffffffffffffffffffffffffffffffffff8203612649576126486125dd565b5b600182019050919050565b7f455243313135353a2063616c6c6572206973206e6f74206f776e6572206e6f7260008201527f20617070726f7665640000000000000000000000000000000000000000000000602082015250565b60006126b0602983611acd565b91506126bb82612654565b604082019050919050565b600060208201905081810360008301526126df816126a3565b9050919050565b7f455243313135353a2069647320616e6420616d6f756e7473206c656e6774682060008201527f6d69736d61746368000000000000000000000000000000000000000000000000602082015250565b6000612742602883611acd565b915061274d826126e6565b604082019050919050565b6000602082019050818103600083015261277181612735565b9050919050565b7f455243313135353a207472616e7366657220746f20746865207a65726f20616460008201527f6472657373000000000000000000000000000000000000000000000000000000602082015250565b60006127d4602583611acd565b91506127df82612778565b604082019050919050565b60006020820190508181036000830152612803816127c7565b9050919050565b7f455243313135353a20696e73756666696369656e742062616c616e636520666f60008201527f72207472616e7366657200000000000000000000000000000000000000000000602082015250565b6000612866602a83611acd565b91506128718261280a565b604082019050919050565b6000602082019050818103600083015261289581612859565b9050919050565b60006128a78261193a565b91506128b28361193a565b9250827fffffffffffffffffffffffffffffffffffffffffffffffffffffffffffffffff038211156128e7576128e66125dd565b5b828201905092915050565b6000604082019050818103600083015261290c8185611fe4565b905081810360208301526129208184611fe4565b90509392505050565b7f455243313135353a2073657474696e6720617070726f76616c2073746174757360008201527f20666f722073656c660000000000000000000000000000000000000000000000602082015250565b6000612985602983611acd565b915061299082612929565b604082019050919050565b600060208201905081810360008301526129b481612978565b9050919050565b7f455243313135353a206d696e7420746f20746865207a65726f2061646472657360008201527f7300000000000000000000000000000000000000000000000000000000000000602082015250565b6000612a17602183611acd565b9150612a22826129bb565b604082019050919050565b60006020820190508181036000830152612a4681612a0a565b9050919050565b6000604082019050612a6260008301856119b0565b612a6f60208301846119b0565b9392505050565b7f4e487b7100000000000000000000000000000000000000000000000000000000600052601260045260246000fd5b6000612ab08261193a565b9150612abb8361193a565b925082612acb57612aca612a76565b5b828204905092915050565b6000612ae18261193a565b9150612aec8361193a565b9250817fffffffffffffffffffffffffffffffffffffffffffffffffffffffffffffffff0483118215151615612b2557612b246125dd565b5b828202905092915050565b612b39816118fc565b82525050565b600081519050919050565b600082825260208201905092915050565b6000612b6682612b3f565b612b708185612b4a565b9350612b80818560208601611ade565b612b8981611b11565b840191505092915050565b600060a082019050612ba96000830188612b30565b612bb66020830187612b30565b8181036040830152612bc88186611fe4565b90508181036060830152612bdc8185611fe4565b90508181036080830152612bf08184612b5b565b90509695505050505050565b600081519050612c0b81611a06565b92915050565b600060208284031215612c2757612c266118d2565b5b6000612c3584828501612bfc565b91505092915050565b60008160e01c9050919050565b600060033d1115612c6a5760046000803e612c67600051612c3e565b90505b90565b600060443d10612cfa57612c7f6118c8565b60043d036004823e80513d602482011167ffffffffffffffff82111715612ca7575050612cfa565b808201805167ffffffffffffffff811115612cc55750505050612cfa565b80602083010160043d038501811115612ce2575050505050612cfa565b612cf182602001850186611bb1565b82955050505050505b90565b7f455243313135353a207472616e7366657220746f206e6f6e204552433131353560008201527f526563656976657220696d706c656d656e746572000000000000000000000000602082015250565b6000612d59603483611acd565b9150612d6482612cfd565b604082019050919050565b60006020820190508181036000830152612d8881612d4c565b9050919050565b7f455243313135353a204552433131353552656365697665722072656a6563746560008201527f6420746f6b656e73000000000000000000000000000000000000000000000000602082015250565b6000612deb602883611acd565b9150612df682612d8f565b604082019050919050565b60006020820190508181036000830152612e1a81612dde565b9050919050565b600060a082019050612e366000830188612b30565b612e436020830187612b30565b612e5060408301866119b0565b612e5d60608301856119b0565b8181036080830152612e6f8184612b5b565b9050969550505050505056fe4142434445464748494a4b4c4d4e4f505152535455565758595a6162636465666768696a6b6c6d6e6f707172737475767778797a303132333435363738392b2fa26469706673582212209d61a1e8d5f067c5c7ded608d4156eeb1f226e2013623f63e1e3684737d47a7a64736f6c634300080d0033",
  "immutableReferences": {},
  "source": "//SPDX-License-Identifier: MIT\npragma solidity ^0.8.13;\n\nimport \"@openzeppelin/contracts/utils/Base64.sol\";\nimport \"@openzeppelin/contracts/token/ERC1155/extensions/ERC1155URIStorage.sol\";\n\ncontract NFTCollection is ERC1155URIStorage {\n\n    /// Used to generate a fresh token ID for each token\n    uint256 private nonce;\n\n    /**\n    * @dev Construct a new NFTCollection contract.\n     */\n    constructor() ERC1155(\"\") {\n        _setBaseURI(\"data:application/json;base64,\");\n    }\n\n    /**\n    * @dev Mint a new token with the given metadata.\n    * @param to The account to give the newly minted token to.\n    * @param metadataJson The string of metadata.json to associate with the token.\n     */\n    function mint(address to, string memory metadataJson) public {\n        uint256 id = nonce++;\n        _mint(to, id, 1, \"\");\n        _setURI(id, Base64.encode(bytes(metadataJson)));\n\n        emit Minted(to, id);\n    }\n\n    event Minted(address indexed to, uint256 indexed id);\n}\n",
  "sourcePath": "/Users/willem/repos/ProofBoy/contracts/NFTCollection.sol",
  "compiler": {
    "name": "solc",
    "version": "0.8.13+commit.abaa5c0e.Emscripten.clang"
  },
  "schemaVersion": "3.4.14",
  "updatedAt": "2023-07-29T01:02:41.078Z",
  "devdoc": {
    "kind": "dev",
    "methods": {
      "balanceOf(address,uint256)": {
        "details": "See {IERC1155-balanceOf}. Requirements: - `account` cannot be the zero address."
      },
      "balanceOfBatch(address[],uint256[])": {
        "details": "See {IERC1155-balanceOfBatch}. Requirements: - `accounts` and `ids` must have the same length."
      },
      "constructor": {
        "details": "Construct a new NFTCollection contract."
      },
      "isApprovedForAll(address,address)": {
        "details": "See {IERC1155-isApprovedForAll}."
      },
      "mint(address,string)": {
        "details": "Mint a new token with the given metadata.",
        "params": {
          "metadataJson": "The string of metadata.json to associate with the token.",
          "to": "The account to give the newly minted token to."
        }
      },
      "safeBatchTransferFrom(address,address,uint256[],uint256[],bytes)": {
        "details": "See {IERC1155-safeBatchTransferFrom}."
      },
      "safeTransferFrom(address,address,uint256,uint256,bytes)": {
        "details": "See {IERC1155-safeTransferFrom}."
      },
      "setApprovalForAll(address,bool)": {
        "details": "See {IERC1155-setApprovalForAll}."
      },
      "supportsInterface(bytes4)": {
        "details": "See {IERC165-supportsInterface}."
      },
      "uri(uint256)": {
        "details": "See {IERC1155MetadataURI-uri}. This implementation returns the concatenation of the `_baseURI` and the token-specific uri if the latter is set This enables the following behaviors: - if `_tokenURIs[tokenId]` is set, then the result is the concatenation   of `_baseURI` and `_tokenURIs[tokenId]` (keep in mind that `_baseURI`   is empty per default); - if `_tokenURIs[tokenId]` is NOT set then we fallback to `super.uri()`   which in most cases will contain `ERC1155._uri`; - if `_tokenURIs[tokenId]` is NOT set, and if the parents do not have a   uri value set, then the result is empty."
      }
    },
    "version": 1
  },
  "userdoc": {
    "kind": "user",
    "methods": {},
    "version": 1
  }
}