{
  "contractName": "NFTCollection",
  "abi": [
    {
      "inputs": [
        {
          "internalType": "address",
          "name": "disputeGameFactoryAddr",
          "type": "address"
        }
      ],
      "stateMutability": "nonpayable",
      "type": "constructor"
    },
    {
      "inputs": [
        {
          "internalType": "uint256",
          "name": "id",
          "type": "uint256"
        }
      ],
      "name": "MetadataHashMismatch",
      "type": "error"
    },
    {
      "inputs": [
        {
          "internalType": "uint256",
          "name": "id",
          "type": "uint256"
        }
      ],
      "name": "MintProposalNotSettled",
      "type": "error"
    },
    {
      "anonymous": false,
      "inputs": [
        {
          "indexed": true,
          "internalType": "address",
          "name": "account",
          "type": "address"
        },
        {
          "indexed": true,
          "internalType": "address",
          "name": "operator",
          "type": "address"
        },
        {
          "indexed": false,
          "internalType": "bool",
          "name": "approved",
          "type": "bool"
        }
      ],
      "name": "ApprovalForAll",
      "type": "event"
    },
    {
      "anonymous": false,
      "inputs": [
        {
          "indexed": true,
          "internalType": "uint256",
          "name": "id",
          "type": "uint256"
        },
        {
          "indexed": false,
          "internalType": "uint256",
          "name": "timestamp",
          "type": "uint256"
        }
      ],
      "name": "MintProposed",
      "type": "event"
    },
    {
      "anonymous": false,
      "inputs": [
        {
          "indexed": true,
          "internalType": "uint256",
          "name": "id",
          "type": "uint256"
        },
        {
          "indexed": true,
          "internalType": "address",
          "name": "to",
          "type": "address"
        }
      ],
      "name": "Minted",
      "type": "event"
    },
    {
      "anonymous": false,
      "inputs": [
        {
          "indexed": true,
          "internalType": "address",
          "name": "operator",
          "type": "address"
        },
        {
          "indexed": true,
          "internalType": "address",
          "name": "from",
          "type": "address"
        },
        {
          "indexed": true,
          "internalType": "address",
          "name": "to",
          "type": "address"
        },
        {
          "indexed": false,
          "internalType": "uint256[]",
          "name": "ids",
          "type": "uint256[]"
        },
        {
          "indexed": false,
          "internalType": "uint256[]",
          "name": "values",
          "type": "uint256[]"
        }
      ],
      "name": "TransferBatch",
      "type": "event"
    },
    {
      "anonymous": false,
      "inputs": [
        {
          "indexed": true,
          "internalType": "address",
          "name": "operator",
          "type": "address"
        },
        {
          "indexed": true,
          "internalType": "address",
          "name": "from",
          "type": "address"
        },
        {
          "indexed": true,
          "internalType": "address",
          "name": "to",
          "type": "address"
        },
        {
          "indexed": false,
          "internalType": "uint256",
          "name": "id",
          "type": "uint256"
        },
        {
          "indexed": false,
          "internalType": "uint256",
          "name": "value",
          "type": "uint256"
        }
      ],
      "name": "TransferSingle",
      "type": "event"
    },
    {
      "anonymous": false,
      "inputs": [
        {
          "indexed": false,
          "internalType": "string",
          "name": "value",
          "type": "string"
        },
        {
          "indexed": true,
          "internalType": "uint256",
          "name": "id",
          "type": "uint256"
        }
      ],
      "name": "URI",
      "type": "event"
    },
    {
      "inputs": [],
      "name": "SETTLEMENT_PERIOD",
      "outputs": [
        {
          "internalType": "uint256",
          "name": "",
          "type": "uint256"
        }
      ],
      "stateMutability": "view",
      "type": "function"
    },
    {
      "inputs": [
        {
          "internalType": "address",
          "name": "account",
          "type": "address"
        },
        {
          "internalType": "uint256",
          "name": "id",
          "type": "uint256"
        }
      ],
      "name": "balanceOf",
      "outputs": [
        {
          "internalType": "uint256",
          "name": "",
          "type": "uint256"
        }
      ],
      "stateMutability": "view",
      "type": "function"
    },
    {
      "inputs": [
        {
          "internalType": "address[]",
          "name": "accounts",
          "type": "address[]"
        },
        {
          "internalType": "uint256[]",
          "name": "ids",
          "type": "uint256[]"
        }
      ],
      "name": "balanceOfBatch",
      "outputs": [
        {
          "internalType": "uint256[]",
          "name": "",
          "type": "uint256[]"
        }
      ],
      "stateMutability": "view",
      "type": "function"
    },
    {
      "inputs": [],
      "name": "disputeGameFactory",
      "outputs": [
        {
          "internalType": "contract IDisputeGameFactory",
          "name": "",
          "type": "address"
        }
      ],
      "stateMutability": "view",
      "type": "function"
    },
    {
      "inputs": [
        {
          "internalType": "address",
          "name": "account",
          "type": "address"
        },
        {
          "internalType": "address",
          "name": "operator",
          "type": "address"
        }
      ],
      "name": "isApprovedForAll",
      "outputs": [
        {
          "internalType": "bool",
          "name": "",
          "type": "bool"
        }
      ],
      "stateMutability": "view",
      "type": "function"
    },
    {
      "inputs": [
        {
          "internalType": "uint256",
          "name": "",
          "type": "uint256"
        }
      ],
      "name": "pendingMints",
      "outputs": [
        {
          "internalType": "bytes32",
          "name": "metadataHash",
          "type": "bytes32"
        },
        {
          "internalType": "bytes32",
          "name": "journalHash",
          "type": "bytes32"
        },
        {
          "internalType": "uint256",
          "name": "timestamp",
          "type": "uint256"
        }
      ],
      "stateMutability": "view",
      "type": "function"
    },
    {
      "inputs": [
        {
          "internalType": "address",
          "name": "from",
          "type": "address"
        },
        {
          "internalType": "address",
          "name": "to",
          "type": "address"
        },
        {
          "internalType": "uint256[]",
          "name": "ids",
          "type": "uint256[]"
        },
        {
          "internalType": "uint256[]",
          "name": "amounts",
          "type": "uint256[]"
        },
        {
          "internalType": "bytes",
          "name": "data",
          "type": "bytes"
        }
      ],
      "name": "safeBatchTransferFrom",
      "outputs": [],
      "stateMutability": "nonpayable",
      "type": "function"
    },
    {
      "inputs": [
        {
          "internalType": "address",
          "name": "from",
          "type": "address"
        },
        {
          "internalType": "address",
          "name": "to",
          "type": "address"
        },
        {
          "internalType": "uint256",
          "name": "id",
          "type": "uint256"
        },
        {
          "internalType": "uint256",
          "name": "amount",
          "type": "uint256"
        },
        {
          "internalType": "bytes",
          "name": "data",
          "type": "bytes"
        }
      ],
      "name": "safeTransferFrom",
      "outputs": [],
      "stateMutability": "nonpayable",
      "type": "function"
    },
    {
      "inputs": [
        {
          "internalType": "address",
          "name": "operator",
          "type": "address"
        },
        {
          "internalType": "bool",
          "name": "approved",
          "type": "bool"
        }
      ],
      "name": "setApprovalForAll",
      "outputs": [],
      "stateMutability": "nonpayable",
      "type": "function"
    },
    {
      "inputs": [
        {
          "internalType": "bytes4",
          "name": "interfaceId",
          "type": "bytes4"
        }
      ],
      "name": "supportsInterface",
      "outputs": [
        {
          "internalType": "bool",
          "name": "",
          "type": "bool"
        }
      ],
      "stateMutability": "view",
      "type": "function"
    },
    {
      "inputs": [
        {
          "internalType": "uint256",
          "name": "tokenId",
          "type": "uint256"
        }
      ],
      "name": "uri",
      "outputs": [
        {
          "internalType": "string",
          "name": "",
          "type": "string"
        }
      ],
      "stateMutability": "view",
      "type": "function"
    },
    {
      "inputs": [
        {
          "internalType": "string",
          "name": "metadataJson",
          "type": "string"
        },
        {
          "internalType": "bytes",
          "name": "journal",
          "type": "bytes"
        }
      ],
      "name": "ProposeMint",
      "outputs": [],
      "stateMutability": "nonpayable",
      "type": "function"
    },
    {
      "inputs": [
        {
          "internalType": "address",
          "name": "to",
          "type": "address"
        },
        {
          "internalType": "uint256",
          "name": "id",
          "type": "uint256"
        },
        {
          "internalType": "string",
          "name": "metadataJson",
          "type": "string"
        }
      ],
      "name": "mint",
      "outputs": [],
      "stateMutability": "nonpayable",
      "type": "function"
    }
  ],
  "bytecode": "0x60806040526040518060200160405280600081525060039081620000249190620003ac565b503480156200003257600080fd5b5060405162003ad538038062003ad58339818101604052810190620000589190620004fd565b6040518060200160405280600081525062000079816200010860201b60201c565b5080600760006101000a81548173ffffffffffffffffffffffffffffffffffffffff021916908373ffffffffffffffffffffffffffffffffffffffff160217905550620001016040518060400160405280601d81526020017f646174613a6170706c69636174696f6e2f6a736f6e3b6261736536342c0000008152506200011d60201b60201c565b506200052f565b8060029081620001199190620003ac565b5050565b80600390816200012e9190620003ac565b5050565b600081519050919050565b7f4e487b7100000000000000000000000000000000000000000000000000000000600052604160045260246000fd5b7f4e487b7100000000000000000000000000000000000000000000000000000000600052602260045260246000fd5b60006002820490506001821680620001b457607f821691505b602082108103620001ca57620001c96200016c565b5b50919050565b60008190508160005260206000209050919050565b60006020601f8301049050919050565b600082821b905092915050565b600060088302620002347fffffffffffffffffffffffffffffffffffffffffffffffffffffffffffffffff82620001f5565b620002408683620001f5565b95508019841693508086168417925050509392505050565b6000819050919050565b6000819050919050565b60006200028d62000287620002818462000258565b62000262565b62000258565b9050919050565b6000819050919050565b620002a9836200026c565b620002c1620002b88262000294565b84845462000202565b825550505050565b600090565b620002d8620002c9565b620002e58184846200029e565b505050565b5b818110156200030d5762000301600082620002ce565b600181019050620002eb565b5050565b601f8211156200035c576200032681620001d0565b6200033184620001e5565b8101602085101562000341578190505b620003596200035085620001e5565b830182620002ea565b50505b505050565b600082821c905092915050565b6000620003816000198460080262000361565b1980831691505092915050565b60006200039c83836200036e565b9150826002028217905092915050565b620003b78262000132565b67ffffffffffffffff811115620003d357620003d26200013d565b5b620003df82546200019b565b620003ec82828562000311565b600060209050601f8311600181146200042457600084156200040f578287015190505b6200041b85826200038e565b8655506200048b565b601f1984166200043486620001d0565b60005b828110156200045e5784890151825560018201915060208501945060208101905062000437565b868310156200047e57848901516200047a601f8916826200036e565b8355505b6001600288020188555050505b505050505050565b600080fd5b600073ffffffffffffffffffffffffffffffffffffffff82169050919050565b6000620004c58262000498565b9050919050565b620004d781620004b8565b8114620004e357600080fd5b50565b600081519050620004f781620004cc565b92915050565b60006020828403121562000516576200051562000493565b5b60006200052684828501620004e6565b91505092915050565b613596806200053f6000396000f3fe608060405234801561001057600080fd5b50600436106100ce5760003560e01c80634e1273f41161008c578063d3fc986411610066578063d3fc986414610237578063e985e9c514610253578063f242432a14610283578063f2b4e6171461029f576100ce565b80634e1273f4146101b957806363900ca6146101e9578063a22cb4651461021b576100ce565b8062fdd58e146100d357806301ffc9a71461010357806309e54b5b146101335780630e89341c146101515780631ad2d6eb146101815780632eb2c2d61461019d575b600080fd5b6100ed60048036038101906100e89190611b5a565b6102bd565b6040516100fa9190611ba9565b60405180910390f35b61011d60048036038101906101189190611c1c565b610385565b60405161012a9190611c64565b60405180910390f35b61013b610467565b6040516101489190611ba9565b60405180910390f35b61016b60048036038101906101669190611c7f565b61046d565b6040516101789190611d45565b60405180910390f35b61019b60048036038101906101969190611e22565b610552565b005b6101b760048036038101906101b29190612096565b610629565b005b6101d360048036038101906101ce9190612228565b6106ca565b6040516101e0919061235e565b60405180910390f35b61020360048036038101906101fe9190611c7f565b6107e3565b60405161021293929190612399565b60405180910390f35b610235600480360381019061023091906123fc565b61080d565b005b610251600480360381019061024c91906124dd565b610823565b005b61026d6004803603810190610268919061254c565b610956565b60405161027a9190611c64565b60405180910390f35b61029d6004803603810190610298919061258c565b6109ea565b005b6102a7610a8b565b6040516102b49190612682565b60405180910390f35b60008073ffffffffffffffffffffffffffffffffffffffff168373ffffffffffffffffffffffffffffffffffffffff160361032d576040517f08c379a00000000000000000000000000000000000000000000000000000000081526004016103249061270f565b60405180910390fd5b60008083815260200190815260200160002060008473ffffffffffffffffffffffffffffffffffffffff1673ffffffffffffffffffffffffffffffffffffffff16815260200190815260200160002054905092915050565b60007fd9b67a26000000000000000000000000000000000000000000000000000000007bffffffffffffffffffffffffffffffffffffffffffffffffffffffff1916827bffffffffffffffffffffffffffffffffffffffffffffffffffffffff1916148061045057507f0e89341c000000000000000000000000000000000000000000000000000000007bffffffffffffffffffffffffffffffffffffffffffffffffffffffff1916827bffffffffffffffffffffffffffffffffffffffffffffffffffffffff1916145b80610460575061045f82610ab1565b5b9050919050565b610e1081565b6060600060046000848152602001908152602001600020805461048f9061275e565b80601f01602080910402602001604051908101604052809291908181526020018280546104bb9061275e565b80156105085780601f106104dd57610100808354040283529160200191610508565b820191906000526020600020905b8154815290600101906020018083116104eb57829003601f168201915b5050505050905060008151116105265761052183610b1b565b61054a565b60038160405160200161053a929190612863565b6040516020818303038152906040525b915050919050565b600060056000815480929190610567906128b6565b9190505590506040518060600160405280868660405161058892919061292e565b6040518091039020815260200184846040516105a592919061292e565b604051809103902081526020014281525060066000838152602001908152602001600020600082015181600001556020820151816001015560408201518160020155905050807fd0bc66607de65f3b1fabcfbcf0a2623cc9539a0cdbf5a5d1128153ac23ccc5494260405161061a9190611ba9565b60405180910390a25050505050565b610631610baf565b73ffffffffffffffffffffffffffffffffffffffff168573ffffffffffffffffffffffffffffffffffffffff161480610677575061067685610671610baf565b610956565b5b6106b6576040517f08c379a00000000000000000000000000000000000000000000000000000000081526004016106ad906129b9565b60405180910390fd5b6106c38585858585610bb7565b5050505050565b60608151835114610710576040517f08c379a000000000000000000000000000000000000000000000000000000000815260040161070790612a4b565b60405180910390fd5b6000835167ffffffffffffffff81111561072d5761072c611ea3565b5b60405190808252806020026020018201604052801561075b5781602001602082028036833780820191505090505b50905060005b84518110156107d8576107a88582815181106107805761077f612a6b565b5b602002602001015185838151811061079b5761079a612a6b565b5b60200260200101516102bd565b8282815181106107bb576107ba612a6b565b5b602002602001018181525050806107d1906128b6565b9050610761565b508091505092915050565b60066020528060005260406000206000915090508060000154908060010154908060020154905083565b61081f610818610baf565b8383610ed8565b5050565b600060066000848152602001908152602001600020905042610e10826002015461084d9190612a9a565b1161088f57826040517ff5630a210000000000000000000000000000000000000000000000000000000081526004016108869190611ba9565b60405180910390fd5b81805190602001208160000154146108de57826040517f6912760a0000000000000000000000000000000000000000000000000000000081526004016108d59190611ba9565b60405180910390fd5b6108fa8484600160405180602001604052806000815250611044565b61090c83610907846111f4565b611357565b8373ffffffffffffffffffffffffffffffffffffffff16837fb9203d657e9c0ec8274c818292ab0f58b04e1970050716891770eb1bab5d655e60405160405180910390a350505050565b6000600160008473ffffffffffffffffffffffffffffffffffffffff1673ffffffffffffffffffffffffffffffffffffffff16815260200190815260200160002060008373ffffffffffffffffffffffffffffffffffffffff1673ffffffffffffffffffffffffffffffffffffffff16815260200190815260200160002060009054906101000a900460ff16905092915050565b6109f2610baf565b73ffffffffffffffffffffffffffffffffffffffff168573ffffffffffffffffffffffffffffffffffffffff161480610a385750610a3785610a32610baf565b610956565b5b610a77576040517f08c379a0000000000000000000000000000000000000000000000000000000008152600401610a6e90612b62565b60405180910390fd5b610a8485858585856113bc565b5050505050565b600760009054906101000a900473ffffffffffffffffffffffffffffffffffffffff1681565b60007f01ffc9a7000000000000000000000000000000000000000000000000000000007bffffffffffffffffffffffffffffffffffffffffffffffffffffffff1916827bffffffffffffffffffffffffffffffffffffffffffffffffffffffff1916149050919050565b606060028054610b2a9061275e565b80601f0160208091040260200160405190810160405280929190818152602001828054610b569061275e565b8015610ba35780601f10610b7857610100808354040283529160200191610ba3565b820191906000526020600020905b815481529060010190602001808311610b8657829003601f168201915b50505050509050919050565b600033905090565b8151835114610bfb576040517f08c379a0000000000000000000000000000000000000000000000000000000008152600401610bf290612bf4565b60405180910390fd5b600073ffffffffffffffffffffffffffffffffffffffff168473ffffffffffffffffffffffffffffffffffffffff1603610c6a576040517f08c379a0000000000000000000000000000000000000000000000000000000008152600401610c6190612c86565b60405180910390fd5b6000610c74610baf565b9050610c84818787878787611657565b60005b8451811015610e35576000858281518110610ca557610ca4612a6b565b5b602002602001015190506000858381518110610cc457610cc3612a6b565b5b60200260200101519050600080600084815260200190815260200160002060008b73ffffffffffffffffffffffffffffffffffffffff1673ffffffffffffffffffffffffffffffffffffffff16815260200190815260200160002054905081811015610d65576040517f08c379a0000000000000000000000000000000000000000000000000000000008152600401610d5c90612d18565b60405180910390fd5b81810360008085815260200190815260200160002060008c73ffffffffffffffffffffffffffffffffffffffff1673ffffffffffffffffffffffffffffffffffffffff168152602001908152602001600020819055508160008085815260200190815260200160002060008b73ffffffffffffffffffffffffffffffffffffffff1673ffffffffffffffffffffffffffffffffffffffff1681526020019081526020016000206000828254610e1a9190612a9a565b9250508190555050505080610e2e906128b6565b9050610c87565b508473ffffffffffffffffffffffffffffffffffffffff168673ffffffffffffffffffffffffffffffffffffffff168273ffffffffffffffffffffffffffffffffffffffff167f4a39dc06d4c0dbc64b70af90fd698a233a518aa5d07e595d983b8c0526c8f7fb8787604051610eac929190612d38565b60405180910390a4610ec281878787878761165f565b610ed0818787878787611667565b505050505050565b8173ffffffffffffffffffffffffffffffffffffffff168373ffffffffffffffffffffffffffffffffffffffff1603610f46576040517f08c379a0000000000000000000000000000000000000000000000000000000008152600401610f3d90612de1565b60405180910390fd5b80600160008573ffffffffffffffffffffffffffffffffffffffff1673ffffffffffffffffffffffffffffffffffffffff16815260200190815260200160002060008473ffffffffffffffffffffffffffffffffffffffff1673ffffffffffffffffffffffffffffffffffffffff16815260200190815260200160002060006101000a81548160ff0219169083151502179055508173ffffffffffffffffffffffffffffffffffffffff168373ffffffffffffffffffffffffffffffffffffffff167f17307eab39ab6107e8899845ad3d59bd9653f200f220920489ca2b5937696c31836040516110379190611c64565b60405180910390a3505050565b600073ffffffffffffffffffffffffffffffffffffffff168473ffffffffffffffffffffffffffffffffffffffff16036110b3576040517f08c379a00000000000000000000000000000000000000000000000000000000081526004016110aa90612e73565b60405180910390fd5b60006110bd610baf565b905060006110ca8561183e565b905060006110d78561183e565b90506110e883600089858589611657565b8460008088815260200190815260200160002060008973ffffffffffffffffffffffffffffffffffffffff1673ffffffffffffffffffffffffffffffffffffffff16815260200190815260200160002060008282546111479190612a9a565b925050819055508673ffffffffffffffffffffffffffffffffffffffff16600073ffffffffffffffffffffffffffffffffffffffff168473ffffffffffffffffffffffffffffffffffffffff167fc3d58168c5ae7397731d063d5bbf3d657854427343f4c083240f7aacaa2d0f6289896040516111c5929190612e93565b60405180910390a46111dc8360008985858961165f565b6111eb836000898989896118b8565b50505050505050565b6060600082510361121657604051806020016040528060008152509050611352565b600060405180606001604052806040815260200161352160409139905060006003600285516112459190612a9a565b61124f9190612eeb565b600461125b9190612f1c565b67ffffffffffffffff81111561127457611273611ea3565b5b6040519080825280601f01601f1916602001820160405280156112a65781602001600182028036833780820191505090505b509050600182016020820185865187015b80821015611312576003820191508151603f8160121c168501518453600184019350603f81600c1c168501518453600184019350603f8160061c168501518453600184019350603f81168501518453600184019350506112b7565b505060038651066001811461132e576002811461134157611349565b603d6001830353603d6002830353611349565b603d60018303535b50505080925050505b919050565b806004600084815260200190815260200160002090816113779190613103565b50817f6bb7ff708619ba0610cba295a58592e0451dee2622938c8755667688daf3529b6113a38461046d565b6040516113b09190611d45565b60405180910390a25050565b600073ffffffffffffffffffffffffffffffffffffffff168473ffffffffffffffffffffffffffffffffffffffff160361142b576040517f08c379a000000000000000000000000000000000000000000000000000000000815260040161142290612c86565b60405180910390fd5b6000611435610baf565b905060006114428561183e565b9050600061144f8561183e565b905061145f838989858589611657565b600080600088815260200190815260200160002060008a73ffffffffffffffffffffffffffffffffffffffff1673ffffffffffffffffffffffffffffffffffffffff168152602001908152602001600020549050858110156114f6576040517f08c379a00000000000000000000000000000000000000000000000000000000081526004016114ed90612d18565b60405180910390fd5b85810360008089815260200190815260200160002060008b73ffffffffffffffffffffffffffffffffffffffff1673ffffffffffffffffffffffffffffffffffffffff168152602001908152602001600020819055508560008089815260200190815260200160002060008a73ffffffffffffffffffffffffffffffffffffffff1673ffffffffffffffffffffffffffffffffffffffff16815260200190815260200160002060008282546115ab9190612a9a565b925050819055508773ffffffffffffffffffffffffffffffffffffffff168973ffffffffffffffffffffffffffffffffffffffff168573ffffffffffffffffffffffffffffffffffffffff167fc3d58168c5ae7397731d063d5bbf3d657854427343f4c083240f7aacaa2d0f628a8a604051611628929190612e93565b60405180910390a461163e848a8a86868a61165f565b61164c848a8a8a8a8a6118b8565b505050505050505050565b505050505050565b505050505050565b6116868473ffffffffffffffffffffffffffffffffffffffff16611a8f565b15611836578373ffffffffffffffffffffffffffffffffffffffff1663bc197c8187878686866040518663ffffffff1660e01b81526004016116cc959493929190613239565b6020604051808303816000875af192505050801561170857506040513d601f19601f8201168201806040525081019061170591906132b6565b60015b6117ad576117146132f0565b806308c379a0036117705750611728613312565b806117335750611772565b806040517f08c379a00000000000000000000000000000000000000000000000000000000081526004016117679190611d45565b60405180910390fd5b505b6040517f08c379a00000000000000000000000000000000000000000000000000000000081526004016117a490613414565b60405180910390fd5b63bc197c8160e01b7bffffffffffffffffffffffffffffffffffffffffffffffffffffffff1916817bffffffffffffffffffffffffffffffffffffffffffffffffffffffff191614611834576040517f08c379a000000000000000000000000000000000000000000000000000000000815260040161182b906134a6565b60405180910390fd5b505b505050505050565b60606000600167ffffffffffffffff81111561185d5761185c611ea3565b5b60405190808252806020026020018201604052801561188b5781602001602082028036833780820191505090505b50905082816000815181106118a3576118a2612a6b565b5b60200260200101818152505080915050919050565b6118d78473ffffffffffffffffffffffffffffffffffffffff16611a8f565b15611a87578373ffffffffffffffffffffffffffffffffffffffff1663f23a6e6187878686866040518663ffffffff1660e01b815260040161191d9594939291906134c6565b6020604051808303816000875af192505050801561195957506040513d601f19601f8201168201806040525081019061195691906132b6565b60015b6119fe576119656132f0565b806308c379a0036119c15750611979613312565b8061198457506119c3565b806040517f08c379a00000000000000000000000000000000000000000000000000000000081526004016119b89190611d45565b60405180910390fd5b505b6040517f08c379a00000000000000000000000000000000000000000000000000000000081526004016119f590613414565b60405180910390fd5b63f23a6e6160e01b7bffffffffffffffffffffffffffffffffffffffffffffffffffffffff1916817bffffffffffffffffffffffffffffffffffffffffffffffffffffffff191614611a85576040517f08c379a0000000000000000000000000000000000000000000000000000000008152600401611a7c906134a6565b60405180910390fd5b505b505050505050565b6000808273ffffffffffffffffffffffffffffffffffffffff163b119050919050565b6000604051905090565b600080fd5b600080fd5b600073ffffffffffffffffffffffffffffffffffffffff82169050919050565b6000611af182611ac6565b9050919050565b611b0181611ae6565b8114611b0c57600080fd5b50565b600081359050611b1e81611af8565b92915050565b6000819050919050565b611b3781611b24565b8114611b4257600080fd5b50565b600081359050611b5481611b2e565b92915050565b60008060408385031215611b7157611b70611abc565b5b6000611b7f85828601611b0f565b9250506020611b9085828601611b45565b9150509250929050565b611ba381611b24565b82525050565b6000602082019050611bbe6000830184611b9a565b92915050565b60007fffffffff0000000000000000000000000000000000000000000000000000000082169050919050565b611bf981611bc4565b8114611c0457600080fd5b50565b600081359050611c1681611bf0565b92915050565b600060208284031215611c3257611c31611abc565b5b6000611c4084828501611c07565b91505092915050565b60008115159050919050565b611c5e81611c49565b82525050565b6000602082019050611c796000830184611c55565b92915050565b600060208284031215611c9557611c94611abc565b5b6000611ca384828501611b45565b91505092915050565b600081519050919050565b600082825260208201905092915050565b60005b83811015611ce6578082015181840152602081019050611ccb565b83811115611cf5576000848401525b50505050565b6000601f19601f8301169050919050565b6000611d1782611cac565b611d218185611cb7565b9350611d31818560208601611cc8565b611d3a81611cfb565b840191505092915050565b60006020820190508181036000830152611d5f8184611d0c565b905092915050565b600080fd5b600080fd5b600080fd5b60008083601f840112611d8c57611d8b611d67565b5b8235905067ffffffffffffffff811115611da957611da8611d6c565b5b602083019150836001820283011115611dc557611dc4611d71565b5b9250929050565b60008083601f840112611de257611de1611d67565b5b8235905067ffffffffffffffff811115611dff57611dfe611d6c565b5b602083019150836001820283011115611e1b57611e1a611d71565b5b9250929050565b60008060008060408587031215611e3c57611e3b611abc565b5b600085013567ffffffffffffffff811115611e5a57611e59611ac1565b5b611e6687828801611d76565b9450945050602085013567ffffffffffffffff811115611e8957611e88611ac1565b5b611e9587828801611dcc565b925092505092959194509250565b7f4e487b7100000000000000000000000000000000000000000000000000000000600052604160045260246000fd5b611edb82611cfb565b810181811067ffffffffffffffff82111715611efa57611ef9611ea3565b5b80604052505050565b6000611f0d611ab2565b9050611f198282611ed2565b919050565b600067ffffffffffffffff821115611f3957611f38611ea3565b5b602082029050602081019050919050565b6000611f5d611f5884611f1e565b611f03565b90508083825260208201905060208402830185811115611f8057611f7f611d71565b5b835b81811015611fa95780611f958882611b45565b845260208401935050602081019050611f82565b5050509392505050565b600082601f830112611fc857611fc7611d67565b5b8135611fd8848260208601611f4a565b91505092915050565b600080fd5b600067ffffffffffffffff82111561200157612000611ea3565b5b61200a82611cfb565b9050602081019050919050565b82818337600083830152505050565b600061203961203484611fe6565b611f03565b90508281526020810184848401111561205557612054611fe1565b5b612060848285612017565b509392505050565b600082601f83011261207d5761207c611d67565b5b813561208d848260208601612026565b91505092915050565b600080600080600060a086880312156120b2576120b1611abc565b5b60006120c088828901611b0f565b95505060206120d188828901611b0f565b945050604086013567ffffffffffffffff8111156120f2576120f1611ac1565b5b6120fe88828901611fb3565b935050606086013567ffffffffffffffff81111561211f5761211e611ac1565b5b61212b88828901611fb3565b925050608086013567ffffffffffffffff81111561214c5761214b611ac1565b5b61215888828901612068565b9150509295509295909350565b600067ffffffffffffffff8211156121805761217f611ea3565b5b602082029050602081019050919050565b60006121a461219f84612165565b611f03565b905080838252602082019050602084028301858111156121c7576121c6611d71565b5b835b818110156121f057806121dc8882611b0f565b8452602084019350506020810190506121c9565b5050509392505050565b600082601f83011261220f5761220e611d67565b5b813561221f848260208601612191565b91505092915050565b6000806040838503121561223f5761223e611abc565b5b600083013567ffffffffffffffff81111561225d5761225c611ac1565b5b612269858286016121fa565b925050602083013567ffffffffffffffff81111561228a57612289611ac1565b5b61229685828601611fb3565b9150509250929050565b600081519050919050565b600082825260208201905092915050565b6000819050602082019050919050565b6122d581611b24565b82525050565b60006122e783836122cc565b60208301905092915050565b6000602082019050919050565b600061230b826122a0565b61231581856122ab565b9350612320836122bc565b8060005b8381101561235157815161233888826122db565b9750612343836122f3565b925050600181019050612324565b5085935050505092915050565b600060208201905081810360008301526123788184612300565b905092915050565b6000819050919050565b61239381612380565b82525050565b60006060820190506123ae600083018661238a565b6123bb602083018561238a565b6123c86040830184611b9a565b949350505050565b6123d981611c49565b81146123e457600080fd5b50565b6000813590506123f6816123d0565b92915050565b6000806040838503121561241357612412611abc565b5b600061242185828601611b0f565b9250506020612432858286016123e7565b9150509250929050565b600067ffffffffffffffff82111561245757612456611ea3565b5b61246082611cfb565b9050602081019050919050565b600061248061247b8461243c565b611f03565b90508281526020810184848401111561249c5761249b611fe1565b5b6124a7848285612017565b509392505050565b600082601f8301126124c4576124c3611d67565b5b81356124d484826020860161246d565b91505092915050565b6000806000606084860312156124f6576124f5611abc565b5b600061250486828701611b0f565b935050602061251586828701611b45565b925050604084013567ffffffffffffffff81111561253657612535611ac1565b5b612542868287016124af565b9150509250925092565b6000806040838503121561256357612562611abc565b5b600061257185828601611b0f565b925050602061258285828601611b0f565b9150509250929050565b600080600080600060a086880312156125a8576125a7611abc565b5b60006125b688828901611b0f565b95505060206125c788828901611b0f565b94505060406125d888828901611b45565b93505060606125e988828901611b45565b925050608086013567ffffffffffffffff81111561260a57612609611ac1565b5b61261688828901612068565b9150509295509295909350565b6000819050919050565b600061264861264361263e84611ac6565b612623565b611ac6565b9050919050565b600061265a8261262d565b9050919050565b600061266c8261264f565b9050919050565b61267c81612661565b82525050565b60006020820190506126976000830184612673565b92915050565b7f455243313135353a2062616c616e636520717565727920666f7220746865207a60008201527f65726f2061646472657373000000000000000000000000000000000000000000602082015250565b60006126f9602b83611cb7565b91506127048261269d565b604082019050919050565b60006020820190508181036000830152612728816126ec565b9050919050565b7f4e487b7100000000000000000000000000000000000000000000000000000000600052602260045260246000fd5b6000600282049050600182168061277657607f821691505b6020821081036127895761278861272f565b5b50919050565b600081905092915050565b60008190508160005260206000209050919050565b600081546127bc8161275e565b6127c6818661278f565b945060018216600081146127e157600181146127f657612829565b60ff1983168652811515820286019350612829565b6127ff8561279a565b60005b8381101561282157815481890152600182019150602081019050612802565b838801955050505b50505092915050565b600061283d82611cac565b612847818561278f565b9350612857818560208601611cc8565b80840191505092915050565b600061286f82856127af565b915061287b8284612832565b91508190509392505050565b7f4e487b7100000000000000000000000000000000000000000000000000000000600052601160045260246000fd5b60006128c182611b24565b91507fffffffffffffffffffffffffffffffffffffffffffffffffffffffffffffffff82036128f3576128f2612887565b5b600182019050919050565b600081905092915050565b600061291583856128fe565b9350612922838584612017565b82840190509392505050565b600061293b828486612909565b91508190509392505050565b7f455243313135353a207472616e736665722063616c6c6572206973206e6f742060008201527f6f776e6572206e6f7220617070726f7665640000000000000000000000000000602082015250565b60006129a3603283611cb7565b91506129ae82612947565b604082019050919050565b600060208201905081810360008301526129d281612996565b9050919050565b7f455243313135353a206163636f756e747320616e6420696473206c656e67746860008201527f206d69736d617463680000000000000000000000000000000000000000000000602082015250565b6000612a35602983611cb7565b9150612a40826129d9565b604082019050919050565b60006020820190508181036000830152612a6481612a28565b9050919050565b7f4e487b7100000000000000000000000000000000000000000000000000000000600052603260045260246000fd5b6000612aa582611b24565b9150612ab083611b24565b9250827fffffffffffffffffffffffffffffffffffffffffffffffffffffffffffffffff03821115612ae557612ae4612887565b5b828201905092915050565b7f455243313135353a2063616c6c6572206973206e6f74206f776e6572206e6f7260008201527f20617070726f7665640000000000000000000000000000000000000000000000602082015250565b6000612b4c602983611cb7565b9150612b5782612af0565b604082019050919050565b60006020820190508181036000830152612b7b81612b3f565b9050919050565b7f455243313135353a2069647320616e6420616d6f756e7473206c656e6774682060008201527f6d69736d61746368000000000000000000000000000000000000000000000000602082015250565b6000612bde602883611cb7565b9150612be982612b82565b604082019050919050565b60006020820190508181036000830152612c0d81612bd1565b9050919050565b7f455243313135353a207472616e7366657220746f20746865207a65726f20616460008201527f6472657373000000000000000000000000000000000000000000000000000000602082015250565b6000612c70602583611cb7565b9150612c7b82612c14565b604082019050919050565b60006020820190508181036000830152612c9f81612c63565b9050919050565b7f455243313135353a20696e73756666696369656e742062616c616e636520666f60008201527f72207472616e7366657200000000000000000000000000000000000000000000602082015250565b6000612d02602a83611cb7565b9150612d0d82612ca6565b604082019050919050565b60006020820190508181036000830152612d3181612cf5565b9050919050565b60006040820190508181036000830152612d528185612300565b90508181036020830152612d668184612300565b90509392505050565b7f455243313135353a2073657474696e6720617070726f76616c2073746174757360008201527f20666f722073656c660000000000000000000000000000000000000000000000602082015250565b6000612dcb602983611cb7565b9150612dd682612d6f565b604082019050919050565b60006020820190508181036000830152612dfa81612dbe565b9050919050565b7f455243313135353a206d696e7420746f20746865207a65726f2061646472657360008201527f7300000000000000000000000000000000000000000000000000000000000000602082015250565b6000612e5d602183611cb7565b9150612e6882612e01565b604082019050919050565b60006020820190508181036000830152612e8c81612e50565b9050919050565b6000604082019050612ea86000830185611b9a565b612eb56020830184611b9a565b9392505050565b7f4e487b7100000000000000000000000000000000000000000000000000000000600052601260045260246000fd5b6000612ef682611b24565b9150612f0183611b24565b925082612f1157612f10612ebc565b5b828204905092915050565b6000612f2782611b24565b9150612f3283611b24565b9250817fffffffffffffffffffffffffffffffffffffffffffffffffffffffffffffffff0483118215151615612f6b57612f6a612887565b5b828202905092915050565b60006020601f8301049050919050565b600082821b905092915050565b600060088302612fc37fffffffffffffffffffffffffffffffffffffffffffffffffffffffffffffffff82612f86565b612fcd8683612f86565b95508019841693508086168417925050509392505050565b6000613000612ffb612ff684611b24565b612623565b611b24565b9050919050565b6000819050919050565b61301a83612fe5565b61302e61302682613007565b848454612f93565b825550505050565b600090565b613043613036565b61304e818484613011565b505050565b5b818110156130725761306760008261303b565b600181019050613054565b5050565b601f8211156130b7576130888161279a565b61309184612f76565b810160208510156130a0578190505b6130b46130ac85612f76565b830182613053565b50505b505050565b600082821c905092915050565b60006130da600019846008026130bc565b1980831691505092915050565b60006130f383836130c9565b9150826002028217905092915050565b61310c82611cac565b67ffffffffffffffff81111561312557613124611ea3565b5b61312f825461275e565b61313a828285613076565b600060209050601f83116001811461316d576000841561315b578287015190505b61316585826130e7565b8655506131cd565b601f19841661317b8661279a565b60005b828110156131a35784890151825560018201915060208501945060208101905061317e565b868310156131c057848901516131bc601f8916826130c9565b8355505b6001600288020188555050505b505050505050565b6131de81611ae6565b82525050565b600081519050919050565b600082825260208201905092915050565b600061320b826131e4565b61321581856131ef565b9350613225818560208601611cc8565b61322e81611cfb565b840191505092915050565b600060a08201905061324e60008301886131d5565b61325b60208301876131d5565b818103604083015261326d8186612300565b905081810360608301526132818185612300565b905081810360808301526132958184613200565b90509695505050505050565b6000815190506132b081611bf0565b92915050565b6000602082840312156132cc576132cb611abc565b5b60006132da848285016132a1565b91505092915050565b60008160e01c9050919050565b600060033d111561330f5760046000803e61330c6000516132e3565b90505b90565b600060443d1061339f57613324611ab2565b60043d036004823e80513d602482011167ffffffffffffffff8211171561334c57505061339f565b808201805167ffffffffffffffff81111561336a575050505061339f565b80602083010160043d03850181111561338757505050505061339f565b61339682602001850186611ed2565b82955050505050505b90565b7f455243313135353a207472616e7366657220746f206e6f6e204552433131353560008201527f526563656976657220696d706c656d656e746572000000000000000000000000602082015250565b60006133fe603483611cb7565b9150613409826133a2565b604082019050919050565b6000602082019050818103600083015261342d816133f1565b9050919050565b7f455243313135353a204552433131353552656365697665722072656a6563746560008201527f6420746f6b656e73000000000000000000000000000000000000000000000000602082015250565b6000613490602883611cb7565b915061349b82613434565b604082019050919050565b600060208201905081810360008301526134bf81613483565b9050919050565b600060a0820190506134db60008301886131d5565b6134e860208301876131d5565b6134f56040830186611b9a565b6135026060830185611b9a565b81810360808301526135148184613200565b9050969550505050505056fe4142434445464748494a4b4c4d4e4f505152535455565758595a6162636465666768696a6b6c6d6e6f707172737475767778797a303132333435363738392b2fa26469706673582212208c16715e733f839482b04145faf8931c43101d5c28010859b9372b3b1b0a089264736f6c634300080f0033",
  "immutableReferences": {},
  "source": "//SPDX-License-Identifier: MIT\npragma solidity ^0.8.15;\n\nimport { Base64 } from \"@openzeppelin/contracts/utils/Base64.sol\";\nimport { ERC1155URIStorage, ERC1155 } from \"@openzeppelin/contracts/token/ERC1155/extensions/ERC1155URIStorage.sol\";\nimport { IDisputeGameFactory } from \"@eth-optimism/contracts-bedrock/src/dispute/interfaces/IDisputeGameFactory.sol\";\n\ncontract NFTCollection is ERC1155URIStorage {\n\n    /// @dev Represents a token that has yet to be minted. It must persist\n    ///      for at least SETTLEMENT_PERIOD before it can be minted for real\n    struct PendingMint {\n        /// metadata is not stored, only the hash\n        bytes32 metadataHash;\n        /// journal hash\n        bytes32 journalHash;\n        /// block timestamp when proposal created\n        uint256 timestamp;\n    }\n\n    /// @dev The amount of time that must pass before a pending mint can be minted\n    uint256 public constant SETTLEMENT_PERIOD = 1 hours;\n\n    /// @dev Used to generate a fresh token ID for each token\n    uint256 private nonce;\n\n    /// @dev Mapping from token nonce to mintable status\n    mapping(uint256 => PendingMint) public pendingMints;\n\n    /// @dev The dispute game factory used to create and track open disputes\n    IDisputeGameFactory public disputeGameFactory;\n\n    event MintProposed(uint256 indexed id, uint256 timestamp);\n    event Minted(uint256 indexed id, address indexed to);\n\n    error MintProposalNotSettled(uint256 id);\n    error MetadataHashMismatch(uint256 id);\n\n    /**\n    * @dev Construct a new NFTCollection contract.\n     */\n    constructor(address disputeGameFactoryAddr) ERC1155(\"\") {\n        disputeGameFactory = IDisputeGameFactory(disputeGameFactoryAddr);\n        _setBaseURI(\"data:application/json;base64,\");\n    }\n\n    /**\n    * @dev Propose a new mint.\n    * @param metadataJson The string of metadata.json to associate with the token.\n    * @param journal The journal given as input to the provable program \n    *                to produce this metadata output.\n    *                This must be provided in calldata so watchers can replicate the computation\n    */\n    function ProposeMint(string calldata metadataJson, bytes calldata journal) external {\n        uint256 id = nonce++;\n        pendingMints[id] = PendingMint({\n            metadataHash: keccak256(bytes(metadataJson)),\n            journalHash: keccak256(journal),\n            timestamp: block.timestamp\n        });\n        emit MintProposed(id,  block.timestamp);\n    }\n\n    /**\n    * @dev Mint a new token with the given metadata.\n    * @param id The ID of the pending mint (will also be the ID of the token)\n    * @param metadataJson The string of metadata.json to associate with the token.\n    *                     Must match the hash stored in pending\n    */\n    function mint(address to, uint256 id, string memory metadataJson) external {\n        PendingMint storage proposal = pendingMints[id];\n\n        if (proposal.timestamp + SETTLEMENT_PERIOD <= block.timestamp)\n            revert MintProposalNotSettled(id);\n\n        if (proposal.metadataHash != keccak256(bytes(metadataJson)))\n            revert MetadataHashMismatch(id);\n\n        // TODO: Require no challenges are open\n\n        _mint(to, id, 1, \"\");\n        _setURI(id, Base64.encode(bytes(metadataJson)));\n\n        emit Minted(id, to);\n    }\n}\n",
  "sourcePath": "/Users/willem/repos/ProofBoy/contracts/NFTCollection.sol",
  "compiler": {
    "name": "solc",
    "version": "0.8.15+commit.e14f2714.Emscripten.clang"
  },
  "schemaVersion": "3.4.14",
  "updatedAt": "2023-08-04T01:54:51.046Z",
  "devdoc": {
    "kind": "dev",
    "methods": {
      "ProposeMint(string,bytes)": {
        "details": "Propose a new mint.",
        "params": {
          "journal": "The journal given as input to the provable program                 to produce this metadata output.                This must be provided in calldata so watchers can replicate the computation",
          "metadataJson": "The string of metadata.json to associate with the token."
        }
      },
      "balanceOf(address,uint256)": {
        "details": "See {IERC1155-balanceOf}. Requirements: - `account` cannot be the zero address."
      },
      "balanceOfBatch(address[],uint256[])": {
        "details": "See {IERC1155-balanceOfBatch}. Requirements: - `accounts` and `ids` must have the same length."
      },
      "constructor": {
        "details": "Construct a new NFTCollection contract."
      },
      "isApprovedForAll(address,address)": {
        "details": "See {IERC1155-isApprovedForAll}."
      },
      "mint(address,uint256,string)": {
        "details": "Mint a new token with the given metadata.",
        "params": {
          "id": "The ID of the pending mint (will also be the ID of the token)",
          "metadataJson": "The string of metadata.json to associate with the token.                     Must match the hash stored in pending"
        }
      },
      "safeBatchTransferFrom(address,address,uint256[],uint256[],bytes)": {
        "details": "See {IERC1155-safeBatchTransferFrom}."
      },
      "safeTransferFrom(address,address,uint256,uint256,bytes)": {
        "details": "See {IERC1155-safeTransferFrom}."
      },
      "setApprovalForAll(address,bool)": {
        "details": "See {IERC1155-setApprovalForAll}."
      },
      "supportsInterface(bytes4)": {
        "details": "See {IERC165-supportsInterface}."
      },
      "uri(uint256)": {
        "details": "See {IERC1155MetadataURI-uri}. This implementation returns the concatenation of the `_baseURI` and the token-specific uri if the latter is set This enables the following behaviors: - if `_tokenURIs[tokenId]` is set, then the result is the concatenation   of `_baseURI` and `_tokenURIs[tokenId]` (keep in mind that `_baseURI`   is empty per default); - if `_tokenURIs[tokenId]` is NOT set then we fallback to `super.uri()`   which in most cases will contain `ERC1155._uri`; - if `_tokenURIs[tokenId]` is NOT set, and if the parents do not have a   uri value set, then the result is empty."
      }
    },
    "stateVariables": {
      "SETTLEMENT_PERIOD": {
        "details": "The amount of time that must pass before a pending mint can be minted"
      },
      "disputeGameFactory": {
        "details": "The dispute game factory used to create and track open disputes"
      },
      "nonce": {
        "details": "Used to generate a fresh token ID for each token"
      },
      "pendingMints": {
        "details": "Mapping from token nonce to mintable status"
      }
    },
    "version": 1
  },
  "userdoc": {
    "kind": "user",
    "methods": {},
    "version": 1
  }
}