{
  "contractName": "PreimageOracle",
  "abi": [
    {
      "inputs": [],
      "name": "PartOffsetOOB",
      "type": "error"
    },
    {
      "inputs": [
        {
          "internalType": "bytes32",
          "name": "",
          "type": "bytes32"
        }
      ],
      "name": "preimageLengths",
      "outputs": [
        {
          "internalType": "uint256",
          "name": "",
          "type": "uint256"
        }
      ],
      "stateMutability": "view",
      "type": "function"
    },
    {
      "inputs": [
        {
          "internalType": "bytes32",
          "name": "",
          "type": "bytes32"
        },
        {
          "internalType": "uint256",
          "name": "",
          "type": "uint256"
        }
      ],
      "name": "preimagePartOk",
      "outputs": [
        {
          "internalType": "bool",
          "name": "",
          "type": "bool"
        }
      ],
      "stateMutability": "view",
      "type": "function"
    },
    {
      "inputs": [
        {
          "internalType": "bytes32",
          "name": "",
          "type": "bytes32"
        },
        {
          "internalType": "uint256",
          "name": "",
          "type": "uint256"
        }
      ],
      "name": "preimageParts",
      "outputs": [
        {
          "internalType": "bytes32",
          "name": "",
          "type": "bytes32"
        }
      ],
      "stateMutability": "view",
      "type": "function"
    },
    {
      "inputs": [
        {
          "internalType": "bytes32",
          "name": "_key",
          "type": "bytes32"
        },
        {
          "internalType": "uint256",
          "name": "_offset",
          "type": "uint256"
        }
      ],
      "name": "readPreimage",
      "outputs": [
        {
          "internalType": "bytes32",
          "name": "dat_",
          "type": "bytes32"
        },
        {
          "internalType": "uint256",
          "name": "datLen_",
          "type": "uint256"
        }
      ],
      "stateMutability": "view",
      "type": "function"
    },
    {
      "inputs": [
        {
          "internalType": "uint256",
          "name": "partOffset",
          "type": "uint256"
        },
        {
          "internalType": "bytes32",
          "name": "key",
          "type": "bytes32"
        },
        {
          "internalType": "bytes32",
          "name": "part",
          "type": "bytes32"
        },
        {
          "internalType": "uint256",
          "name": "size",
          "type": "uint256"
        }
      ],
      "name": "cheat",
      "outputs": [],
      "stateMutability": "nonpayable",
      "type": "function"
    },
    {
      "inputs": [
        {
          "internalType": "uint256",
          "name": "_ident",
          "type": "uint256"
        },
        {
          "internalType": "bytes32",
          "name": "_word",
          "type": "bytes32"
        },
        {
          "internalType": "uint256",
          "name": "_size",
          "type": "uint256"
        },
        {
          "internalType": "uint256",
          "name": "_partOffset",
          "type": "uint256"
        }
      ],
      "name": "loadLocalData",
      "outputs": [
        {
          "internalType": "bytes32",
          "name": "key_",
          "type": "bytes32"
        }
      ],
      "stateMutability": "nonpayable",
      "type": "function"
    },
    {
      "inputs": [
        {
          "internalType": "uint256",
          "name": "_partOffset",
          "type": "uint256"
        },
        {
          "internalType": "bytes",
          "name": "_preimage",
          "type": "bytes"
        }
      ],
      "name": "loadKeccak256PreimagePart",
      "outputs": [],
      "stateMutability": "nonpayable",
      "type": "function"
    }
  ],
  "bytecode": "0x608060405234801561001057600080fd5b50610a3d806100206000396000f3fe608060405234801561001057600080fd5b506004361061007d5760003560e01c8063e03110e11161005b578063e03110e114610112578063e159261114610143578063fe4ac08e1461015f578063fef2b4ed1461017b5761007d565b806361238bde146100825780638542cf50146100b25780639a1f5e7f146100e2575b600080fd5b61009c6004803603810190610097919061061e565b6101ab565b6040516100a9919061066d565b60405180910390f35b6100cc60048036038101906100c7919061061e565b6101d0565b6040516100d991906106a3565b60405180910390f35b6100fc60048036038101906100f791906106be565b6101ff565b604051610109919061066d565b60405180910390f35b61012c6004803603810190610127919061061e565b6102f8565b60405161013a929190610734565b60405180910390f35b61015d600480360381019061015891906107c2565b6103f0565b005b61017960048036038101906101749190610822565b6104c8565b005b61019560048036038101906101909190610889565b61054b565b6040516101a291906108b6565b60405180910390f35b6001602052816000526040600020602052806000526040600020600091509150505481565b60026020528160005260406000206020528060005260406000206000915091509054906101000a900460ff1681565b600061020a85610563565b90506008836102199190610900565b8211806102265750602083115b1561025d576040517ffe25498700000000000000000000000000000000000000000000000000000000815260040160405180910390fd5b6000806020528360c01b6000528460085282519050600160026000848152602001908152602001600020600085815260200190815260200160002060006101000a81548160ff0219169083151502179055508060016000848152602001908152602001600020600085815260200190815260200160002081905550836000808481526020019081526020016000208190555050949350505050565b60008060026000858152602001908152602001600020600084815260200190815260200160002060009054906101000a900460ff1661036c576040517f08c379a0000000000000000000000000000000000000000000000000000000008152600401610363906109b3565b60405180910390fd5b6020905060008060008681526020019081526020016000205490506008816103949190610900565b6020856103a19190610900565b106103c157836008826103b49190610900565b6103be91906109d3565b91505b600160008681526020019081526020016000206000858152602001908152602001600020549250509250929050565b60008060006044359250600883018611156104135763fe2549876000526004601cfd5b60808360c01b815260088101905083868237866008820301519150838120600260f81b60ff60f81b1982161793505050600160026000848152602001908152602001600020600088815260200190815260200160002060006101000a81548160ff02191690831515021790555080600160008481526020019081526020016000206000888152602001908152602001600020819055508260008084815260200190815260200160002081905550505050505050565b600160026000858152602001908152602001600020600086815260200190815260200160002060006101000a81548160ff0219169083151502179055508160016000858152602001908152602001600020600086815260200190815260200160002081905550806000808581526020019081526020016000208190555050505050565b60006020528060005260406000206000915090505481565b600060ff60f81b198216600160f81b17905061057e81610585565b9050919050565b60008160005233602052600160f81b60ff60f81b19604060002016179050919050565b600080fd5b600080fd5b6000819050919050565b6105c5816105b2565b81146105d057600080fd5b50565b6000813590506105e2816105bc565b92915050565b6000819050919050565b6105fb816105e8565b811461060657600080fd5b50565b600081359050610618816105f2565b92915050565b60008060408385031215610635576106346105a8565b5b6000610643858286016105d3565b925050602061065485828601610609565b9150509250929050565b610667816105b2565b82525050565b6000602082019050610682600083018461065e565b92915050565b60008115159050919050565b61069d81610688565b82525050565b60006020820190506106b86000830184610694565b92915050565b600080600080608085870312156106d8576106d76105a8565b5b60006106e687828801610609565b94505060206106f7878288016105d3565b935050604061070887828801610609565b925050606061071987828801610609565b91505092959194509250565b61072e816105e8565b82525050565b6000604082019050610749600083018561065e565b6107566020830184610725565b9392505050565b600080fd5b600080fd5b600080fd5b60008083601f8401126107825761078161075d565b5b8235905067ffffffffffffffff81111561079f5761079e610762565b5b6020830191508360018202830111156107bb576107ba610767565b5b9250929050565b6000806000604084860312156107db576107da6105a8565b5b60006107e986828701610609565b935050602084013567ffffffffffffffff81111561080a576108096105ad565b5b6108168682870161076c565b92509250509250925092565b6000806000806080858703121561083c5761083b6105a8565b5b600061084a87828801610609565b945050602061085b878288016105d3565b935050604061086c878288016105d3565b925050606061087d87828801610609565b91505092959194509250565b60006020828403121561089f5761089e6105a8565b5b60006108ad848285016105d3565b91505092915050565b60006020820190506108cb6000830184610725565b92915050565b7f4e487b7100000000000000000000000000000000000000000000000000000000600052601160045260246000fd5b600061090b826105e8565b9150610916836105e8565b9250827fffffffffffffffffffffffffffffffffffffffffffffffffffffffffffffffff0382111561094b5761094a6108d1565b5b828201905092915050565b600082825260208201905092915050565b7f7072652d696d616765206d757374206578697374000000000000000000000000600082015250565b600061099d601483610956565b91506109a882610967565b602082019050919050565b600060208201905081810360008301526109cc81610990565b9050919050565b60006109de826105e8565b91506109e9836105e8565b9250828210156109fc576109fb6108d1565b5b82820390509291505056fea2646970667358221220606fbb3f85f574406a4ce16a15cd061ccaac2af690144acd8cbc2d5dd86b9f9c64736f6c634300080f0033",
  "immutableReferences": {},
  "source": "// SPDX-License-Identifier: MIT\npragma solidity 0.8.15;\n\nimport { IPreimageOracle } from \"./interfaces/IPreimageOracle.sol\";\nimport { PreimageKeyLib } from \"./PreimageKeyLib.sol\";\nimport \"./libraries/CannonErrors.sol\";\n\n/// @title PreimageOracle\n/// @notice A contract for storing permissioned pre-images.\ncontract PreimageOracle is IPreimageOracle {\n    /// @notice Mapping of pre-image keys to pre-image lengths.\n    mapping(bytes32 => uint256) public preimageLengths;\n    /// @notice Mapping of pre-image keys to pre-image parts.\n    mapping(bytes32 => mapping(uint256 => bytes32)) public preimageParts;\n    /// @notice Mapping of pre-image keys to pre-image part offsets.\n    mapping(bytes32 => mapping(uint256 => bool)) public preimagePartOk;\n\n    /// @inheritdoc IPreimageOracle\n    function readPreimage(bytes32 _key, uint256 _offset)\n        external\n        view\n        returns (bytes32 dat_, uint256 datLen_)\n    {\n        require(preimagePartOk[_key][_offset], \"pre-image must exist\");\n\n        // Calculate the length of the pre-image data\n        // Add 8 for the length-prefix part\n        datLen_ = 32;\n        uint256 length = preimageLengths[_key];\n        if (_offset + 32 >= length + 8) {\n            datLen_ = length + 8 - _offset;\n        }\n\n        // Retrieve the pre-image data\n        dat_ = preimageParts[_key][_offset];\n    }\n\n    /// TODO(CLI-4104):\n    /// we need to mix-in the ID of the dispute for local-type keys to avoid collisions,\n    /// and restrict local pre-image insertion to the dispute-managing contract.\n    /// For now we permit anyone to write any pre-image unchecked, to make testing easy.\n    /// This method is DANGEROUS. And NOT FOR PRODUCTION.\n    function cheat(\n        uint256 partOffset,\n        bytes32 key,\n        bytes32 part,\n        uint256 size\n    ) external {\n        preimagePartOk[key][partOffset] = true;\n        preimageParts[key][partOffset] = part;\n        preimageLengths[key] = size;\n    }\n\n    /// @inheritdoc IPreimageOracle\n    function loadLocalData(\n        uint256 _ident,\n        bytes32 _word,\n        uint256 _size,\n        uint256 _partOffset\n    ) external returns (bytes32 key_) {\n        // Compute the localized key from the given local identifier.\n        key_ = PreimageKeyLib.localizeIdent(_ident);\n\n        // Revert if the given part offset is not within bounds.\n        if (_partOffset > _size + 8 || _size > 32) {\n            revert PartOffsetOOB();\n        }\n\n        // Prepare the local data part at the given offset\n        bytes32 part;\n        assembly {\n            // Clean the memory in [0x20, 0x40)\n            mstore(0x20, 0x00)\n\n            // Store the full local data in scratch space.\n            mstore(0x00, shl(192, _size))\n            mstore(0x08, _word)\n\n            // Prepare the local data part at the requested offset.\n            part := mload(_partOffset)\n        }\n\n        // Store the first part with `_partOffset`.\n        preimagePartOk[key_][_partOffset] = true;\n        preimageParts[key_][_partOffset] = part;\n        // Assign the length of the preimage at the localized key.\n        preimageLengths[key_] = _size;\n    }\n\n    /// @inheritdoc IPreimageOracle\n    function loadKeccak256PreimagePart(uint256 _partOffset, bytes calldata _preimage) external {\n        uint256 size;\n        bytes32 key;\n        bytes32 part;\n        assembly {\n            // len(sig) + len(partOffset) + len(preimage offset) = 4 + 32 + 32 = 0x44\n            size := calldataload(0x44)\n\n            // revert if part offset > size+8 (i.e. parts must be within bounds)\n            if gt(_partOffset, add(size, 8)) {\n                // Store \"PartOffsetOOB()\"\n                mstore(0, 0xfe254987)\n                // Revert with \"PartOffsetOOB()\"\n                revert(0x1c, 4)\n            }\n            // we leave solidity slots 0x40 and 0x60 untouched,\n            // and everything after as scratch-memory.\n            let ptr := 0x80\n            // put size as big-endian uint64 at start of pre-image\n            mstore(ptr, shl(192, size))\n            ptr := add(ptr, 8)\n            // copy preimage payload into memory so we can hash and read it.\n            calldatacopy(ptr, _preimage.offset, size)\n            // Note that it includes the 8-byte big-endian uint64 length prefix.\n            // this will be zero-padded at the end, since memory at end is clean.\n            part := mload(add(sub(ptr, 8), _partOffset))\n            let h := keccak256(ptr, size) // compute preimage keccak256 hash\n            // mask out prefix byte, replace with type 2 byte\n            key := or(and(h, not(shl(248, 0xFF))), shl(248, 2))\n        }\n        preimagePartOk[key][_partOffset] = true;\n        preimageParts[key][_partOffset] = part;\n        preimageLengths[key] = size;\n    }\n}\n",
  "sourcePath": "@eth-optimism/contracts-bedrock/src/cannon/PreimageOracle.sol",
  "compiler": {
    "name": "solc",
    "version": "0.8.15+commit.e14f2714.Emscripten.clang"
  },
  "schemaVersion": "3.4.14",
  "updatedAt": "2023-08-11T06:02:10.814Z",
  "devdoc": {
    "kind": "dev",
    "methods": {
      "loadKeccak256PreimagePart(uint256,bytes)": {
        "params": {
          "_partOffset": "The offset of the preimage to read.",
          "_preimage": "The preimage data."
        }
      },
      "loadLocalData(uint256,bytes32,uint256,uint256)": {
        "details": "The local data parts are loaded into the preimage oracle under the context      of the caller - no other account can write to the caller's context      specific data.      There are 5 local data identifiers:             Identifier       Data                                    1  L1 Head Hash (bytes32)                 2  Output Root (bytes32)                  3  Root Claim (bytes32)                   4  L2 Block Number (u64)                  5  Chain ID (u64)               ",
        "params": {
          "_ident": "The identifier of the local data.",
          "_partOffset": "The offset of the local data part to write to the oracle.",
          "_size": "The number of bytes in `_word` to load.",
          "_word": "The local data word."
        }
      },
      "readPreimage(bytes32,uint256)": {
        "params": {
          "_key": "The key of the preimage to read.",
          "_offset": "The offset of the preimage to read."
        },
        "returns": {
          "datLen_": "The length of the preimage data.",
          "dat_": "The preimage data."
        }
      }
    },
    "title": "PreimageOracle",
    "version": 1
  },
  "userdoc": {
    "errors": {
      "PartOffsetOOB()": [
        {
          "notice": "Thrown when a passed part offset is out of bounds."
        }
      ]
    },
    "kind": "user",
    "methods": {
      "cheat(uint256,bytes32,bytes32,uint256)": {
        "notice": "TODO(CLI-4104): we need to mix-in the ID of the dispute for local-type keys to avoid collisions, and restrict local pre-image insertion to the dispute-managing contract. For now we permit anyone to write any pre-image unchecked, to make testing easy. This method is DANGEROUS. And NOT FOR PRODUCTION."
      },
      "loadKeccak256PreimagePart(uint256,bytes)": {
        "notice": "Prepares a preimage to be read by keccak256 key, starting at         the given offset and up to 32 bytes (clipped at preimage length, if out of data)."
      },
      "loadLocalData(uint256,bytes32,uint256,uint256)": {
        "notice": "Loads of local data part into the preimage oracle."
      },
      "preimageLengths(bytes32)": {
        "notice": "Mapping of pre-image keys to pre-image lengths."
      },
      "preimagePartOk(bytes32,uint256)": {
        "notice": "Mapping of pre-image keys to pre-image part offsets."
      },
      "preimageParts(bytes32,uint256)": {
        "notice": "Mapping of pre-image keys to pre-image parts."
      },
      "readPreimage(bytes32,uint256)": {
        "notice": "Reads a preimage from the oracle."
      }
    },
    "notice": "A contract for storing permissioned pre-images.",
    "version": 1
  }
}