{
  "contractName": "VM",
  "abi": [
    {
      "inputs": [],
      "stateMutability": "nonpayable",
      "type": "constructor"
    },
    {
      "inputs": [],
      "name": "BRK_START",
      "outputs": [
        {
          "internalType": "uint32",
          "name": "",
          "type": "uint32"
        }
      ],
      "stateMutability": "view",
      "type": "function",
      "constant": true
    },
    {
      "inputs": [],
      "name": "oracle",
      "outputs": [
        {
          "internalType": "contract IPreimageOracle",
          "name": "",
          "type": "address"
        }
      ],
      "stateMutability": "view",
      "type": "function",
      "constant": true
    },
    {
      "inputs": [
        {
          "internalType": "bytes",
          "name": "stateData",
          "type": "bytes"
        },
        {
          "internalType": "bytes",
          "name": "proof",
          "type": "bytes"
        }
      ],
      "name": "step",
      "outputs": [
        {
          "internalType": "bytes32",
          "name": "",
          "type": "bytes32"
        }
      ],
      "stateMutability": "nonpayable",
      "type": "function"
    }
  ],
  "bytecode": "0x60806040523480156200001157600080fd5b50604051620000209062000083565b604051809103906000f0801580156200003d573d6000803e3d6000fd5b506000806101000a81548173ffffffffffffffffffffffffffffffffffffffff021916908373ffffffffffffffffffffffffffffffffffffffff16021790555062000091565b610a5d806200274b83390190565b6126aa80620000a16000396000f3fe608060405234801561001057600080fd5b50600436106100415760003560e01c8063155633fe146100465780637dc0d1d014610064578063f8e0cb9614610082575b600080fd5b61004e6100b2565b60405161005b91906120ee565b60405180910390f35b61006c6100ba565b6040516100799190612188565b60405180910390f35b61009c60048036038101906100979190612212565b6100de565b6040516100a991906122ac565b60405180910390f35b634000000081565b60008054906101000a900473ffffffffffffffffffffffffffffffffffffffff1681565b60006100e861200c565b608081146100f557600080fd5b60306020026040511461010757600080fd5b6064861461011457600080fd5b610166841461012257600080fd5b61014b565b60008082358560200360031b1c808552858401925060208501915050935093915050565b85608061015a60208284610127565b9150915061016a60208284610127565b9150915061017a60048284610127565b9150915061018a60048284610127565b9150915061019a60048284610127565b915091506101aa60048284610127565b915091506101ba60048284610127565b915091506101ca60048284610127565b915091506101da60018284610127565b915091506101ea60018284610127565b915091506101fa60088284610127565b9150915060208101815260208101905060005b60208110156102315761022260048385610127565b9250925060018101905061020d565b5050508061012001511561024f57610247610735565b91505061072d565b600181610140018181510191509067ffffffffffffffff16908167ffffffffffffffff1681525050600061028882606001516000610855565b90506000601a8263ffffffff16901c905060028163ffffffff1614806102b4575060038163ffffffff16145b15610301576102f760028263ffffffff16146102d157601f6102d4565b60005b60ff1660026102ea6303ffffff8616601a610931565b63ffffffff16901b6109a6565b935050505061072d565b6000806000601f60108663ffffffff16901c169050856101600151601f60158763ffffffff16901c1663ffffffff1660208110610341576103406122c7565b5b60200201519250600081905060008563ffffffff1614806103685750601c8563ffffffff16145b156103a7578661016001518263ffffffff166020811061038b5761038a6122c7565b5b60200201519250601f600b8763ffffffff16901c169050610467565b60208563ffffffff16101561040a57600c8563ffffffff1614806103d15750600d8563ffffffff16145b806103e25750600e8563ffffffff16145b156103f35761ffff86169250610405565b61040261ffff87166010610931565b92505b610466565b60288563ffffffff16101580610426575060228563ffffffff16145b80610437575060268563ffffffff16145b15610465578661016001518263ffffffff166020811061045a576104596122c7565b5b602002015192508190505b5b5b60048563ffffffff1610158015610484575060088563ffffffff16105b80610495575060018563ffffffff16145b156104b4576104a685878487610aa4565b97505050505050505061072d565b600063ffffffff9050600060208763ffffffff1610610525576104dc61ffff89166010610931565b86019550600063fffffffc871690506104f6816001610855565b915060288863ffffffff1610158015610516575060308863ffffffff1614155b1561052357809250600093505b505b600063ffffffff6105388a898986610ccf565b1690506000603f8a16905060008963ffffffff16148015610560575060088163ffffffff1610155b80156105725750601c8163ffffffff16105b1561069b5760088163ffffffff161480610592575060098163ffffffff16145b156105c9576105b760088263ffffffff16146105ae57856105b1565b60005b896109a6565b9b50505050505050505050505061072d565b600a8163ffffffff16036105fd576105eb858960008a63ffffffff16146114bb565b9b50505050505050505050505061072d565b600b8163ffffffff160361063257610620858960008a63ffffffff1614156114bb565b9b50505050505050505050505061072d565b600c8163ffffffff160361065a576106486115af565b9b50505050505050505050505061072d565b60108163ffffffff16101580156106775750601c8163ffffffff16105b1561069a5761068881898988611bde565b9b50505050505050505050505061072d565b5b60388963ffffffff161480156106b8575060008663ffffffff1614155b156106f55760018b61016001518763ffffffff16602081106106dd576106dc6122c7565b5b602002019063ffffffff16908163ffffffff16815250505b63ffffffff8463ffffffff16146107135761071284600184611ebd565b5b61071f858360016114bb565b9b5050505050505050505050505b949350505050565b600061075b565b6000808460200383015184526020830191508484019050935093915050565b60806040518061076d6020828561073c565b9150925061077d6020828561073c565b9150925061078d6004828561073c565b9150925061079d6004828561073c565b915092506107ad6004828561073c565b915092506107bd6004828561073c565b915092506107cd6004828561073c565b915092506107dd6004828561073c565b915092506107ed6001828561073c565b915092506107fd6001828561073c565b9150925061080d6008828561073c565b9150925060208301925060005b602081101561083e5761082f6004838661073c565b9250935060018101905061081a565b506000815281810382a08181038220935050505090565b60008061086183611f87565b9050600384161561087157600080fd5b8035602082019150610895565b600081600052826020526040600020905092915050565b8460051c8160005b601b8110156108f4578435602086019550600184831c16600081146108c957600181146108da576108e7565b6108d3828561087e565b93506108e7565b6108e4848361087e565b93505b505060018101905061089d565b5060805180821461090d57630badf00d60005260206000fd5b601f881660046020030360031b63ffffffff85821c16965050505050505092915050565b60008060006001840363ffffffff168563ffffffff16901c63ffffffff161415905060008363ffffffff1660018560200363ffffffff166001901b03901b9050600060018563ffffffff166001901b0390508261098f576000610991565b815b818763ffffffff161617935050505092915050565b60006109b061200c565b60809050600481606001510163ffffffff16816080015163ffffffff1614610a0d576040517f08c379a0000000000000000000000000000000000000000000000000000000008152600401610a0490612353565b60405180910390fd5b6000816060015190508160800151826060019063ffffffff16908163ffffffff168152505083826080019063ffffffff16908163ffffffff168152505060008563ffffffff1614610a9257600881018261016001518663ffffffff1660208110610a7a57610a796122c7565b5b602002019063ffffffff16908163ffffffff16815250505b610a9a610735565b9250505092915050565b6000610aae61200c565b608090506000600482606001510163ffffffff16826080015163ffffffff1614610b0d576040517f08c379a0000000000000000000000000000000000000000000000000000000008152600401610b04906123bf565b60405180910390fd5b60048763ffffffff161480610b28575060058763ffffffff16145b15610ba65760008261016001518663ffffffff1660208110610b4d57610b4c6122c7565b5b602002015190508063ffffffff168563ffffffff16148015610b75575060048863ffffffff16145b80610b9e57508063ffffffff168563ffffffff1614158015610b9d575060058863ffffffff16145b5b915050610c35565b60068763ffffffff1603610bc35760008460030b13159050610c34565b60078763ffffffff1603610bdf5760008460030b139050610c33565b60018763ffffffff1603610c32576000601f60108863ffffffff16901c16905060008163ffffffff1603610c175760008560030b1291505b60018163ffffffff1603610c305760008560030b121591505b505b5b5b5b6000826060015190508260800151836060019063ffffffff16908163ffffffff16815250508115610c9a576002610c7161ffff89166010610931565b63ffffffff16901b6004820101836080019063ffffffff16908163ffffffff1681525050610cba565b6004836080015101836080019063ffffffff16908163ffffffff16815250505b610cc2610735565b9350505050949350505050565b600080601a8663ffffffff16901c90506000603f8716905060208263ffffffff16101561110e5760088263ffffffff1610158015610d135750600f8263ffffffff16105b15610dc05760088263ffffffff1603610d2f5760209050610dbb565b60098263ffffffff1603610d465760219050610dba565b600a8263ffffffff1603610d5d57602a9050610db9565b600b8263ffffffff1603610d7457602b9050610db8565b600c8263ffffffff1603610d8b5760249050610db7565b600d8263ffffffff1603610da25760259050610db6565b600e8263ffffffff1603610db557602690505b5b5b5b5b5b5b600091505b60008263ffffffff160361104e576000601f60068963ffffffff16901c16905060208263ffffffff161015610f175760088263ffffffff1610610e08578693505050506114b3565b60008263ffffffff1603610e30578063ffffffff168663ffffffff16901b93505050506114b3565b60028263ffffffff1603610e58578063ffffffff168663ffffffff16901c93505050506114b3565b60038263ffffffff1603610e8c57610e828163ffffffff168763ffffffff16901c82602003610931565b93505050506114b3565b60048263ffffffff1603610eb757601f871663ffffffff168663ffffffff16901b93505050506114b3565b60068263ffffffff1603610ee257601f871663ffffffff168663ffffffff16901c93505050506114b3565b60078263ffffffff1603610f1657610f0c8763ffffffff168763ffffffff16901c88602003610931565b93505050506114b3565b5b60208263ffffffff161480610f32575060218263ffffffff16145b15610f445785870193505050506114b3565b60228263ffffffff161480610f5f575060238263ffffffff16145b15610f715785870393505050506114b3565b60248263ffffffff1603610f8c5785871693505050506114b3565b60258263ffffffff1603610fa75785871793505050506114b3565b60268263ffffffff1603610fc25785871893505050506114b3565b60278263ffffffff1603610fde578587171993505050506114b3565b602a8263ffffffff1603611010578560030b8760030b12611000576000611003565b60015b60ff1693505050506114b3565b602b8263ffffffff1603611048578563ffffffff168763ffffffff161061103857600061103b565b60015b60ff1693505050506114b3565b50611109565b600f8263ffffffff16036110705760108563ffffffff16901b925050506114b3565b601c8263ffffffff16036111085760028163ffffffff160361109857848602925050506114b3565b60208163ffffffff1614806110b3575060218163ffffffff16145b156111075760208163ffffffff16036110cb57851995505b60005b60006380000000881663ffffffff16146110fc57808060010191505060018763ffffffff16901b96506110ce565b8093505050506114b3565b5b5b611478565b60288263ffffffff1610156112c85760208263ffffffff160361115a5761115160ff6008600389160260180363ffffffff168663ffffffff16901c166008610931565b925050506114b3565b60218263ffffffff16036111985761118f61ffff6008600289160260100363ffffffff168663ffffffff16901c166010610931565b925050506114b3565b60228263ffffffff16036111eb5760006008600388160263ffffffff168563ffffffff16901b905060006008600389160263ffffffff1663ffffffff8016901b90508181198816179450505050506114b3565b60238263ffffffff16036112035783925050506114b3565b60248263ffffffff16036112365760ff6008600388160260180363ffffffff168563ffffffff16901c16925050506114b3565b60258263ffffffff160361126a5761ffff6008600288160260100363ffffffff168563ffffffff16901c16925050506114b3565b60268263ffffffff16036112c35760006008600388160260180363ffffffff168563ffffffff16901c905060006008600389160260180363ffffffff1663ffffffff8016901c90508181198816179450505050506114b3565b611477565b60288263ffffffff16036113245760006008600388160260180363ffffffff1660ff871663ffffffff16901b905060006008600389160260180363ffffffff1660ff901b63ffffffff18905081818716179450505050506114b3565b60298263ffffffff16036113825760006008600288160260100363ffffffff1661ffff871663ffffffff16901b905060006008600289160260100363ffffffff1661ffff901b63ffffffff18905081818716179450505050506114b3565b602a8263ffffffff16036113d55760006008600388160263ffffffff168663ffffffff16901c905060006008600389160263ffffffff1663ffffffff8016901c90508181198716179450505050506114b3565b602b8263ffffffff16036113ed5784925050506114b3565b602e8263ffffffff16036114465760006008600388160260180363ffffffff168663ffffffff16901b905060006008600389160260180363ffffffff1663ffffffff8016901b90508181198716179450505050506114b3565b60308263ffffffff160361145e5783925050506114b3565b60388263ffffffff16036114765784925050506114b3565b5b5b6040517f08c379a00000000000000000000000000000000000000000000000000000000081526004016114aa9061242b565b60405180910390fd5b949350505050565b60006114c561200c565b6080905060208563ffffffff1610611512576040517f08c379a000000000000000000000000000000000000000000000000000000000815260040161150990612497565b60405180910390fd5b60008563ffffffff16141580156115265750825b1561156257838161016001518663ffffffff166020811061154a576115496122c7565b5b602002019063ffffffff16908163ffffffff16815250505b8060800151816060019063ffffffff16908163ffffffff16815250506004816080015101816080019063ffffffff16908163ffffffff16815250506115a5610735565b9150509392505050565b60006115b961200c565b6080905060008161016001516002602081106115d8576115d76122c7565b5b6020020151905060008060008461016001516004602081106115fd576115fc6122c7565b5b60200201519050600085610160015160056020811061161f5761161e6122c7565b5b602002015190506000866101600151600660208110611641576116406122c7565b5b60200201519050610ffa8663ffffffff16036116be5760008290506000610fff821663ffffffff161461167c57610fff811661100003810190505b60008463ffffffff16036116b4578760e001519550808860e0018181510191509063ffffffff16908163ffffffff16815250506116b8565b8395505b50611b2c565b610fcd8663ffffffff16036116d95763400000009450611b2b565b6110188663ffffffff16036116f15760019450611b2a565b6110968663ffffffff160361173b576001876101200190151590811515815250508287610100019060ff16908160ff168152505061172d610735565b975050505050505050611bdb565b610fa38663ffffffff160361193857600063ffffffff168363ffffffff16031561193357600563ffffffff168363ffffffff160361190957600061178663fffffffc84166001610855565b90506000886020015190506001816000602081106117a7576117a66122c7565b5b1a60f81b60f81c60ff16036117c2576117bf81611fe9565b90505b60008060008054906101000a900473ffffffffffffffffffffffffffffffffffffffff1673ffffffffffffffffffffffffffffffffffffffff1663e03110e1848d604001516040518363ffffffff1660e01b81526004016118249291906124f2565b6040805180830381865afa158015611840573d6000803e3d6000fd5b505050506040513d601f19601f820116820180604052508101906118649190612573565b9150915060038616806004038281101561187c578092505b82871015611888578692505b8360088402610100031c9350836008838560040303021b9350600180600884600403021b036001806008868660040303021b038019821691508582198916179750505050506118df63fffffffc8716600186611ebd565b808b6040018181510191509063ffffffff16908163ffffffff168152505080985050505050611932565b600363ffffffff168363ffffffff160361192557809450611931565b63ffffffff9450600993505b5b5b611b29565b610fa48663ffffffff1603611a3c57600163ffffffff168363ffffffff16148061196e5750600263ffffffff168363ffffffff16145b806119855750600463ffffffff168363ffffffff16145b1561199257809450611a37565b600663ffffffff168363ffffffff1603611a2a5760006119b963fffffffc84166001610855565b90506000886020015190506003841680600403848110156119d8578094505b82600886021b9250600180600887021b0380856008888503021c1694508484179350505050808960200181815250506000896040019063ffffffff16908163ffffffff16815250508296505050611a36565b63ffffffff9450600993505b5b611b28565b610fd78663ffffffff1603611b275760038263ffffffff1603611b1a57600063ffffffff168363ffffffff161480611a805750600563ffffffff168363ffffffff16145b80611a975750600363ffffffff168363ffffffff16145b15611aa55760009450611b15565b600163ffffffff168363ffffffff161480611acc5750600263ffffffff168363ffffffff16145b80611ae35750600663ffffffff168363ffffffff16145b80611afa5750600463ffffffff168363ffffffff16145b15611b085760019450611b14565b63ffffffff9450600993505b5b611b26565b63ffffffff9450601693505b5b5b5b5b5b5b84876101600151600260208110611b4657611b456122c7565b5b602002019063ffffffff16908163ffffffff168152505083876101600151600760208110611b7757611b766122c7565b5b602002019063ffffffff16908163ffffffff16815250508660800151876060019063ffffffff16908163ffffffff16815250506004876080015101876080019063ffffffff16908163ffffffff1681525050611bd1610735565b9750505050505050505b90565b6000611be861200c565b60809050600060108763ffffffff1603611c08578160c001519050611e29565b60118763ffffffff1603611c3357858260c0019063ffffffff16908163ffffffff1681525050611e28565b60128763ffffffff1603611c4d578160a001519050611e27565b60138763ffffffff1603611c7857858260a0019063ffffffff16908163ffffffff1681525050611e26565b60188763ffffffff1603611cd75760008560030b8760030b02905060208167ffffffffffffffff16901c8360c0019063ffffffff16908163ffffffff1681525050808360a0019063ffffffff16908163ffffffff168152505050611e25565b60198763ffffffff1603611d3c5760008563ffffffff168763ffffffff1602905060208167ffffffffffffffff16901c8360c0019063ffffffff16908163ffffffff1681525050808360a0019063ffffffff16908163ffffffff168152505050611e24565b601a8763ffffffff1603611dab578460030b8660030b81611d6057611d5f6125b3565b5b078260c0019063ffffffff16908163ffffffff16815250508460030b8660030b81611d8e57611d8d6125b3565b5b058260a0019063ffffffff16908163ffffffff1681525050611e23565b601b8763ffffffff1603611e22578463ffffffff168663ffffffff1681611dd557611dd46125b3565b5b068260c0019063ffffffff16908163ffffffff16815250508463ffffffff168663ffffffff1681611e0957611e086125b3565b5b048260a0019063ffffffff16908163ffffffff16815250505b5b5b5b5b5b5b5b60008463ffffffff1614611e6e57808261016001518563ffffffff1660208110611e5657611e556122c7565b5b602002019063ffffffff16908163ffffffff16815250505b8160800151826060019063ffffffff16908163ffffffff16815250506004826080015101826080019063ffffffff16908163ffffffff1681525050611eb1610735565b92505050949350505050565b6000611ec883611f87565b90506003841615611ed857600080fd5b8035601f851660046020030360031b83811b63ffffffff821b198316179150602083019250611f19565b600081600052826020526040600020905092915050565b8560051c8260005b601b811015611f78578535602087019650600184831c1660008114611f4d5760018114611f5e57611f6b565b611f578285611f02565b9350611f6b565b611f688483611f02565b93505b5050600181019050611f21565b50806080525050505050505050565b60006103808260ff160261016601905060003690506103808201811015611fe3576040517f08c379a0000000000000000000000000000000000000000000000000000000008152600401611fda90612654565b60405180910390fd5b50919050565b60008160005233602052600160f81b60ff60f81b19604060002016179050919050565b6040518061018001604052806000801916815260200160008019168152602001600063ffffffff168152602001600063ffffffff168152602001600063ffffffff168152602001600063ffffffff168152602001600063ffffffff168152602001600063ffffffff168152602001600060ff168152602001600015158152602001600067ffffffffffffffff1681526020016120a66120ac565b81525090565b604051806104000160405280602090602082028036833780820191505090505090565b600063ffffffff82169050919050565b6120e8816120cf565b82525050565b600060208201905061210360008301846120df565b92915050565b600073ffffffffffffffffffffffffffffffffffffffff82169050919050565b6000819050919050565b600061214e61214961214484612109565b612129565b612109565b9050919050565b600061216082612133565b9050919050565b600061217282612155565b9050919050565b61218281612167565b82525050565b600060208201905061219d6000830184612179565b92915050565b600080fd5b600080fd5b600080fd5b600080fd5b600080fd5b60008083601f8401126121d2576121d16121ad565b5b8235905067ffffffffffffffff8111156121ef576121ee6121b2565b5b60208301915083600182028301111561220b5761220a6121b7565b5b9250929050565b6000806000806040858703121561222c5761222b6121a3565b5b600085013567ffffffffffffffff81111561224a576122496121a8565b5b612256878288016121bc565b9450945050602085013567ffffffffffffffff811115612279576122786121a8565b5b612285878288016121bc565b925092505092959194509250565b6000819050919050565b6122a681612293565b82525050565b60006020820190506122c1600083018461229d565b92915050565b7f4e487b7100000000000000000000000000000000000000000000000000000000600052603260045260246000fd5b600082825260208201905092915050565b7f6a756d7020696e2064656c617920736c6f740000000000000000000000000000600082015250565b600061233d6012836122f6565b915061234882612307565b602082019050919050565b6000602082019050818103600083015261236c81612330565b9050919050565b7f6272616e636820696e2064656c617920736c6f74000000000000000000000000600082015250565b60006123a96014836122f6565b91506123b482612373565b602082019050919050565b600060208201905081810360008301526123d88161239c565b9050919050565b7f696e76616c696420696e737472756374696f6e00000000000000000000000000600082015250565b60006124156013836122f6565b9150612420826123df565b602082019050919050565b6000602082019050818103600083015261244481612408565b9050919050565b7f76616c6964207265676973746572000000000000000000000000000000000000600082015250565b6000612481600e836122f6565b915061248c8261244b565b602082019050919050565b600060208201905081810360008301526124b081612474565b9050919050565b6000819050919050565b60006124dc6124d76124d2846120cf565b612129565b6124b7565b9050919050565b6124ec816124c1565b82525050565b6000604082019050612507600083018561229d565b61251460208301846124e3565b9392505050565b61252481612293565b811461252f57600080fd5b50565b6000815190506125418161251b565b92915050565b612550816124b7565b811461255b57600080fd5b50565b60008151905061256d81612547565b92915050565b6000806040838503121561258a576125896121a3565b5b600061259885828601612532565b92505060206125a98582860161255e565b9150509250929050565b7f4e487b7100000000000000000000000000000000000000000000000000000000600052601260045260246000fd5b7f636865636b207468617420746865726520697320656e6f7567682063616c6c6460008201527f6174610000000000000000000000000000000000000000000000000000000000602082015250565b600061263e6023836122f6565b9150612649826125e2565b604082019050919050565b6000602082019050818103600083015261266d81612631565b905091905056fea26469706673582212206cc031c7f0647c6d835e46284464819ac1be7c13d2a5e43da91c438e53d82f5b64736f6c634300080f0033608060405234801561001057600080fd5b50610a3d806100206000396000f3fe608060405234801561001057600080fd5b506004361061007d5760003560e01c8063e03110e11161005b578063e03110e114610112578063e159261114610143578063fe4ac08e1461015f578063fef2b4ed1461017b5761007d565b806361238bde146100825780638542cf50146100b25780639a1f5e7f146100e2575b600080fd5b61009c6004803603810190610097919061061e565b6101ab565b6040516100a9919061066d565b60405180910390f35b6100cc60048036038101906100c7919061061e565b6101d0565b6040516100d991906106a3565b60405180910390f35b6100fc60048036038101906100f791906106be565b6101ff565b604051610109919061066d565b60405180910390f35b61012c6004803603810190610127919061061e565b6102f8565b60405161013a929190610734565b60405180910390f35b61015d600480360381019061015891906107c2565b6103f0565b005b61017960048036038101906101749190610822565b6104c8565b005b61019560048036038101906101909190610889565b61054b565b6040516101a291906108b6565b60405180910390f35b6001602052816000526040600020602052806000526040600020600091509150505481565b60026020528160005260406000206020528060005260406000206000915091509054906101000a900460ff1681565b600061020a85610563565b90506008836102199190610900565b8211806102265750602083115b1561025d576040517ffe25498700000000000000000000000000000000000000000000000000000000815260040160405180910390fd5b6000806020528360c01b6000528460085282519050600160026000848152602001908152602001600020600085815260200190815260200160002060006101000a81548160ff0219169083151502179055508060016000848152602001908152602001600020600085815260200190815260200160002081905550836000808481526020019081526020016000208190555050949350505050565b60008060026000858152602001908152602001600020600084815260200190815260200160002060009054906101000a900460ff1661036c576040517f08c379a0000000000000000000000000000000000000000000000000000000008152600401610363906109b3565b60405180910390fd5b6020905060008060008681526020019081526020016000205490506008816103949190610900565b6020856103a19190610900565b106103c157836008826103b49190610900565b6103be91906109d3565b91505b600160008681526020019081526020016000206000858152602001908152602001600020549250509250929050565b60008060006044359250600883018611156104135763fe2549876000526004601cfd5b60808360c01b815260088101905083868237866008820301519150838120600260f81b60ff60f81b1982161793505050600160026000848152602001908152602001600020600088815260200190815260200160002060006101000a81548160ff02191690831515021790555080600160008481526020019081526020016000206000888152602001908152602001600020819055508260008084815260200190815260200160002081905550505050505050565b600160026000858152602001908152602001600020600086815260200190815260200160002060006101000a81548160ff0219169083151502179055508160016000858152602001908152602001600020600086815260200190815260200160002081905550806000808581526020019081526020016000208190555050505050565b60006020528060005260406000206000915090505481565b600060ff60f81b198216600160f81b17905061057e81610585565b9050919050565b60008160005233602052600160f81b60ff60f81b19604060002016179050919050565b600080fd5b600080fd5b6000819050919050565b6105c5816105b2565b81146105d057600080fd5b50565b6000813590506105e2816105bc565b92915050565b6000819050919050565b6105fb816105e8565b811461060657600080fd5b50565b600081359050610618816105f2565b92915050565b60008060408385031215610635576106346105a8565b5b6000610643858286016105d3565b925050602061065485828601610609565b9150509250929050565b610667816105b2565b82525050565b6000602082019050610682600083018461065e565b92915050565b60008115159050919050565b61069d81610688565b82525050565b60006020820190506106b86000830184610694565b92915050565b600080600080608085870312156106d8576106d76105a8565b5b60006106e687828801610609565b94505060206106f7878288016105d3565b935050604061070887828801610609565b925050606061071987828801610609565b91505092959194509250565b61072e816105e8565b82525050565b6000604082019050610749600083018561065e565b6107566020830184610725565b9392505050565b600080fd5b600080fd5b600080fd5b60008083601f8401126107825761078161075d565b5b8235905067ffffffffffffffff81111561079f5761079e610762565b5b6020830191508360018202830111156107bb576107ba610767565b5b9250929050565b6000806000604084860312156107db576107da6105a8565b5b60006107e986828701610609565b935050602084013567ffffffffffffffff81111561080a576108096105ad565b5b6108168682870161076c565b92509250509250925092565b6000806000806080858703121561083c5761083b6105a8565b5b600061084a87828801610609565b945050602061085b878288016105d3565b935050604061086c878288016105d3565b925050606061087d87828801610609565b91505092959194509250565b60006020828403121561089f5761089e6105a8565b5b60006108ad848285016105d3565b91505092915050565b60006020820190506108cb6000830184610725565b92915050565b7f4e487b7100000000000000000000000000000000000000000000000000000000600052601160045260246000fd5b600061090b826105e8565b9150610916836105e8565b9250827fffffffffffffffffffffffffffffffffffffffffffffffffffffffffffffffff0382111561094b5761094a6108d1565b5b828201905092915050565b600082825260208201905092915050565b7f7072652d696d616765206d757374206578697374000000000000000000000000600082015250565b600061099d601483610956565b91506109a882610967565b602082019050919050565b600060208201905081810360008301526109cc81610990565b9050919050565b60006109de826105e8565b91506109e9836105e8565b9250828210156109fc576109fb6108d1565b5b82820390509291505056fea2646970667358221220606fbb3f85f574406a4ce16a15cd061ccaac2af690144acd8cbc2d5dd86b9f9c64736f6c634300080f0033",
  "immutableReferences": {},
  "source": "//SPDX-License-Identifier: MIT\npragma solidity ^0.8.15;\n\nimport { MIPS } from \"@eth-optimism/contracts-bedrock/src/cannon/MIPS.sol\";\nimport { PreimageOracle } from \"@eth-optimism/contracts-bedrock/src/cannon/PreimageOracle.sol\";\n\ncontract VM is MIPS {\n    constructor() {\n        oracle = new PreimageOracle();\n    }\n}\n",
  "sourcePath": "/Users/willem/repos/ProofBoy/contracts/VM.sol",
  "compiler": {
    "name": "solc",
    "version": "0.8.15+commit.e14f2714.Emscripten.clang"
  },
  "schemaVersion": "3.4.14",
  "updatedAt": "2023-08-10T09:01:56.510Z",
  "networkType": "ethereum",
  "devdoc": {
    "kind": "dev",
    "methods": {},
    "version": 1
  },
  "userdoc": {
    "kind": "user",
    "methods": {
      "BRK_START()": {
        "notice": "Start of the data segment."
      },
      "oracle()": {
        "notice": "The pre-image oracle."
      },
      "step(bytes,bytes)": {
        "notice": "Executes a single step of the vm.         Will revert if any required input state is missing."
      }
    },
    "version": 1
  }
}